:1000000000000320D101000025820000DD810000F6
:10001000DD810000DD810000DD810000DD81000068
:10002000DD810000DD810000DD810000258200000F
:1000300025820000DD810000D9950000DD950000DB
:100040002582000025820000258200002582000014
:100050002582000025820000258200002582000004
:1000600025820000258200002582000025820000F4
:1000700025820000258200002582000025820000E4
:1000800025820000258200002582000025820000D4
:1000900025820000258200002582000025820000C4
:1000A000414A00004D4A00002582000025820000E0
:1000B000258200002582000025820000B1A20000F8
:1000C0002582000025820000258200002582000094
:1000D0002582000025820000258200002582000084
:1000E0002582000025820000258200002582000074
:1000F0002582000025820000258200002582000064
:100100002582000025820000258200002582000053
:1001100025820000ED870000258200002582000076
:100120002582000025820000258200002582000033
:100130002582000025820000258200002582000023
:100140002582000025820000258200002582000013
:100150002582000025820000258200002582000003
:100160002582000025820000594A000025820000F7
:1001700025820000258200002582000025820000E3
:1001800025820000258200002582000025820000D3
:1001900025820000258200002582000025820000C3
:1001A000258200002582000025820000654A0000AB
:1001B00025820000258200002582000025820000A3
:1001C0002582000025820000258200002582000093
:1001D0005C4B4CF2205210B51A804DF628121A8052
:1001E00000BF00BF08F022F8574B4FF030621A6092
:1001F000564A9A60564ADA60564B4FF470021A60BB
:10020000554B564A1A60564B1A78110703D51A787F
:1002100042F008021A70534B5349AA221A70534AEB
:10022000534B8B4204D252F8040F43F8040BF8E707
:10023000504B514900228B4202D243F8042BFAE77B
:100240004E494F4A002352F8230041F8230001335E
:10025000742BF8D14B4B4C4A802103F8011B93427D
:10026000FBD14A4B454A1A60494B8A221A70A3F5C2
:10027000805324225A70A0221A709A799207FCD5D2
:100280009A79D406FCD4434A937903F00C03082BE3
:10029000FAD1414B60221A7002331A78802AFCD1BD
:1002A0003C4B01221A715D225A719A799006FCD555
:1002B0009979384A4906FBD5384B394919600021EC
:1002C000596020231370937903F00C030C2BFAD19F
:1002D000344B354A1A60354A354C136813F4807331
:1002E00003D123604FF4A8531360324B324A1A6093
:1002F00000225A60072243F8042C304AC3F80C2D20
:1003000062B608F003F92368DA0705D52C4808F02F
:1003100067F82C4B2C4A1A602C4B1B785B0609D5CE
:10032000284C294B22689A4204D1254808F058F8F5
:100330000023236007F080FF0DF030F909F07CFA0C
:10034000FEE700BF0E20054030800440823F0400DD
:100350000100002B88ED00E0002008E0030000858C
:1003600002D0074000E00740DC1AFF1FB8E700009A
:100370003007FF1F0020FF1FAC4D00200002FF1FB1
:100380000000000000E400E064E400E008ED00E0AC
:10039000005006400040064001E007404480044011
:1003A0000000060204800440C010070010D0034083
:1003B00014D0034014E000E01FBF02000000202022
:1003C000A97D0E631CE00340A5C3945A00F00740CA
:1003D000FFFFFFFFFFFFFFFFFFFFFFFFFFFFFFFF2D
:1003E000FFFFFFFFFFFFFFFFFFFFFFFFFFFFFFFF1D
:1003F000FFFFFFFFFFFFFFFFFFFFFFFFFFFFFFFF0D
:10040000FFFFFFFFFFFFFFFFFFFFFFFFDEF9FFFF23
:1004100010B5054C237833B9044B13B10448AFF33E
:1004200000800123237010BD0020FF1F000000008A
:10043000B4E70000084B10B51BB108490848AFF3FA
:1004400000800848036803B910BD074B002BFBD0A0
:10045000BDE81040184700BF000000000420FF1F47
:10046000B4E70000DC1AFF1F00000000704700BF67
:10047000704700BF704700BFFF2800D97047064B88
:10048000064910B504462246186903F05FFF044B85
:10049000E0B2187010BD00BF343500208009002084
:1004A00030EAFF1F00B5012183B0022007F0ACFF46
:1004B000044A054B12680192019A1A6003B05DF874
:1004C00004FB00BF884B002064EAFF1FF0B5B1F1C8
:1004D000000E27DB154F3E5CB64523DC12F1800F82
:1004E00020D0BEF1070F1EDC11490EF18045013D01
:1004F00005EBC00501EB401301EB85051C3353F8F8
:10050000044C43F80449AB42F9D10136082E094B9B
:10051000A8BF0826F6B20EEBC00E3E541E5441F89A
:100520002E20F0BDF0BD0249EFE700BF5C160020B1
:100530005011002010EBFF1F00291ADB30B40E4DC4
:100540002C5CA14214DC07290CDC0C4B01EBC00134
:10055000421C03EB810103EB42124B6841F8043B60
:100560009142FAD1631E2CB1DBB2054A2B541354CD
:1005700030BC70470023F8E75C16002050110020C3
:1005800010EBFF1F10B40B4A002302EB401252F88D
:10059000044B8C4205D00133082BF8D15DF8044B95
:1005A0007047C2B2072AF9D859B240B25DF8044B7D
:1005B000FFF7C2BF5011002000290ADB054B1B5C6E
:1005C000994206DC002A04DB01EBC001024B43F830
:1005D000212070475C1600205011002043010A4979
:1005E00003F1200210B40A440B44002443F8044BE6
:1005F00093424FF00001F9D1044A054B11541954AC
:100600005DF8044B704700BF501100205C160020BD
:1006100010EBFF1F2DE9F041B0F1000828DD154B6C
:10062000154D93F800C00CF18044013C0CF1FF37EC
:1006300005EB84040CF1070C0026002F2868D5F880
:1006400020E00CDD0C4B03F1200253F8041F43F8AB
:10065000041C52F8041F42F8041CA342F5D10136D1
:10066000B04545F8270045F82CE0E6D1BDE8F0811B
:10067000BDE8F0810CEBFF1FA4E9FF1F2DE9F0039B
:10068000B0F1000821DD124B124D93F800C0002696
:100690000CF1FF3705EB8C090CF1070C002F55F816
:1006A000270055F82C100BDD4B463A4653F8084C02
:1006B00043F8044C013A9C69DC61A3F10403F5D1D1
:1006C0000136B04528602962E8D1BDE8F0037047E3
:1006D0000CEBFF1FA4E9FF1F70B4124E4501741903
:1006E000002314F813208A4204D00133102BF8D1D0
:1006F00070BC704703EB001206EB42020133354435
:10070000002401E001330232082B07D09078D17821
:100710001070102B5170F5D170BC7047AC73EC7336
:10072000F0E700BF500F0020094B78B101221A708A
:10073000084B002203F5007003F120011A705A7073
:1007400002338B42FAD19842F6D170471870EFE726
:100750003C07FF1F500F00202DE9F043012189B015
:10076000032007F057FE6B4F6B4D6C4CDFF8F09198
:100770000121022007F04EFE694B797B3869049312
:10078000122300260122029313230592039600965A
:1007900001933F2303F03AFD624B63481E703146DC
:1007A0004FF480720DF0EAF93B696049604A2E68A7
:1007B000604FC3F86812C3F86C2240F2EE2804E0E0
:1007C000B3F5FA6F15D809F05BF809F059F82378FA
:1007D00043B13B78DB0705D52B68D9F800209B1A7D
:1007E0000E2B06D82B6822789B1B002AE8D14345A4
:1007F000E9D9514E514F736D1868036847F61221BD
:10080000DB6998472B6807930121079AC6F80021F6
:1008100001FA01F300244FF6FF720B4386F85810DB
:1008200086F8703086F85A4086F859407466346607
:1008300086F8F84086F8754086F8744086F8764069
:1008400086F87740C6F8FC40B266F26604F070F9AC
:1008500038681E212044243406F038FFB4F5907F18
:10086000F6D13749374C384801F1200700260C25CE
:1008700041F8046F44F8045F0246002342F8043B49
:1008800001330C2BFAD1B94200F13000F0D1002332
:10089000DFF8D0C0DFF8D0E02C4F2D4E2D4D2E4C80
:1008A0002E481A464FF0640901214FF07F080133AA
:1008B000202B4CF8049F0EF8012F07F8011F06F8B3
:1008C000011F05F8018F04F8012F00F8012FEED168
:1008D00004240121022007F097FD642007F0C4FDE5
:1008E0000121032007F090FD642007F0BDFD0021E9
:1008F000022007F089FD642007F0B6FD00210320E7
:1009000007F082FD642007F0AFFD013CE1D109B0A2
:10091000BDE8F08334350020884B00206C4C00206B
:10092000801A060030EAFF1F8009002079040000C9
:10093000653C0000844C0020D83300202CF8FF1FB9
:1009400030EAFF1F7C0A0020DC140020030F002087
:100950006F330020E73400207F0E0020EFE9FF1FF7
:10096000A44D0020541400200FEAFF1F00B50128F9
:1009700083B009D0022802D003B05DF804FBFFF772
:1009800091FD03B05DF804FB0146032007F03CFD38
:10099000044A054B12680192019A1A6003B05DF88F
:1009A00004FB00BF884B002060EAFF1F10B50D4A12
:1009B0000D4B12681B6882B00192019CE31A092B4F
:1009C0000AD80A4B1B68E41A092C03D9002102201B
:1009D00007F01AFD02B010BD0021032007F014FD3E
:1009E000EFE700BF884B002060EAFF1F64EAFF1FAB
:1009F00030B40D490D4A0E4B0C78157803F5206183
:100A000005E0904200D95D6128338B420AD09A6894
:100A1000002AF9D0DA68002CF3D08242F3D82833C8
:100A20008B42F4D130BC70474D0F0020A00A00204B
:100A3000A0DFFF1FF8B50F4D0F4E2B780F4F01337E
:100A4000DBB203F007002B70307008243B6800EB2A
:100A5000C00003EB800006F02DFE48B12B78013377
:100A6000DBB203F00700013C2B703070EED1F8BD13
:100A70003078F8BD18EBFF1FA20A00202CF8FF1FEA
:100A80002DE9F84F17469DF82890214C05460E4653
:100A90009846002204E00132082A04F10C040DD02B
:100AA00054F8041C8D42F6D123689E42F3D12AB13A
:100AB00002EBC2024FEA820B164C20E040F2F453E4
:100AC00006EB460203FB05F303EB8203124A114CCB
:100AD00052F803A0FFF7AEFF00EB40030F4A9B0064
:100AE00000EBC0004FEA800B2068D55013445146FC
:100AF000584401225E60C3F8089006F0C3FD2068E8
:100B0000424658443946BDE8F84F06F0BBBD00BF29
:100B1000A80E00202CF8FF1F2021FF1FA40E00208C
:100B20002DE9F0411C4B1A78D300083300AFADEB30
:100B3000030D6B464FEA820CC2B1184902F18040A6
:100B40000138D51D01EB800001EB8505ADF1040EE8
:100B50000DEB0C060021013150F8048955F80449C9
:100B60004EF8048F914246F8044BF4D18AB102F159
:100B70008042013A0A4903EB820203EB0C00043B7A
:100B800053F8044F41F8044F934250F8044B0C6261
:100B9000F6D1BD46BDE8F0810CEBFF1FA4E9FF1FB5
:100BA000A0E9FF1F144A154B10B452F8314002EB74
:100BB000C1022340002B516819DB5BB1104A137846
:100BC000012C83F00103C0EB41001370CCBF04F192
:100BD000FF3400240B4A0C4B1278013A53F82230B0
:100BE000C3EB410304FB03005DF8044B7047013B7A
:100BF00063F001030133E0E7E81600200100008004
:100C0000A10E00200CEBFF1FA4E9FF1F70B5224AC4
:100C1000224B52F82120224C224D1B7854F82110EF
:100C20002E78002A82B00CBF0C2407241BBB0B18A3
:100C300093FBF6F206FB1233002B22DB002923DDA7
:100C40002878421ED31A0B4493FBF0F00CF00CF9F9
:100C500041EC100B09F0E4FC53EC102B2046CDE9DD
:100C600000230CF001F9DDE900230CF063F90CF02E
:100C700011FC02B070BD90FBF6F206FB1203002BD4
:100C8000DCDA00293344DBDC02D1084602B070BD57
:100C9000CB1A2878D8E700BF34EAFF1FA10E002046
:100CA000481700200CEBFF1F1E4B70B453F8204078
:100CB000002C11DD00EB40031B011B4AD558A94253
:100CC0001A4418BF002304D125E052F8045F8D4276
:100CD00024D00133A342F8D1013C002C1BDD124B80
:100CE00000EB400003EB0012012306E01668B1425E
:100CF0000FDBAC4203F101030DDD52F8045BA942A6
:100D000003F1FF301D46F1DC1D46F2DA1668B142F0
:100D1000EFDD70BC7047002070BC7047184670BC97
:100D2000704700BF800A0020DC1400202DE9F84F36
:100D30001E4B1E5CAEB31E4A1E4D1F4B52F820B018
:100D4000DFF87C9006F18046013E00EB400805EBA1
:100D500086060746043D03EB401A4FEA88085AF816
:100D6000044B164BE21783FB0431C2EB610101EB2C
:100D70004101B4EB810148BF0C313846FFF794FFC5
:100D800090FBFBF20BFB1202002AB8BF5A4442440C
:100D900045F8040F59F82220B542A4EB02042C6256
:100DA000DDD1BDE8F84FFFF7BBBE00BF5C160020E9
:100DB000800A0020A4E9FF1F50110020ABAAAA2A34
:100DC000DC1400202DE9F843634B644E53F82030C7
:100DD0000546002B40F092803370614B53F825009C
:100DE000002806D040F3A88000F17F03FE2B40F2DC
:100DF0009D805C4B5C4C53F835C0277803EBC503F2
:100E00005868002F55D0DFF87081D8F800E07045A1
:100E1000C0F29C8000F09D807246012305E058F8E6
:100E20002320904203F101030BD0904203F1FF31E4
:100E300003DD58F8232090427BDB9F421946EEDC0D
:100E400039464FF0000901EB09025242DFF82881D0
:100E50000CFB02F20CFB09F9002301E058F804EF47
:100E60008B42C8BF02EB090003F10103D4BF02EBC0
:100E70000E007044BB42C8F800006244EED13B4B08
:100E80003B4953F82500002251F8043F0132034446
:100E9000BA420B60F8DBDFF8D880002758F8040F5F
:100EA0002946FFF77FFE2378C8F800000137BB42D0
:100EB000F4DC304B53F82500002824DD3378A3B947
:100EC00000F17F03FE2B2ED92778AFB1284E0024E6
:100ED00020462946FFF79AFE56F8043F013418448D
:100EE000A7423060F4D1BDE8F88300F17F03FE2B08
:100EF000EAD8FFF7C3FBE7E7BDE8F883FFF710FE8A
:100F00000123337069E7DFD0337833B9C0F17F0351
:100F1000FE2BC0F10000D7D8EBE7C0F17F03FE2B1A
:100F2000C0F10000D0D8FFF775FBCDE7FFF7A6FBB7
:100F30005FE74FF0010986E7C0F17F03FE2BC0F1A8
:100F400000003FF656AFFFF765FB52E74FF0FF3169
:100F500077E7002175E700BF28170020A10E0020C9
:100F6000C8160020983300200CEBFF1F280F00202C
:100F7000A0E9FF1F48170020A4E9FF1FF8B52C4B7C
:100F800053F82070002F51DD2A4B2B49DA5D2B4C92
:100F90002B4E2C4BC95D227046F8202019709AB157
:100FA00002F18044284B2949013C02EBC70203EBC4
:100FB000840401EB8202043B002552F8041D43F82F
:100FC000041FA3421D62F8D105463846FFF7FAFE1A
:100FD00056F82560002E2ADD1D4B1B4C1D4F05EBDE
:100FE000450003EB001504EB860605E09B00034477
:100FF000B44245F8043B19D054F8040B87FB002396
:10100000C217C2EB6303002803EB4303EEDA411C73
:1010100087FB0132C943C90FC1EB620202EB4202F6
:1010200093000344B44245F8043BE5D1F8BDF8BD54
:1010300034EAFF1F5C16002010EBFF1F0CEBFF1FB4
:10104000800A002090330020A4E9FF1F50110020E7
:10105000DC140020ABAAAA2A30B52DED028B83B098
:101060000093A8B107EE903A9FED5D7AF8EEE76A3B
:101070000128C6EE877A67EE808A27EEA08A0CD018
:10108000022865D0032840D0042835D005281ED07A
:10109000009803B0BDEC028B30BD013A07EE102A78
:1010A00078EE687AB8EEC77A06EE901A87EE876A0D
:1010B000F8EEE66AB0EE680AA6EE260AFDEEC07A01
:1010C000CDED007A009803B0BDEC028B30BDF4EE9C
:1010D000C88AF1EE10FA72DCFDEEC87A17EE901AAB
:1010E000FDEEE87A013117EE900A03B0BDEC028BF9
:1010F000BDE8304008F096BBCB074CBFFDEEC87A88
:10110000FDEEE87ACDED007AC2E702EBD272521022
:1011100007EE102A78EE687AF8EEC76A500087EE7C
:10112000A67A91FBF0F300FB13118B1A83EAE371AB
:10113000A1EBE371521A07EE902AF8EEE77AB0EECF
:10114000680AA7EE270AFDEEC07ACDED007A9FE788
:10115000013A07EE902AF8EEE77AF7EE006A86EE9B
:10116000A77A07EE901AF8EEE77A67EE277A17EE7D
:10117000900A0BF08BFE9FED181B41EC100B09F051
:101180003FFB78EE687A53EC102B17EE900ACDE90E
:1011900000230BF07BFEDDE900230BF0CBFE0446C1
:1011A00018EE900A0D460BF071FE02460B462046E3
:1011B00029460BF00DFD0CF06DF9009068E7F7EE95
:1011C000007A78EE277ABDEEE87AFDEEE77A17EE40
:1011D000101A17EE900A88E700000000000008408F
:1011E0000000C84230B43C4C245CBCB1012C18D087
:1011F000022C24D0032C44D0042C53D0052C15D021
:10120000062C55D0072C03D0082C5BD0002006E01C
:1012100001395B1A002BB8BF5B42CB1AD8B230BC85
:1012200070470139CB1AD8B230BC704713F00100B7
:10123000F5D003EBD3735B100133D8B2EFE7481E50
:1012400000EBD07011F001014FEA60000DD1002BCE
:10125000A8BF013306DBCC074CBF4018401A013150
:101260009942F8D1C0B230BC7047002BFADB013391
:101270000022D5074CBF801A801801329A42F8D15B
:10128000F0E7002BC2DD5D1C0122002312F0010FEC
:1012900001EB03040ABF581AA31A83180132AA42A9
:1012A000F4D1BBE703EB00130C4A12F82300B6E7B6
:1012B000DA0756BF03EBD37001F1FF33A3EB6003F2
:1012C000D8B2ACE702EBD271B3EB610FA6DB013A07
:1012D000D31AD8B2A3E700BFE4E9FF1F50120020E1
:1012E000002920DD2DE9F0410F4F07EB8016324633
:1012F000002342F8043B01339942FAD10D464FEAEC
:10130000001800242046294608F08CFA4044013495
:1013100057F82020336846F8042BA54247F82030C0
:10132000F0D1BDE8F08170475012002008B5074B9E
:101330005B6D18680368F8211B6898474FF60F012A
:101340000348BDE8084005F0FDBD00BFD8330020CC
:1013500040F8FF1F08B5074B5B6D18680368FA215A
:101360001B6898474FF60F210348BDE8084005F079
:10137000E9BD00BFD833002040F8FF1F08B5074B78
:101380005B6D18680368FC211B6898474FF60F4196
:101390000348BDE8084005F0D5BD00BFD8330020A4
:1013A00040F8FF1F08B5074B5B6D18680368FB2109
:1013B0001B6898474FF60F310348BDE8084005F019
:1013C000C1BD00BFD833002040F8FF1F2DE9F04F0A
:1013D0000020DFF85C92DFF85C82DFF85CC2DFF8A7
:1013E0005CE26A4F6A4E6B4D6B4B85B002464FF024
:1013F000640B01244FF07F0A49F804BF08F8012F5D
:101400000CF8014F0EF8014F07F801AF06F8012F55
:1014100005F8012F03F2F4511A605A609A600C33F8
:101420008B42F9D101302028E6D15C4B002203F138
:1014300080019A60DA6010339942FAD1584B002249
:1014400003F5E05003F1E0015A619A611C338B42CD
:10145000FAD19842F6D1534D534B287803F5936156
:1014600000221A605A609A60DA601A611C338B425B
:10147000F7D14E494E4A4F4F4F4E504BDFF8C0B157
:101480002A38002428708A46914625464FF0640881
:101490002046039302910192FFF7A0F8484B02996E
:1014A00043F82450474B41F8345043F82450464BFE
:1014B000CAF8045043F82450444B43F82450444B9A
:1014C00043F82450434B43F82450434B0C2243F839
:1014D0002420019A039B42F83450DE46C9F8045098
:1014E00000204EF8040B01300C28FAD10134082CEE
:1014F00087E82001C7F8088086E82001C6F8088040
:1015000003F8015F0AF1080A09F1080907F10C075D
:1015100006F10C060BF1300B4FF000004FF0640E9B
:10152000B6D12E4B2E4918702E4D2F4A2F4E1070CB
:1015300001230B702E492B702E4A2F4D2F4B087014
:101540000A2111603070287018602D4F2D4E2E4DDD
:101550002E492F4A2F4B387030602870C1F800E0B8
:1015600014701860DFF8DCC02B4F2C4E2C4D2D4929
:101570002D4A2E4BCCF8000038603060286008609F
:101580001070187005B0BDE8F08F00BFE734002080
:101590007F0E0020EFE9FF1F2021FF1F8CEAFF1FB5
:1015A0006C1700206C33002094F3FF1F9833002049
:1015B000E8160020C020FF1F68160020E3E9FF1F87
:1015C00028170020C8160020481700206CEAFF1FCB
:1015D000280F002034EAFF1F800A0020A00E002000
:1015E0003D07FF1F3C07FF1F68170020240F002046
:1015F000A10A00203807FF1F5CEAFF1F9C20FF1F85
:101600004C0F0020A0E9FF1F0DF3FF1F4007FF1F35
:101610003407FF1FD81400200835002058EAFF1FA8
:10162000480F002068EAFF1F541400204D0F0020CF
:10163000541400200FEAFF1F030F00206F33002017
:10164000DC14002010F3FF1F10B43B4A3B4B125C2C
:101650003B4C1B5C205C2AB98B420DDDFF205DF802
:10166000044B7047012A0AD0022A26D0032A0BD045
:10167000C8B25DF8044B70478142EFDCF8E799424D
:101680002EDB8142EBDCF3E799423FDB8142EFDD69
:101690002C4A091A82FB0132CC17C4EB6202531C9C
:1016A00002EB4202A3EB8303B1EB820200EB830067
:1016B00048BF0C328318D8B2D1E7994212DA2148D8
:1016C000591A80FB0120CA17C2EB600000EB4000F2
:1016D000B1EB800048BF0C300C331B1AD8B2BEE708
:1016E0001846BCE78142C3DD164A091A82FB012372
:1016F000CA17C2EB630202EB4202B1EB8202A0F115
:101700000C0048BF0C328318D8B2A8E70D4C591A08
:1017100084FB0124CA17C2EB6404621C04EB44047A
:10172000B1EB840102EB420203EB820248BF0C31B1
:10173000531AD8B293E700BFF0E9FF1F800E0020D4
:10174000E8340020ABAAAA2AF0B4174D00232A4699
:1017500004E00133082B02F1100207D01468844220
:10176000F7D154688C42F4D158B217E00F4F397852
:101770004B1CDBB209313B70C9B203F007000026F5
:1017800005EB00125C1C526852B1E3B28B4203F0CD
:1017900007004FF00106F3D13B7040B2F0BC704738
:1017A000002EFAD0F8E700BF8CEAFF1F6416002075
:1017B0004178202914D88278C37843EA022212B2F1
:1017C000002A0DDB49B221B10139064B43F8212033
:1017D0007047054B03F1800143F8042F8B42FBD186
:1017E000704700BF5814002054140020417820296D
:1017F00017D88278C37843EA022212B249B282F340
:10180000070229B1074B1944013201F8012C704736
:10181000054B0132D2B203F1200103F8012F8B42B4
:10182000FBD17047040F0020030F002041782029CE
:1018300017D88278C37843EA022212B249B282F3FF
:10184000070229B1074B1944013201F8012C7047F6
:10185000054B0132D2B203F1200103F8012F8B4274
:10186000FBD17047703300206F3300204378202B6A
:1018700010D810B4C478032C0AD890F902105BB2C7
:1018800021EAE1713BB1013B09480A4AC454D154F1
:101890005DF8044B7047084B084AC9B203F12000B9
:1018A00003F8014F834202F8011FF9D1F0E700BFAE
:1018B000F0E9FF1F800E0020EFE9FF1F7F0E0020E0
:1018C0004378202B10D810B4C478032C0AD890F990
:1018D00002105BB221EAE1713BB1013B09480A4ABF
:1018E000C454D1545DF8044B7047084B084AC9B240
:1018F00003F1200003F8014F834202F8011FF9D1E0
:10190000F0E700BFF0E9FF1FE8340020EFE9FF1F18
:10191000E734002038B5437890F902505CB2002CCF
:1019200004DD581EC0B207280AD938BDFDD160B207
:101930002A4600210134FEF7C9FD082CF7D1F4E74F
:101940002A4640B20021BDE83840FEF7BFBD00BFC7
:1019500070B590F9014090F90250002C07DD601E2F
:10196000072803DC05F17F03FE2B0ED970BDFDD1E6
:1019700005F17F0602E00134082CF7D0FE2EFAD8DC
:1019800029462046FEF7FEFDF5E72946BDE87040F2
:10199000FEF7F8BD10B590F90140002C03DD601E84
:1019A00007280EDD10BDFDD120460134FEF716FEDE
:1019B000082CF7D020460134FEF710FE082CF3D196
:1019C000F0E7BDE81040FEF709BE00BF4378082BE2
:1019D0001FD88278511E07291BD85BB251B243B180
:1019E000013B0C48C05C82420B4AC8BF41B2D15493
:1019F00070470A4B084910B403F1080413F8010FAB
:101A00009042C8BF0A70A34201F10101F6D15DF80E
:101A1000044B70475C16002010EBFF1F5B16002084
:101A20002DE9F0474478082C29D890F80290B9F1B4
:101A3000080F24D84FFA84FA1CBB4FF0080A164F3F
:101A40004FFA89F94FF00008B9F1000F1CD1134982
:101A5000134D144801F1200E0C2641F8048F45F86F
:101A6000046F0246002342F8043B01330C2BFAD1E9
:101A7000714500F13000F0D101345445E4DBBDE89C
:101A8000F0870AF1FF34DAE709F1FF33204647F81F
:101A90002430FFF773FAEFE734EAFF1F30EAFF1F45
:101AA0007C0A0020DC1400202DE9F0414778082F43
:101AB0001FD84FFA87F8F7B94FF008088678C3782F
:101AC00043EA06263846FEF789FD00247DB246FA31
:101AD00004F313F0010F62B24FF0000104F10104AE
:101AE000284601D0FEF7F2FC102CF0D10137474513
:101AF000E8DBBDE8F08108F1FF37DFE74278082A2C
:101B000016D890F90210104B0B40002B11DB591C1A
:101B100052B208BF012322B1013A0C4941F82230E8
:101B200070470B4A02F1200142F8043F9142FBD179
:101B30007047013B63F001030133591C52B208BFE7
:101B40000123002AE8D1ECE70100008028170020DB
:101B5000241700204278082A14D88178C37843EAF1
:101B600001231BB2002B0DDB52B222B1013A064910
:101B700041F822307047054A02F1200142F8043F43
:101B80008A42FBD1704700BF6CEAFF1F68EAFF1F63
:101B9000F8B54378817890F903505CB2002C04DDED
:101BA000581EC0B2072810D9F8BDFDD106460D4F0A
:101BB00000E0B1783B5D591A60B249B22A4601345F
:101BC000FEF784FC082CF4D1F8BD064B1C442A46D1
:101BD00014F8013C591A40B249B2BDE8F840FEF78A
:101BE00075BC00BF5C16002038B542780E4B857876
:101BF00054B2ED431B5D002C1D446DB204DD501E3C
:101C0000C0B2072809D938BDFDD160B229460134D8
:101C1000FEF792FC082CF8D1F5E7294640B2BDE862
:101C20003840FEF789BC00BF5C16002070B54278D2
:101C3000104B857890F9036054B2ED431B5D002C86
:101C40001D446DB204DD501EC0B207280AD970BD14
:101C5000FDD160B2324629460134FEF7ADFC082CB6
:101C6000F7D1F4E73246294640B2BDE87040FEF7AE
:101C7000A3BC00BF5C16002030B4C478037941795E
:101C8000827903EB04231BB2002B02EB012212DB4F
:101C900012B2002A0FDB417808290CD849B290F91A
:101CA000020051B101390A4D01EB410189006C1864
:101CB00068506360A26030BC7047054901F1600460
:101CC0008A6081E809000C31A142F9D1F3E700BF35
:101CD000C020FF1F30B4C47803794179827903EBC7
:101CE00004231BB2002B02EB012212DB12B2002AEA
:101CF0000FDB417808290CD849B290F9020051B1A4
:101D000001390A4D01EB410189006C18685063608C
:101D1000A26030BC7047054901F160048A6081E827
:101D200009000C31A142F9D1F3E700BF6816002089
:101D300070B545781F2D1FD8827811061CD4C17844
:101D40000B0619D44379047943EA042424B201EB45
:101D5000C216B4F5804F31462846A8BF4FF48044E0
:101D6000FFF7F2FC0549064B00010A189C42B8BF78
:101D70001C460D509460566070BD00BF8CEAFF1F7A
:101D800000C0FFFF70B545781F2D17D88478C37841
:101D900003EBC414B4F5804F10DA0679437943EAB3
:101DA000062636B2002E09DB21462846FFF7CCFC7A
:101DB000034A0001131815505C60DE6070BD00BF5F
:101DC0008CEAFF1F43780B4A012B137000D9704730
:101DD00070B4094C094922780968094E094D03F08D
:101DE00001030132337022702960084670BCFEF78F
:101DF000FFBD00BF0DF3FF1FA00A002054EAFF1F24
:101E00004D0F0020ECE9FF1F2DE9F041E0290C46C1
:101E10009DF8185008D8013DEDB20F2D02D849B2F7
:101E2000002912DBBDE8F081F729FBD90834E4B2C0
:101E3000012303FA04F414F0DD0FF3D0436D1868A6
:101E40000368BDE8F0411B6818471F46436D804694
:101E5000186803682943C9B21B6816469847D8F822
:101E600054301868036806F07F011B6804F0EF0423
:101E70009847C02CD6D0D8F854301868036807F0BB
:101E80007F011B68BDE8F041184700BF00B5A0F115
:101E900010030F2B83B01BD81306A0F10F0203F021
:101EA000FE43D2B243F43043013A090443F00B033A
:101EB000120201F4FE0102F47062194311430C484E
:101EC00005F040F8012003B05DF804EBFEF74EBDCD
:101ED0000130C0B20090D3B20648CAB2B021FFF7B9
:101EE00093FF012003B05DF804EBFEF73FBD00BF98
:101EF00040F8FF1FD83300202DE9F0410C4606467C
:101F00004FEA410840F2F45108EB040001FB06F1EE
:101F1000234F01EB8001394482B08D68551935D4C7
:101F200043F6FF729542A8BF154640F2F45202FBF9
:101F300006F208EB040102EB81023A445268D3B97D
:101F400032BB184B690083FB0123C917C1EBE303C4
:101F500003F0010202EB630221463046FFF796FFD1
:101F600040F2F453444403FB06F606EB84043D516F
:101F700002B0BDE8F081002AE3D0002113460091B1
:101F80002A4621463046FEF77BFDE9E70025CCE7EF
:101F900000932A46012321463046FEF771FDDFE714
:101FA0002021FF1F813FE00FC3781A060CD402796D
:101FB000110609D410B490F901401F2C02D8817881
:101FC0007F2902D95DF8044B704702EBC31220460B
:101FD00001235DF8044BFFF78FBF00BFC3781A06DB
:101FE0000DD4027911060AD410B490F901401F2CC7
:101FF00003D890F902107F2902D95DF8044B70478D
:1020000002EBC312204600235DF8044BFFF774BFB8
:10201000F8B5CB111D061CD4D7113C0619D40446C3
:1020200015460E46DAB26321FFF730FF06F07F0255
:1020300020466221FFF72AFFFAB220460621FFF769
:1020400025FF05F07F0220462621BDE8F840FFF776
:102050001DBFF8BDF0B5154F83B03C46002566683E
:102060008E4204F1100414D00135082DF7D100255B
:102070002C46A2180BD4B2F5804FA8BF4FF4804273
:1020800003B15DB903B0BDE8F040FFF7C1BF002266
:10209000F6E707EB0515AC68ED68EAE701242B4687
:1020A0000094FEF7EDFC03B0F0BD00BF8CEAFF1F0B
:1020B0008378190608D4C1780A0605D430B490F99B
:1020C00001401F2C01D930BC70470579427901EBE2
:1020D000C311204602EBC512012330BCFFF7BABF83
:1020E0008378190608D4C1780A0605D430B490F96B
:1020F00001401F2C01D930BC70470579427901EBB2
:10210000C311204602EBC512002330BCFFF7A2BF6B
:102110002DE9F0471D4F1E4E1E4DDFF87C90B8464E
:10212000002407E02434B4F5907F06F1040605F19D
:102130000C0525D03868204405F0BCFA0028F1D001
:10214000D8F80000204405F0BDFE420089FB0213D0
:10215000D217C2EBE30303F0010A32680AEB630A09
:1021600052458646524608D0A96895E808100129CC
:102170001846614606D0FFF789FEC6F800A0D1E7F1
:10218000BDE8F0877246FFF743FFF6E72CF8FF1F24
:10219000A020FF1FA40E0020813FE00F1F281DD8A4
:1021A0007F291BD800B50F2883B018D9A0F10F03E1
:1021B000DBB20904013B01F4FE011B0241F4404182
:1021C00003F4706341F00C0119430C4804F0BAFEAB
:1021D000012003B05DF804EBFEF7C8BB7047013087
:1021E000C0B20090CAB20023C0210548FFF70CFE20
:1021F000012003B05DF804EBFEF7B8BB40F8FF1F09
:10220000D83300201F2836D800B50F2883B001F33B
:102210000D011DD901F50051A0F10F030A04DBB235
:1022200002F4FE02013B42F46042490442F00E0215
:102230001B0201F0FE4103F47063114319430E4881
:1022400004F080FE012003B05DF804EBFEF78EBBC6
:10225000013001F50052C0B20090C2F3C713E02173
:1022600002F07F020548FFF7CFFD012003B05DF8C3
:1022700004EBFEF77BBB704740F8FF1FD83300200C
:102280001F2820D800B5002983B02CDB7F29A8BFE8
:102290007F210F2818D9A0F10F03DBB2013B1B02ED
:1022A00003F4706343F45043090443F00D0301F455
:1022B000FE0119430D4804F045FE012003B05DF80E
:1022C00004EBFEF753BB70470130C0B20090CAB2B6
:1022D0000023D0210648FFF797FD012003B05DF8E9
:1022E00004EBFEF743BB0021D3E700BF40F8FF1F1C
:1022F000D833002000B5A0F110030F2B83B01BD8FA
:102300001306A0F10F0203F0FE43D2B243F41043D0
:10231000013A090443F00903120201F4FE0102F438
:102320007062194311430C4804F00CFE012003B005
:102330005DF804EBFEF71ABB0130C0B20090D3B2D7
:102340000648CAB29021FFF75FFD012003B05DF897
:1023500004EBFEF70BBB00BF40F8FF1FD833002093
:1023600000B5A0F110030F2B83B017D8A0F10F0315
:10237000DBB20904013B01F4FE011B0241F4004100
:1023800003F4706341F0080119430C4804F0DAFDCE
:10239000012003B05DF804EBFEF7E8BA0130C0B2EB
:1023A0000090CAB2002380210548FFF72DFD0120CF
:1023B00003B05DF804EBFEF7D9BA00BF40F8FF1F89
:1023C000D83300202DE9F04F85B01F2800929DF8EA
:1023D00038B000F2F380DFF848A21E461AF9003048
:1023E00019440546FFF730F90306074600F1E68079
:1023F000002E40F3E380009A002A40F3F6804FEA73
:10240000C509C5EB09046401DFF8F08104F1E001BE
:1024100013467F2A08EB01024946A8BF7F23B14635
:1024200044442E4615460A4602E01C34AC4212D003
:102430002168B942F9D1E1680129F6D1394630461F
:1024400001920093FFF78CFF0023E3601C34AC4241
:10245000019A009BECD13546DFF8C8E165494E464C
:1024600091465EF825200132114000294EF82520C2
:10247000C0F2B680604CC5EB090C44F825104FEA59
:102480004C1C082004E0013844F82520114619D0DE
:10249000C1EBC1010CEB81014144564AC9680129D5
:1024A0001DD15EF8251001310A40002A4EF8251092
:1024B000E9DA013A62F007020132013844F82520D6
:1024C0001146E5D1C5EB09014901C2EBC20201EB9E
:1024D000820208EB02014948C968012971D0484AC3
:1024E000515D484A012912F805C071D996FBFCF2EA
:1024F000454E02EB8202C2EB021286FB0206D217A5
:10250000C2EB6616002E59DD54F825E0C5EB090232
:102510004FEACE005201CEEB000402EB84024244AB
:102520001CFB01F15161C5EB0909384C00934FEADE
:102530004912CEEB000902EB89092268029208EBEE
:102540000900029948F809704FF0010E4160866059
:102550000361C0F80CE01A4639462846FFF7CAFE68
:10256000BBF1000F2AD02A4A12783AB329482268D0
:102570000178039201F03F0202EB8202DFF8A8E04B
:102580001AF905C0244C009BD200CCEB07074EF88B
:1025900002507244DDF80CC0D4F800C01F4C9360A8
:1025A00093610F9B2478D3610131109B57600170B8
:1025B000166113625362C2F80CC0546105B0BDE8E5
:1025C000F08F815800932846FFF7CAFE009B86E7EC
:1025D000BCF1010F8AD854F825E04FEACE00A2E7FB
:1025E000013961F00701013144E701462846FFF750
:1025F000B7FEE3E70700008014F3FF1F6C1700200D
:10260000040F0020703300201F85EB51884B002001
:10261000A10A00200CF3FF1F54EAFF1FA00A0020AC
:1026200010EAFF1F1C20FF1FA0DFFF1F2DE9F04F46
:102630002DED028BA44B1B78012B87B000F01F817E
:10264000B7EE008AA14DF0EE488AA14C9F4E05F0EE
:10265000E7FE2B68226803EB83035B00801A83424A
:1026600026D89C4D2978002940F0F0809A4F9B484D
:102670009B49D0F800E009683868CEEB01010130D1
:102680008842386012D3974B974A1B78022B00F090
:102690000981137895490133086838601370FEF793
:1026A000A7F93368226803EB83035B0013442360BC
:1026B0008F4C04F52068A368002B00F09B808A4AA9
:1026C00016786269964200F09580824A1278002A54
:1026D00000F09980804AE1681268914240F28A8055
:1026E000844A854910680D68844A8549854F92F867
:1026F00000E0D1F800C0A2692169B2FBFEFECEEB7A
:1027000003033A68E769002BACBFC318031C23EA34
:10271000E3730D441A4425EAE575632FA36022EAAA
:10272000E2722561784B78D0D3F800907749636ADC
:102730000968774894F804B050F827E0206A4B44C1
:10274000DBB2591807EE901AF8EEE77AB1EE0C7A80
:10275000E8EE877A63624FEA470A0AEB0709E8EE78
:10276000477AC0B25744FCEEE77ACDED057A9DF882
:10277000141091FBFEF30EFB13110029B8BF714436
:1027800001EB8901DFF8949159F8211003EB430321
:1027900001EB830390FBFEF10EFB11000028B8BF94
:1027A000704400EB87005B4459F8200001EB4101C5
:1027B000DBB200EB8101591AC9B25AB3654407EE86
:1027C000905AF8EEE77A87EEA87A67EE087AFDEE7F
:1027D000E77A17EE903A23EAE373DBB148B20028B8
:1027E00018DD666100256326206802958DE860008B
:1027F000FFF7E8FD2834A0457FF45DAF07B0BDECDE
:10280000028BBDE8F08F344AE16812689142FFF410
:1028100067AFEFE70023A360ECE760681B683B4904
:1028200003440968DBB2591807EE901AF8EEE77A0C
:10283000B2EE087AE8EE877A6360E8EE477AFCEE5B
:10284000E77ACDED057A9DF81410B6E72249274FB7
:1028500008683F680138B84208603FF627AF214B4F
:102860001B78022B26D01D4A1F4D1D4B10681B687C
:102870002A781B1A013218460B602A700FE7134D95
:102880009FED247A2B6807EE903AF8EEE77A642BF6
:10289000D9BFB7EE008AC7EE278AF7EE008A87EE27
:1028A000878AD2E61C49137808600133012113702E
:1028B0002970F4E60C4A18491378086001330021A6
:1028C00013702970EBE600BF541400204007FF1F6F
:1028D000501400204D0F002054EAFF1FA0E9FF1FF5
:1028E0003807FF1F0DF3FF1FA00A00209C20FF1FC9
:1028F000A0DFFF1F0835002010F3FF1F3407FF1F64
:1029000068EAFF1F480F0020D814002058EAFF1F74
:10291000800A00200000C842ECE9FF1FDC14002000
:102920002DE9F04F91B01F289DF86C4006949DF85A
:10293000704007941A9F9DF8744000F2E6807F294A
:1029400000F2E380002BC0F2E080072F00F2DD8070
:10295000844DDFF840E2ED5DDFF83CC2824E1EF8A8
:1029600007E035708CF800E0002D00F0CE800C9070
:1029700038460D930B920A91FEF7D8F93846FEF7C8
:1029800021FA7A4B3278DB5D072B00F0D780082BD9
:1029900000F0BE80591F012940F2D780042B154654
:1029A00003D111463846FEF79BFC069B002B40F0F6
:1029B000B880079B002B40F0B480079E0995099BC7
:1029C0009E4280F2A2806A4BDFF8D0B11A9707EBE3
:1029D00047094FEA890903EB090A00230593A84632
:1029E0002AE0644A644B12781968644D644B0F9175
:1029F000501CC2EBC2020F9943F8227003EB820312
:102A000085FB0075C217C2EBE5052A2202FB1505FE
:102A10000D9A9A60059F089ADA600C9A1A615BF821
:102A200024401A9A9C6139445A615960514B1D7077
:102A3000099B0136B34268D04B491A980978514F27
:102A400033464246FEF7CEFB4F4B1A9A044653F8E4
:102A500022005BF8241091FBF0F300FB1312002A14
:102A6000B8BF121804F108054A4400295BF8255044
:102A700057F8222050DB45490A9F03EB43034944A2
:102A80009B001344D1ED020A91ED010A3F4A1D4417
:102A900012F809000B9BF8EEE00AB8EEC00A4246B5
:102AA0003146FEF7D9FA069B08903D442F46002B8D
:102AB00042D1079B43BB002E4CD01A9ADAED027A22
:102AC000334B9AF8000053F82250F8EEE70ADAED9B
:102AD000017A2B46B8EEE70A42463146FEF7BCFAC9
:102AE000059B03440593002D7FF47BAF1A9A5BF896
:102AF00024300192089A02930123009339460D9BDA
:102B00000C98FFF75FFC93E7089811B0BDE8F08FD1
:102B10005200D3B21D4648E74B1C93FBF0F3013B38
:102B2000A9E794FBF5F605FB1646002E04F1010318
:102B3000B8BF7619099342E72846E6E74FF0FF331E
:102B400003EB4202D3B21D462FE7931E1A44D3B2C1
:102B50001D462AE75BF824301A9A0293019201235A
:102B60000246CAE710EBFF1F90330020E4E9FF1F85
:102B7000681600206C330020884B0020310CC330D5
:102B800094F3FF1FDC140020800A0020C020FF1FE8
:102B90006CEAFF1F5C1600200CEBFF1FA4E9FF1F6F
:102BA00030B584780A4B85B00146013C90F90100AC
:102BB00091F9042053F8203091F90310002564B2F4
:102BC0000094039502950195FFF7AAFE05B030BD6C
:102BD0005814002030B5244C054685B00721234801
:102BE00006F052FB697800230A22204606F09AFD7F
:102BF000204606F083FD07211D4806F045FBA97815
:102C000000230A22204606F08DFD204606F076FDC0
:102C10000721184806F038FBE97800230A222046ED
:102C200006F080FD204606F069FD134BE97895F922
:102C30000120DB69039101200021029100910190A4
:102C40003C210720FFF76CFE0A2105460B4806F0E1
:102C50001BFB69B2204606F0A5FD204605B0BDE885
:102C6000304006F04BBD00BFD411FF1FD0E0000084
:102C7000D8E00000E0E0000058140020E8E0000088
:102C80002DE9F0471E4B1F4C1B68DFF87CA086B077
:102C900004F593650593DDF814904FF001080026C4
:102CA00002E01C34A54227D054F8103C002BF8D089
:102CB0004B45F6D267680297276854F80C3C54F8E5
:102CC000082C54F8141C54F8040CCDF8008001971B
:102CD000FFF778FB9AF8003044F8146C44F8106C55
:102CE00044F80C6C44F8086C44F8046C1C34013B48
:102CF000A5428AF80030D7D106B0BDE8F08700BF02
:102D0000884B0020A8F3FF1F6C33002070B50146EC
:102D1000094B90F9010091F9032053F8203091F903
:102D2000021084B00124632500268DE87000FFF7AF
:102D300049FB04B070BD00BF5814002002794379EC
:102D400043EA02231BB2002B10DB70B5012484B0D0
:102D50006325002690F9032090F9021090F90100F4
:102D60008DE87000FFF72EFB04B070BD704700BF08
:102D70002DE9F04FDFF8C8A02F4EDAF800302F4FC2
:102D8000DFF8C0B0DFF8C09083B000250093DDF815
:102D90000080A6F1E00412E0616801290CD954F822
:102DA000080C54F80C1C02FB00F2ABFB0232C1EB26
:102DB0000801B1EBD20F22D81C34A64217D054F828
:102DC000042C42B154F8082C2AB154F80C1CC1EB65
:102DD00008018A4226D3795D01294FF06402DBD8CD
:102DE00015F809100129D7D81C34A642E7D10135BE
:102DF000202D06F1E006CCD103B0BDE8F08FDAF863
:102E0000002001920198226844F80C0C012354F828
:102E1000101C44F8043C2846FFF76CFA6268013A3B
:102E20006260C9E754F8101C2846FFF799FA00239E
:102E300044F8043CCFE700BF5C180020040F0020DA
:102E4000884B0020B5814E1B7033002038B5FEF74B
:102E500095FA00250024214628460134FFF780FA20
:102E6000802CF8D10135102DF4D1BDE83840FEF7A3
:102E7000ADBA00BFF8B5474A474B484EC3F82433B4
:102E8000002583E8240018469D60C3F8443303F00E
:102E900011FA06F59F63424A424C326006F6F82169
:102EA00006F5DF6006F6F8074FF4007273634FF41F
:102EB000C8737560B560B063F76330467164A6F897
:102EC0004A20A6F84C30366203F0B0FF94F8703018
:102ED0003549364A316043F00103012161F347036C
:102EE0004FF6FF76324F256029466560A560E560A4
:102EF00025616561A561E56125626562A562E5629E
:102F000025636563A563E56325646564A564E5647D
:102F1000256584F8585084F8595084F85A5025662D
:102F200065666265A666E66604F17800176084F857
:102F30007030802284F8745084F8755084F876508C
:102F400084F8775084F8F8500AF018FE194A1A49A4
:102F5000C4F800512046C4F80451C4F8085184F85C
:102F60000C5184F80D5109F027FE05F059FA134B66
:102F700018604FF4907006F069FC0646044600F5B0
:102F800090752046243404F049FBAC42F9D10C4B37
:102F90001E60F8BD58E20000C00A002040F8FF1F84
:102FA0009CE20000D8330020BCE0000094330020F5
:102FB000BC11FF1F3007FF1F7504000050140020D4
:102FC0002CF8FF1F38B5427890F902400D4D0E489D
:102FD0001F2A40F2F45188BF002224EAE47401FB66
:102FE00002F204EB440402EB84032B449C68C4F318
:102FF000072100F06DFEE1B20348BDE8384000F063
:1030000067BE00BF2021FF1F3435002038B542784D
:1030100090F902400D4D0E481F2A40F2F45188BF2E
:10302000002224EAE47401FB02F204EB440402EB04
:1030300084032B445C68C4F3072100F049FEE1B22D
:103040000348BDE8384000F043BE00BF2021FF1F09
:103050003435002038B544781F2C1DD882781506E9
:103060001AD4C378190617D4114D03EBC2102B469E
:10307000002204E00132082A03F110030CD0196881
:103080008C42F7D159688842F4D105EB021291685D
:10309000CCB2C1F3072101E000210C46054800F045
:1030A00017FE21460348BDE8384000F011BE00BFBE
:1030B0008CEAFF1F343500204378013BDBB21F2B25
:1030C00008D8074AD15611F1800F04D0C9B205487B
:1030D00000F0FEBD70470021024800F0F9BD00BFBE
:1030E00010EAFF1F34350020FF21014800F0F0BD39
:1030F00034350020044B19780B0602D4034800F045
:10310000E7BDFFF7F1BF00BF240F002034350020DA
:10311000044B19780B0602D4034800F0D9BDFFF721
:10312000E3BF00BF4C0F002034350020044B19785A
:103130000B0602D4034800F0CBBDFFF7D5BF00BF9C
:103140006817002034350020044B19780B0602D490
:10315000034800F0BDBDFFF7C7BF00BFA00E0020B1
:1031600034350020044B19780F2902D8034800F0A9
:10317000AFBDFFF7B9BF00BF3D07FF1F34350020CB
:1031800090F90130064990F90220C3EBC3130B44B8
:10319000995C0B0602D4034800F09ABDFFF7A4BF68
:1031A0001CEBFF1F34350020044B19780B0602D4AA
:1031B000034800F08DBDFFF797BF00BF5CEAFF1F1B
:1031C000343500204378013BDBB21F2B00D9704718
:1031D00010B5074A074852F82340C4F3072100F00E
:1031E00077FDE1B20348BDE8104000F071BD00BFBB
:1031F000581400203435002010B5054CFF2120461E
:1032000000F066FD2046FF21BDE8104000F060BDE3
:10321000343500204378013BDBB21F2B10D810B5AA
:103220000A4AD45C013CE4B223060AD400210848CF
:1032300000F04EFD21460648BDE8104000F048BDB4
:103240007047BDE81040FFF7D7BF00BF040F002054
:10325000343500204378013BDBB21F2B10D810B56A
:103260000A4AD45C013CE4B223060AD4002108488F
:1032700000F02EFD21460648BDE8104000F028BDB4
:103280007047BDE81040FFF7B7BF00BF70330020A4
:10329000343500204378013BDBB2072B5AB207D804
:1032A000054B995C4B1E072B02D8044800F010BD5B
:1032B000FF21024800F00CBD10EBFF1F3435002049
:1032C00038B544781F2C1DD8827815061AD4C378D7
:1032D000190617D4114D03EBC2102B46002204E04F
:1032E0000132082A03F110030CD019688C42F7D17F
:1032F00059688842F4D105EB0212D468C4F307215F
:10330000E4B201E000242146054800F0E1FC21463A
:103310000348BDE8384000F0DBBC00BF8CEAFF1F6B
:1033200034350020837890F90110084A03F00F0328
:1033300003EB011312F813100B0602D4044800F03B
:10334000C7BC0021024800F0C3BC00BF500F0020E2
:1033500034350020827890F90130094902F00F02DB
:1033600002EB031301EB430359784BB2002B02DD50
:10337000044800F0ADBC0021024800F0A9BC00BF29
:10338000500F00203435002070B40B78013B0A4602
:10339000FE2B00F21381DFE813F07B037703700349
:1033A0005E03570353034C03480311014403110107
:1033B000400311011101110111011101110111014C
:1033C0003C032F032C0328031101110111011101EA
:1033D00011011101240320031503110319030D0327
:1033E0001101FF00110109030503FE02DB02D402F3
:1033F000B702B3021101110111011101AF02A802BC
:10340000A4029D0270026C0211011101110111014F
:1034100065025B02540251024E024B024802110146
:10342000110111011101110111011101110111010C
:1034300011011101110111011101110111011101FC
:1034400011011101110111011101110111011101EC
:1034500011011101110111011101110111011101DC
:10346000400211011101110111011101110111019C
:103470001101110139023202110111011101110171
:1034800011011101110111012B0211011101110191
:1034900011011101110111011101110124021D027B
:1034A00016020F020802010211011101110111019E
:1034B000110111011101110111011101110111017C
:1034C000110111011101FD01F901F501F1011101D4
:1034D000DC011101D801C501C901B1019D019901AA
:1034E0009501860111011101110111011101110153
:1034F000110111011101110111011101110111013C
:1035000082017A016C01580154014C0148014301C8
:103510003E01360131012C0124011B01170111016B
:10352000110111011101110111011101110111010B
:1035300011011101110111011101110111011101FB
:1035400011011101110111011101110111011101EB
:1035500011011101110111011101110111011101DB
:1035600011011101110111011101110111011101CB
:1035700011011101110111011101110111011101BB
:1035800011011101110111011101110111011101AB
:1035900011011101110113015378082B0ED89278F3
:1035A00002F12001C9B2402908D85BB252B2002B07
:1035B00000F0A782013BB34941F8232070BC70475B
:1035C000104670BCFFF706BBAF4B52781A70F5E798
:1035D000AE4B002103F52062996028339342FBD162
:1035E000ECE751789378AA4A43EA01231BB21360AF
:1035F000E4E7A84B92F901201A60DFE7A64B92F9A5
:1036000001201A60DAE751789378A44A43EA01234B
:103610001BB21360D2E7A24B92F901201A60CDE7EA
:10362000A04B92F901201A60C8E79F4B52781A709C
:10363000C4E7517893789D4A43EA01231BB2136093
:10364000BCE7104670BCFEF7BDBB994C9949507859
:1036500093780968226843EA0023521A1BB2934206
:10366000954901DD013A0A60002BB8BF00230B60C9
:10367000A4E78F4C9049507893780968226843EA10
:103680000023521A1BB293428A49EBDCECE75178D3
:103690009378874A43EA01231BB213608EE7874B76
:1036A00052781A708AE75378082B87D89278082ABC
:1036B00084D85BB2002B00F0148281490B4403F8DC
:1036C000012C7BE7104670BCFEF704BB104670BCB3
:1036D000FEF7D2BA5378082B3FF670AF5BB292F97F
:1036E000021092F90320002B00F0E1817548013BA4
:1036F00000EBC30440F8331062605FE75378082B97
:103700003FF65CAF5BB292F9021092F90320002BF6
:1037100000F0D6816C48013B00EBC30440F8331045
:1037200062604BE7104670BCFEF7BEB95378082BB9
:103730003FF644AF5BB292F90220002B00F0C98142
:10374000013B624941F8232038E7104670BCFEF780
:1037500067B95378082B3FF631AF927802F1080130
:10376000C9B210293FF62AAF5BB252B2002B00F06B
:10377000C081013B564941F823201FE7104670BC29
:10378000FEF754BA104670BCFEF72EBA104670BC55
:10379000FEF7FEB9104670BCFEF7DCB900283FF416
:1037A0000DAF104670BCFFF7FFBC00283FF406AF1A
:1037B000104670BCFFF79EBC00283FF4FFAE1046D9
:1037C00070BCFFF7A5BC00283FF4F8AE104670BCF3
:1037D000FFF7ACBC00283FF4F1AE104670BCFFF719
:1037E000B3BC00283FF4EAAE104670BCFFF7BABC89
:1037F00000283FF4E3AE104670BCFFF7C1BC0028C0
:103800003FF4DCAE104670BCFFF7A4BD00283FF4C7
:10381000D5AE104670BCFFF785BD92F901000128B6
:103820003FF6CCAE70BCFCF77FBF70BCFDF7BABDF5
:1038300070BCFDF7A3BD70BCFDF78CBD70BCFDF77F
:1038400075BD92F9021092F9010070BCFEF718BD27
:103850009178D37892F9010043EA012109B270BC52
:10386000FEF7D0BC92F9021092F9010070BCFEF78D
:1038700095BC104670BCFEF733BC104670BCFEF71A
:1038800081BA00BF4817002054140020A0DFFF1F9A
:1038900068EAFF1F480F002058EAFF1F10F3FF1FC0
:1038A00008350020D81400203407FF1F4007FF1FF1
:1038B0003807FF1F9C20FF1FA0E9FF1FA10A00205F
:1038C000E4E9FF1FE816002098330020280F0020AD
:1038D000C816002000283FF471AE104670BCFFF7F8
:1038E000EFBC104670BCFEF723BA00283FF466AE6A
:1038F000104670BCFFF7AEBB104670BCFEF7D8BBDD
:10390000104670BCFEF76ABB54781F2C3FF656AECB
:1039100092F902000028FFF651AED178137943EAFC
:1039200001231BB2002BFFF649AE40F2F45101FB1C
:1039300004F100EB4000774C01EB8002224453601D
:103940003CE600283FF43AAE104670BCFFF75EBB81
:1039500053781F2B3FF632AE92F902100029FFF682
:103960002DAED67810796C4C6A4D40F2F45201EBD2
:10397000410102FB03F200EB062002EB810302B2DD
:1039800043F6FF718A42A8BF0A462B44A242B8BF41
:1039900022469A6012E600283FF410AE104670BC32
:1039A000FFF710BB104670BCFEF7FEBA104670BCA5
:1039B000FEF7A4B8104670BCFEF708B8104670BCFD
:1039C000FDF7E8BF104670BCFDF7C2BF00283FF40A
:1039D000F5AD104670BCFFF75DBC104670BCFDF73E
:1039E00099BF104670BCFFF7DBB8104670BCFFF7FC
:1039F000A5B970BCFFF72ABA92F901001F283FF65B
:103A0000DDAD92F902107F293FF6D8AD70BCFEF70C
:103A1000A7BC104670BCFFF779B9104670BCFDF723
:103A20004FBF104670BCFDF721BF104670BCFDF7BC
:103A3000FDBE00283FF4C2AD104670BCFFF70ABCC3
:103A4000104670BCFDF7D2BE00283FF4B7AD10465B
:103A500070BCFFF7DFBB5378202B3FF6AFAD92F978
:103A600002205BB212F1800F08BF6FF07E02B3B18B
:103A70002A490B4403F8012CA0E500283FF49EAD31
:103A8000104670BCFFF718BB104670BCFDF790BE27
:103A900000283FF493AD104670BCFFF793BB204B5A
:103AA00003F1200103F8012F9942FBD186E51D4B5C
:103AB00003F1400083E8060008339842FAD17DE51F
:103AC000194B03F1400083E8060008338342FAD122
:103AD00074E5164B03F1200143F8042F9942FBD102
:103AE0006CE5134B03F1080103F8012F9942FBD158
:103AF00064E5104B03F1200143F8042F9942FBD1F8
:103B00005CE50D4B03F1200143F8042F8B42FBD100
:103B100054E500BF2021FF1F01C0FFFF10EAFF1F77
:103B20000FEAFF1FE816002098330020240F002022
:103B3000E3E9FF1FC416002044170020F8B53D4CF0
:103B40002378002B50D13C4C0021204603F04EFA44
:103B500098B394F85950681EC3B20F2B43D894F809
:103B60005A2094F85B6094F85C1002F17003DBB2A9
:103B70000F2B2ED87F2E36D84001304CA0F12002DA
:103B80007F29A8BF7F212244231893F81EE0DF7FFE
:103B900083F820E083F82170023B9A42F5D104EBD0
:103BA000000E274F274A2654CBB28EF801303B70C7
:103BB000254B16701D70FCF775FCFFF7D9F8FFF761
:103BC0005FF8FEF733FDFEF7A3FABDE8F840FCF717
:103BD000EDBE82F080030F2B0DD95032D2B20F2AE6
:103BE00010D87F2E17D9F8BD18490020FFF7CCFB5D
:103BF00000232370A7E77F2EF5D8154B1B7833B130
:103C0000144B1E70104B1D70FCF74CFCD5E7314671
:103C1000FCF762FDF4E7104B104C114AC0EBC010EA
:103C200018447F290B46A8BF7F2383552370167045
:103C3000E8E700BF30EAFF1F40F8FF1F500F0020E9
:103C400068170020A00E00203D07FF1F80090020FC
:103C50003C07FF1F4C0F00201CEBFF1F5CEAFF1FFF
:103C6000240F002001490120FFF78EBB80090020AE
:103C7000002070470369D3F83801D3F83431C01AF3
:103C8000704700BF0369D3F83411D3F8382191424B
:103C900008D2D3F83421511C1A44C3F8341192F8D5
:103CA000300070474FF0FF30704700BF0369D3F812
:103CB0003411D3F8382191423DBFD3F834219B18F9
:103CC00093F830004FF0FF30704700BF704700BFDF
:103CD0000369D3F84422B2F5817F03D9012303712C
:103CE00000207047D3F8442210B49C180132C3F866
:103CF000442284F83C1101205DF8044B704700BF5A
:103D000038B503690A4A026093F84822022A044639
:103D100001D0204638BDD3F87452002DF9D0284682
:103D200005F01CFC2846082105F092FD204638BD10
:103D3000FCE0000038B503690546D3F84402B0F54D
:103D4000817F1AD81446D3F84422D3F84402C2F52E
:103D50008172013203F59E73A242184402D20123FC
:103D600014462B71224604F065F92A69D2F84432D0
:103D70002344C2F84432204638BD01232B71002071
:103D800038BD00BF2DE9F04F574C83B006460D46B5
:103D900092461F469DF830809DF834E09DF838909B
:103DA000234621460022022004E00432202A36D095
:103DB00011F8040F8542F8D148785045F5D196F8AE
:103DC0004A121A448A4592F803B000F08680BBF18B
:103DD000000F28D0BEF1000F0BD096F84C2296F8B9
:103DE0004A020193002A14BF0221002104F012FBB1
:103DF000019B4FEA0B2202F4E062B8F1000F60D1A0
:103E000042F06402394901EBCA01012049680A60A5
:103E100086F84AA286F84C8286F8980203E096F863
:103E20004A224FF0000B0022022104E00432202A33
:103E300036D014F8041F8D42F8D1A178B942F5D1DB
:103E40001A4496F84B32D4789F4240D0002C34D09C
:103E5000B9F1000F09D096F84C3296F84B02002BBE
:103E600014BF0221002104F0D5FA230203F4E06319
:103E7000B8F1000F28D143F064031C4A02EBC702DB
:103E800001215268136086F84B7286F84C8286F8DE
:103E90009912BBF1000F10D0012003B0BDE8F08FE4
:103EA00096F84B32BB4208D1B9F1000F05D000247F
:103EB000BBF1000F01D0002CEED1002003B0BDE813
:103EC000F08F42F003029DE743F00303D5E7B9F119
:103ED000000FEDD1002CC8D1EFE7BEF1000FA2D149
:103EE000BBF1000F85D19EE718E10000B0E20000B1
:103EF000F8B5C3681B789B0610D483680D468021F3
:103F00001970C3681221197090F84932012B0446C8
:103F100006D08AB980F848220120F8BD0020F8BDFB
:103F20001A4675B9794B4FF080711960022A0FD08B
:103F3000012084F84802F8BD531E012BF1D901205D
:103F4000F8BD012D4BD1714B4FF000711960EDE7B9
:103F5000D4F87462002E00F097803379202B30D093
:103F6000002D43D132686A49938B6A4F9BB243F06C
:103F7000080393833279531102F110009B0041F83A
:103F8000207003F1604303F56143012102F01F0239
:103F900001FA02F231681A608B8B9BB243F0020384
:103FA0008B83337903F1804303F5043392221D7030
:103FB0001A700022022384F85E2284F8483201201D
:103FC000F8BD304605F0CAFA3046082105F040FC3D
:103FD00000230120C4F8743284F84802F8BD022D91
:103FE0005DD14D4B4FF4806119609FE7012D26D1C3
:103FF00032684749938B494F9BB243F00803938340
:104000003279531102F110009B0041F8207003F146
:10401000604303F5614302F01F02954032681D6062
:10402000938B9BB243F002039383337903F1804374
:1040300003F504330021932219701A70B9E7022D99
:1040400035D1D4F8741232480A68354E938B9BB23E
:1040500043F0080393830A79531102F110059B0082
:1040600040F8256003F1604303F56143012002F04D
:104070001F0200FA02F208681A60838B9BB243F0B9
:10408000020383830B79D1E7082005F0DDFB31467D
:1040900007463E4605F0FCF9C4F874725DE7032D4F
:1040A0007FF444AF1C4B4FF0006119603EE7032DD5
:1040B0007FF47FAFD4F8741215480A68194E938BB9
:1040C0009BB243F0080393830A79531102F1100560
:1040D0009B0040F8256003F1604303F56143012034
:1040E00002F01F0200FA02F208681A60838B9BB28A
:1040F00043F0020383830B7903F1804303F5043318
:104100000021922219701A7053E700BF00E100E00D
:104110000002FF1F414A000008E100E04D4A000094
:10412000594A0000654A0000F0B5284EDFF8ACE0BF
:10413000A6FB0143A6FB02429E093702754696097B
:1041400014240023B7FBF6F604E00133372B1BD011
:1041500055F8044F22029642F7DA83BB14241C4A16
:104160004568B1FBF4F491422B70C0F8504207D877
:10417000184B8269A3FB0131C1F307511170F0BDE7
:10418000836904221A70F0BD002422464FF4702780
:104190004FF470654FF0360CB21AF71B002A87EA0D
:1041A000E776A6EBE776B8BF5242964202DD0A4AAE
:1041B000D35CD4E7084B2C4613F80C30CFE703F15F
:1041C000FF3C5EF82C502F02E6E700BFD34D621093
:1041D000FF6BDC02819F5E1618E200003CE10000EC
:1041E000F0B49DF814409DF810609DF818503CB153
:1041F00035B1C7683F78BF0602D50020F0BC7047D4
:10420000069505940496F0BCFFF7BCBD2DE9F0417E
:1042100084B0044694469DF828609DF82C209DF8B3
:1042200030009DF834E09DF83C700D4600294CD1DB
:10423000DFF81081D8F8001041F04001C8F80010F4
:10424000002184F849C284F85512BCF1000F2BD12B
:1042500063692021197012B994F84A22D2B210B9B8
:1042600094F84B02C0B294F8981294F899620296AE
:104270000346CDF800E0019120462946FFF7B0FF44
:104280000E9A2F492046FFF74FFF3A46294620460F
:10429000FFF72EFE94F84932002B37D0A368C022D6
:1042A0001A7004B0BDE8F0816169CEB14FF0280CFE
:1042B00081F800C09E4221682ED95B00DBB20B70F2
:1042C0007600E369F6B21E70C5E7012913D1DFF865
:1042D0007480D8F8001041F08001C8F80010AFE7F2
:1042E0004FF0200C81F800C021685B00DBB20B703E
:1042F000E3691E70AFE7022916D1DFF84C80D8F8C9
:10430000001041F04001C8F8001099E7A36880222E
:104310001A7004B0BDE8F0817600F6B20E705E004F
:10432000E369F6B21E7096E7032989D1DFF8188099
:10433000D8F8001041F08001C8F8001080E700BFF5
:1043400000879303348004402880044070B5D0F87F
:104350003841D0F834319C4218D9D0F83831D0F8EF
:104360003451D0F834615D1B954228BF1546044690
:1043700000F130032A460846991903F05BFED4F891
:1043800034312B44C4F83431284670BD002070BD50
:104390002DE9F041BF4EC7683378D0F808E001330B
:1043A000DBB233703D789EF800300446DBB28069A2
:1043B00003F020020178EDB2FAB113F0100F94F877
:1043C0005E327FD0022B00F0D78094F85E32032B50
:1043D00000F0D28094F85532082B00F0238294F834
:1043E0005532092B00F05C8294F85532012B00F015
:1043F000CC8180238EF800305BE002F0FF08EA06F3
:1044000024D405F0400202F0FF071ABB03F01003AA
:1044100003F0FF02002B00F08E8015F0010540F044
:10442000A881D4F84022D4F844329A4207D2D4F872
:1044300040325A1C2344C4F8402293F83C5123696B
:104440001D70A368D0221A70A06979E01023680655
:104450003B7029D594F855320C2B00F00F8105F0F4
:10446000040505F0FF02002D73D0A3680021D022BF
:104470000B2084F85502C4F844121A702269D4F84B
:104480006C1213785B0884F8563209B188472269A8
:10449000D4F84432002B00F0758194F83C8182F806
:1044A00000800123C4F84032A269137843F050031E
:1044B0001370E36802221A703378013BDBB2337069
:1044C000BDE8F081022B00F09F8094F85E32032B50
:1044D00000F09A80D4F83831D4F85822023393424D
:1044E00000F0418194F85532012B00F03781D4F867
:1044F00038310133934280F00B8194F85532012B0F
:1045000000F00181D4F838312269591CC4F83811FF
:104510002344127883F83020E36802221A7094F85A
:104520005532DBB2012BC7D194F85D22002AC3D1EA
:1045300084F85D32C0E794F855320C2B00F093817B
:10454000037843F050030370E36802221A70BDE859
:10455000F081A1690B7843F020030B70A3680C2055
:10456000C02184F85502C4F83821197023691B78DA
:104570005B0884F8563297E7D4F8742213689B8B53
:10458000190604D594F85E32022B00F0B08094F83E
:104590005E32032B00F086803F4B127919680123AD
:1045A00093400B4288D03D493D4B0A70D4F87412B9
:1045B000097919700022072384F85E2284F85532A5
:1045C000D4F89432013304D0D4F894320133C4F8CF
:1045D0009432ED0611D5042384F85532D4F88C3288
:1045E000013304D0D4F88C320133C4F88C32E26841
:1045F000102100231170C4F84032A36880221A7081
:10460000E36802221A7032E0D4F874321A68928B8E
:10461000120603D594F85E22022A5CD094F85E223A
:10462000032A00F0D6801C491A79096801239340B7
:104630000B423FF441AF1949194B0A70D4F8742268
:1046400012791A70A36880220020072184F85E0284
:1046500084F855121A70E36802221A70D4F8943262
:10466000013304D0D4F894320133C4F89432D4F82E
:104670007032002B3FF420AF98471DE7D4F8683222
:10468000002B3FF4ECAE0022C4F83421D4F83801FA
:104690009847E4E6483500202C8000401E8000400A
:1046A0001F8000403B781B06FCD5C34B12791A7063
:1046B000002384F85E32D4F844322169013BC4F807
:1046C0004032D4F840322344022293F83C310B703C
:1046D000E3681A70F0E6B9491B790B70A368E8210A
:1046E0001970E368032184F85E121A70E4E6B34996
:1046F00012790A70A268F0211170E268032184F82F
:104700005E121370D8E694F85D32002B3FF4FAAED7
:10471000A3680021B02284F85D121A70D4F83831F1
:104720002269591CC4F838112344127883F83020C8
:1047300094F85432012B00F0C580E36802221A700D
:1047400094F85532012B36D0D4F86432002284F824
:104750005522002B3FF4E3AE9847E0E694F85D3233
:10476000002B7FF4C4AEE8238EF80030D4F8582232
:10477000BDE6C0238EF800302369A0691B7884F859
:104780005572DDE684F83C3189E694F85432012B09
:104790000CBF8023B0238EF80030E36802221A7029
:1047A000D4F8803201333FF462AFD4F88032013361
:1047B000C4F880325BE7D4F88032013304D0D4F8F7
:1047C00080320133C4F88032D4F87032002BC3D168
:1047D000A5E6794A1B791370A3680021B02284F8FA
:1047E0005E121A70D4F858322269013BC4F838318D
:1047F000D4F83831591CC4F838112344127883F89E
:10480000302094F85432012B00F0DA80E368022261
:104810001A70D4F86432002284F85522002B7FF4F9
:104820002BAF49E605F0100303F0FF02002B50D038
:1048300000230421102284F85E3284F855123A7065
:10484000A26880211170E268C4F84032022313701C
:10485000D4F88C3201333FF40AAFD4F88C320133F0
:10486000C4F88C3203E7C9B211F0500F4AD0037874
:1048700043F050030370A1690B7803F0DF030B7062
:10488000E36802211970D4F8683284F85522002BAD
:104890003FF412AEC4F83421D4F8380198470BE63F
:1048A000E80641D50422102384F855223B70A36802
:1048B00080221A70E36802221A70D4F88C32013315
:1048C000CBD1D4E63C23013BFDD1A36880221A70F2
:1048D00033E715F001053CD084F85E22D4F840326D
:1048E000002B7CD1022384F85532D4F88432013372
:1048F00004D0D4F884320133C4F8843280238EF893
:1049000000307DE623691B78D4F83821B2F5817F29
:10491000DBB23FF615AED4F83821A1180132C4F845
:10492000382181F830300BE6E9072ED502238022AA
:1049300084F855328EF80020E2681370D4F884327F
:1049400001333FF494AED4F884320133C4F8843296
:104950008DE6D4F840320133C4F84032D4F8442212
:10496000934234D394F8543284F85552012B0CBF3F
:104970008023B0238EF80030E36802221A70D4F846
:104980006032002B7FF478AE96E594F85E32012B0E
:1049900032D0D4F85832012B4FF00A020CBFE82372
:1049A000E02384F855228EF800302269E3681278FB
:1049B00002221A7080E500BF1C8000401F8000406A
:1049C0003C23013BFDD1A36880221A701EE794F8B6
:1049D0005E32012B20D0D4F84032216973E60323E4
:1049E00084F85532D4F88832013387D0D4F888322D
:1049F0000133C4F8883281E70223E12284F85E3271
:104A00008EF80020D4F874120C4A097911702169CB
:104A1000E268097813704FE50223F12284F85E32D0
:104A20008EF80020D4F87412044A097911702269B2
:104A300094F83D111170E26813703DE51B80004051
:104A400000210148FFF7A4BC4407FF1F01210148D2
:104A5000FFF79EBCE009FF1F02210148FFF798BC49
:104A60007C0CFF1F03210148FFF792BC180FFF1FAA
:104A70002DE9F843224BDFF8A090DFF8A080214E0B
:104A8000214D1E6000244FF47A774A4641461C713E
:104A90001C739F6018465C731D6108F08DF81B4BFA
:104AA00005F5277201211A611C714A469F601C732B
:104AB0005973184641461E6008F07EF8144B05F500
:104AC000A76202211A611C714A469F601C735973C8
:104AD000184641461E6008F06FF80E4B4FF0030E6B
:104AE00005F2D4751C711C7383F80DE04A464146EB
:104AF00018461D619F601E60BDE8F84308F05CB871
:104B000034350020FCE000004407FF1F0C35002076
:104B1000203500204C3500203007FF1F013D0000EC
:104B200008B5836ADB6B03B19847012008BD00BF5D
:104B3000F8B5524B524A5349534D544F544E4FF4CB
:104B40008070186013684024234313600A200C60AF
:104B500003F08AFC2A684F4C4F48504B5049DFF80D
:104B600080E142F040522A60227842F00202227034
:104B7000027842F0800202701A6842F002021A6063
:104B80001A6822F001021A603B6843F400033B609C
:104B90000B6805F5142504F5783400F5743043F0FE
:104BA0000E0305F63805343400F59A700B604FF0AB
:104BB00040424FF0840C4FF44047012143F241033F
:104BC000C6F800C02A60276072460160CEF8003047
:104BD0001368002BFCDA334B00221A600A2003F022
:104BE00043FC314A136843F00203136013689B07C8
:104BF000FCD401F019FF2D4B012103F1800243F891
:104C0000041F93424FF00104F9D14FF48072002148
:104C10002748284D284E294F08F0B0FFDFF8C4C0C0
:104C2000DFF8C4E02648274A1F4900238CF80030EB
:104C3000CEF800400324046023482B60234C10600E
:104C400023483B6033600C600368224943F480537F
:104C500003605D203368136803F0BAFB1E4A1F4BE4
:104C60004FF0005111602B602B6843F012032B6052
:104C70002B6843F440232B60F8BD00BF18D00440DC
:104C800014F10F4004F10F4000D8004008700440B8
:104C900004300A40004006400050064004800440B2
:104CA0003080044000200A4040110A40FC3F0020B0
:104CB0008C40002048110A4058110A404C110A400B
:104CC000A8110A4054110A4000400020158B010031
:104CD00084110A408D52000008E100E00400000346
:104CE000A0200A408840002090100A40F8B5C36810
:104CF0000BB1632900D8F8BD06460D4603F090FBC2
:104D0000294BB0601A68002A40D02848016821F079
:104D10007F418D4215D39469691A002C42D0626993
:104D2000914204D227E05A698A421C4624D8A369DA
:104D3000891A002BF7D100237161F461B361A66178
:104D4000D9E772B61A4A1B4F00244FF0007E046068
:104D5000C2F800E01A68F461491B05F1FF3E4FF00C
:104D600040447561B2611E605161D661C7F800E0D0
:104D7000046062B6F8BD2346D869521A5A61B3611D
:104D8000F0617161DE61F3699E61F8BD094F07480A
:104D90007561691E4FF04044B261F2611E60396076
:104DA0000460F8BD1446C6E7804000208C100A401D
:104DB00044110A4088100A4072B6194A13683BB180
:104DC000834202D113E0984204D09B69002BFAD1B0
:104DD00062B67047D9699A698A619A69002AF7D0E0
:104DE0005B695069D1610344536162B670479B6946
:104DF0000C4870B4002505607BB1046859690A4EFF
:104E000024F07F4421444FF04044596131600460F4
:104E1000DD61136062B670BC70471360FAE700BFD3
:104E2000804000208C100A4088100A400269936874
:104E3000F0B50C465906074603D4126893685B0622
:104E4000FBD54023D4F808E0A360236813606368AF
:104E50005360E368D3602369136163695361A16997
:104E6000916104F1340393E80300E36AE669256B7A
:104E7000D36202F13403D6619762156383E80300BD
:104E80001368E16BD163012B134603D01B681968CB
:104E90000129FBD101211C60216013689C4229D0AB
:104EA0001346002000E00B46196858620D6819622D
:104EB000AC420E461846F6D100217362316297F873
:104EC000343013F0FD0F09D00C490B6873B15362F5
:104ED0001A620E600120C2F808E0F0BD08490B68B4
:104EE000002BF4D1074853620260F2E70648536290
:104EF0000260EEE716460023DEE700BF8440002094
:104F00006435002068350020603500202DE9F04729
:104F1000CC88B4F5804F02D90020BDE8F0879946CF
:104F2000904607468A4601F0C7FD05460028F3D0A3
:104F300001F0C2FD0446002876D0BAF80630002BF6
:104F400043D13F4A28602AF47F6626F00F060123EA
:104F500006F58050DFF8ECE039686B60C5F808E0D2
:104F6000C5F80CA006F5005E286106F5405006F570
:104F70008046C5F814E04FF0000CA8614FF4805E45
:104F8000EE614FF400506360A162A2604FF44051A3
:104F90004FF48042C4F80CC0C4F82C80C4F810E070
:104FA0006061A161E261BAF806202263DAF80020AC
:104FB0006263DAF80420A263386823602946C4F8E3
:104FC0003C90BDE8F047FFF731BF01F075FD78B3C5
:104FD000BAF806309AF900601B04F24343F000432C
:104FE000F60FD20F28F47F6143F0800321F00F0108
:104FF00043EA062312020126466001F5805E8360C3
:1050000001F5005601F5405342F0802201F5804140
:10501000C0F80C8042F08002C0F810E04661836165
:10502000C161286004608EE7284601F04DFD73E7FA
:10503000284601F049FD204601F046FD6CE700BF1F
:1050400080810080800208002DE9F04780460F46ED
:105050001646994601F030FDB0B1741EA40B05460A
:1050600015D0824604E0013CCAF8000082460ED00A
:1050700001F022FD0028F6D100E0254628462C68E4
:1050800001F022FD5545F8D10020BDE8F08700234E
:105090000124B6F5804FC0F82880C7620663C0F8C7
:1050A0003C900460436383632A4624D91A4998F8E4
:1050B00035C054604FF4804E002027F47F6323F006
:1050C0000F0341EA0C21916003F5805903F5005C60
:1050D00003F5405103F58043D760C2F81090C2F841
:1050E00014C09161D36188B9CEEB0606B6F5804F46
:1050F00077441268DAD8310441F4004198F835C099
:105100005460012041F08001B646D6E7294640466A
:10511000BDE8F047FFF78ABE800000402DE9F04768
:10512000584ED6F800A0BAF1000F00F0A080DFF8CA
:1051300058810025DAF808301F0668D4DAF80830FC
:105140001C045FD4DAF82430DAF82070002B77D012
:105150001F62DAF80820002F5FD050067B6260D50E
:105160005046DAF8289001F0AFFC002108460C46C2
:10517000D6F800C0D8F800E0BA4601E01746A2B160
:10518000BB6A3A6A9945F9D17B6A002B5FD01A62F3
:10519000002A59D05362002C54D027623D625745F3
:1051A00008BF92461746002AEAD1002863D1002999
:1051B00064D1D9F8103033F01F0308D09A68520632
:1051C00037D5C9F81030C9F80C50C9F818500CB9C7
:1051D00013E03C46A268130409D5D9F83C3042F0EC
:1051E000400220461BB1A36AA260DB6B9847276A86
:1051F000204601F069FC002FEBD1BAF1000F99D1E4
:10520000BDE8F0875046FFF78BFC00289AD1DAF80A
:1052100020A0BAF1000F8DD1F2E75106C8F8003096
:1052200018D45046BA4601F04FFCBAF1000F81D1B4
:10523000E6E79A681A681B6833F01F03BED1C6E719
:10524000376086E73C46A9E79E460121A3E79446DE
:1052500001209DE7DAF82890504601F035FCD9F896
:10526000103033F01F0304D0BA463C46A6E7BDE831
:10527000F087BDE8F087C6F800C098E7C8F800E0FE
:1052800097E700BF68350020643500206E4B2DE99C
:10529000F0411E681E6071031BD56C4F3C68C4B1A1
:1052A000DFF8DC81A3681A0600F18580A3681B047F
:1052B0007BD4636A256A002B00F082801D62002D7A
:1052C00000F082806B6220462C4601F0FDFB002C32
:1052D000E8D1370318D55E4F3C68ACB1DFF8A48144
:1052E000A3681D065DD4A368180455D4636A256AB3
:1052F000002B6CD01D62002D6CD06B6220462C46BA
:1053000001F0E2FB002CEBD1B10766D472070CD59B
:10531000504B1C6844F02A021A60A30729D42707BF
:1053200003D44D4B1A78022A65D0F00117D4B1018D
:105330001DD54A4A1168D1B18B6913604BB15A69C6
:10534000474D4848013A00264FF04044DE612A604C
:105350000460C8680368BDE8F0419B6818473E4B8D
:105360001A78012A68D0032A59D0B101E1D4BDE8E6
:10537000F08114F0010533D0374B1A78012ACED8CA
:1053800039483A4A3A4C01254FF040411D7026F009
:10539000807604601160CAE72046FFF7C1FB002851
:1053A000A4D1246A002C9BD1AEE72046FFF7B8FBBE
:1053B00000287FF47EAF246A002C7FF473AF88E767
:1053C0003D60002D7FF47EAFC8F800307BE73D6084
:1053D000002D92D1C8F8003090E7FFF79FFE95E7C7
:1053E0001D4A244B244F157002221A60386800F0C1
:1053F00025FE3D6093E7650799D503241A4D1B48A8
:105400001C7014494FF0404442F210772F60046042
:1054100009688C0501D519490A60F20187D5042174
:105420000C4A197010680022C0F38160114600F028
:1054300077FB114B18607AE7064A0221197013684E
:1054400043F48073136072E744110A40683500200A
:105450006035002084110A408840002080400020F0
:1054600088100A408C100A4080100A4084100A40BC
:10547000A086010038200A408C41002034200A40D8
:1054800064350020844000202DE9F04F85B0029063
:10549000002A00F09A80006B974B007D03FB01F31C
:1054A00002284FEA134300F0B38005214FF0010BAF
:1054B00004E001394FEA4B0B00F0A1804BEA5B009E
:1054C0008242F6D81FFA8BF203920299BDF80C00C3
:1054D00091F83520A1F84000002A40F094808433F0
:1054E0004FEA531C022600234FF0FF3EDFF80CA2C8
:1054F00001939946F046019F0AEBC700002401780A
:105500008278C5780379614432449142354433440A
:105510006BD9A94265D98B4238BF0B46734500F160
:10552000010002D29E46B846A1460134042CE6D1C1
:105530005F441F2FE0D9019B01339B450193DAD1D2
:10554000BEF1BB0F57D8029ABDF80C00A2F8440078
:105550005FFA8CFCF6B21FFA88F1B8F11F0F82F8DF
:105560004AC082F84B60A2F84890A2F846101CD8B6
:1055700009EBC803981C1AF8032062440AF80320B8
:105580001AF8002032440AF80020D81C04331AF814
:10559000002032440AF800201AF80320D84432448C
:1055A000B8F11F0F0AF80320E2D9029C01201C2346
:1055B00000FA09F203FA09F9A4F8421084F8362037
:1055C00084F8379005B0BDE8F08F029B1A6B4A4B08
:1055D000127D03FB01F3022A4FEA13436ED001222E
:1055E00063E7AB4238BF2B4698E7AA42F9D993420A
:1055F00038BF134692E7002005B0BDE8F08F2022A7
:105600000392934661E766335E094FF0020C6AE746
:105610000F2A63D920224FF480700299DFF8DCA0B2
:10562000A1F8402057334FF0FF375C093E46002574
:105630002B4600211AF8032022449142034438BF2C
:105640001146FF2BF6D98F4288BF2E4605F1010582
:1056500088BF0F468542EBD1BB2FCCD8029AE4B26B
:10566000FF2E134682F84A40A2F84400A2F8466092
:1056700098BF334607D81AF8032022440AF80320BB
:105680000344FF2BF7D9012823D0022819D004287E
:1056900095BF06F0030206F0070211230123934091
:1056A000029A82F836300299F60800230120A1F808
:1056B000426081F8373005B0BDE8F08F0120024626
:1056C000ABE706F0010255239340029A82F8363088
:1056D000E9E7029AFF2382F83630E4E7013A012134
:1056E00001FA02F0B0F5807F94DCC20808BF0A46D8
:1056F00093D092B291E700BFAB2A01008C4000200A
:10570000F0B5B0F84240B0F840101F2C2BD81F4E17
:1057100040F0020756F82420D5074FEA840E27D41C
:1057200002F00605022D22F01F0308D11CE098426A
:1057300016D01A68D20708D41B6823F01F03B3F8E9
:1057400040209142F3D998420AD01A6832F01F02E1
:1057500004D114E0126832F01F0210D09042F9D147
:105760000C441F2CD6D9F0BDB3F84050A942DED965
:105770000C441F2C026046F80E70CBD9F3E70C44A2
:105780001A6802601F2C1F60C4D9ECE7004000209B
:105790002DE9F04706460D4617469A4601F07CF97A
:1057A0000446002800F0908001F086F98046002829
:1057B00000F08C80602200214FF04009204608F064
:1057C000DDF94A460021404608F0D8F90123032DAF
:1057D000C8F80030C8F80890C4F8108026636361E8
:1057E00084F835A084F8345047D03FB172680AB9C4
:1057F00061E01A46936B002BFBD194636DBB96F866
:1058000014E0BEF1010F8CBF00230123D8064FF432
:105810008041737D94F8362043F0704343EA0723B8
:10582000089F43EA07430343194341EA0E3161608D
:10583000F07DB37D94F8371042F0804242EAC052C6
:1058400042EA034343EA0123A36035F0020309D08F
:10585000032D204633D0BDE8F0870021084696F896
:1058600014E0D6E7214A1368ABB11A68226044F00D
:1058700002021A602046BDE8F087099A089920467E
:10588000FFF702FE814638B3002FAFD196F814E03F
:1058900039463846BDE76368154944F0020043F4D1
:1058A00000436360206014600B6843F020032046CF
:1058B0000B60BDE8F0877460002DA0D0CDE7FFF746
:1058C0001FFF2046BDE8F087BDE8F087204601F0C5
:1058D000EBF84046BDE8F087404601F0F5F8204679
:1058E00001F0E2F84846BDE8F08700BF58110A40D1
:1058F00040110A40F8B590F8343013F0FD0F04461B
:1059000000F08180744800F1800550F8041FCA0738
:105910000CD421F01F018C4203D16FE0944268D077
:1059200011460B6823F01F02DB07F7D5A842ECD124
:10593000236B1B7D022B00F0A880B4F84610B4F84E
:105940004460B4F8487094F84AE094F84B501F292A
:105950001BD8624A07EBC10303F1020CD05CCEEB0B
:105960000000D05412F80C00401B02F80C0003F1A8
:10597000030C043312F80C00401B02F80C00D05C3E
:105980003144401B1F29D054E4D9554E306800B330
:10599000544F01E02846E5B1836A056A9C42F9D17B
:1059A000436A002B00F084801D62002D7ED06B6264
:1059B000236933F01F0205D08342EBD01B6833F01C
:1059C0001F02F9D18342E5D001F07EF82846002D70
:1059D000E2D1206930F01F0306D0056801F074F8A9
:1059E00035F01F032846F8D12046BDE8F84001F005
:1059F0005BB823680B60A84287D199E723680360EE
:105A0000A84282D194E7026822F01F02904201D19D
:105A100054E01A46136823F01F039C42F9D16368CF
:105A20001D0403D5536843F40043536023682E4894
:105A3000136003682D4943F0400303600B682B4A51
:105A40009806FBD520231360294E30680028C0D06B
:105A5000284F02E02846002DBBD0836A056A9C428D
:105A6000F8D1436A43B31D6225B36B62236933F0F7
:105A70001F0205D08342EDD01B6833F01F02F9D11D
:105A80009842E7D001F020F8E4E7B4F84630B4F8E3
:105A9000440094F84A50FF2B3FF677AF0F4AD15C91
:105AA000491BD1540344FF2BF9D96EE73B607FE7D4
:105AB00035607AE73B60D9E73560D5E70A490B4A9C
:105AC0000B6823F020030B60136813F40043FBD131
:105AD000094A1360B8E700BFFC3F00208C4000205B
