:1000000000800020BD010000811A0000391A0000A4
:10001000391A0000391A0000391A0000391A000094
:10002000391A0000391A0000391A0000811A00003C
:10003000811A0000391A0000D1300000D5300000CC
:10004000811A0000811A0000811A0000811A000044
:10005000811A0000811A0000811A0000811A000034
:10006000811A0000811A0000811A0000811A000024
:10007000811A0000811A0000811A0000811A000014
:10008000811A0000811A0000811A0000811A000004
:10009000811A0000811A0000811A0000811A0000F4
:1000A000111800001D180000811A0000811A0000BC
:1000B000811A0000811A0000811A0000811A0000D4
:1000C000811A0000811A0000811A0000811A0000C4
:1000D000811A0000811A0000811A0000811A0000B4
:1000E000811A0000811A0000811A0000811A0000A4
:1000F000811A0000BD3A0000811A0000811A000038
:10010000811A0000811A0000811A0000811A000083
:10011000811A0000811A0000811A0000811A000073
:10012000811A0000811A0000811A0000811A000063
:10013000811A0000811A0000811A0000811A000053
:10014000811A0000811A0000811A0000811A000043
:10015000811A0000811A0000811A0000811A000033
:10016000811A0000AD200000811A0000811A0000F1
:10017000811A0000811A0000811A0000811A000013
:10018000811A0000811A0000811A0000811A000003
:10019000811A0000811A0000811A0000811A0000F3
:1001A000811A0000811A0000811A0000811A0000E3
:1001B000811A0000811A0000811A0000564B4CF28F
:1001C000205210B51A804DF628121A8000BF00BFC9
:1001D00001F05AFC514B4FF010621A60504A9A607D
:1001E000504ADA60504A136813F4807304D14F49BF
:1001F0000B604FF4A85313604D4B1A78110703D5C9
:100200001A7842F008021A704A4B4B492A221A7097
:100210004A4A4B4B8B4204D252F8040F43F8040B6A
:10022000F8E7484B484900228B4202D243F8042B9E
:10023000FAE74649464A002352F8230041F82300D2
:1002400001336F2BF8D1434B434A802103F8011B44
:100250009342FBD1414B3D4A1A60414B8A221A70AE
:10026000A3F5805324225A70A0221A709A7992071B
:10027000FCD59A79D406FCD43A4A937903F00C035E
:10028000082B384BF9D103221A7140225A719A79FE
:100290009006FCD5334A9179324B4906FBD5324A58
:1002A000324911600221516020221A709A7902F0BD
:1002B0000C020C2AFAD12E4B2E4A1A602E4B2F4AD2
:1002C0001A6000225A60072243F8042C2C4AC3F813
:1002D0000C2D62B601F0A0FD144B1B68DA0705D5A2
:1002E000284801F02DFD284B284A1A60284B1B781E
:1002F0005B0609D5244C254B22689A4204D121483B
:1003000001F01EFD0023236003F0CAFC01F0C2FBD4
:1003100002F078FFFEE700BF0E2005403080044069
:10032000823F04000100002B10D0034014D0034092
:1003300002D0074000E007404C97FF1F104B000021
:100340002087FF1F4C97FF1F3CA4FF1F0082FF1F49
:100350000000000000E400E05FE400E008ED00E0E1
:100360000050064000400640448004400000030165
:1003700004800440C010050014E000E0FF76010096
:1003800000002020ED6290601CE00340A5C3945A59
:1003900000F00740FFFFFFFFFFFFFFFFFFFFFFFF32
:1003A000FFFFFFFFFFFFFFFFFFFFFFFFFFFFFFFF5D
:1003B000FFFFFFFFFFFFFFFFFFFFFFFFFFFFFFFF4D
:1003C000FFFFFFFFFFFFFFFFFFFFFFFFFFFFFFFF3D
:1003D000FFFFFFFFFFFFFFFFFFFFFFFFFFFFFFFF2D
:1003E000FFFFFFFFFFFFFFFFFFFFFFFFFFFFFFFF1D
:1003F000FFFFFFFFFFFFFFFFFFFFFFFFFFFFFFFF0D
:10040000FFFFFFFFFFFFFFFFFFFFFFFFDEF9FFFF23
:1004100010B5054C237833B9044B13B10448AFF33E
:1004200000800123237010BD4C97FF1F00000000C7
:100430000C4B0000084B10B51BB108490848AFF33E
:1004400000800848036803B910BD074B002BFBD0A0
:10045000BDE81040184700BF000000005097FF1F84
:100460000C4B00004C97FF1F00000000704700BFBE
:10047000FF2800D97047074B074910B504462246AC
:10048000186900F05BFE054B18782044C0B2187064
:1004900010BD00BF1CA2FF1FC8A0FF1F7C98FF1F3C
:1004A00000B5074B83B01878012101F05BFC054AC9
:1004B000054B12680192019A1A6003B05DF804FBC3
:1004C0001088FF1F34A2FF1FC4A0FF1F2DE9F043B7
:1004D000DFF83481414F98F80000414D414C89B01C
:1004E000012101F045FC3878012101F041FC3E4B2F
:1004F000697B28690493122300264FF001090293B7
:1005000013234A46CDF81490019303964223009694
:1005100000F08EFD354B36481E7031464FF4807228
:1005200003F0AEFE636D2A69186832490368C2F8A9
:100530006812DB69304D47F6122198472F4B84F83B
:1005400058901B68079309FA09F94FF6FF7349F0B1
:100550000109079A84F8709084F85A6084F8596009
:100560006666266684F8F86084F8756084F87460BE
:1005700084F8766084F87760C4F8FC60C4F80021E1
:10058000A366E3660424012198F8000001F0EAFB69
:10059000286801F0F3FB0121387801F0E3FB2868BB
:1005A00001F0ECFB002198F8000001F0DBFB28686B
:1005B00001F0E4FB0021387801F0D4FB286801F059
:1005C000DDFB013CDFD107210D4802F0DDFB0D48CA
:1005D00002F008FE09B0BDE8F08300BF1088FF1FDD
:1005E0001CA2FF1F6897FF1F801A06007C98FF1F40
:1005F000C8A0FF1F710400000488FF1F34A2FF1F62
:10060000B4470000548EFF1F0C88FF1F00B501285F
:1006100083B009D0022802D003B05DF804FBFFF7D5
:100620003FFF03B05DF804FB064B0146187801F06C
:1006300099FB054A054B12680192019A1A6003B0B2
:100640005DF804FB0C88FF1F34A2FF1FC0A0FF1F32
:1006500010B50E4A0E4B12681B6882B00192019CC5
:10066000E31A632B0BD80B4B1B68E41A632C04D9D9
:10067000094B0021187801F075FB02B010BD074B43
:100680000021187801F06EFBEDE700BF34A2FF1FD8
:10069000C0A0FF1FC4A0FF1F1088FF1F0C88FF1FF2
:1006A0002DE9F041E0290C469DF8185008D8013D8D
:1006B000EDB20F2D02D849B2002912DBBDE8F0815E
:1006C000F729FBD90834E4B2012303FA04F414F047
:1006D000DD0FF3D0436D18680368BDE8F0411B6877
:1006E00018471F46436D8046186803682943C9B2FE
:1006F0001B6816469847D8F854301868036806F007
:100700007F011B6804F0EF049847C02CD6D0D8F8BE
:1007100054301868036807F07F011B68BDE8F0419A
:10072000184700BF00B5013183B0C9B20091C2B211
:10073000002380210348FFF7B3FF03B05DF804EB0B
:10074000FFF7AEBE6897FF1F2DE9F04F1D4BDFF896
:100750007C901A68D9F8003083B0002B0192DDF844
:1007600004A02BDD0027DFF868B0174EB8463368C9
:10077000002B1CDD5C46002504E03368AB4204F12D
:10078000100414DDE3680135002BF6D06368A2681D
:10079000C3EB0A039342F0D920683946FFF7C2FF42
:1007A0003368C4F80C80AB4204F11004EADCD9F8D9
:1007B00000300137BB420BF1800BD8DC03B0BDE841
:1007C000F08F00BF34A2FF1F0888FF1F0088FF1FA3
:1007D0008098FF1F2DE9F04FDFF85481D8F80040D2
:1007E00087B0002C07460291039299467DDD4A4E60
:1007F0000133002506EBC9145FFA83FA5FFA80FB28
:1008000005E0D8F80000A84204F110041CDD2368BC
:10081000BB4205F10105F4D1E368012BF1D10023BE
:100820005A4680213D48CDF800A0FFF739FF3C4BE8
:100830000021187801F096FAD8F800000023A842A9
:10084000E36004F11004E2DCDFF8DCC0DFF8DC80F8
:100850005CF82920541C002894FBF0F300FB1343A0
:100860004CF8294048F829304FEAC9051BDDE91842
:1008700006EB0111C968012915D10232044404E0D4
:10088000C968012902F101022AD192FBF0F300FBB1
:100890001323E918A242964606EB0111F0D14CF859
:1008A000292048F829301F4ACDF800A01D442D0109
:1008B0001368059374197751DDF814E0029E9DF8D2
:1008C0000C301648C4F804E001255A469021A66071
:1008D000E560FFF7E5FEFFF7E3FD07B0BDE8F08F49
:1008E0004CF829E048F82930DDE70F4A0F4952F863
:1008F0002330094E013342F8293093FBF4F204FB14
:10090000123309F1010241F829305FFA82FA4FEA05
:10091000C9055FFA80FBC6E78098FF1F6897FF1F35
:100920001088FF1F34A2FF1F80A0FF1FC8A1FF1F58
:100930000888FF1F00B5013183B0C9B20091C2B26F
:100940000023C0210348FFF7ABFE03B05DF804EBC2
:10095000FFF7A6BD6897FF1F00B540EA012183B0ED
:1009600009B2013201F50051D2B20092C1F3C613AF
:1009700001F07F020448E021FFF792FE03B05DF82A
:1009800004EBFFF78DBD00BF6897FF1F70B5484CA3
:10099000237882B033B9FFF7D7FE02B0BDE87040CC
:1009A000FFF756BE434D0120FFF730FE2B784F2B4B
:1009B0000AD0462B1FD000232370FFF7C5FE02B0DC
:1009C000BDE87040FFF744BE6B7803F17002D2B20D
:1009D0000F2A4DD903F15002D2B20F2A36D903F1B2
:1009E0004002D2B20F2A50D903F12002D2B20F2A0C
:1009F00020D92B78DDE7A978EB786A782D4E43EA89
:100A00000123012A1DB24BD0022AD4D1002D4DDB87
:100A10007F2D2B46A8BF7F23DAB2274B27481B68C0
:100A20000133DBB20093D0210023FFF739FEFFF73B
:100A300037FDC0E7A3F1E002E978A878FFF78CFF63
:100A40006A781D492B78E03A0A60B2E7A3F1AF015A
:100A5000C9B2EB78AA7819480091B021FFF720FEBF
:100A6000FFF71EFD6B78144AA3F1B0011160B6E7E1
:100A70001349EA780968A878903BFFF7ABFE6B78DA
:100A80000D4AA3F190011160A4E7A3F1C001A87879
:100A9000FFF750FF6B78084AA3F1C0011160A3E78C
:100AA000074B1D60FFF7FCFC7278ADE70022B4E74E
:100AB0007C98FF1FC8A0FF1F1888FF1F6897FF1FA3
:100AC0001488FF1FF8B5294C294F94F87030DFF8CF
:100AD000ACE0C7F800E00025012243F0010362F317
:100AE00047034FF6FF76294604F17800802284F808
:100AF0007030676525606560A560E56025616561AA
:100B0000A561E56125626562A562E56225636563AD
:100B1000A563E56325646564A564E564256584F8DB
:100B2000585084F8595084F85A5025666566A66670
:100B3000E66684F8745084F8755084F8765084F82A
:100B4000775084F8F85003F09BFB2046C4F800511E
:100B5000C4F80451C4F8085184F80C5184F80D51BC
:100B6000044A0549BDE8F84003F088B86897FF1FBC
:100B70007898FF1FFC87FF1F6D0400003C8EFF1F4D
:100B8000002070470369D3F83801D3F83431C01A14
:100B9000704700BF0369D3F83411D3F8382191426C
:100BA00008D2D3F83421511C1A44C3F8341192F8F6
:100BB000300070474FF0FF30704700BF0369D3F833
:100BC0003411D3F8382191423DBFD3F834219B181A
:100BD00093F830004FF0FF30704700BF704700BF00
:100BE0000369D3F84422B2F5817F03D9012303714D
:100BF00000207047D3F8442210B49C180132C3F887
:100C0000442284F83C11012010BC704738B50369B8
:100C10000A4A026093F84822022A044601D020467C
:100C200038BDD3F87452002DF9D0284602F014FADA
:100C30002846082102F0F0FA204638BDC4470000DB
:100C400038B503690546D3F84402B0F5817F1AD858
:100C50001446D3F84422D3F84402C2F5817201321B
:100C600003F59E73A242184402D2012314462B714D
:100C7000224600F047FE2A69D2F844322344C2F8E3
:100C80004432204638BD01232B71002038BD00BFFF
:100C90002DE9F0471E46044617469DF820909DF822
:100CA00024309DF828A00D4659B301290FD090F8A3
:100CB0004A329A424FF0000800D14DB3012D0ED0B8
:100CC00094F84B329E4212D00020BDE8F0871D2FD1
:100CD0004FD01A2F77D094F84A324FF000081E2ECA
:100CE0001AD01F2E6DD094F84B329E42ECD1BAF13F
:100CF000000FE9D00025B8F1000FE5D0002DE3D0BA
:100D000031E0102A35D0132A33D090F84A32884681
:100D1000A6F11103012BE6D8022594F84B329E422E
:100D200057D0BAF1000F09D094F84C3294F84B0226
:100D3000002B14BF0221002101F01AF82B02B9F197
:100D4000000F13D143F06403264A02EBC6020121CF
:100D50005268136084F84B6284F84C9284F89912BC
:100D6000B8F1000FB0D00120BDE8F08743F00303D5
:100D7000EAE74FF0020894F84A22974226D04BB196
:100D800094F84C3294F84A02002B14BF022100213F
:100D900000F0EEFF4FEA0822B9F1000F0ED142F049
:100DA0006402104B03EBC703596801230A6084F8FF
:100DB0004A7284F84C9284F898327EE742F003023B
:100DC000EFE70625A9E74FF00608D4E7002BE1D0AE
:100DD00073E7BAF1000FB1D0B8F1000F3FF474AF70
:100DE0008CE700BFF4480000F8B5C3681B789B0689
:100DF00010D483680D4680211970C36812211970C0
:100E000090F84932012B044606D08AB980F848226E
:100E10000120F8BD0020F8BD1A4675B9474B4FF0C8
:100E200080711960022A0FD0012084F84802F8BDB1
:100E3000531E012BF1D90120F8BD012DF2D13F4BFA
:100E40004FF000711960EDE7D4F87462002E6AD09B
:100E50003379102B30D0002D3CD132683849938B38
:100E6000384F9BB243F0080393833279531102F158
:100E700010009B0041F8207003F1604303F56143CB
:100E8000012102F01F0201FA02F231681A608B8B15
:100E90009BB243F002038B83337903F1804303F564
:100EA000043396221D701A700022022384F85E22F9
:100EB00084F848320120F8BD304602F0CDF83046C3
:100EC000082102F0A9F900230120C4F8743284F843
:100ED0004802F8BD012DE7D132681949938B1A4FAA
:100EE0009BB243F0080393833279531102F110004F
:100EF0009B0041F8207003F1604303F5614302F069
:100F00001F02954032681D60938B9BB243F0020331
:100F10009383337903F1804303F50433002197224F
:100F200019701A70C0E7082002F074F931460746BC
:100F30003E4602F02DF8C4F8747289E700E100E043
:100F40000082FF1F111800001D180000F0B5284E88
:100F5000DFF8ACE0A6FB0143A6FB02429E09370284
:100F60007546960914240023B7FBF6F604E0013316
:100F7000372B1BD055F8044F22029642F7DA83BB79
:100F800014241C4A4568B1FBF4F491422B70C0F85C
:100F9000504207D8184B8269A3FB0131C1F30751B6
:100FA0001170F0BD836904221A70F0BD002422463E
:100FB0004FF470274FF470654FF0360CB21AF71BE0
:100FC000002A87EAE776A6EBE776B8BF5242964258
:100FD00002DD0A4AD35CD4E7084B2C4613F80C30E8
:100FE000CFE703F1FF3C5EF82C502F02E6E700BF8D
:100FF000D34D6210FF6BDC02819F5E16BC4800007F
:10100000E0470000F0B49DF814409DF810609DF892
:1010100018503CB135B1C7683F78BF0602D50020F3
:10102000F0BC7047069505940496F0BCFFF730BEFF
:101030002DE9F04184B0044694469DF828609DF85F
:101040002C209DF830009DF834E09DF83C700D4652
:1010500000294BD1DFF8E080D8F8001041F04001C2
:10106000C8F80010002184F849C284F85512BCF178
:10107000000F2AD163692021197012B994F84A220D
:10108000D2B210B994F84B02C0B294F8981294F806
:10109000996202960346CDF800E001912046294668
:1010A000FFF7B0FF0E9A23492046FFF74FFF3A465D
:1010B00029462046FFF798FE94F8493263B3A368A7
:1010C000C0221A7004B0BDE8F0816169CEB14FF062
:1010D000280C81F800C09E42216823D95B00DBB256
:1010E0000B707600E369F6B21E70C6E70129B9D12C
:1010F000DFF84480D8F8001041F08001C8F80010F3
:10110000B0E74FF0200C81F800C021685B00DBB233
:101110000B70E3691E70B0E7A36880221A7004B0F8
:10112000BDE8F0817600F6B20E705E00E369F6B2BB
:101130001E70A2E7006CDC023480044070B5D0F869
:101140003841D0F834319C4218D9D0F83831D0F831
:101150003451D0F834615D1B954228BF15460446D2
:1011600000F130032A460846991900F0CBFBD4F869
:1011700034312B44C4F83431284670BD002070BD92
:101180002DE9F041C04E337804460133DBB2C0682C
:10119000A768337005783B78DBB203F0200282B099
:1011A000EDB23AB313F0100F94F85E327AD0022BFE
:1011B00000F0D88094F85E32032B00F0D38094F8CE
:1011C0005532082B00F0298294F85532092B00F093
:1011D000648294F85532012B00F0D38180233B7058
:1011E000E36802221A703378013BDBB2337002B03D
:1011F000BDE8F08102F0FF08EA0624D405F04002C1
:1012000002F0FF0E1ABB03F0100303F0FF02002BE5
:1012100000F0838015F0010540F0A881D4F8402249
:10122000D4F844329A4207D2D4F840325A1C2344AC
:10123000C4F8402293F83C5123691D70A368D02262
:101240001A70E0686EE0102303706806C8D594F841
:1012500055320C2B00F0098105F0040505F0FF075D
:10126000002D64D0A3680021D0220B2084F8550201
:10127000C4F844121A702269D4F86C1213785B080F
:1012800084F8563209B188472269D4F84432002BD9
:1012900000F0748194F83C8182F800800123C4F846
:1012A00040329DE7022B00F0A68094F85E32032BBB
:1012B00000F0A180D4F83831D4F858220233934298
:1012C00000F04F8194F85532012B00F04581D4F89D
:1012D00038310133934280F0198194F85532012B53
:1012E00000F00F81D4F838312269591CC4F8381144
:1012F0002344127883F83020E36802221A7094F8AD
:101300005532DBB2012B7FF46EAF94F85D22002AD8
:101310007FF469AF84F85D3265E794F855320C2BA1
:1013200000F09C810223037002B0BDE8F081574BAE
:10133000574A94F84B0284F85C72002914BF114696
:101340001946032200F03CFCA3680C21C02284F85B
:101350005512C4F838711A7023691B785B0884F839
:1013600056323DE7D4F8742213689B8B190604D5D6
:1013700094F85E32022B00F0B88094F85E32032BB2
:1013800000F08E80434B12791968012393400B4281
:101390003FF429AF4049414B0A70D4F874120979DF
:1013A00019700022072384F85E2284F85532D4F89D
:1013B0009432013304D0D4F894320133C4F8943217
:1013C000EA0611D5042384F85532D4F88C3201335F
:1013D00004D0D4F88C320133C4F88C32E268102186
:1013E00000231170C4F84032A36880221A70E368A9
:1013F00002221A7032E0D4F874321A68928B120604
:1014000003D594F85E22022A63D094F85E22032A60
:1014100000F0DA801F491A790968012393400B42D2
:101420003FF4E1AE1C491D4B0A70D4F874221279C6
:101430001A70A36880220020072184F85E0284F8D5
:1014400055121A70E36802221A70D4F894320133EC
:1014500004D0D4F894320133C4F89432D4F8703202
:10146000002B3FF4C0AE9847BDE6D4F86832002B9D
:101470003FF4F2AE0022C4F83421D4F838010191CF
:1014800098470199E8E600BF30A2FF1F81180000CD
:101490008D1800002C8000401E8000401F800040FE
:1014A00003781906FCD5C14B12791A70002384F811
:1014B0005E32D4F844322169013BC4F84032D4F89A
:1014C00040322344022293F83C310B70E3681A70D7
:1014D00089E6B7491B790B70A368E8211970E368A6
:1014E000032184F85E121A707DE6B14912790A7000
:1014F000A268F0211170E268032184F85E12137073
:1015000071E694F85D32002B3FF4ECAEA368002145
:10151000B02284F85D121A70D4F838312269591C4F
:10152000C4F838112344127883F8302094F85432E8
:10153000012B00F0C480E36802221A7094F855323F
:10154000012B33D0D4F86432002284F85522002BCA
:101550003FF4D5AE9847D2E694F85D32002B7FF485
:10156000B6AEE8233B70D4F85822B0E6C0233B70F7
:101570002369E0681B7884F855E2D3E684F83C31AF
:101580008AE694F85432012B0CBF8023B0233B70C1
:10159000E36802221A70D4F8803201333FF45EAF60
:1015A000D4F880320133C4F8803257E7D4F880325F
:1015B000013304D0D4F880320133C4F88032D4F837
:1015C0007032002BC6D19AE6784A1B791370A36853
:1015D0000021B02284F85E121A70D4F858322269C1
:1015E000013BC4F83831D4F83831591CC4F83811EB
:1015F0002344127883F8302094F85432012B00F001
:10160000C180E36802221A70D4F86432002284F8A0
:101610005522002B7FF427AFE5E505F0100303F01A
:10162000FF02002B52D000230421102284F85E32E6
:1016300084F855120270A26880211170E268C4F823
:10164000403202231370D4F88C3201333FF406AFDA
:10165000D4F88C320133C4F88C32FFE6554B564D2A
:1016600084F85C22002914BF29461946032294F805
:101670004B0200F0A5FA23691B78D4F83821B2F5A3
:10168000817FDBB207D8D4F83821A1180132C4F821
:10169000382181F83030E06844E6EB062ED504228C
:1016A000102384F855220370A36880221A70E3681F
:1016B00002221A70D4F88C320133C9D1CEE620232D
:1016C000013BFDD1A36880221A7034E715F00105B3
:1016D00028D084F85E22D4F84032002B59D102235E
:1016E00084F85532D4F88432013304D0D4F88432EB
:1016F0000133C4F8843280233B7078E6E9072CD5A7
:101700000223802284F855323A70E2681370D4F8CC
:10171000843201333FF4A2AED4F884320133C4F8EA
:1017200084329BE6D4F840320133C4F84032D4F816
:101730004422934242D394F8543284F85552012BF8
:101740000CBF8023B0233B70E36802221A70D4F8E8
:101750006032002B7FF487AE45E594F85E32012BB2
:1017600034D0D4F85832012B4FF00A020CBFE823D2
:10177000E02384F855223B702269E3681278022244
:101780001A7030E52023013BFDD1A36880221A7036
:1017900037E7032384F85532D4F888320133AAD0CE
:1017A000D4F888320133C4F88832A4E71C800040A2
:1017B0001F800040811800008D18000094F85E32F0
:1017C000012B12D0D4F8403221697AE60223E122BB
:1017D00084F85E323A70D4F874120C4A09791170A8
:1017E0002169E26809781370FDE40223F12284F88C
:1017F0005E323A70D4F87412044A09791170226981
:1018000094F83D111170E2681370ECE41B80004005
:1018100000210148FFF7B4BC1C88FF1F01210148CB
:10182000FFF7AEBCB88AFF1FC3681B7803F0200324
:101830005BB190F85C320133DBB2012B80F85C3293
:1018400017D990F84B0200F037BA70B503F0FF05D6
:10185000044680F8555290F84B0200F02DFAD4F867
:1018600068325BB1C4F83451D4F83801BDE8704037
:10187000184790F84932012BE3D1704770BD00BF83
:1018800000210148FFF7D0BF1C88FF1F012101483C
:10189000FFF7CABFB88AFF1F2DE9F843134BDFF8E3
:1018A0005C90DFF85C80124E124D1E6000244FF4F5
:1018B0007A774A4641461C711C739F6018465C73D8
:1018C0001D6102F0DBF90C4B4FF0010E05F5277599
:1018D0001C711C7383F80DE04A46414618461D6191
:1018E0009F601E60BDE8F84302F0C8B91CA2FF1F4C
:1018F000C44700001C88FF1F08A2FF1FFC87FF1FB2
:101900000D0C0000844641EA000313F003036DD17F
:10191000403A41D351F8043B40F8043B51F8043BB2
:1019200040F8043B51F8043B40F8043B51F8043BB9
:1019300040F8043B51F8043B40F8043B51F8043BA9
:1019400040F8043B51F8043B40F8043B51F8043B99
:1019500040F8043B51F8043B40F8043B51F8043B89
:1019600040F8043B51F8043B40F8043B51F8043B79
:1019700040F8043B51F8043B40F8043B51F8043B69
:1019800040F8043B51F8043B40F8043B51F8043B59
:1019900040F8043B403ABDD2303211D351F8043BF9
:1019A00040F8043B51F8043B40F8043B51F8043B39
:1019B00040F8043B51F8043B40F8043B103AEDD2A8
:1019C0000C3205D351F8043B40F8043B043AF9D2F9
:1019D000043208D0D2071CBF11F8013B00F8013BCC
:1019E00001D30B8803806046704700BF082A13D3D9
:1019F0008B078DD010F003038AD0C3F10403D21AF1
:101A0000DB071CBF11F8013B00F8013B80D331F824
:101A1000023B20F8023B7BE7043AD9D3013A11F8A4
:101A2000013B00F8013BF9D20B7803704B7843700F
:101A30008B7883706046704708B5104C08E02368C7
:101A400059050DD423681A050FD42368DB0411D47B
:101A500023685803F3D500F029FB23685905F1D515
:101A600002F02CF823681A05EFD500F009F8236876
:101A7000DB04EDD500F004F8EAE700BF3480044051
:101A800008B5FFF7D9FF00BF014B10221A8070473D
:101A900000200540704700BF094908B50B6830B108
:101AA0006A461844A2F58052904202D20860184655
:101AB00008BD02F0EFF80C2303604FF0FF3008BDC3
:101AC000548DFF1FEFF3138070B9EFF310836BB9E0
:101AD000EFF305825AB94FF48070EFF311832BB105
:101AE000984228BF184670474FF0FF3070470F2AC2
:101AF00001D81846F1E7014BD05CEEE7F0E300E0D7
:101B0000704700BF10B40F4B53F8302092F880425A
:101B10002CB1012369B182F8803010BC704703EB0F
:101B2000C0035B681A6841B922F002021A6010BC57
:101B3000704782F8003110BC704742F003021A600F
:101B400010BC7047F44800001C4A02EBC003012996
:101B50005B6811D004291BD052F83000002280F8B5
:101B6000802229B1022920D0032922D01A6070478F
:101B70004FF480721A60704752F830004FF4A2722E
:101B800080F880121A601A6822F020021A607047EA
:101B900052F830104FF4A272012081F880021A60CE
:101BA0001A6842F020021A60704740F203121A606D
:101BB00070474FF481721A60704700BFF44800000C
:101BC000212848D8F8B5042A44D8DFE802F0484B69
:101BD0004E0345004FF410262B4B03EBC0030D467C
:101BE0005C68216811F4E06148D0284B284A2949F3
:101BF000C3F89C2104F140422748C3F8A411A2F580
:101C00009221264FC3F8A0017C292548C3F8A8716A
:101C1000C3F8AC012CD9A2F594237C2B2AD9A2F5C8
:101C200096237C2B28D9A2F598237C2B29D9A2F5C1
:101C30009A227C2A27D81B4872B6236823F4702383
:101C400043F08072C4F384011643236040F82150AE
:101C5000266062B6F8BD70474FF43026BCE74FF4FB
:101C60000026B9E74FF44026B6E74FF42026B3E745
:101C70000D48E1E70D48DFE70D48DDE7FFF764FFBA
:101C8000B3E70C48D8E7F8BDF44800000082FF1F16
:101C9000D187FF1F7987FF1FA587FF1F4D87FF1F74
:101CA0002187FF1F308EFF1F588DFF1F908DFF1F54
:101CB000E08DFF1F108EFF1F1A4B03EBC00010B406
:101CC000426802F14043A3F592217C2923D9A3F570
:101CD00094217C290DD9A3F596217C291FD9A3F540
:101CE00098217C2919D9A3F59A237C2B11D80E4C65
:101CF00000E00E4C72B613680D4823F08773C2F3F0
:101D0000840123F4803343F08073136044F821008E
:101D100062B610BC7047074CECE7074CEAE7074C8B
:101D2000E8E700BFF4480000308EFF1F908DFF1FD2
:101D3000011B0000588DFF1F108EFF1FE08DFF1F3D
:101D400030B4054B054D064C002210211A602A6064
:101D50002060196030BC704714D0034004D00340A9
:101D600000D00340212801D8FFF7CCBE704700BF48
:101D7000212801D8FFF7E8BE704700BF2DE9F843DE
:101D8000054672B6204F214B214A1B683C681268F9
:101D900062B6520102D5322B88BF013495B3C3F528
:101DA000BB331C4EDFF86490DFF86480FF334FF4E0
:101DB0007A72A6FB031302FB04F404EB931472B6CD
:101DC000D9F800103A68D8F800E062B6C1F5BB3324
:101DD000FF33A6FB03031EF0806FC4EB93134FF495
:101DE0007A7002D0322988BF013200FB0233B3F58A
:101DF0007A7F04D3013D05D004F57A74DFE701F062
:101E000023FADCE7BDE8F88334A2FF1F18E000E006
:101E100004ED00E0ABAAAAAAF8B52D4B2D49DFF8D6
:101E2000D0E0DFF8D0C02C4E2C4D2D4C2D4A2E4F3B
:101E30004FF4000018604FF0807018604FF0007091
:101E400018604FF0806018604FF00060186000204C
:101E5000086028234BF6FF71CCF80010CEF8003054
:101E6000336013602B6023603B60B362936209228E
:101E700045F8242CC4F8D80F05F57F65C7F8D41FA2
:101E800007F5FF2707F5FA67C6F8F83F2B6006F558
:101E9000FF26C4F8D42F05F5FD2504F5FF2438608E
:101EA00006F2F4761148316005F5FF6504F5FD642E
:101EB0002B602360026001F03DFA1920FFF75EFFFE
:101EC00000F05AFE40F21310BDE8F840FFF756BF8D
:101ED00008E100E0048003401480034024800340B4
:101EE0002C8003401C8003403480034000800B4062
:101EF0000C80034008800340431E032B14D872B6A5
:101F00000A4951F8230068B170B4094C058834F8C7
:101F10001320466841F82360521B24F8132062B650
:101F200070BC704762B670470020704790A2FF1FD8
:101F300024A4FF1F013803280BD872B6074B53F8AF
:101F4000203043B100205B680130002BFBD162B62A
:101F50007047002070471846F9E700BFE4A2FF1F52
:101F600030B472B62B4A13781D0706D52A4B196A6E
:101F7000002936D0996A002941D053781C0706D52C
:101F8000254B196C00293ED0996C002939D09378E3
:101F9000190705D5204B196E002936D0996E89B1E5
:101FA000D3781B0707D51C4BD3F880207AB3D3F81E
:101FB000882011213AB162B6184B00221A7030BC49
:101FC00000F056BE0D21154C154D227843F83150C6
:101FD00003EBC1030830013A5860227062B630BC8E
:101FE000704704220D4C0F4D217843F8325003EB1B
:101FF000C20308304A1E5860227062B6EFE705211E
:10200000E1E70921DFE70822ECE70C22EAE71022EA
:10201000E8E700BF904A00000080FF1F0DA3FF1FEC
:10202000C800400088004000431E032B1DD81B4AF7
:10203000400140F0100030B4104472B6184CE25C1D
:10204000032A1BD8DFE802F00212151703220D88BD
:10205000E25410F0080F14BFC823882343EA054355
:1020600008310360416062B630BC7047083002221C
:10207000EDE70522EBE708300422E8E7094A52F8C9
:10208000230038B1084A52F82300416042F8231077
:1020900062B6E9E742F82310034AF7E70080FF1F22
:1020A0001CA3FF1FE4A2FF1FF4A2FF1F2DE9F04FA6
:1020B000DFF818B3DFF818A387B044E0AE4F4FEA5B
:1020C000930807EBC809013ED9F8042003F0080380
:1020D000F6B2A2F1080003F0FF04002B40F00481E7
:1020E00057F838301B0C99B222F8081C002B00F06E
:1020F000F280A24B22F8064C42F8044C53F82620FA
:10210000002A00F06E819E4D55F8263058609D4C97
:1021100045F8260034F81630194424F8161000F05B
:1021200087FD002800F05681974A984B19F0080F58
:1021300000F1080018BF1346C9F8040047F838300A
:1021400008238BF800309BF80040E4B261071BD5F0
:102150008F4B1B78ABB18F490A7802F0FF032AB18D
:10216000013BDBB20B70002B00F0EF848A490A7848
:1021700002F0FF032AB1013BDBB20B70002B00F031
:10218000F78004238BF8003004F0080303F0FF020B
:10219000002B00F0D6809AF80030DBB21E098DD1FA
:1021A0009C08DFF8D49159F8342009EBC401C2F33C
:1021B0008302013A49680C2A7ED8DFE802F0818167
:1021C0007D7D7D7D7D7D477D7D7D07000868734D2C
:1021D0004A68734F734E286081B240F281606A4B47
:1021E0006A604FF0010E0022814249F834303A60B3
:1021F000C9F81020C9F8182086F800E05E4C00F2FB
:10220000F480B1F5D06F80F07883B1F5817F00F074
:10221000628300F28782802900F0EC82822940F0FC
:102220001E83A98801F07F01042900F218835E480B
:102230005E4C89000844227062700278930740F176
:10224000798384F800E04FF0020ED8E2544F3A68E8
:1022500042B3574B534E5749188834780D7840286D
:10226000864645F0020828BF4FF0400E002C84F04F
:1022700001043470CEEB00000CBF8824C82409EBA5
:10228000C80680B285F0010544EA0E4472601880E9
:1022900049F8384072440D7018B9BEF1400F18BFAC
:1022A00000223A603D4B1A88B2F5A06F04D100219C
:1022B0009A785970404B1A70404A012313703FE7D7
:1022C000364A158842F22100854200F0FF812E4AED
:1022D00049F83420F0E72C4A2C4B19F0080F18BFAE
:1022E000134647F838302BE700F0C2FC344A354932
:1022F00052F82630002B00F0B68158688C5D42F809
:10230000260003F10802C9F80420032C05D8DFE8F1
:1023100004F0120F150204228A551A8819F0080FCA
:102320000CBF8823C82343EA024347F8383007E745
:1023300002228A55F1E703228A55EEE705228A55E3
:10234000EBE7E00700F11A82210600F14982A207BB
:1023500006D51D4A1D4913780220DBB213700870A0
:10236000E30602D5194B10221A7007B0BDE8F08FB2
:1023700000F0EAFD05E700BF0080FF1F90A2FF1FED
:102380003CA2FF1F24A4FF1FC8004000880040009B
:1023900018A3FF1FA1A2FF1F20A3FF1F04A3FF1F5D
:1023A00038A2FF1FA0A2FF1FC020074010A3FF1FDD
:1023B0004CA2FF1F0CA3FF1F98200740942007404A
:1023C000E4A2FF1F1CA3FF1F8820074080200740B6
:1023D00090200740AB4A47F8380013780133137058
:1023E000AEE643F82600A84D91E642F22100814274
:1023F00000F0358100F2AF81B1F5086F00F01B826B
:10240000B1F5106F40F02B82226AA049A8780870BD
:10241000120600F14583D9F828209D49130600F1E2
:102420003A83D9F830209A49150600F12F83D9F85C
:1024300038209749140600F12483D9F840209449A4
:10244000100600F11983D9F848209149120600F1CD
:102450000E83D9F850208E49130600F10383D9F872
:1024600058208B49150600F1F882D9F86020884978
:10247000140600F12983D9F868208549100600F177
:102480001E83D9F870208249120600F11383D9F80F
:1024900078207F49130600F10883D9F880207C4911
:1024A000150600F11C83D9F888207949140600F13B
:1024B0001083D9F890207649100600F1C882D9F827
:1024C00098207349120600F1BC827248724A73491F
:1024D000019073486C4D734C049700230596029548
:1024E000804617460E461D460394386828B1446856
:1024F00000F0BEFB2046002CF9D100233B60029B7C
:1025000030681A46002342F8253028B1446800F0AC
:10251000AFFB2046002CF9D100223260019A98F8D6
:1025200000301146002241F8042B039A0191023B2E
:102530004FF0000122F81510032B09D8DFE813F043
:102540004B0104004B0104004FF0010388F80030F8
:102550000135042D07F1040706F1040608F101080E
:10256000C3D1514C514B2278464D049F059E00210A
:1025700029701A70130700F14F8262784C49DFF816
:1025800010810A7010074FF00001C9F83010C9F827
:10259000381000F12B824749A2780A700021C9F84F
:1025A0005010C9F858101107DFF8E48000F1DC8101
:1025B000E2784149364C0A7000211207C9F87010C0
:1025C000C9F8781000F1B98133780193002183F0C4
:1025D0000102C9F89010C9F89810002002908046B6
:1025E0008446044635490D7845F0020E09EBCE03CA
:1025F0000393019B002B039B5C600CBF8824C824C1
:1026000044EA080385F0010449F83E3032700C704A
:10261000DFF87CE02A4BDFF8A480002840F0268118
:10262000BCF1400F1BD144F0020C09EBCC03029C1F
:10263000DFF85CE05C60002A40F02E81020442F08A
:1026400088029DF804304EF83C20044433700D702D
:102650002346402803D100201A4A3B6010801A4AC2
:102660000123137028E68B5D032B00F22D8101A25C
:1026700052F823F04121000041210000CB27000047
:10268000D12700000DA3FF1F3CA2FF1F18A3FF1FAF
:102690000080FF1FF4A2FF1F90A2FF1FE4A2FF1FF4
:1026A0001CA3FF1F24A4FF1F904A0000C420074062
:1026B000C8200740CC200740D02007400CA3FF1FB4
:1026C000A0A2FF1F4CA2FF1F94200740928892B93E
:1026D000B14A0D784878157050708D78C87895702B
:1026E000D07010680D79157186284D7989795571EA
:1026F000917100F0A580A949A94E0A78307882F03E
:102700000105002842F002020D700CBF8821C8218B
:1027100049F8321009EBC20280F00100002130704C
:102720005160D4E540F20232914240F08D80A98898
:1027300001F07F01042900F292806A88002A40F0AB
:102740008E809848CDF804E089000844017841F073
:102750000201017041E742F2212081427BD1A98828
:10276000002940F0E480904B904A9148AC781D6875
:102770001560CDF804E00A4604702EE78D4B8E48B4
:1027800086491A614FF0020E80F800E0854F0A700A
:102790008A49196099608A4E8A4D8B4C9A610D2145
:1027A0003970FF213170DFF840E229702270874DC7
:1027B000874A8EF800109F27012406F8047C5D608C
:1027C0000470DA6007B0BDE8F08F00238B55B7E4E2
:1027D00001238B55B4E44FF0000388F80030B7E6CE
:1027E0007049784B80220D2008701A70A2077FF57F
:1027F000B7ADAEE5774C4FF0020E22706270EA88FA
:10280000724580F0A38165490D78402A944645F0D1
:10281000020E28BF4FF0400C04EB0C0309EBCE0076
:102820000293012344604FEA0C48CCEB0200019371
:102830000022C824E4E6684A664C12782270DEE77B
:10284000664A0F21117056E7B1F5A06F07D1012339
:1028500000220193C1E642F221329142F7D0514A5F
:102860000F231370544A0123137025E540287FF687
:10287000DAAE44F002040EEBC401029E4E60BAB11F
:102880009DF80410564A19703346403888F80050B5
:1028900040334EF83420DFE69DF8043033700204F4
:1028A000029B0D7042F0C80203444EF83C20D0E673
:1028B0009DF804101970029B404A88F80050403877
:1028C00040334EF83420C7E619F0080F0CBF02233E
:1028D00003238B5534E4A98801F07F010429BED875
:1028E0006A88002ABBD12F48CDF804E0890008444B
:1028F000017821F0020101706FE63A4A5468002C19
:10290000ADD06888B5F804E003E00C325468002CC0
:10291000A5D013888342F8D153887345F5D1000AB6
:1029200003280CBF94F800E0B2F808E067E7CDF8A0
:1029300004E052E64FF0020E61E700F079F900285A
:1029400000F0F18008301D4AC4F88400C4F88020EB
:1029500000F06EF9002800F0E0800830204AC9F845
:102960008C00C9F888202FE600F062F9002800F0FA
:10297000E6800830114AC8F86400C8F8602000F00A
:1029800057F9002800F0D5800830154AC9F86C00C6
:10299000C9F868200CE600BF2CA4FF1F0CA3FF1F82
:1029A000A0A2FF1FC020074034A2FF1F34A4FF1FB6
:1029B00030A3FF1F0080FF1F9420074088004000C5
:1029C00088200740802007409820074050A2FF1F22
:1029D000A4A2FF1F10A3FF1F18A3FF1FA1A2FF1F88
:1029E000C8004000944A00008C20074000F020F905
:1029F000002800F08C8008305D4AC8F84400C8F810
:102A0000402000F015F900287BD00830594AC9F859
:102A10004C00C9F84820BEE500F00AF900286AD049
:102A20000830534AC9F82400C9F8202000F000F902
:102A300000285AD008304F4AC9F82C00C9F828207D
:102A40009BE5D1F89C00083800F012F93DE5D1F87B
:102A50009400083800F00CF931E5C86D083800F032
:102A600007F902E5486D083800F002F9F7E4C86C90
:102A7000083800F0FDF8ECE4486C083800F0F8F88D
:102A8000E1E4C86B083800F0F3F8D6E4486B083886
:102A900000F0EEF8CBE4C86A083800F0E9F8C0E4CA
:102AA000606A083800F0E4F8B5E4C86F083800F050
:102AB000DFF8F2E4486F083800F0DAF8E7E4C86EAF
:102AC000083800F0D5F8DCE4486E083800F0D0F89B
:102AD000D1E4D1F88C00083800F0CAF8E9E4D1F864
:102AE0008400083800F0C4F8DDE42A78C9F828002A
:102AF00001322A7041E52A78C9F8200001322A7093
:102B000094E72A78C9F8480001322A7043E52A7808
:102B1000C8F8400001322A7073E72A78C9F88800A3
:102B200001322A7050E52A78C4F8800001322A70F8
:102B30000EE72A78C9F8680001322A7038E52A7849
:102B4000C8F8600001322A7019E700BEBEF1400FDC
:102B5000F44628BF4FF0400C04EB0C030293012312
:102B6000CCEB0E004FEA0C48002201933AE500BF7F
:102B700088004000C80040002DE9F843204C01F0D7
:102B800023F8002204F1A00023461A605A6008339B
:102B900083424FF00001F8D11A4A1B4F13681B4DB6
:102BA0001B481C4EDFF87880DFF878C0DFF878909B
:102BB000DFF878E043F480231360C4F307233B700D
:102BC000C4F307432B70240EFF2302F52832047050
:102BD000114D88F8003011488CF80030D432337031
:102BE000012389F8003070268EF800104FF400742D
:102BF000102107F8183C2E7004601170BDE8F883AE
:102C00000080FF1F348004409C200740B020074014
:102C1000B42007401020074049E400E008E100E04C
:102C2000802007408820074094200740002107406B
:102C300072B60D480268B2FA82F30B2B10DC4FF02B
:102C40000041D94022EA0102026062B6074803EB64
:102C5000C303DB00C2180021C15010465160704709
:102C600062B60020704700BF388EFF1FBC83FF1F75
:102C70000D4B0E4AC31AA2FB03231B090B2B0CD8C6
:102C80000B4A127852B972B60A484FF000410268F6
:102C900021FA03F31A43026062B67047064A1278BB
:102CA000002AF0D0FFF75CB9BC83FF1F398EE338F0
:102CB0000DA3FF1F388EFF1F18A3FF1F38B50F4D40
:102CC000286878B143880288C118013393420C7A8E
:102CD00002D24380204638BDFFF7CAFF00232046BA
:102CE0002B6038BD064B1B782BB10320FFF704F98E
:102CF00028600028E6D14FF0FF3038BD2CA3FF1F1D
:102D000018A3FF1F10B5094C206818B14388184458
:102D1000007A10BD064B1B782BB10320FFF7ECF8AF
:102D200020600028F2D14FF0FF3010BD2CA3FF1F10
:102D300018A3FF1F044B054A1B6890881BB11A8813
:102D40005B88D31A184470472CA3FF1F24A4FF1FCD
:102D50000B4B1B789BB110B50A4C206848B1FFF7AC
:102D600087FF002303202360FFF7C6F830B1FFF789
:102D70007FFF0320FFF7C0F80028F8D110BD70478F
:102D800018A3FF1F2CA3FF1F2DE9F04FDFF8F890C9
:102D900083B0012289F80020019169B3DFF8EC804B
:102DA000364F019E8346D8F80000B0B3344D4488B6
:102DB000C4F14001B14228BF314604EB010E0022AC
:102DC0001FFA8EFE2A70761AA0F802E000F10802BF
:102DD00051B1013C224459441BF8014B02F8014F08
:102DE0008B45F9D1B0F802E0BEF13F0F0BD8254A70
:102DF00005211170002ED6D10198002389F80030EA
:102E000003B0BDE8F08F4022028001460420FFF7A6
:102E10000BF90022C8F80020E9E73A782AB3184DE8
:102E20004AF2F9244FF0010A07E0013C16D02A7853
:102E3000A2B900F009FA3A78BAB10420FFF77AF89B
:102E40000728F2D889F800A0FFF7F2FEC8F80000C2
:102E50000028ACD10C4B013C1870E8D101234FF095
:102E6000FF302B7003B0BDE8F08F00234FF0FF3030
:102E700089F8003003B0BDE8F08F00BF18A3FF1F32
:102E800028A3FF1F20A3FF1F21A3FF1F24A3FF1FB1
:102E900000B583B002AB012103F8010D1846FFF71E
:102EA00073FF03B05DF804FB38B50E4D0E4C286877
:102EB0000123237028B1408800232370C0F1400013
:102EC00038BD0A4B1B7813B90020207038BD042090
:102ED000FFF730F80728F7D8FFF7AAFE2860002888
:102EE000E9D1F1E724A3FF1F21A3FF1F18A3FF1FB0
:102EF000F8B5114B1B788BB1104E114D346801277A
:102F00002F7064B10F4A6388002717702146238011
:102F10000420FFF789F8376000232B70F8BDFFF716
:102F200087FE084B28B1014604201C70FFF77CF88F
:102F3000F2E71F70F0E700BF18A3FF1F24A3FF1FD5
:102F400021A3FF1F20A3FF1F38B50E4B1B7873B9B9
:102F50000D4C216861B103F0FF054B880B80042004
:102F6000FFF762F8256038BD084B01221A7038BDA2
:102F7000FFF75EFE0028F7D00146BDE83840042088
:102F8000FFF752B821A3FF1F24A3FF1F20A3FF1F99
:102F9000F0B572B699B902688AB103790F2B0ED8D1
:102FA000274C218841FA03F5ED070AD503F1007398
:102FB00003F59063B2EB431F03D162B6F0BD204C22
:102FC0002188002341FA03F212F0010207D00133F5
:102FD000102BF7D162B6002203710260F0BD01250B
:102FE0009D402943218062B6164E174D174FDFF8DA
:102FF00064E0D9B20171346844F0020434602C6892
:1030000044F002042C60A6F580268224A5F58025D4
:1030100003F100733C6003F59063223E243D0C4CA9
:103020008EF800105B0131702970217003601A6006
:103030005A609A60DA601A615A619A61DA61F0BD89
:1030400032A3FF1F408004403C80044000800040C9
:103050001F8000401A80004003790F2B11D8094AC5
:1030600010B4137072B6084904790A880123A3408A
:1030700022EA03030B8062B61022002310BC027107
:10308000036070471A80004032A3FF1F70B5EFF352
:10309000108272B60C4C206880B10C4E002543693A
:1030A000236073B19D6102B962B645778368984722
:1030B000EFF3108272B620680028F0D102B962B630
:1030C00070BD3360EFE700BF34A3FF1F38A3FF1FBD
:1030D000FFF7DCBF024A136801331360704700BF7B
:1030E00034A2FF1F0368C9B21B6818470368C9B23E
:1030F0001B6818470368C9B21B6818470368C9B240
:103100001B6818474B0803F1376303F5D83310B534
:103110000446B3FBF1F000F0F5F9044B1B7803B162
:1031200010BD2046BDE8104000F090BD508EFF1F3E
:1031300008B5084600F0B4FB012008BD08B50846F4
:1031400000F0AEFB012008BD38B508460D4601F081
:1031500017F904460146284600F0ACFB204638BD6E
:1031600010B508461446114600F0A4FB204610BDD9
:1031700000F07EBC08B5084600F06AFB003018BFBE
:10318000012008BD08B5084600F040FB003018BF1C
:10319000012008BD0846114600F0D4BA084600F0E8
:1031A0000BBB00BF084600F0B1BA00BF00F04CBA3C
:1031B00010B54B0803F13760144600F5D830B0FB6A
:1031C000F1F000F09FF92046BDE8104000F010BA81
:1031D00000F036BC00F000BC00F0EEBB00F0CEBB4F
:1031E00000F0D8BB00B5064A036812885B6883B05C
:1031F00001A9ADF804200222984703B05DF804FB52
:10320000644A000008B5FDF761F9FDF7BFFB00F067
:103210001BF8FAE700F06CBD00F072BD704700BF0C
:10322000FFF796BDFFF76EBDFFF748BDFFF782BD04
:10323000FFF75EBEFFF738BE08461146FFF7A4BD94
:103240000846FFF725BE00BF2DE9F843314E33781D
:1032500093B1314F3A787AB90122D9073A7036D40E
:103260009A0719D400225B073A7005D52B4B1A68D0
:1032700012B1EFF305820AB1BDE8F883EFF31081D4
:1032800072B6186818B1264C2278002A2ED0002970
:10329000F2D162B6BDE8F883DFF8908098F800209C
:1032A000002ADFD0DFF88890002405E0013498F888
:1032B0000030E4B2A34212D959F824502B682846B2
:1032C0001B6998470028F1D02B699847EEE7FFF774
:1032D00031FDC8B9134B1B781BB93378C0E733787D
:1032E000C0E7337803F0FE033370B9E745691D602A
:1032F000012323705DB1AA6101B962B6002545774B
:10330000836898472570B7E700F0B6FCE2E7064B04
:103310001D60F1E7648EFF1F45A3FF1F40A3FF1F41
:1033200044A3FF1F0A8FFF1F3CA3FF1FECA3FF1F37
:10333000E0A3FF1F30B42948294A2A4B2A4D6024B4
:10334000E121047011701B78284C082B30D00A2B17
:103350002748284937D00C2B0CBF35223D22122399
:103360002A60236002600B60234B24491B78244AA7
:10337000BBB101230B601360224B23491B78234A06
:10338000012B26D9042B0FD9082B1ED9102B94BF43
:10339000862387230B6013601D4B01221A7030BCFB
:1033A00070470B601360E7E784230B601360F3E75B
:1033B00000F58E200F490830012213232A60236074
:1033C00002600B60D0E73922F7E785230B601360BA
:1033D000E2E780230B601360DEE700BF0040074098
:1033E00001400740658EFF1F08B003400CB003404A
:1033F00008B00B400CB00B4047A3FF1F20B00340A8
:1034000020B00B40668EFF1F24B0034024B00B4059
:1034100046A3FF1FF0B44D1E2E46002400E00134E9
:10342000B0FBF2F302FB1300092800F130078ABF5A
:103430003730F8B2C0B206F8010F1846002BEED1B3
:103440000A1953704CB1107815F8016F28700133C8
:10345000E01A834202F80169F5DB0846F0BC7047C8
:103460002DE9F84F214B1B6807460BB101221A705A
:10347000DFF888901E4D99F80040DFF884801D4EDB
:1034800001343F2C8ABF4FF0000A5FFA84FA544699
:10349000AB462B78A34216D1FEF714FB40281FDC65
:1034A00033791B06F5D59BF8003001333F2B86BFDF
:1034B00000221346DAB218F80330DBB2F3712A7037
:1034C0002B78A342E8D00C490A4BFFB208F80470ED
:1034D0000120BC22087089F800A0DA70BDE8F88FDE
:1034E000FF28D6DDFFF7B0FED3E700BFD8A3FF1F4C
:1034F000D5A3FF1F00A00640D4A3FF1FDCA3FF1F1E
:1035000050A3FF1F2B4A2C491368F0B543F4806386
:1035100013600A78294F2A4E2A4D2B4C2B49002341
:103520003B7033702B7023700B70002A3DD0152A2E
:1035300021D0274B1B78012B25D0052B30D01F28FD
:1035400027D8002002460125224B234C1A7023491C
:103550005D7004224FF0020E88273C2640259872A9
:103560009A704FF4005083F813E05A751F74DE70A0
:1035700025700860F0BD1A4B40F213321A60144BEC
:103580001B78012BD9D1174B4FF451721F281A60A9
:10359000D7D9C0F34432C0F3471500F01F00D3E77A
:1035A000114B4FF451721A60C9E7104B40F21332BD
:1035B0001A60BEE73480044090A3FF1F4CA3FF1F96
:1035C0004DA3FF1FDCA3FF1FD5A3FF1FD4A3FF1F25
:1035D000678EFF1F00A006402DE400E004E100E03C
:1035E00018C0044044A004401CC0044040A0044053
:1035F000144B14499B7803F0EC0200F003031343CF
:10360000420700F00F0248BF43F01003042A8B70FA
:1036100013D00C4B0B4A5B79C10603F0EF0348BF94
:1036200043F0100353719379820603F0EF03054AC8
:1036300048BF43F01003937170478B7943F0400308
:103640008B71E6E700A00640234B1B685B0541D564
:1036500010B5224C237823B1FFF7F6FD2378002B19
:10366000FAD11F481F4A204B4FF400540021046038
:10367000D1701B78FBB1152B03D11C4B40F2031208
:103680001A601B4B1B7803F07F03012B1DD0052B09
:1036900003D1184B40F203121A60174A114B174816
:1036A000174912681C79DB79002303700B700AB18B
:1036B0000123137010BD134B40F203121A600C4B20
:1036C0001B7803F07F03012BE1D10F4B40F2031273
:1036D0001A60E2E7704700BF34800440D4A3FF1FA4
:1036E00084E100E000A0064090A3FF1F18C0044042
:1036F000678EFF1F1CC0044048A3FF1F4CA3FF1F81
:103700004DA3FF1F40A0044044A004400A4A38B51E
:103710000546137803F0FF04002BFAD10121284657
:10372000FEF726FB21462846FEF71CFB034A044B06
:1037300052F835201A6038BDD4A3FF1FF4480000AA
:10374000D8A3FF1F09B140F08000174A13789842B0
:1037500016D010B4154C246864050FD503F07F0310
:10376000012B1CD0052B11D0002900F07F0114BFC4
:103770006023442301290DD0052902D0107010BC0C
:1037800070470B4943F440730B60F7E7084B002484
:103790001C60E9E7074943F440730B60EEE7054B13
:1037A00000241C60E0E700BF678EFF1F34800440E8
:1037B0001CC0044044A00440104B1A7882420AD036
:1037C0000F490968490505D5AAB1152A09D068B17C
:1037D000152801D0187070470A4A40F21331116061
:1037E000F8E7084A002111600028F1D1064A40F2AA
:1037F00013311160EEE704490A60E8E790A3FF1F68
:103800003480044018C0044040A004400D4B1B68A5
:1038100013F4806305D0212805D90B4B00201860D4
:10382000704718467047094B10B5074C53F83030B5
:1038300023600121FEF79CFA236800221A70012000
:1038400010BD00BF3480044048A3FF1FF4480000AF
:103850000F4B1B6813F4806308D0122808D014287B
:1038600011D00C4A537B03F0FE03537300207047C2
:10387000094B40F202321A60064A537B43F00103BF
:10388000537301207047054B40F202321A60F3E790
:103890003480044000A006400CA0044014C0044042
:1038A000034B1B685B0501D5FFF7DABD704700BF0E
:1038B000348004402DE9F84F294B1B685A0548D540
:1038C000284B1B6805460BB101221A7005EB010A53
:1038D000554540D2DFF89C80234CDFF89C90234F65
:1038E0000AE015F8012B09F80B20214A0123AA450B
:1038F000137088F800602ED098F80030227803F119
:10390000010BBBF13F0F86BF0026B3465FFA8BF673
:103910009345E6D1BC22FA7005E03A7913060BD440
:1039200022789345DDD1FEF7CDF84028F5DDFF285C
:10393000F6DDFFF789FCF3E7227801323F2A86BFE4
:1039400000210A46D1B219F80220D2B2FA712170D0
:10395000E6E7BDE8F88F054BBC22DA70BDE8F88FCA
:1039600034800440D8A3FF1FD5A3FF1F00A006404A
:10397000D4A3FF1FDCA3FF1F50A3FF1F10B5044CEF
:10398000237823B1FFF760FC2378002BFAD110BD18
:10399000D4A3FF1F064A074B1B781078DBB2C0B2D6
:1039A00083422CBF3F3000F1FF30C01A704700BF88
:1039B000D5A3FF1FDCA3FF1F054A064B10781B7819
:1039C000C0B2DBB2984238BF4030C01A704700BF67
:1039D0004CA3FF1F4DA3FF1F30B4154B154C1A7895
:1039E0002378D2B2DBB29A421ED001333F2B0ED9DC
:1039F0001149124B087819680023C0B2237021B115
:103A0000D31A1A2B01DC00230B7030BC70470A4814
:103A10000A49C05C0968DDB2C0B225700029F4D043
:103A20009A4238BF4032EBE74FF0FF30EDE700BF7E
:103A30004CA3FF1F4DA3FF1F94A3FF1F48A3FF1F0D
:103A4000084A094B12781B78DBB29A4207D001333F
:103A5000402B28BF0023054AD05CC0B270474FF00E
:103A6000FF3070474CA3FF1F4DA3FF1F94A3FF1F00
:103A70000D4B1B685B0516D530B40C4B0C4CDA783B
:103A80000C480D4902F0CB024025DA705D74DA78FB
:103A900042F03402DA7023780268DBB20B700AB1AC
:103AA0000023137030BC70473480044000A00640EF
:103AB0004DA3FF1F48A3FF1F4CA3FF1FF0B4384BBB
:103AC0001A7912F0300F2CD072B6997D01F0FF02F6
:103AD00000293DD062B6334F334938780D78334EE4
:103AE0001C46C0B2EDB2431C402BE17928BF002335
:103AF000AB4202F1FF32C9B21CBFF154184612F0BA
:103B0000FF02F0D12A4B1B68C2B23A704BB1A842F7
:103B100036BFC5F14005401B40192728C4BF01220C
:103B20001A701F49CA78D2B2150616D452060DD59E
:103B30001B4B1B795B0609D51E4B1F491B680022D6
:103B40000A7003B11A70164B3C22DA70F0BC704751
:103B50004022D9795A7462B6E3E70B791C06E5D5A1
:103B6000164B174E1C783378E4B2DBB29C420ED071
:103B7000144D01E0A3420AD00133402B28BF00239B
:103B80000879E85CC0B2C871087D0728F2D9DBB2B9
:103B9000034933700B79180644BF7C23CB70C5E70B
:103BA00000A006404CA3FF1F4DA3FF1F94A3FF1FBF
:103BB00048A3FF1FD8A3FF1FD4A3FF1FDCA3FF1F31
:103BC000D5A3FF1F50A3FF1F70B584B072B6194B69
:103BD000194D1A48702241260F2480211A702E7028
:103BE0001A460470197013781B06FCD5144B18681C
:103BF00062B6144B144C984298BF00EB800001A9A8
:103C000098BF40000A22FFF705FC01A920460023C7
:103C100011F8012B01333AB10A2B20F8022FF7D10A
:103C20001623237004B070BD5B00DBB2237004B0B8
:103C300070BD00BF000002400700024006000240C5
:103C4000080002407F969800F48EFF1F30B40749A9
:103C5000074C0A782378074D42F0020245F823000A
:103C60000A700133237030BC704700BF648EFF1FA1
:103C7000ECA3FF1FE0A3FF1F704700BF0B460146E8
:103C8000184600F001B800BF13460A46014602205C
:103C900000F0E4BB014B1868704700BF3893FF1F6A
:103CA00070B50F4E0F4D761BB61018BF002405D00F
:103CB000013455F8043B9847A642F9D10A4E0B4D02
:103CC000761B00F013FFB61018BF002406D0013495
:103CD00055F8043B9847A642F9D170BD70BD00BFAE
:103CE000F84A0000F84A0000084B0000F84A0000BB
:103CF000024B0146186800F00BB800BF3893FF1F55
:103D0000024B0146186800F06DBC00BF3893FF1FDE
:103D10002DE9F04F01F10B05162D83B0064640F258
:103D20009F8035F0070500F1BF80A94200F2BC80FA
:103D300000F0F4FAB5F5FC7FC0F09C826B0A00F04D
:103D4000BA80042B00F28381A80900F1390E4FEAF2
:103D50004E033830C44F07EB8303A3F108015C68BE
:103D6000A14207D1ACE0002A80F2AC80E468A14215
:103D700000F0A680636823F003035A1B0F2AF2DDCC
:103D8000B9493C6901F1080E744500F0B3816368DC
:103D900023F003035A1B0F2A00F39981002AC1F86C
:103DA00014E0C1F810E080F29E80B3F5007F80F04F
:103DB0006781DB0803F1010C01229B1002FA03F377
:103DC0004A6851F83C80C4F8088001EBCC091A43DA
:103DD000A9F10803E3604A6041F83C40C8F80C4090
:103DE000831001249C40944200F28A80144206D140
:103DF00020F003006400144200F10400FAD007EB45
:103E0000C009CC468046DCF80C108C4507D173E124
:103E1000002A80F28181C9688C4500F06D814B6871
:103E200023F003035A1B0F2AF2DD0C46D1F80CC015
:103E300054F8088F4B1945F001054D6042F001011F
:103E4000C8F80CC03046CCF808807B613B61C3F8F1
:103E50000CE0C3F808E059609A5000F061FA1FE0E6
:103E6000102921D800F05AFA1025062302207E4F8F
:103E700007EB8303A3F108025C68944200F04581DC
:103E80006368E168A56823F00303234430465A6859
:103E9000E96042F001028D605A6000F041FA083496
:103EA000204603B0BDE8F08F00240C232046336089
:103EB00003B0BDE8F08F80234FF0400E3F2049E76C
:103EC00070465DE72344E1685A68A56842F0010244
:103ED000E96030468D605A6000F022FA08342046CE
:103EE00003B0BDE8F08F234430465A6842F0010227
:103EF0005A6000F015FA0834204603B0BDE8F08F90
:103F0000BC68636823F00308A84504D3C5EB080325
:103F10000F2B00F38C80554BDFF860911A68D9F8AD
:103F2000003001332A4404EB080A00F0608102F5F6
:103F300080520F3222F47F6222F00F021146304687
:103F4000019200F0EFF9B0F1FF3F8346019A00F0D3
:103F50005881824500F2FC80454B1968DA451144CE
:103F6000196000F05381D9F80000DFF810E101304A
:103F70001BBFCAEB0B0A5144CEF800B019601BF00E
:103F8000070100F01781C1F10800C1F58051834499
:103F900008315A44C2F30B02C2EB010949463046CC
:103FA000019300F0BFF9431C019B00F03F81CBEB74
:103FB00000024A4442F001021968C7F808B04944B7
:103FC000BC42CBF804201960DFF8A49016D0B8F1F9
:103FD0000F0F40F2FD806268A8F10C0323F0070385
:103FE000E01802F001024FF0050E1A430F2B626039
:103FF000C0F804E0C0F808E000F21C811D4BBC686A
:104000001A68914288BF19601B4B1A689142626816
:1040100088BF196022F003029542A2EB050301D884
:104020000F2B04DC304600F07BF9002438E76219DE
:1040300043F0010345F0010565603046BA60536006
:1040400000F06EF90834204603B0BDE8F08F142B61
:1040500071D9542B00F2A480280B00F16F0E4FEAA7
:104060004E036E3076E600BF3C93FF1FF8A3FF1FA0
:10407000FCA3FF1FF4A3FF1FF0A3FF1F4897FF1F20
:104080005A0A042A5ED9142A00F2B38002F15C01B4
:1040900049005B3207EB810C57F82110DFF8DC8117
:1040A000ACF1080C8C4500F088804A6822F00302CD
:1040B000934202D289688C45F7D1D1F80CC07A6856
:1040C000C4F80CC0A160CCF80840CC6088E6631945
:1040D00042F0010745F00105656030464B610B6118
:1040E000C3F80CE0C3F808E05F609A50083400F0B1
:1040F00017F9D5E64A6873E608F1010818F0030FCE
:104100000CF1080C7FF47FAE30E0DC68A34208BFFE
:1041100002303FF435AEB3E60B440C465A68C9682A
:1041200054F8085F42F001025A603046E9608D6041
:1041300000F0F6F8B4E603F15C0E03F15B004FEA21
:104140004E0307E69A0902F1390149003832A1E726
:10415000BC424A4B3FF400AF9C68626822F0030205
:104160005AE759F80839994540F0828010F0030F5A
:1041700000F1FF30F5D17B6823EA04037B60640023
:104180009C423FF6BDAE002C3FF4BAAE1C42404606
:104190007FF435AE64001C4200F10400FAD02EE634
:1041A000B3F5AA7F18D8E80B00F1780E4FEA4E035A
:1041B0007730CFE54FF48051EBE60121D8F8043099
:1041C000921001FA02F21A43C8F80420614677E718
:1041D0000123CBF8043025E740F25452934220D813
:1041E000A80C00F17D0E4FEA4E037C30B2E5103290
:1041F000A4E6542A26D81A0B02F16F0149006E3248
:1042000048E7BC68626822F0030205E7CAF30B00C6
:1042100000287FF4A8AE4244BB6842F001025A6015
:10422000ECE6FE234FF07F0E7E2093E501224FF057
:104230000009C1E604F10801304600F0D3F9D9F8CD
:104240000010DBE6B2F5AA7F05D8DA0B02F178019F
:10425000490077321EE740F254518A4205D89A0C41
:1042600002F17D0149007C3214E7FE217E2211E734
:104270007B6884E7E808431C5B00F8E53C93FF1F7C
:1042800070B4840746D0541E002A41D0CDB20346F4
:1042900002E0621EE4B3144603F8015B9A07F8D10A
:1042A000032C2ED9CDB245EA05250F2C45EA05454C
:1042B00019D903F110022646103E0F2E42F8105C69
:1042C00042F80C5C42F8085C42F8045C02F110020F
:1042D000F2D8A4F1100222F00F0204F00F04103201
:1042E000032C13440DD91E462246043A032A46F8ED
:1042F000045BFAD8221F22F003020432134404F0B4
:1043000003042CB1C9B21C4403F8011BA342FBD126
:1043100070BC704714460346C2E700BF704700BF39
:10432000704700BF38B5074C002305460846236098
:10433000FDF7B2FB431C00D038BD2368002BFBD037
:104340002B6038BD38A4FF1FFFFFFFFFFFFFFFFFFB
:10435000FFFFFFFFFFFFFFFFFFFFFFFFFFFFFFFF6D
:10436000FFFFFFFFFFFFFFFFFFFFFFFFFFFFFFFF5D
:10437000FFFFFFFFFFFFFFFFFFFFFFFFFFFFFFFF4D
:1043800090F800F06DE9024520F007016FF0000C95
:1043900010F0070491F820F040F049804FF000043D
:1043A0006FF00700D1E9002391F840F000F1080018
:1043B00082FA4CF2A4FA8CF283FA4CF3A2FA8CF350
:1043C0004BBBD1E9022382FA4CF200F10800A4FAB7
:1043D0008CF283FA4CF3A2FA8CF3E3B9D1E904230B
:1043E00082FA4CF200F10800A4FA8CF283FA4CF342
:1043F000A2FA8CF37BB9D1E9062301F1200182FAFC
:104400004CF200F10800A4FA8CF283FA4CF3A2FA01
:104410008CF3002BC6D0002A04BF04301A4612BA0F
:10442000B2FA82F2FDE8024500EBD2007047D1E912
:10443000002304F00305C4F100004FEAC50514F0A1
:10444000040F91F840F00CFA05F562EA05021CBF72
:1044500063EA050362464FF00004A9E72DE9F0473F
:10446000254C2568D5F84841064688469246994627
:10447000C4B360681F2817DC431C76B104EB8005C9
:104480000122C5F888A0D4F8881182401143022E79
:10449000C4F88811C5F808911ED00230636044F852
:1044A00020800020BDE8F087144B03B34FF4C870A0
:1044B000FFF71EFC0446D0B1D5F84831002780E84C
:1044C0008800C5F8484138460123C4F88871C4F80B
:1044D0008C71002EE1D0D1E7D4F88C110A43C4F8D6
:1044E0008C21DAE705F5A674C5F84841C1E74FF01D
:1044F000FF30BDE8F08700BFE84A0000F13C000053
:10450000024B13B1024800F005B8704700000000EC
:1045100021450000002301461A461846FFF79EBFBA
:1045200038B5074D074C2C1BA41005D0013C55F89D
:10453000043D9847002CF9D1BDE8384000F0E4BABA
:104540000000000000000000F8B5234F0C460646AE
:10455000FFF7E4FEBB685D6825F00305291B01F643
:10456000EF7121F47F6121F00F01A1F58054B4F5C2
:10457000805F07DB00213046FFF7D4FEBB682B4489
:10458000984204D03046FFF7CBFE0020F8BD6142D0
:104590003046FFF7C7FE01300DD0104BBA681968DE
:1045A0002D1B45F001053046091B55601960FFF7CA
:1045B000B7FE0120F8BD00213046FFF7B3FEBA6810
:1045C000831A0F2BDEDD064C0449246843F00103F7
:1045D000001B53600860D5E73C93FF1FFCA3FF1F3F
:1045E0004897FF1F002945D02DE9F0410D46804630
:1045F000FFF794FE55F8047C6A4927F00103A5F102
:104600000804E2188E685068B24220F0030062D0BD
:10461000FE0750600BD455F8087CE41B01F1080E2E
:10462000A56875453B446FD0E768EF60BD6015181D
:104630006D68ED0742D543F001026260E350B3F5C7
:10464000007F18D2DB085A1C4D6851F83270A76001
:1046500001209B1000FA03F301EBC2001D43083850
:10466000E0604D6041F83240FC604046BDE8F041FA
:10467000FFF756BE70475A0A042A53D89A0902F126
:1046800039077F0002F1380501EB870051F8272038
:104690004449083890424DD0516821F003018B42C3
:1046A00002D292689042F7D1D068E060A260846044
:1046B000D4604046BDE8F041FFF732BE95683A4FFE
:1046C000BD4203443FD0D068E86043F001028560FA
:1046D0006260E350B3E7FF07034407D455F8082CA2
:1046E000A41A1344A068E268C26090602F4A12685E
:1046F00043F00100934260608C60B6D32C4B40467F
:104700001968FFF721FFB0E711184968C90744D4B9
:104710009168D268CA60034443F001009160606010
:10472000E350A2E7142A17D802F15C077F0002F1D8
:104730005B05A9E7AA104B68012505FA02F21343AD
:104740004B600246B1E743F001024C610C61E56049
:10475000A5606260E35088E7542A06D81A0B02F17C
:104760006F077F0002F16E058EE7B2F5AA7F06D8CB
:10477000DA0B02F178077F0002F1770584E740F257
:104780005450824206D89A0C02F17D077F0002F154
:104790007C0579E7FE277E2576E743F0010262601B
:1047A000E35062E73C93FF1F4493FF1F4497FF1FB2
:1047B000F8A3FF1F73746172746564000000000049
:1047C00000000000E10B0000410C0000810B000024
:1047D000DD0B0000850B0000950B0000BD0B0000F9
:1047E0001400000016000000180000001A0000006D
:1047F0001C0000001E00000020000000220000003D
:1048000024000000280000002C0000003000000000
:1048100034000000380000003C00000040000000B0
:104820004400000048000000500000005800000054
:1048300060000000680000007000000080000000C0
:104840008800000090000000A0000000B000000000
:10485000C0000000E0000000F000000000010000C7
:104860002001000040010000600100008001000004
:10487000C0010000E0010000000200004002000052
:10488000800200000003000080030000C00300005D
:104890000004000080040000000500000006000085
:1048A0008007000000070000000800000009000069
:1048B000000A0000000C0000000F000000010203CD
:1048C000040509060A070C0D430E45120F131415B3
:1048D00019161A174F1C1D551E221F232425952615
:1048E0002A272B2C2D2E322F33343536373A3B3CAA
:1048F0003D3E3FFF4008FE4340A004404408FE43C5
:1049000044A004400018FE4300C004403000FE43B1
:10491000309004403400FE43349004401C18FE43A1
:104920001CC004401018FE4310C004400818FE4389
:1049300008C004400C18FE430CC004400C10FE4399
:104940000CB004401010FE4310B004401810FE4399
:1049500018B004401C10FE431CB004401410FE4369
:1049600014B004400418FE4304C004400010FE4389
:1049700000B004400008FE4300A004400408FE43C9
:1049800004A004400C08FE430CA004400808FE43A9
:1049900008A004401418FE4314C004401818FE4335
:1049A00018C004400410FE4304B004400810FE4345
:1049B00008B004401400FE43149004404C08FE4329
:1049C0004CA004400420FE4304D004402410FE43C5
:1049D00024B004402010FE4320B004402810FE43C1
:1049E00028B004402C10FE432CB004400020FE43AD
:1049F00000D004404808FE4348A004401000FE4395
:104A00001090044000000000000000003D31000054
:104A100061310000E1310000DD310000D9310000DA
:104A2000D5310000D131000005310000B131000066
:104A3000AD310000A53100009D310000953100002E
:104A4000853100007531000071310000E530000053
:104A5000ED300000F5300000FD300000493100006D
:104A6000313100000D0AFFFF0000000000000000CF
:104A7000413200003932000035320000313200008E
:104A80002D320000293200002532000021320000C2
:104A90000015191500010000688EFF1F12000000AC
:104AA00000020000948EFF1F43000000000300007E
:104AB000F08EFF1F00000000010309047C8EFF1F21
:104AC0000000000002030904D88EFF1F0000000050
:104AD00003030904F48EFF1F000000000000000023
:104AE0000000000000000000108FFF1FF8B500BF9D
:104AF000F8BC08BC9E467047014500003504000024
:084B0000C50A0000991800002D
:044B0800F8B500BF3D
:084B0C0070F1FF7F01000000C1
:104B140038B5084B1C681C6054B1074D94FAA4F3D3
:104B2400B3FA83F355F823309847631E1C40F5D13C
:104B340038BD00BFA0D00440308EFF1F38B5084BED
:104B44001C681C6054B1074D94FAA4F3B3FA83F3C0
:104B540055F823309847631E1C40F5D138BD00BF7B
:104B6400A0C00440108EFF1F38B5084B1C681C60A1
:104B740054B1074D94FAA4F3B3FA83F355F82330F0
:104B84009847631E1C40F5D138BD00BFA0B0044057
:104B9400E08DFF1F38B5084B1C681C6054B1074DED
:104BA40094FAA4F3B3FA83F355F823309847631EB9
:104BB4001C40F5D138BD00BFA0A00440908DFF1F5C
:104BC40038B5084B1C681C6054B1074D94FAA4F323
:104BD400B3FA83F355F823309847631E1C40F5D18C
:104BE40038BD00BFA0900440588DFF1F0000000096
:104BF4001000000064000000080000000200000033
:104C0400030000002C0100000100000000600640C9
:104C140001600640026006400360064004600640EE
:104C240005600640066006400760064008600640CE
:104C3400096006400A6006400B6006400000000060
:104C44000000000000000000000000000000000060
:104C54000000000000000000000000000000000050
:104C64000000000000000000000000000000000040
:104C74000000000000000000000000000000000030
:104E5400000000000100131200000000A086010001
:104E6400010000000000000000000000000000003D
:104E7400000000000000000000000000000000002E
:104E8400000000000000000000000000000000001E
:104E9400000000000000000000000000000000000E
:104EA4000000000000000000007006400170064091
:104EB4000270064003700640047006400570064008
:104EC40006700640077006400870064009700640E8
:104ED4000A7006400B70064000000000000000004D
:104EE40000000000000000000000000000000000BE
:104EF40000000000000000000000000000000000AE
:104F0400000000000000000000000000000000009D
:104F1400000000000000000000000000000000008D
:1050F40001001D1E00000000A08601000100000048
:10510400000000000000000000000000000000009B
:10511400000000000000000000000000000000008B
:10512400000000000000000000000000000000007B
:10513400000000000000000000000000000000006B
:10514400000000003CA4FF1F011B0000011B000025
:10515400011B0000011B0000011B0000011B0000DB
:10516400011B0000011B0000011B0000011B0000CB
:10517400011B0000011B0000011B0000011B0000BB
:10518400011B0000011B0000011B0000011B0000AB
:10519400011B0000011B0000011B0000011B00009B
:1051A400011B0000011B0000011B0000011B00008B
:1051B400011B0000011B0000011B0000011B00007B
:1051C400011B0000011B0000011B0000011B00006B
:1051D400011B0000011B0000011B0000011B00005B
:1051E400011B0000011B0000011B0000011B00004B
:1051F400011B0000011B0000011B0000011B00003B
:10520400011B0000011B0000011B0000011B00002A
:10521400011B0000011B0000011B0000011B00001A
:10522400011B0000011B0000FFFFFFFF0C4A0000F0
:1052340000000000E8030000000000001D32000030
:1052440001000000704A000000000000E8030000B4
:1052540000000000010A04011201100102000040D4
:10526400C0168304750201020301000018035400F0
:10527400650065006E0073007900640075006900C4
:105284006E006F0009024300020100C032090400ED
:10529400000102020100052400100105240101019E
:1052A40004240206052406000107058203100040B9
:1052B40009040100020A000000070503024000007F
:1052C4000705840240000000160355005300420005
:1052D4002000530065007200690061006C0000004A
:1052E400040309040C030000000000000000000097
:1052F40000000000000000000000010000000000A9
:1053040000000000FC91FF1F6492FF1FCC92FF1F5E
:105314000000000000000000000000000000000089
:105324000000000000000000000000000000000079
:105334000000000000000000000000000000000069
:105344000000000000000000000000000000000059
:105354000000000000000000000000000000000049
:105364000000000000000000000000000000000039
:105374000000000000000000000000000000000029
:105384000000000000000000000000000000000019
:105394000000000000000000000000000000000009
:1053A40000000000000000000100000000000000F8
:1053B4000E33CDAB34126DE6ECDE05000B000000BD
:1053C40000000000000000000000000000000000D9
:1053D40000000000000000000000000000000000C9
:1053E40000000000000000000000000000000000B9
:1053F40000000000000000000000000000000000A9
:105724000000000000000000108FFF1F00000000B8
:10573400000000003C93FF1F3C93FF1F4493FF1F96
:105744004493FF1F4C93FF1F4C93FF1F5493FF1F61
:105754005493FF1F5C93FF1F5C93FF1F6493FF1F11
:105764006493FF1F6C93FF1F6C93FF1F7493FF1FC1
:105774007493FF1F7C93FF1F7C93FF1F8493FF1F71
:105784008493FF1F8C93FF1F8C93FF1F9493FF1F21
:105794009493FF1F9C93FF1F9C93FF1FA493FF1FD1
:1057A400A493FF1FAC93FF1FAC93FF1FB493FF1F81
:1057B400B493FF1FBC93FF1FBC93FF1FC493FF1F31
:1057C400C493FF1FCC93FF1FCC93FF1FD493FF1FE1
:1057D400D493FF1FDC93FF1FDC93FF1FE493FF1F91
:1057E400E493FF1FEC93FF1FEC93FF1FF493FF1F41
:1057F400F493FF1FFC93FF1FFC93FF1F0494FF1FF0
:105804000494FF1F0C94FF1F0C94FF1F1494FF1F9C
:105814001494FF1F1C94FF1F1C94FF1F2494FF1F4C
:105824002494FF1F2C94FF1F2C94FF1F3494FF1FFC
:105834003494FF1F3C94FF1F3C94FF1F4494FF1FAC
:105844004494FF1F4C94FF1F4C94FF1F5494FF1F5C
:105854005494FF1F5C94FF1F5C94FF1F6494FF1F0C
:105864006494FF1F6C94FF1F6C94FF1F7494FF1FBC
:105874007494FF1F7C94FF1F7C94FF1F8494FF1F6C
:105884008494FF1F8C94FF1F8C94FF1F9494FF1F1C
:105894009494FF1F9C94FF1F9C94FF1FA494FF1FCC
:1058A400A494FF1FAC94FF1FAC94FF1FB494FF1F7C
:1058B400B494FF1FBC94FF1FBC94FF1FC494FF1F2C
:1058C400C494FF1FCC94FF1FCC94FF1FD494FF1FDC
:1058D400D494FF1FDC94FF1FDC94FF1FE494FF1F8C
:1058E400E494FF1FEC94FF1FEC94FF1FF494FF1F3C
:1058F400F494FF1FFC94FF1FFC94FF1F0495FF1FEB
:105904000495FF1F0C95FF1F0C95FF1F1495FF1F97
:105914001495FF1F1C95FF1F1C95FF1F2495FF1F47
:105924002495FF1F2C95FF1F2C95FF1F3495FF1FF7
:105934003495FF1F3C95FF1F3C95FF1F4495FF1FA7
:105944004495FF1F4C95FF1F4C95FF1F5495FF1F57
:105954005495FF1F5C95FF1F5C95FF1F6495FF1F07
:105964006495FF1F6C95FF1F6C95FF1F7495FF1FB7
:105974007495FF1F7C95FF1F7C95FF1F8495FF1F67
:105984008495FF1F8C95FF1F8C95FF1F9495FF1F17
:105994009495FF1F9C95FF1F9C95FF1FA495FF1FC7
:1059A400A495FF1FAC95FF1FAC95FF1FB495FF1F77
:1059B400B495FF1FBC95FF1FBC95FF1FC495FF1F27
:1059C400C495FF1FCC95FF1FCC95FF1FD495FF1FD7
:1059D400D495FF1FDC95FF1FDC95FF1FE495FF1F87
:1059E400E495FF1FEC95FF1FEC95FF1FF495FF1F37
:1059F400F495FF1FFC95FF1FFC95FF1F0496FF1FE6
:105A04000496FF1F0C96FF1F0C96FF1F1496FF1F92
:105A14001496FF1F1C96FF1F1C96FF1F2496FF1F42
:105A24002496FF1F2C96FF1F2C96FF1F3496FF1FF2
:105A34003496FF1F3C96FF1F3C96FF1F4496FF1FA2
:105A44004496FF1F4C96FF1F4C96FF1F5496FF1F52
:105A54005496FF1F5C96FF1F5C96FF1F6496FF1F02
:105A64006496FF1F6C96FF1F6C96FF1F7496FF1FB2
:105A74007496FF1F7C96FF1F7C96FF1F8496FF1F62
:105A84008496FF1F8C96FF1F8C96FF1F9496FF1F12
:105A94009496FF1F9C96FF1F9C96FF1FA496FF1FC2
:105AA400A496FF1FAC96FF1FAC96FF1FB496FF1F72
:105AB400B496FF1FBC96FF1FBC96FF1FC496FF1F22
:105AC400C496FF1FCC96FF1FCC96FF1FD496FF1FD2
:105AD400D496FF1FDC96FF1FDC96FF1FE496FF1F82
:105AE400E496FF1FEC96FF1FEC96FF1FF496FF1F32
:105AF400F496FF1FFC96FF1FFC96FF1F0497FF1FE1
:105B04000497FF1F0C97FF1F0C97FF1F1497FF1F8D
:105B14001497FF1F1C97FF1F1C97FF1F2497FF1F3D
:105B24002497FF1F2C97FF1F2C97FF1F3497FF1FED
:0C5B34003497FF1F00000200FFFFFFFF7E
:00000001FF
