:1000000000800020BD010000091D0000C11C00008F
:10001000C11C0000C11C0000C11C0000C11C00006C
:10002000C11C0000C11C0000C11C0000091D000013
:10003000091D0000C11C0000ED300000F13000007F
:10004000091D0000091D0000091D0000091D000018
:10005000091D0000091D0000091D0000091D000008
:10006000091D0000091D0000091D0000091D0000F8
:10007000091D0000091D0000091D0000091D0000E8
:10008000091D0000091D0000091D0000091D0000D8
:10009000091D0000091D0000091D0000091D0000C8
:1000A000251A0000311A0000091D0000091D00007A
:1000B000091D0000091D0000091D0000091D0000A8
:1000C000091D0000091D0000091D0000091D000098
:1000D000091D0000091D0000091D0000091D000088
:1000E000091D0000091D0000091D0000091D000078
:1000F000091D0000A13C0000091D0000091D0000B1
:10010000091D0000091D0000091D0000091D000057
:10011000091D0000091D0000091D0000091D000047
:10012000091D0000091D0000091D0000091D000037
:10013000091D0000091D0000091D0000091D000027
:10014000091D0000091D0000091D0000091D000017
:10015000091D0000091D0000091D0000091D000007
:10016000091D0000F9220000091D0000091D000002
:10017000091D0000091D0000091D0000091D0000E7
:10018000091D0000091D0000091D0000091D0000D7
:10019000091D0000091D0000091D0000091D0000C7
:1001A000091D0000091D0000091D0000091D0000B7
:1001B000091D0000091D0000091D0000564B4CF2EE
:1001C000205210B51A804DF628121A8000BF00BFC9
:1001D00001F09EFD514B4FF010621A60504A9A6038
:1001E000504ADA60504A136813F4807304D14F49BF
:1001F0000B604FF4A85313604D4B1A78110703D5C9
:100200001A7842F008021A704A4B4B492A221A7097
:100210004A4A4B4B8B4204D252F8040F43F8040B6A
:10022000F8E7484B484900228B4202D243F8042B9E
:10023000FAE74649464A002352F8230041F82300D2
:1002400001336F2BF8D1434B434A802103F8011B44
:100250009342FBD1414B3D4A1A60414B8A221A70AE
:10026000A3F5805324225A70A0221A709A7992071B
:10027000FCD59A79D406FCD43A4A937903F00C035E
:10028000082B384BF9D103221A7140225A719A79FE
:100290009006FCD5334A9179324B4906FBD5324A58
:1002A000324911600221516020221A709A7902F0BD
:1002B0000C020C2AFAD12E4B2E4A1A602E4B2F4AD2
:1002C0001A6000225A60072243F8042C2C4AC3F813
:1002D0000C2D62B601F0E6FE144B1B68DA0705D55B
:1002E000284801F071FE284B284A1A60284B1B78D9
:1002F0005B0609D5244C254B22689A4204D121483B
:1003000001F062FE0023236001F008FD03F030FEDF
:1003100002F0DAFFFEE700BF0E2005403080044007
:10032000823F04000100002B10D0034014D0034092
:1003300002D0074000E00740D49CFF1F404E000061
:10034000308CFF1FD49CFF1FF0A9FF1F0082FF1FEE
:100350000000000000E400E05FE400E008ED00E0E1
:100360000050064000400640448004400000030165
:1003700004800440C010050014E000E0FF76010096
:1003800000002020BE218B611CE00340A5C3945ACD
:1003900000F00740FFFFFFFFFFFFFFFFFFFFFFFF32
:1003A000FFFFFFFFFFFFFFFFFFFFFFFFFFFFFFFF5D
:1003B000FFFFFFFFFFFFFFFFFFFFFFFFFFFFFFFF4D
:1003C000FFFFFFFFFFFFFFFFFFFFFFFFFFFFFFFF3D
:1003D000FFFFFFFFFFFFFFFFFFFFFFFFFFFFFFFF2D
:1003E000FFFFFFFFFFFFFFFFFFFFFFFFFFFFFFFF1D
:1003F000FFFFFFFFFFFFFFFFFFFFFFFFFFFFFFFF0D
:10040000FFFFFFFFFFFFFFFFFFFFFFFFDEF9FFFF23
:1004100010B5054C237833B9044B13B10448AFF33E
:1004200000800123237010BDD49CFF1F000000003A
:100430003C4E0000084B10B51BB108490848AFF30B
:1004400000800848036803B910BD074B002BFBD0A0
:10045000BDE81040184700BF00000000D89CFF1FF7
:100460003C4E0000D49CFF1F00000000704700BFFE
:10047000FF2800D97047074B074910B504462246AC
:10048000186900F065FF054B18782044C0B2187059
:1004900010BD00BFACA7FF1F54A6FF1F049EFF1F87
:1004A00000B5074B83B01878012101F0A1FD054A82
:1004B000054B12680192019A1A6003B05DF804FBC3
:1004C000248DFF1FC4A7FF1F50A6FF1F2DE9F04179
:1004D000524E534D3078DFF87481524C88B0012170
:1004E00001F08CFD2878012101F088FD4E4B98F831
:1004F0000D10D8F810000493122300270122029354
:1005000013230592039700970193422300F09AFE6C
:10051000464B47481F7039464FF4807204F018F874
:10052000D8F8103043492068434A444FDFF820C1CF
:10053000C3F8681240F2EE2E137843B13B78DB0724
:1005400005D52368DCF800105B1A0E2B07D823684A
:1005500011781B1A00295DD0B3F5FA6FECD9384F2A
:10056000DFF8F0807B6D1868036847F61221DB69BD
:100570009847236807930120079BC7F8003100FACA
:1005800000F200234FF6FF71024387F8580087F806
:10059000702087F85A3087F859307B663B6687F8B9
:1005A000F83087F8753087F8743087F8763087F838
:1005B0007730C7F8FC30B966F96604240121307839
:1005C00001F016FDD8F8000001F01EFD0121287889
:1005D00001F00EFDD8F8000001F016FD0021307882
:1005E00001F006FDD8F8000001F00EFD002128788A
:1005F00001F0FEFCD8F8000001F006FD013CDDD161
:100600000721104802F0CEFB0F4802F001FE08B0AF
:10061000BDE8F08173458FD9A1E700BF208DFF1F92
:10062000248DFF1FC4A7FF1F801A0600049EFF1F12
:1006300054A6FF1F71040000B8A8FF1FD8A8FF1F11
:10064000F09CFF1F744A00006893FF1FACA7FF1FB8
:10065000E8A9FF1F148DFF1F08B5094B5B6D1868D3
:100660000368F8211B689847064B07481B6880FB06
:100670000320DB17C3EBA000BDE8084001F0C4BCB9
:10068000F09CFF1F1C8DFF1FABAAAA2A30B50C4B94
:100690000C491B680C4C0D480D4D83B00193019A19
:1006A0000B680260D31A1C4420460A602B6003F0DA
:1006B000C7FF0146204602F075FB03B030BD00BF06
:1006C000C4A7FF1F94A7FF1F7C4A0000089EFF1FBE
:1006D0001C8DFF1F00B5012883B009D0022802D06D
:1006E00003B05DF804FBFFF7DBFE03B05DF804FB2D
:1006F000064B0146187801F07BFC054A054B126851
:100700000192019A1A6003B05DF804FB208DFF1F6F
:10071000C4A7FF1F4CA6FF1F10B50E4A0E4B126850
:100720001B6882B00192019CE31A312B0BD80B4B52
:100730001B68E41A312C04D9094B0021187801F008
:1007400057FC02B010BD074B0021187801F050FC97
:10075000EDE700BFC4A7FF1F4CA6FF1F50A6FF1F59
:10076000248DFF1F208DFF1F2DE9F041E0290C464D
:100770009DF8185008D8013DEDB20F2D02D849B2AE
:10078000002912DBBDE8F081F729FBD90834E4B277
:10079000012303FA04F414F0DD0FF3D0436D18685D
:1007A0000368BDE8F0411B6818471F46436D80464B
:1007B000186803682943C9B21B6816469847D8F8D9
:1007C00054301868036806F07F011B6804F0EF04DA
:1007D0009847C02CD6D0D8F854301868036807F072
:1007E0007F011B68BDE8F041184700BF00B501312B
:1007F00083B0C9B20091C2B2002380210348FFF741
:10080000B3FF03B05DF804EBFFF74ABEF09CFF1F97
:100810002DE9F04F1D4BDFF87C901A68D9F80030B5
:1008200083B0002B0192DDF804A02BDD0027DFF858
:1008300068B0174EB8463368002B1CDD5C460025B7
:1008400004E03368AB4204F1100414DDE3680135C1
:10085000002BF6D06368A268C3EB0A039342F0D979
:1008600020683946FFF7C2FF3368C4F80C80AB42FA
:1008700004F11004EADCD9F800300137BB420BF177
:10088000800BD8DC03B0BDE8F08F00BFC4A7FF1F0A
:10089000188DFF1F108DFF1F0C9EFF1F2DE9F04FBD
:1008A000DFF8A0B1DBF8007087B0002F0546039198
:1008B00090461E4640F3A1805A4C013304EBC61902
:1008C000DFB24FF0000A05E0DBF80000504509F107
:1008D000100926DDD9F80030AB420AF1010AF3D144
:1008E000D9F80C30012BEFD117214F4802F05AFAFA
:1008F0004E4802F08DFC99F800204D4800970023E7
:100900008021FFF731FF4B4B0021187801F070FB7D
:10091000DBF8000000235045C9F80C3009F110093C
:10092000D8DCDFF81CB1DFF820A15BF826305A1CB8
:10093000002892FBF0F100FB11214BF826204AF829
:1009400026104FEAC60920DD09EB010E04EB0E1E4E
:10095000DEF80CE0BEF1010F17D1023302EB000EFE
:1009600004E0D268012A03F1010341D193FBF0F1C5
:1009700000FB113109EB010273459C4604EB0212A6
:10098000EFD14BF826304AF826102B4B27481B682E
:10099000059309EB01031B01059AE55023444FF031
:1009A000010E5A60039AC3F80CE09A6002F084FCCE
:1009B0000921224802F0F6F95AF826301B489944DA
:1009C0004FEA0919002354F809100A2202F034FCF6
:1009D000164802F01DFC5FFA88F3EAB29021144831
:1009E0000097FFF7C1FEFFF75BFD07B0BDE8F08F92
:1009F0004BF826C04AF82610C7E71149DFF848A08F
:100A000051F82330074C0133721C41F8263093FB18
:100A1000F7F107FB11314AF82610D7B24FEAC609A1
:100A2000B3E700BF0C9EFF1F8C4A00006893FF1FB6
:100A3000F09CFF1F248DFF1FC4A7FF1FA44A0000C6
:100A40000CA6FF1F188DFF1F54A7FF1F00B5013113
:100A500083B0C9B20091C2B20023C0210348FFF79E
:100A600083FE03B05DF804EBFFF71ABDF09CFF1F97
:100A700000B540EA012183B009B2013201F500510D
:100A8000D2B20092C1F3C61301F07F020448E02104
:100A9000FFF76AFE03B05DF804EBFFF701BD00BF8E
:100AA000F09CFF1FF0B5814D2B7887B043B9FFF75D
:100AB000AFFEFFF731FE07B0BDE8F040FFF7CCBD59
:100AC0007B4C0120FFF706FE0B217A4802F06AF901
:100AD00000230A222178784802F0AEFB764802F023
:100AE00097FB0B21754802F05DF900230A2261781B
:100AF000714802F0A1FB704802F08AFB0B2170489C
:100B000002F050F90023A1786B480A2202F094FB0E
:100B1000694802F07DFB23784F2B04D0462B27D069
:100B200000232B70C3E7637803F17002D2B20F2A5F
:100B300053D903F15002D2B20F2A3CD903F140023B
:100B4000D2B20F2A56D903F12002D2B20F2A27D9E6
:100B5000A178574EF82900F0A280FA2900F095807C
:100B6000FB2900F08880FC297CD02378462BD7D144
:100B7000A178E27863784E4E42EA0122012B17B247
:100B80006AD0022B41D0632BCAD1412F52D0422FC1
:100B900050D0432F4ED0442F4CD0FFF781FCBFE7FD
:100BA000A3F1E002E178A078FFF762FF6378454A9D
:100BB000E03B1360CCE7A3F1AF01C9B2E378A278C0
:100BC00041480091B021FFF7CFFDFFF769FC637842
:100BD0003C4AA3F1B0011160B0E73C49E2780968F2
:100BE000A078903BFFF75AFE6378364AA3F1900154
:100BF00011609EE7A3F1C001A078FFF727FF63789B
:100C0000304AA3F1C00111609DE7002F4BDB7F2F1D
:100C10003A46A8BF7F22D2B22A4B2B481B68013329
:100C2000DBB20093D0210023FFF79EFDFFF738FCD5
:100C30006378A8E7264B274A597B18690492002459
:100C400001224FF0120E13263B46059203948DE8C5
:100C5000504000F0F7FAA0E71C4B1F60FFF720FCA4
:100C600073788EE7184B5B6D186803681B689847AC
:100C7000FFF716FC79E7144B5B6D186803681B6877
:100C80009847FFF70DFCA1786DE70F4B5B6D186877
:100C900003681B689847FFF703FCA17860E7FFF73C
:100CA000F5FCB17859E70022B6E700BF049EFF1FAC
:100CB00054A6FF1FB04A00006893FF1FBC4A000003
:100CC000C84A00002C8DFF1FF09CFF1F288DFF1FBE
:100CD000ACA7FF1F801A0600F8B5294C294F94F8DD
:100CE0007030DFF8ACE0C7F800E00025012243F0E7
:100CF000010362F347034FF6FF76294604F17800BB
:100D0000802284F87030676525606560A560E560C5
:100D100025616561A561E56125626562A562E5629F
:100D200025636563A563E56325646564A564E5647F
:100D3000256584F8585084F8595084F85A5025662F
:100D40006566A666E66684F8745084F8755084F883
:100D5000765084F8775084F8F85003F0F9FB204679
:100D6000C4F80051C4F80451C4F8085184F80C5177
:100D700084F80D51044A0549BDE8F84003F0E6B88F
:100D8000F09CFF1F009EFF1F0C8DFF1F6D040000D5
:100D90005093FF1F002070470369D3F83801D3F840
:100DA0003431C01A704700BF0369D3F83411D3F847
:100DB0003821914208D2D3F83421511C1A44C3F887
:100DC000341192F8300070474FF0FF30704700BF89
:100DD0000369D3F83411D3F8382191423DBFD3F8D9
:100DE00034219B1893F830004FF0FF30704700BF5C
:100DF000704700BF0369D3F84422B2F5817F03D95D
:100E00000123037100207047D3F8442210B49C18CA
:100E10000132C3F8442284F83C11012010BC704711
:100E200038B503690A4A026093F84822022A044648
:100E300001D0204638BDD3F87452002DF9D0284691
:100E400002F018F92846082102F048FA204638BD79
:100E5000DC4A000038B503690546D3F84402B0F512
:100E6000817F1AD81446D3F84422D3F84402C2F53D
:100E70008172013203F59E73A242184402D201230B
:100E800014462B71224600F047FE2A69D2F84432FC
:100E90002344C2F84432204638BD01232B71002080
:100EA00038BD00BF2DE9F0471E46044617469DF8A1
:100EB00020909DF824309DF828A00D4659B30129B3
:100EC0000FD090F84A329A424FF0000800D14DB34B
:100ED000012D0ED094F84B329E4212D00020BDE876
:100EE000F0871D2F4FD01A2F77D094F84A324FF049
:100EF00000081E2E1AD01F2E6DD094F84B329E4241
:100F0000ECD1BAF1000FE9D00025B8F1000FE5D01F
:100F1000002DE3D031E0102A35D0132A33D090F8D9
:100F20004A328846A6F11103012BE6D8022594F82F
:100F30004B329E4257D0BAF1000F09D094F84C3290
:100F400094F84B02002B14BF0221002101F056F847
:100F50002B02B9F1000F13D143F06403264A02EBD0
:100F6000C60201215268136084F84B6284F84C92E7
:100F700084F89912B8F1000FB0D00120BDE8F087D5
:100F800043F00303EAE74FF0020894F84A2297423D
:100F900026D04BB194F84C3294F84A02002B14BF7F
:100FA0000221002101F02AF84FEA0822B9F1000FCE
:100FB0000ED142F06402104B03EBC70359680123C2
:100FC0000A6084F84A7284F84C9284F898327EE77A
:100FD00042F00302EFE70625A9E74FF00608D4E741
:100FE000002BE1D073E7BAF1000FB1D0B8F1000FD8
:100FF0003FF474AF8CE700BF0C4C0000F8B5C36839
:101000001B789B0610D483680D4680211970C36835
:101010001221197090F84932012B044606D08AB982
:1010200080F848220120F8BD0020F8BD1A4675B9A5
:10103000474B4FF080711960022A0FD0012084F8CD
:101040004802F8BD531E012BF1D90120F8BD012D36
:10105000F2D13F4B4FF000711960EDE7D4F87462A4
:10106000002E6AD03379102B30D0002D3CD132685D
:101070003849938B384F9BB243F0080393833279FE
:10108000531102F110009B0041F8207003F16043FE
:1010900003F56143012102F01F0201FA02F23168F7
:1010A0001A608B8B9BB243F002038B83337903F17D
:1010B000804303F5043396221D701A700022022328
:1010C00084F85E2284F848320120F8BD304601F0F1
:1010D000D1FF3046082102F001F900230120C4F8B5
:1010E000743284F84802F8BD012DE7D132681949FD
:1010F000938B1A4F9BB243F00803938332795311B9
:1011000002F110009B0041F8207003F1604303F5E9
:10111000614302F01F02954032681D60938B9BB2C1
:1011200043F002039383337903F1804303F50433DF
:101130000021972219701A70C0E7082002F0CCF83D
:10114000314607463E4601F031FFC4F8747289E724
:1011500000E100E00082FF1F251A0000311A0000A4
:10116000F0B5284EDFF8ACE0A6FB0143A6FB024237
:101170009E0937027546960914240023B7FBF6F63C
:1011800004E00133372B1BD055F8044F220296425E
:10119000F7DA83BB14241C4A4568B1FBF4F491428E
:1011A0002B70C0F8504207D8184B8269A3FB01315D
:1011B000C1F307511170F0BD836904221A70F0BDAC
:1011C000002422464FF470274FF470654FF0360C20
:1011D000B21AF71B002A87EAE776A6EBE776B8BFD4
:1011E0005242964202DD0A4AD35CD4E7084B2C46B1
:1011F00013F80C30CFE703F1FF3C5EF82C502F02C0
:10120000E6E700BFD34D6210FF6BDC02819F5E16E4
:10121000D44B0000F84A0000F0B49DF814409DF84B
:1012200010609DF818503CB135B1C7683F78BF06D3
:1012300002D50020F0BC7047069505940496F0BCDA
:10124000FFF730BE2DE9F04184B0044694469DF886
:1012500028609DF82C209DF830009DF834E09DF822
:101260003C700D4600294BD1DFF8E080D8F8001023
:1012700041F04001C8F80010002184F849C284F808
:101280005512BCF1000F2AD163692021197012B9DF
:1012900094F84A22D2B210B994F84B02C0B294F832
:1012A000981294F8996202960346CDF800E00191F5
:1012B00020462946FFF7B0FF0E9A23492046FFF744
:1012C0004FFF3A4629462046FFF798FE94F84932E8
:1012D00063B3A368C0221A7004B0BDE8F0816169ED
:1012E000CEB14FF0280C81F800C09E42216823D96E
:1012F0005B00DBB20B707600E369F6B21E70C6E7E6
:101300000129B9D1DFF84480D8F8001041F08001FC
:10131000C8F80010B0E74FF0200C81F800C0216839
:101320005B00DBB20B70E3691E70B0E7A36880223C
:101330001A7004B0BDE8F0817600F6B20E705E005F
:10134000E369F6B21E70A2E7006CDC023480044050
:1013500070B5D0F83841D0F834319C4218D9D0F863
:101360003831D0F83451D0F834615D1B954228BF34
:101370001546044600F130032A460846991900F044
:10138000CBFBD4F834312B44C4F83431284670BD3B
:10139000002070BD2DE9F041C04E33780446013382
:1013A000DBB2C068A768337005783B78DBB203F026
:1013B000200282B0EDB23AB313F0100F94F85E320F
:1013C0007AD0022B00F0D88094F85E32032B00F024
:1013D000D38094F85532082B00F0298294F85532C6
:1013E000092B00F0648294F85532012B00F0D38170
:1013F00080233B70E36802221A703378013BDBB232
:10140000337002B0BDE8F08102F0FF08EA0624D490
:1014100005F0400202F0FF0E1ABB03F0100303F0C8
:10142000FF02002B00F0838015F0010540F0A88139
:10143000D4F84022D4F844329A4207D2D4F8403249
:101440005A1C2344C4F8402293F83C5123691D7070
:10145000A368D0221A70E0686EE01023037068065B
:10146000C8D594F855320C2B00F0098105F004051D
:1014700005F0FF07002D64D0A3680021D0220B20C7
:1014800084F85502C4F844121A702269D4F86C1218
:1014900013785B0884F8563209B188472269D4F87A
:1014A0004432002B00F0748194F83C8182F8008073
:1014B0000123C4F840329DE7022B00F0A68094F887
:1014C0005E32032B00F0A180D4F83831D4F85822D2
:1014D0000233934200F04F8194F85532012B00F013
:1014E0004581D4F838310133934280F0198194F862
:1014F0005532012B00F00F81D4F838312269591C84
:10150000C4F838112344127883F83020E3680222AB
:101510001A7094F85532DBB2012B7FF46EAF94F859
:101520005D22002A7FF469AF84F85D3265E794F8A4
:1015300055320C2B00F09C810223037002B0BDE8F1
:10154000F081574B574A94F84B0284F85C7200299B
:1015500014BF11461946032200F076FCA3680C2143
:10156000C02284F85512C4F838711A7023691B78A8
:101570005B0884F856323DE7D4F8742213689B8BDD
:10158000190604D594F85E32022B00F0B88094F866
:101590005E32032B00F08E80434B127919680123D1
:1015A00093400B423FF429AF4049414B0A70D4F8B5
:1015B0007412097919700022072384F85E2284F8D6
:1015C0005532D4F89432013304D0D4F89432013334
:1015D000C4F89432EA0611D5042384F85532D4F8BD
:1015E0008C32013304D0D4F88C320133C4F88C32FD
:1015F000E268102100231170C4F84032A3688022F1
:101600001A70E36802221A7032E0D4F874321A6851
:10161000928B120603D594F85E22022A63D094F8C6
:101620005E22032A00F0DA801F491A790968012333
:1016300093400B423FF4E1AE1C491D4B0A70D4F8B5
:10164000742212791A70A36880220020072184F87E
:101650005E0284F855121A70E36802221A70D4F8F8
:101660009432013304D0D4F894320133C4F8943264
:10167000D4F87032002B3FF4C0AE9847BDE6D4F8E2
:101680006832002B3FF4F2AE0022C4F83421D4F8C3
:101690003801019198470199E8E600BFC0A7FF1FF4
:1016A000951A0000A11A00002C8000401E80004006
:1016B0001F80004003781906FCD5C14B12791A70BF
:1016C000002384F85E32D4F844322169013BC4F827
:1016D0004032D4F840322344022293F83C310B705C
:1016E000E3681A7089E6B7491B790B70A368E82193
:1016F0001970E368032184F85E121A707DE6B1491F
:1017000012790A70A268F0211170E268032184F84E
:101710005E12137071E694F85D32002B3FF4ECAE6C
:10172000A3680021B02284F85D121A70D4F8383111
:101730002269591CC4F838112344127883F83020E8
:1017400094F85432012B00F0C480E36802221A702E
:1017500094F85532012B33D0D4F86432002284F847
:101760005522002B3FF4D5AE9847D2E694F85D326F
:10177000002B7FF4B6AEE8233B70D4F85822B0E6D5
:10178000C0233B702369E0681B7884F855E2D3E6F8
:1017900084F83C318AE694F85432012B0CBF802344
:1017A000B0233B70E36802221A70D4F88032013310
:1017B0003FF45EAFD4F880320133C4F8803257E78B
:1017C000D4F88032013304D0D4F880320133C4F825
:1017D0008032D4F87032002BC6D19AE6784A1B7951
:1017E0001370A3680021B02284F85E121A70D4F836
:1017F00058322269013BC4F83831D4F83831591CC9
:10180000C4F838112344127883F8302094F8543205
:10181000012B00F0C180E36802221A70D4F8643210
:10182000002284F85522002B7FF427AFE5E505F070
:10183000100303F0FF02002B52D0002304211022DA
:1018400084F85E3284F855120270A268802111700B
:10185000E268C4F8403202231370D4F88C320133AA
:101860003FF406AFD4F88C320133C4F88C32FFE673
:10187000554B564D84F85C22002914BF2946194661
:10188000032294F84B0200F0DFFA23691B78D4F8A6
:101890003821B2F5817FDBB207D8D4F83821A118FE
:1018A0000132C4F8382181F83030E06844E6EB06B4
:1018B0002ED50422102384F855220370A3688022B9
:1018C0001A70E36802221A70D4F88C320133C9D13D
:1018D000CEE62023013BFDD1A36880221A7034E7B5
:1018E00015F0010528D084F85E22D4F84032002B90
:1018F00059D1022384F85532D4F88432013304D00C
:10190000D4F884320133C4F8843280233B7078E603
:10191000E9072CD50223802284F855323A70E26818
:101920001370D4F8843201333FF4A2AED4F8843279
:101930000133C4F884329BE6D4F840320133C4F852
:101940004032D4F84422934242D394F8543284F87B
:101950005552012B0CBF8023B0233B70E368022259
:101960001A70D4F86032002B7FF487AE45E594F806
:101970005E32012B34D0D4F85832012B4FF00A02DA
:101980000CBFE823E02384F855223B702269E3680A
:10199000127802221A7030E52023013BFDD1A368A2
:1019A00080221A7037E7032384F85532D4F888323E
:1019B0000133AAD0D4F888320133C4F88832A4E7BE
:1019C0001C8000401F800040951A0000A11A0000F2
:1019D00094F85E32012B12D0D4F8403221697AE6B5
:1019E0000223E12284F85E323A70D4F874120C4A71
:1019F000097911702169E26809781370FDE4022306
:101A0000F12284F85E323A70D4F87412044A0979EB
:101A10001170226994F83D111170E2681370ECE4C2
:101A20001B80004000210148FFF7B4BC308DFF1F30
:101A300001210148FFF7AEBCCC8FFF1FC3681B78A4
:101A400003F020035BB190F85C320133DBB2012B71
:101A500080F85C3217D990F84B0200F071BA70B57B
:101A600003F0FF05044680F8555290F84B0200F051
:101A700067FAD4F868325BB1C4F83451D4F838014D
:101A8000BDE87040184790F84932012BE3D1704708
:101A900070BD00BF00210148FFF7D0BF308DFF1F90
:101AA00001210148FFF7CABFCC8FFF1F2DE9F84382
:101AB000134BDFF85C90DFF85C80124E124D1E6015
:101AC00000244FF47A774A4641461C711C739F608C
:101AD00018465C731D6102F039FA0C4B4FF0010E91
:101AE00005F527751C711C7383F80DE04A464146C5
:101AF00018461D619F601E60BDE8F84302F026BADB
:101B0000ACA7FF1FDC4A0000308DFF1F98A7FF1F06
:101B10000C8DFF1F210E000001B441EA000313F0F9
:101B200003036FD1403A41D351F8043B40F8043BE2
:101B300051F8043B40F8043B51F8043B40F8043BA7
:101B400051F8043B40F8043B51F8043B40F8043B97
:101B500051F8043B40F8043B51F8043B40F8043B87
:101B600051F8043B40F8043B51F8043B40F8043B77
:101B700051F8043B40F8043B51F8043B40F8043B67
:101B800051F8043B40F8043B51F8043B40F8043B57
:101B900051F8043B40F8043B51F8043B40F8043B47
:101BA00051F8043B40F8043B403ABDD2303211D3E7
:101BB00051F8043B40F8043B51F8043B40F8043B27
:101BC00051F8043B40F8043B51F8043B40F8043B17
:101BD000103AEDD20C3205D351F8043B40F8043BE7
:101BE000043AF9D204320AD0D2071CBF11F8013BE3
:101BF00000F8013B03D30B7803704B78437001BCB2
:101C0000704700BF0C2A4AD310F0030311D0C3F170
:101C10000403D21ADB071CBF11F8013B00F8013B9B
:101C200007D311F8013B00F8013B11F8013B00F824
:101C3000013B11F003033FF475AF30B4043AC91A05
:101C4000C3F1040C51F8044B022B19D0032B0BD019
:101C5000240A51F8043B1D0644EA050440F8044BED
:101C60001C46043AF4D216E0240E51F8043B1D023F
:101C700044EA050440F8044B1C46043AF4D20AE056
:101C8000240C51F8043B1D0444EA050440F8044BBD
:101C90001C46043AF4D20432B1EB0C0130BC043AD5
:101CA000A0D3013A11F8013B00F8013BF9D20B78BF
:101CB00003704B7843708B78837001BC704700BF12
:101CC00008B5104C08E0236859050DD423681A059F
:101CD0000FD42368DB0411D423685803F3D500F034
:101CE0000BFB23685905F1D501F0DAFF23681A05CB
:101CF000EFD500F009F82368DB04EDD500F004F817
:101D0000EAE700BF3480044008B5FFF7D9FF00BF01
:101D1000014B10221A80704700200540704700BF19
:101D2000094908B50B6830B16A461844A2F58052DB
:101D3000904202D20860184608BD02F013F90C2345
:101D400003604FF0FF3008BD6892FF1FEFF3138070
:101D500070B9EFF310836BB9EFF305825AB94FF402
:101D60008070EFF311832BB1984228BF184670475B
:101D70004FF0FF3070470F2A01D81846F1E7014BAA
:101D8000D05CEEE7F0E300E0704700BF10B40F4B0B
:101D900053F8302092F880422CB1012369B182F8C7
:101DA000803010BC704703EBC0035B681A6841B910
:101DB00022F002021A6010BC704782F8003110BC99
:101DC000704742F003021A6010BC70470C4C0000D0
:101DD0001C4A02EBC00301295B6811D004291BD007
:101DE00052F83000002280F8802229B1022920D048
:101DF000032922D01A6070474FF480721A6070472E
:101E000052F830004FF4A27280F880121A601A68FB
:101E100022F020021A60704752F830104FF4A2727C
:101E2000012081F880021A601A6842F020021A60CC
:101E3000704740F203121A6070474FF481721A60C3
:101E4000704700BF0C4C0000212848D8F8B5042A80
:101E500044D8DFE802F0484B4E0345004FF410260B
:101E60002B4B03EBC0030D465C68216811F4E06165
:101E700048D0284B284A2949C3F89C2104F1404204
:101E80002748C3F8A411A2F59221264FC3F8A00158
:101E90007C292548C3F8A871C3F8AC012CD9A2F558
:101EA00094237C2B2AD9A2F596237C2B28D9A2F542
:101EB00098237C2B29D9A2F59A227C2A27D81B4863
:101EC00072B6236823F4702343F08072C4F3840154
:101ED0001643236040F82150266062B6F8BD704773
:101EE0004FF43026BCE74FF40026B9E74FF4402604
:101EF000B6E74FF42026B3E70D48E1E70D48DFE7EA
:101F00000D48DDE7FFF764FFB3E70C48D8E7F8BDFD
:101F10000C4C00000082FF1FE18CFF1F898CFF1F0B
:101F2000B58CFF1F5D8CFF1F318CFF1F4493FF1F7B
:101F30006C92FF1FA492FF1FF492FF1F2493FF1FB8
:101F40001A4B03EBC00010B4426802F14043A3F502
:101F500092217C2923D9A3F594217C290DD9A3F5BD
:101F600096217C291FD9A3F598217C2919D9A3F59D
:101F70009A237C2B11D80E4C00E00E4C72B61368DD
:101F80000D4823F08773C2F3840123F4803343F0B8
:101F90008073136044F8210062B610BC7047074C90
:101FA000ECE7074CEAE7074CE8E700BF0C4C000001
:101FB0004493FF1FA492FF1F891D00006C92FF1F16
:101FC0002493FF1FF492FF1F30B4054B054D064CC0
:101FD000002210211A602A602060196030BC70470E
:101FE00014D0034004D0034000D00340704700BF2A
:101FF000212801D8FFF7CABE704700BF212801D8A9
:10200000FFF7E6BE704700BF2DE9F843054672B6FC
:10201000204F214B214A1B683C68126862B652016E
:1020200002D5322B88BF013495B3C3F5BB331C4EA8
:10203000DFF86490DFF86480FF334FF47A72A6FB18
:10204000031302FB04F404EB931472B6D9F80010E6
:102050003A68D8F800E062B6C1F5BB33FF33A6FB9F
:1020600003031EF0806FC4EB93134FF47A7002D019
:10207000322988BF013200FB0233B3F57A7F04D3E3
:10208000013D05D004F57A74DFE701F03FF9DCE7A4
:10209000BDE8F883C4A7FF1F18E000E004ED00E0EE
:1020A000ABAAAAAAF8B52E4B2E49DFF8D4E0DFF888
:1020B000D4C02D4E2D4D2E4C2E4A2F4F4FF40000E4
:1020C00018604FF0807018604FF0007018604FF08B
:1020D000806018604FF000601860002008602823BE
:1020E0004BF6FF71CCF80010CEF80030336013606F
:1020F0002B6023603B60B3629362092245F8242C75
:10210000C4F8D80F05F57F65C7F8D41F07F5FF277A
:1021100007F5FA67C6F8F83F2B6006F5FF26C4F806
:10212000D42F05F5FD2504F5FF24386006F2F4767A
:102130001248316005F5FF6504F5FD642B602360EE
:10214000026001F059F9FFF751FF1420FFF75CFF1F
:1021500000F00CFD4FF48C70BDE8F840FFF754BF61
:1021600008E100E004800340148003402480034021
:102170002C8003401C8003403480034000800B40CF
:102180000C80034008800340431E042B14D872B611
:102190000A4951F8230068B170B4094C058834F835
:1021A0001320466841F82360521B24F8132062B6BE
:1021B00070BC704762B670470020704724A8FF1FAC
:1021C000D4A9FF1F013804280BD872B6074B53F867
:1021D000203043B100205B680130002BFBD162B698
:1021E0007047002070471846F9E700BF7CA8FF1F22
:1021F000F0B472B61A491B4E012311F8014B194F66
:102200009A00240742F0010505D556F8324064B122
:1022100056F83520BAB10133062BEED162B6124B17
:1022200000221A70F0BC00F01BBD0F4C0F4D21783E
:1022300007EB4313083001395860217047F83250DA
:1022400062B6F0BC7047084A0949137807EBC50429
:102250000830013B6060137047F8351062B6F0E754
:10226000B04D00000080FF1FADA8FF1F8800400098
:10227000C8004000431E042B1DD81B4A400140F0FB
:10228000100030B4104472B6184CE25C032A1BD81C
:10229000DFE802F00212151703220D88E25410F055
:1022A000080F14BFC823882343EA0543083141605F
:1022B000036062B630BC704708300222EDE70522A9
:1022C000EBE708300422E8E7094A52F8230038B166
:1022D000084A52F82300416042F8231062B6E9E749
:1022E00042F82310034AF7E70080FF1FBCA8FF1F36
:1022F0007CA8FF1F90A8FF1F2DE9F04FDFF818B34F
:10230000DFF818A387B044E0AE4F4FEA930807EB1D
:10231000C809013ED9F8042003F00803F6B2A2F17F
:10232000080003F0FF04002B40F0058157F8383017
:102330001B0C99B222F8081C002B00F0F380A24B72
:1023400022F8064C42F8044C53F82620002A00F0EC
:102350006E819E4D55F8263058609D4C45F82600FC
:1023600034F81630194424F8161000F059FC0028EF
:1023700000F05681974A984B19F0080F00F10800B9
:1023800018BF1346C9F8040047F8383008238BF803
:1023900000309BF80040E4B261071DD58F4B1B78DD
:1023A000BBB18F490A7802F0FF032AB1013BDBB2CF
:1023B0000B70002B00F0B4838A490A7802F0FF0307
:1023C0002AB1013BDBB20B70002B00F0F88000F06B
:1023D0006DFC04238BF8003004F0080303F0FF02C7
:1023E000002B00F0D5809AF80030DBB21E098BD1AB
:1023F0009C08DFF8D09159F8342009EBC401C2F3EE
:102400008302013A49680C2A7DD8DFE802F0808017
:102410007C7C7C7C7C7C447C7C7C07000868724DE6
:102420006C4F4A68714B49F8347081B2704E6A60E3
:1024300040F2816400222860A1424FF00100C9F8F7
:10244000102001931A60C9F81820307000F2F38050
:10245000B1F5D06F80F03383B1F5817F00F0CE828B
:1024600000F24C81802900F02482822940F08D8284
:10247000A98801F07F01052900F287825D4F5E4C3B
:1024800089000F44227062703A78970740F13283D6
:102490002070022011E2554B01931A684AB3574B42
:1024A0005749534E18880C7837784028054684F0F1
:1024B000010E28BF402544F00204002F81F800E0FF
:1024C000A0EB050009EBC40E0CBF8821C82180B227
:1024D00087F0010741EA0541CEF8042018803770E3
:1024E0002A4449F8341010B9402D18BF0022019B2E
:1024F0001A603D4B1A88B2F5A06F04D100219A787A
:102500005970404B1A70404A012313703EE7364A17
:10251000158842F22100854200F05A812D4A49F87F
:102520003420F0E72B4A2C4B19F0080F18BF134644
:1025300047F838302AE700F093FB344A344952F820
:102540002630002B00F0348158688C5D42F826005C
:1025500003F10802C9F80420032C05D8DFE804F0D1
:10256000120F150204228A551A8819F0080F0CBFA1
:102570008823C82343EA024347F8383006E702229B
:102580008A55F1E703228A55EEE705228A55EBE7E3
:10259000E00700F15781210600F18181A20706D5ED
:1025A0001C4A1D4913780220DBB213700870E30641
:1025B00002D5194B10221A7007B0BDE8F08F00F059
:1025C000D1FC04E70080FF1F24A8FF1FCCA7FF1F3A
:1025D000D4A9FF1FC800400088004000B8A8FF1F12
:1025E00039A8FF1FC8A8FF1FA4A8FF1FC8A7FF1F67
:1025F00038A8FF1FC0200740B0A8FF1FE0A7FF1F9B
:10260000ACA8FF1F98200740942007407CA8FF1F1C
:10261000BCA8FF1F8820074080200740902007406B
:10262000B64A47F83800137801331370AEE643F822
:102630002600B34D91E642F22104A14200F0B4809D
:1026400000F2ED80B1F5086F00F05381B1F5106F25
:1026500040F09B81AB4AA9781170AB4D042402E095
:102660000134182C0CD059F834301A06F8D505EB83
:10267000C40301345868083800F0F2FA182CF2D17B
:10268000A249A34BA34A0291A3499D4DA34C059691
:10269000039504944FF000080E4615461C4620682A
:1026A00028B1476800F0DCFA3846002FF9D1002342
:1026B0002360039B28681A46002342F8283028B17B
:1026C000476800F0CDFA3846002FF9D100222A6081
:1026D000029A33781146002241F8042B049A0291A1
:1026E000023B4FF0000122F81810032B00F29A81F0
:1026F000DFE813F0C7019501C701950140F20232EE
:10270000914240F03781A98801F07F01052900F24C
:102710003C816A88002A40F03881814C89000C4451
:102720008046217841F00201217000200290844609
:10273000864604467B490D7845F0020709EBC7033E
:10274000B8F1000F5C600CBF8824C82444EA0C0375
:1027500085F0010449F8373032700C706A4F724BC3
:10276000DFF8C0C1002840F01781BEF1400F1BD137
:1027700044F0020409EBC403029FDFF88CE15F60C0
:10278000002A40F01E81020442F0880286F8008090
:102790000D7007444EF834203B46402804D10020F9
:1027A000624A019910800B60614A01231370AAE606
:1027B0008B5D032B00F21B8101A252F823F000BFB6
:1027C0008D2300008D23000093280000992800002D
:1027D000928862B9574ACD1D11F8013B02F8013FBA
:1027E0008D42F9D1544A1268862A00F0BF804D49C3
:1027F0004D4E0878327840F0020580F001000870F4
:1028000009EBC501002A4FF00000486082F0010288
:102810000CBF8821C82149F8351032707EE642F29B
:102820002124A14240F0AD80A988002940F06081B8
:10283000424F434A434C3F68AD78176080460A4692
:10284000257072E73A49304B3F48364EDFF8D0C02A
:102850003E4DDFF810E13E4F02240C703D4C1860F5
:102860005C6098603C48D8601A619A610D233270B0
:102870003A4C8CF800303A4EFF232B7001209F25F4
:102880008EF800303A7033702570087007B0BDE8DC
:10289000F08F00238B5579E501238B5576E5204990
:1028A000304B80220D2008701A70A2077FF57FAE92
:1028B00076E62D4C022022706270EA88824280F017
:1028C000308118490D78402A45F00207964609EBF9
:1028D000C70028BF4FF0400E04EB0E034460029384
:1028E000CEEB02004FEA0E4C4FF001080022C82444
:1028F0002CE7044A1C4C12782270DEE7ADA8FF1FBB
:10290000CCA7FF1FB8A8FF1F0080FF1F90A8FF1FC4
:1029100024A8FF1F7CA8FF1FBCA8FF1FD4A9FF1F6E
:10292000C0200740ACA8FF1F38A8FF1FE0A7FF1F6B
:1029300094200740DFA9FF1FE0A9FF1FC4A7FF1FC6
:10294000E8A9FF1FD8A8FF1F880040008820074083
:1029500098200740E4A7FF1F3CA8FF1F84200740E2
:102960008C20074080200740B0A8FF1F754A0F2128
:1029700011703CE7B1F5A06F07D100224FF00108BC
:10298000D3E642F221329142F7D06F4B0F221A70F8
:102990006E4A01231370B6E540287FF6E9AE44F095
:1029A000020407EBC401029E4E60AAB183F80080C6
:1029B000674A8CF8005033464038403347F834209B
:1029C000EEE6029B86F80080020442F0C8020D7019
:1029D00003444EF83420E0E683F80080029B5D4A11
:1029E0008CF800504038403347F83420D8E619F0CE
:1029F000080F0CBF022303238B55C7E4A98801F0FD
:102A00007F010529C1D86A88002ABED14E4C8900B1
:102A10000C448046217821F00201217085E64FF0B8
:102A20000103337008F10108B8F1050F04F1040443
:102A300005F1040506F101067FF431AE464B059E13
:102A4000464D474F002119704FF0010817F8013B20
:102A500005F8043B1B0718D44FEA880444F002022F
:102A600044F00304002349F8323049F834303D4B38
:102A70009D4208F10108E9D196F8008088F0010232
:102A800053E64FF000033370CCE700F0C9F800289C
:102A90003CD009EB48134FEA8804083058602D4BAE
:102AA00049F8343000F0BCF830B344F0010309EBCE
:102AB000C30208305060264A49F83320CEE72A4A3C
:102AC0005468002C3FF461AF6888AF8804E00C3292
:102AD0005468002C3FF459AF13888342F7D15388D0
:102AE000BB42F4D1000A03280CBF20781089E4E629
:102AF00080461AE60220E0E6174B44F001021B78FC
:102B000049F83200144A01331370A7E7124B124AF6
:102B10001B784FEA8804013349F834001370C1E789
:102B200000BE4028864628BF4FF0400E04EB0E033F
:102B3000CEEB00004FEA0E4C029300224FF001084A
:102B4000F8E500BF39A8FF1FC020074094200740C8
:102B5000C800400088004000ADA8FF1FC420074007
:102B6000B04D0000D8200740B84D00002DE9F041DD
:102B700001F080F900231F491A4601EBC30041F818
:102B800033200133182B42604FF000041948F4D170
:102B9000194A1A4F13681A491A4D1B4EDFF874C0B0
:102BA000DFF874E0DFF8748043F480231360C0F32F
:102BB00007233B70C0F307430B70000EFF2302F5A1
:102BC00028322870D4328CF80030104D8EF8003046
:102BD0000F483370012388F80030702681F8504088
:102BE0004FF40074102107F8183C2E700460117027
:102BF000BDE8F0810080FF1F348004409C20074026
:102C0000B0200740B42007401020074049E400E00E
:102C100008E100E08020074088200740942007401A
:102C200072B60D480268B2FA82F31D2B10DC4FF029
:102C30000041D94022EA0102026062B6074803EB74
:102C4000C303DB00C2180021C15010465160704719
:102C500062B60020704700BF4C93FF1FBC83FF1F6C
:102C60000D4B0E4AC31AA2FB03231B091D2B0CD8C4
:102C70000B4A127852B972B60A484FF00041026806
:102C800021FA03F31A43026062B67047064A1278CB
:102C9000002AF0D0FFF7ACBABC83FF1F398EE338AF
:102CA000ADA8FF1F4C93FF1FB8A8FF1F38B5084BF6
:102CB0001C7824B9074D296809B14B8803B938BD80
:102CC0009B000B800420FFF7D5FA2C6038BD00BFB5
:102CD000C1A8FF1FC4A8FF1F38B50F4D286878B1E1
:102CE00043880288C118013393420C7A02D2438090
:102CF000204638BDFFF7B4FF002320462B6038BDC7
:102D0000064B1B782BB10220FFF73EFA2860002803
:102D1000E6D14FF0FF3038BDD4A8FF1FB8A8FF1F81
:102D200010B5094C206818B143881844007A10BDCA
:102D3000064B1B782BB10220FFF726FA20600028F3
:102D4000F2D14FF0FF3010BDD4A8FF1FB8A8FF1F6D
:102D5000044B054A1B6850881BB11A885B88D31A3C
:102D600018447047D4A8FF1FD4A9FF1F0B4B1B7832
:102D70009BB110B50A4C206848B1FFF771FF0023E2
:102D800002202360FFF700FA30B1FFF769FF02204D
:102D9000FFF7FAF90028F8D110BD7047B8A8FF1F57
:102DA000D4A8FF1F2DE9F04FDFF8F89083B001227F
:102DB00089F80020019169B3DFF8EC80364F019E5D
:102DC0008346D8F80000B0B3344D4488C4F14001C4
:102DD000B14228BF314604EB010E00221FFA8EFEDD
:102DE0002A70761AA0F802E000F1080251B1013C05
:102DF000224459441BF8014B02F8014F8B45F9D18D
:102E0000B0F802E0BEF13F0F0BD8254A0521117042
:102E1000002ED6D10198002389F8003003B0BDE818
:102E2000F08F4022028001460320FFF723FA0022A0
:102E3000C8F80020E9E73A782AB3184D4AF2F92495
:102E40004FF0010A07E0013C16D02A78A2B900F041
:102E50005DFA3A78BAB10320FFF7B4F90728F2D83F
:102E600089F800A0FFF7DCFEC8F800000028ACD10C
:102E70000C4B013C1870E8D101234FF0FF302B7050
:102E800003B0BDE8F08F00234FF0FF3089F8003029
:102E900003B0BDE8F08F00BFB8A8FF1FD0A8FF1F88
:102EA000C8A8FF1FC9A8FF1FCCA8FF1F00B583B08B
:102EB00002AB012103F8010D1846FFF773FF03B0C1
:102EC0005DF804FB38B50E4D0E4C286801232370C5
:102ED00028B1408800232370C0F1400038BD0A4B60
:102EE0001B7813B90020207038BD0320FFF76AF962
:102EF0000728F7D8FFF794FE28600028E9D1F1E70A
:102F0000CCA8FF1FC9A8FF1FB8A8FF1FF8B5114B19
:102F10001B788BB1104E114D346801272F7064B1AE
:102F20000F4A638800271770214623800320FFF78C
:102F3000A1F9376000232B70F8BDFFF771FE084B35
:102F400028B1014603201C70FFF794F9F2E71F70C7
:102F5000F0E700BFB8A8FF1FCCA8FF1FC9A8FF1F3C
:102F6000C8A8FF1F38B50E4B1B7873B90D4C2168EC
:102F700061B103F0FF054B880B800320FFF77AF95E
:102F8000256038BD084B01221A7038BDFFF748FE96
:102F90000028F7D00146BDE838400320FFF76AB9A2
:102FA000C9A8FF1FCCA8FF1FC8A8FF1FF0B572B6A5
:102FB00099B902688AB103790F2B0ED8274C218862
:102FC00041FA03F5ED070AD503F1007303F59063A9
:102FD000B2EB431F03D162B6F0BD204C2188002321
:102FE00041FA03F212F0010207D00133102BF7D19E
:102FF00062B6002203710260F0BD01259D402943A5
:10300000218062B6164E174D174FDFF864E0D9B233
:103010000171346844F0020434602C6844F0020406
:103020002C60A6F580268224A5F5802503F1007387
:103030003C6003F59063223E243D0C4C8EF800105A
:103040005B0131702970217003601A605A609A60C8
:10305000DA601A615A619A61DA61F0BDDAA8FF1F7D
:10306000408004403C800440008000401F800040BD
:103070001A80004003790F2B11D8094A10B413703D
:1030800072B6084904790A880123A34022EA03039F
:103090000B8062B61022002310BC027103607047DF
:1030A0001A800040DAA8FF1F70B5EFF3108272B6E5
:1030B0000C4C206880B10C4E00254369236073B12D
:1030C0009D6102B962B6457783689847EFF3108235
:1030D00072B620680028F0D102B962B670BD3360C4
:1030E000EFE700BFDCA8FF1FE0A8FF1FFFF7DCBF72
:1030F000024A136801331360704700BFC4A7FF1F63
:103100000368C9B21B6818470368C9B21B6818472F
:103110000368C9B21B6818470368C9B21B6818471F
:103120004B0803F1376303F5D83310B50446B3FBFE
:10313000F1F000F063FA044B1B7803B110BD204698
:10314000BDE8104000F0D8BE6493FF1F08B50846E4
:1031500000F048FC012008BD08B5084600F042FC1C
:10316000012008BD38B508460D4601F069FA04464D
:103170000146284600F040FC204638BD10B5084600
:103180001446114600F038FC204610BD0846114692
:1031900000F062BE0846114600F044BE00F05ABD81
:1031A00008B5084600F0F6FB003018BF012008BD46
:1031B00008B5084600F0CCFB003018BF012008BD60
:1031C0000846114600F060BB084600F097BB00BF00
:1031D000084600F03DBB00BF00F0D8BA10B54B0860
:1031E00003F13760144600F5D830B0FBF1F000F081
:1031F00005FA2046BDE8104000F076BA00F004BDA4
:1032000000F0C2BC00F0ACBC00F086BC00F090BC8A
:1032100030B5044683B002252A4601A80549FEF7C9
:103220007BFC23682A4601A95B682046984703B0C7
:1032300030BD00BF844D0000F0B507468BB0002ABA
:1032400033D0012A08BF0A2251B3212400E0F4B28E
:10325000B1FBF2F502FB1511C8B2092900F13001EA
:1032600098BFC8B20AA988BF3730214488BFC0B20E
:1032700001F8240C661E2946002DE8D133B1013C2B
:10328000E4B20AAB23442D2203F8242C3B6801AAA4
:1032900011195B683846C4F1220298470BB0F0BDA3
:1032A00030228DF825202124E8E70368C9B21B6885
:1032B00098470BB0F0BD00BF0029BABF49422D238B
:1032C00000230A22FFF7B8BF08B5FDF7FFF8FDF7A6
:1032D000E9FB00F01BF8FAE700F072BE00F078BEE0
:1032E000704700BFFFF742BDFFF71ABDFFF7F4BC00
:1032F000FFF72EBDFFF70ABEFFF7E4BD08461146F3
:10330000FFF750BD0846FFF7D1BD00BF2DE9F843D8
:10331000314E337893B1314F3A787AB90122D907D7
:103320003A7036D49A0719D400225B073A7005D553
:103330002B4B1A6812B1EFF305820AB1BDE8F8838E
:10334000EFF3108172B6186818B1264C2278002A63
:103350002ED00029F2D162B6BDE8F883DFF8908064
:1033600098F80020002ADFD0DFF88890002405E0DC
:10337000013498F80030E4B2A34212D959F824502D
:103380002B6828461B6998470028F1D02B6998477D
:10339000EEE7FFF7DDFCC8B9134B1B781BB9337898
:1033A000C0E73378C0E7337803F0FE033370B9E742
:1033B00045691D60012323705DB1AA6101B962B640
:1033C00000254577836898472570B7E700F0BCFD76
:1033D000E2E7064B1D60F1E77893FF1FEDA8FF1FA2
:1033E000E8A8FF1FECA8FF1F9694FF1FE4A8FF1F8B
:1033F0009CA9FF1F90A9FF1F30B42948294A2A4BD6
:103400002A4D6024E121047011701B78284C082B90
:1034100030D00A2B2748284937D00C2B0CBF352237
:103420003D2212232A60236002600B60234B244953
:103430001B78244ABBB101230B601360224B234944
:103440001B78234A012B26D9042B0FD9082B1ED910
:10345000102B94BF862387230B6013601D4B012222
:103460001A7030BC70470B601360E7E784230B6071
:103470001360F3E700F58E200F4908300122132373
:103480002A60236002600B60D0E73922F7E78523CA
:103490000B601360E2E780230B601360DEE700BF80
:1034A00000400740014007407993FF1F08B00340E8
:1034B0000CB0034008B00B400CB00B40EFA8FF1F4E
:1034C00020B0034020B00B407A93FF1F24B003408C
:1034D00024B00B40EEA8FF1FF0B44D1E2E46002472
:1034E00000E00134B0FBF2F302FB1300092800F105
:1034F00030078ABF3730F8B2C0B206F8010F18465D
:10350000002BEED10A1953704CB1107815F8016FE9
:1035100028700133E01A834202F80169F5DB08469E
:10352000F0BC70472DE9F84F2C4B1B6807460BB1D8
:1035300001221A70DFF8BC90DFF8BC8099F80040D7
:10354000D8F80030264D274E01349C422ABF4FF058
:10355000000A5FFA84FA5446AB462B78A3421CD18A
:10356000FEF7F4FB40282BDC33791B06F5D59BF8DE
:103570000030D8F80010DBB25A1C8A4225D23F2A0C
:1035800029D919493F3B0968CB5CD1B2DBB2DBB228
:10359000F37129702B78A342E2D03F2C8ABF124BE3
:1035A000124B1B68124988BF403CFFB21F550D4BA0
:1035B0000120BC22087089F800A0DA70BDE8F88FFD
:1035C000FF28CADDFFF7A2FEC7E700210A46074B26
:1035D0009B5CDBB2DBE7D1B2F9E700BF88A9FF1F34
:1035E00081A9FF1F00A006403CA9FF1FF8A8FF1FEC
:1035F00080A9FF1F8CA9FF1F8893FF1F2B4A2C490E
:103600001368F0B543F4806313600A78294F2A4E9B
:103610002A4D2B4C2B4900233B7033702B702370A9
:103620000B70002A3DD0152A21D0274B1B78012B87
:1036300025D0052B30D01F2827D800200246012591
:10364000224B234C1A7023495D7004224FF0020E66
:1036500088273C26402598729A704FF4005083F8D2
:1036600013E05A751F74DE7025700860F0BD1A4BA8
:1036700040F213321A60144B1B78012BD9D1174B2F
:103680004FF451721F281A60D7D9C0F34432C0F3E7
:10369000471500F01F00D3E7114B4FF451721A6029
:1036A000C9E7104B40F213321A60BEE73480044081
:1036B00038A9FF1FF4A8FF1FF5A8FF1F8CA9FF1F43
:1036C00081A9FF1F80A9FF1F8C93FF1F00A0064048
:1036D0002DE400E004E100E018C0044044A00440F0
:1036E0001CC0044040A00440234B23499B7803F0B6
:1036F000EC0200F003031343420700F00F0248BF3F
:1037000043F01003042A8B702ED01B4B1A4A5B79AE
:10371000C10603F0EF0348BF43F0100353719379E0
:10372000820603F0EF03144A48BF43F0100310F47D
:103730000070937105D1114B114A1968914218D04C
:10374000704730B491780F4D0F4B0C480C4C41F042
:10375000A00191702A78046003EBC20340F2473263
:103760005B6830BC1A6070478B7943F040038B7103
:10377000CBE71860704700BF00A0064088A9FF1F74
:10378000D400D4428C93FF1F0C4C0000234B1B68C9
:103790005B0541D510B5224C237823B1FFF7B6FD68
:1037A0002378002BFAD11F481F4A204B4FF40054B6
:1037B00000210460D1701B78FBB1152B03D11C4B89
:1037C00040F203121A601B4B1B7803F07F03012B9E
:1037D0001DD0052B03D1184B40F203121A60174A73
:1037E000114B1748174912681C79DB7900230370C5
:1037F0000B700AB10123137010BD134B40F203127A
:103800001A600C4B1B7803F07F03012BE1D10F4BA7
:1038100040F203121A60E2E7704700BF34800440B0
:1038200080A9FF1F84E100E000A0064038A9FF1F27
:1038300018C004408C93FF1F1CC00440F0A8FF1F59
:10384000F4A8FF1FF5A8FF1F40A0044044A00440B7
:103850000A4A38B50546137803F0FF04002BFAD165
:1038600001212846FEF7CAFB21462846FEF7C0FB89
:10387000034A044B52F835201A6038BD80A9FF1F57
:103880000C4C000088A9FF1F09B140F08000174AC6
:103890001378984216D010B4154C246864050FD5DF
:1038A00003F07F03012B1CD0052B11D0002900F061
:1038B0007F0114BF6023442301290DD0052902D0C4
:1038C000107010BC70470B4943F440730B60F7E76E
:1038D000084B00241C60E9E7074943F440730B6080
:1038E000EEE7054B00241C60E0E700BF8C93FF1F50
:1038F000348004401CC0044044A00440104B1A789B
:1039000082420AD00F490968490505D5AAB1152A8E
:1039100009D068B1152801D0187070470A4A40F2E2
:1039200013311160F8E7084A002111600028F1D135
:10393000064A40F213311160EEE704490A60E8E7F5
:1039400038A9FF1F3480044018C0044040A0044040
:103950000D4B1B6813F4806305D0212805D90B4B50
:1039600000201860704718467047094B10B5074C87
:1039700053F8303023600121FEF740FB236800221A
:103980001A70012010BD00BF34800440F0A8FF1F52
:103990000C4C00000F4B1B6813F4806308D01228F6
:1039A00008D0142811D00C4A537B03F0FE03537344
:1039B00000207047094B40F202321A60064A537BDE
:1039C00043F00103537301207047054B40F202326C
:1039D0001A60F3E73480044000A006400CA00440C5
:1039E00014C00440034B1B685B0501D5FFF79ABD6B
:1039F000704700BF348004403E4B1B685A0575D5A4
:103A00002DE9F04F3C4B1B6883B00BB101221A70BB
:103A100043189842019363D2DFF8F080DFF8F0900A
:103A2000364CDFF8F0B0364F451C18E0227892454E
:103A30005FFA8AF629D0BAF13F0F1ED9DBF80020D1
:103A400015F8011CAAF14003D1542A462D4901233F
:103A50000B701D44019B88F800609A4240D298F890
:103A60000030D9F8002003F1010A9245DED3237813
:103A700003F0FF0643B10026B246234B15F8012C94
:103A800003F80A202A46E1E7B246BC22FA7005E0B4
:103A90003A7913060BD422785245CCD1FEF756F969
:103AA0004028F5DDFF28F6DDFFF730FCF3E722784C
:103AB000D9F80010D2B2501C88420BD23F2816D938
:103AC000DBF800103F3A8A5CC1B2D2B2D2B2FA71CE
:103AD0002170E0E7002108460B4B1A5CD2B2F5E7F3
:103AE000074BBC22DA7003B0BDE8F08F7047C1B25B
:103AF000F2E700BF3480044088A9FF1F81A9FF1F9F
:103B000000A0064080A9FF1FF8A8FF1F8CA9FF1F77
:103B10008893FF1F3CA9FF1F10B5044C237823B1E5
:103B2000FFF7F4FB2378002BFAD110BD80A9FF1F0B
:103B3000084B094A1B781078DBB2C0B2834202D22C
:103B40000138C01A7047054A1268013A1044C01A79
:103B5000704700BF8CA9FF1F81A9FF1F8893FF1F1B
:103B6000064A074B10781B78C0B2DBB2984202D2EB
:103B7000044A12681044C01A704700BFF4A8FF1F1F
:103B8000F5A8FF1F7C93FF1F70B4184B184D1B78CE
:103B90002A78D9B2D2B2914222D0164B1C68531C5B
:103BA000A34214D3002213461348C05CC0B2134E84
:103BB0002A7032684AB1994238BF0919CB1A1049A4
:103BC00009688B4201D80023137070BC70473F2BEB
:103BD00009D90C483F3A0068805CDAB2C0B2E6E727
:103BE0004FF0FF30F1E7DAB2DEE700BFF4A8FF1FC5
:103BF000F5A8FF1F7C93FF1F40A9FF1FF0A8FF1F20
:103C00008093FF1F84A9FF1F0D4A0E4B12781B786B
:103C1000DBB29A4211D00C4A11685A1C8A4204D372
:103C200000220A4B985CC0B270473F2AF9D9084A73
:103C30003F3B1268D05CC0B270474FF0FF30704716
:103C4000F4A8FF1FF5A8FF1F7C93FF1F40A9FF1FCB
:103C500084A9FF1F0D4B1B685B0516D530B40C4BB8
:103C60000C4CDA780C480D4902F0CB024025DA7092
:103C70005D74DA7842F03402DA7023780268DBB2DD
:103C80000B700AB10023137030BC704734800440BD
:103C900000A00640F5A8FF1FF0A8FF1FF4A8FF1F13
:103CA0002DE9F041504A137913F0300F44D072B629
:103CB000937D03F0FF01002B57D062B6DFF85881E7
:103CC0004A4B4B4D98F800004A4C1B782F68D4F8AB
:103CD00000C0DFF848E11546C0B2DEB20CE0964203
:103CE000A0F13F0404D03F2A7CD90CF804301046E0
:103CF0004A1E12F0FF010DD0EB79421CBA42DBB232
:103D0000EDD3002EF4D000204A1E12F0FF010EF871
:103D10000030F1D1384B1A68C3B288F800305AB17C
:103D20003649B04238BFBB1B09682CBF831B1B1828
:103D30008B4224BF012313702B48C178C9B20D06F2
:103D400018D44A060FD5284B1B795B060BD52C4B94
:103D50002C491B6800220A7003B11A70224B3C22C6
:103D6000DA70BDE8F081BDE8F0814023D179537469
:103D700062B6E1E703791C06E3D5234BDFF8A0E048
:103D80001D789EF80030EDB2DBB29D421ED01F4C74
:103D90001F4A2668D2F800C01E4F0DE03F2C027962
:103DA0001ED91CF803202346D2B2D2B2C271027DC2
:103DB000072A0BD89D4209D05C1CA642A3F13F0301
:103DC000ECD803790023FA5CD2B2EEE7DBB2064A04
:103DD0008EF800301379180644BF7C23D370B0E707
:103DE0002346F0E710468FE700A00640F5A8FF1F26
:103DF0007C93FF1F84A9FF1FF0A8FF1F8493FF1F60
:103E000088A9FF1F80A9FF1F8CA9FF1F8893FF1F90
:103E10003CA9FF1FF8A8FF1FF4A8FF1F40A9FF1F20
:103E200081A9FF1F084B1860084B50B101F14002F7
:103E30001A60074A074B01F11A0028311060196017
:103E4000704740221A60F4E784A9FF1F7C93FF1F8C
:103E50008093FF1F8493FF1F044B1860044B10B125
:103E600040311960704740221A6070473CA9FF1F1B
:103E70008893FF1F70B584B072B6194B194D1A485C
:103E8000702241260F2480211A702E701A46047069
:103E9000197013781B06FCD5144B186862B6144BC6
:103EA000144C984298BF00EB800001A998BF4000D5
:103EB0000A22FFF711FB01A92046002311F8012B6C
:103EC00001333AB10A2B20F8022FF7D116232370C1
:103ED00004B070BD5B00DBB2237004B070BD00BFE6
:103EE00000000240070002400600024008000240B5
:103EF0007F9698008094FF1F70B4104E104D347858
:103F0000CCB12B68984214D02A46002303E052F823
:103F1000041F81420DD00133DBB2A342F7D15A1CFA
:103F2000D2B2084945F823000B78327043F00203FF
:103F30000B7070BC704723460122F2E79CA9FF1F5B
:103F400090A9FF1F7893FF1F704700BF0B460146E3
:103F5000184600F001B800BF13460A460146022089
:103F600000F0DCBB014B1868704700BFC098FF1F12
:103F700070B50F4E0F4D761BB61018BF002405D03C
:103F8000013455F8043B9847A642F9D10A4E0B4D2F
:103F9000761B00F043FFB61018BF002406D0013492
:103FA00055F8043B9847A642F9D170BD70BD00BFDB
:103FB000284E0000284E0000384E0000284E000019
:103FC000024B0146186800F00BB800BFC098FF1FF5
:103FD000024B0146186800F065BC00BFC098FF1F87
:103FE0002DE9F04F01F10B05162D83B0064640F286
:103FF0009F8035F0070500F1BF80A94200F2BC8028
:1040000000F0F4FAB5F5FC7FC0F09C826B0A00F07A
:10401000BA80042B00F28381A80900F1390E4FEA1F
:104020004E033830C44F07EB8303A3F108015C68EB
:10403000A14207D1ACE0002A80F2AC80E468A14242
:1040400000F0A680636823F003035A1B0F2AF2DDF9
:10405000B9493C6901F1080E744500F0B381636809
:1040600023F003035A1B0F2A00F39981002AC1F899
:1040700014E0C1F810E080F29E80B3F5007F80F07C
:104080006781DB0803F1010C01229B1002FA03F3A4
:104090004A6851F83C80C4F8088001EBCC091A4307
:1040A000A9F10803E3604A6041F83C40C8F80C40BD
:1040B000831001249C40944200F28A80144206D16D
:1040C00020F003006400144200F10400FAD007EB72
:1040D000C009CC468046DCF80C108C4507D173E152
:1040E000002A80F28181C9688C4500F06D814B689F
:1040F00023F003035A1B0F2AF2DD0C46D1F80CC043
:1041000054F8088F4B1945F001054D6042F001014C
:10411000C8F80CC03046CCF808807B613B61C3F81E
:104120000CE0C3F808E059609A5000F061FA1FE013
:10413000102921D800F05AFA1025062302207E4FBC
:1041400007EB8303A3F108025C68944200F0458109
:104150006368E168A56823F00303234430465A6886
:10416000E96042F001028D605A6000F041FA0834C3
:10417000204603B0BDE8F08F00240C2320463360B6
:1041800003B0BDE8F08F80234FF0400E3F2049E799
:1041900070465DE72344E1685A68A56842F0010271
:1041A000E96030468D605A6000F022FA08342046FB
:1041B00003B0BDE8F08F234430465A6842F0010254
:1041C0005A6000F015FA0834204603B0BDE8F08FBD
:1041D000BC68636823F00308A84504D3C5EB080353
:1041E0000F2B00F38C80554BDFF860911A68D9F8DB
:1041F000003001332A4404EB080A00F0608102F524
:1042000080520F3222F47F6222F00F0211463046B4
:10421000019200F0EFF9B0F1FF3F8346019A00F000
:104220005881824500F2FC80454B1968DA451144FB
:10423000196000F05381D9F80000DFF810E1013077
:104240001BBFCAEB0B0A5144CEF800B019601BF03B
:10425000070100F01781C1F10800C1F580518344C6
:1042600008315A44C2F30B02C2EB010949463046F9
:10427000019300F0BFF9431C019B00F03F81CBEBA1
:1042800000024A4442F001021968C7F808B04944E4
:10429000BC42CBF804201960DFF8A49016D0B8F126
:1042A0000F0F40F2FD806268A8F10C0323F00703B2
:1042B000E01802F001024FF0050E1A430F2B626066
:1042C000C0F804E0C0F808E000F21C811D4BBC6897
:1042D0001A68914288BF19601B4B1A689142626844
:1042E00088BF196022F003029542A2EB050301D8B2
:1042F0000F2B04DC304600F07BF9002438E762190C
:1043000043F0010345F0010565603046BA60536033
:1043100000F06EF90834204603B0BDE8F08F142B8E
:1043200071D9542B00F2A480280B00F16F0E4FEAD4
:104330004E036E3076E600BFC498FF1FA8A9FF1F8A
:10434000ACA9FF1FA4A9FF1FA0A9FF1FD09CFF1F9E
:104350005A0A042A5ED9142A00F2B38002F15C01E1
:1043600049005B3207EB810C57F82110DFF8DC8144
:10437000ACF1080C8C4500F088804A6822F00302FA
:10438000934202D289688C45F7D1D1F80CC07A6883
:10439000C4F80CC0A160CCF80840CC6088E6631972
:1043A00042F0010745F00105656030464B610B6145
:1043B000C3F80CE0C3F808E05F609A50083400F0DE
:1043C00017F9D5E64A6873E608F1010818F0030FFB
:1043D0000CF1080C7FF47FAE30E0DC68A34208BF2C
:1043E00002303FF435AEB3E60B440C465A68C96858
:1043F00054F8085F42F001025A603046E9608D606F
:1044000000F0F6F8B4E603F15C0E03F15B004FEA4E
:104410004E0307E69A0902F1390149003832A1E753
:10442000BC424A4B3FF400AF9C68626822F0030232
:104430005AE759F80839994540F0828010F0030F87
:1044400000F1FF30F5D17B6823EA04037B60640050
:104450009C423FF6BDAE002C3FF4BAAE1C42404633
:104460007FF435AE64001C4200F10400FAD02EE661
:10447000B3F5AA7F18D8E80B00F1780E4FEA4E0387
:104480007730CFE54FF48051EBE60121D8F80430C6
:10449000921001FA02F21A43C8F80420614677E745
:1044A0000123CBF8043025E740F25452934220D840
:1044B000A80C00F17D0E4FEA4E037C30B2E51032BD
:1044C000A4E6542A26D81A0B02F16F0149006E3275
:1044D00048E7BC68626822F0030205E7CAF30B00F4
:1044E00000287FF4A8AE4244BB6842F001025A6043
:1044F000ECE6FE234FF07F0E7E2093E501224FF085
:104500000009C1E604F10801304600F0CBF9D9F802
:104510000010DBE6B2F5AA7F05D8DA0B02F17801CC
:10452000490077321EE740F254518A4205D89A0C6E
:1045300002F17D0149007C3214E7FE217E2211E761
:104540007B6884E7E808431C5B00F8E5C498FF1F1C
:1045500070B4840746D0541E002A41D0CDB2034621
:1045600002E0621EE4B3144603F8015B9A07F8D137
:10457000032C2ED9CDB245EA05250F2C45EA054579
:1045800019D903F110022646103E0F2E42F8105C96
:1045900042F80C5C42F8085C42F8045C02F110023C
:1045A000F2D8A4F1100222F00F0204F00F0410322E
:1045B000032C13440DD91E462246043A032A46F81A
:1045C000045BFAD8221F22F003020432134404F0E1
:1045D00003042CB1C9B21C4403F8011BA342FBD154
:1045E00070BC704714460346C2E700BF704700BF67
:1045F000704700BF38B5074C0023054608462360C6
:10460000FDF78EFB431C00D038BD2368002BFBD088
:104610002B6038BDECA9FF1FFFFFFFFFFFFFFFFF6F
:10462000FFFFFFFFFFFFFFFFFFFFFFFFFFFFFFFF9A
:10463000FFFFFFFFFFFFFFFFFFFFFFFFFFFFFFFF8A
:1046400090F800F06DE9024520F007016FF0000CD2
:1046500010F0070491F820F040F049804FF000047A
:104660006FF00700D1E9002391F840F000F1080055
:1046700082FA4CF2A4FA8CF283FA4CF3A2FA8CF38D
:104680004BBBD1E9022382FA4CF200F10800A4FAF4
:104690008CF283FA4CF3A2FA8CF3E3B9D1E9042348
:1046A00082FA4CF200F10800A4FA8CF283FA4CF37F
:1046B000A2FA8CF37BB9D1E9062301F1200182FA39
:1046C0004CF200F10800A4FA8CF283FA4CF3A2FA3F
:1046D0008CF3002BC6D0002A04BF04301A4612BA4D
:1046E000B2FA82F2FDE8024500EBD2007047D1E950
:1046F000002304F00305C4F100004FEAC50514F0DF
:10470000040F91F840F00CFA05F562EA05021CBFAF
:1047100063EA050362464FF00004A9E72DE9F0477C
:10472000254C2568D5F84841064688469246994664
:10473000C4B360681F2817DC431C76B104EB800506
:104740000122C5F888A0D4F8881182401143022EB6
:10475000C4F88811C5F808911ED00230636044F88F
:1047600020800020BDE8F087144B03B34FF4C870DD
:10477000FFF726FC0446D0B1D5F84831002780E881
:104780008800C5F8484138460123C4F88871C4F848
:104790008C71002EE1D0D1E7D4F88C110A43C4F813
:1047A0008C21DAE705F5A674C5F84841C1E74FF05A
:1047B000FF30BDE8F08700BF184E0000C13F000089
:1047C000024B13B1024800F005B87047000000002A
:1047D000E1470000002301461A461846FFF79EBF36
:1047E00038B5074D074C2C1BA41005D0013C55F8DB
:1047F000043D9847002CF9D1BDE8384000F01CBBBF
:104800000000000000000000F8B5234F0C460646EB
:10481000FFF7ECFEBB685D6825F00305291B01F678
:10482000EF7121F47F6121F00F01A1F58054B4F5FF
:10483000805F07DB00213046FFF7DCFEBB682B44BE
:10484000984204D03046FFF7D3FE0020F8BD614205
:104850003046FFF7CFFE01300DD0104BBA68196813
:104860002D1B45F001053046091B55601960FFF707
:10487000BFFE0120F8BD00213046FFF7BBFEBA683D
:10488000831A0F2BDEDD064C0449246843F0010334
:10489000001B53600860D5E7C498FF1FACA9FF1F39
:1048A000D09CFF1F002945D02DE9F0410D468046E0
:1048B000FFF79CFE55F8047C6A4927F00103A5F137
:1048C0000804E2188E685068B24220F0030062D0FB
:1048D000FE0750600BD455F8087CE41B01F1080E6C
:1048E000A56875453B446FD0E768EF60BD6015185B
:1048F0006D68ED0742D543F001026260E350B3F505
:10490000007F18D2DB085A1C4D6851F83270A7603E
:1049100001209B1000FA03F301EBC2001D4308388D
:10492000E0604D6041F83240FC604046BDE8F04137
:10493000FFF75EBE70475A0A042A53D89A0902F15B
:1049400039077F0002F1380501EB870051F8272075
:104950004449083890424DD0516821F003018B4200
:1049600002D292689042F7D1D068E060A260846081
:10497000D4604046BDE8F041FFF73ABE95683A4F33
:10498000BD4203443FD0D068E86043F00102856037
:104990006260E350B3E7FF07034407D455F8082CDF
:1049A000A41A1344A068E268C26090602F4A12689B
:1049B00043F00100934260608C60B6D32C4B4046BC
:1049C0001968FFF721FFB0E711184968C90744D4F7
:1049D0009168D268CA60034443F00100916060604E
:1049E000E350A2E7142A17D802F15C077F0002F116
:1049F0005B05A9E7AA104B68012505FA02F21343EB
:104A00004B600246B1E743F001024C610C61E56086
:104A1000A5606260E35088E7542A06D81A0B02F1B9
:104A20006F077F0002F16E058EE7B2F5AA7F06D808
:104A3000DA0B02F178077F0002F1770584E740F294
:104A40005450824206D89A0C02F17D077F0002F191
:104A50007C0579E7FE277E2576E743F00102626058
:104A6000E35062E7C498FF1FCC98FF1FCC9CFF1F48
:104A7000A8A9FF1F737461727465640064656C7427
:104A8000612054696D653A20000000004E6F746526
:104A900020697320616C726561647920706C617942
:104AA000696E67004E6F7465206F6E3A20000000DB
:104AB0004441544142554620303A2000444154413B
:104AC00042554620313A2000444154414255462047
:104AD000323A20000000000000000000F50D000048
:104AE000550E0000950D0000F10D0000990D00001D
:104AF000A90D0000D10D00001400000016000000F8
:104B0000180000001A0000001C0000001E00000039
:104B10002000000022000000240000002800000007
:104B20002C000000300000003400000038000000BD
:104B30003C0000004000000044000000480000006D
:104B400050000000580000006000000068000000F5
:104B5000700000008000000088000000900000004D
:104B6000A0000000B0000000C0000000E000000055
:104B7000F0000000000100002001000040010000E2
:104B80006001000080010000C0010000E0010000A1
:104B9000000200004002000080020000000300004C
:104BA00080030000C0030000000400008004000037
:104BB000000500000006000080070000000700005C
:104BC0000008000000090000000A0000000C0000BE
:104BD000000F000000010203040509060A070C0D7E
:104BE000430E45120F13141519161A174F1C1D5595
:104BF0001E221F23242595262A272B2C2D2E322FCB
:104C000033343536373A3B3C3D3E3FFF4008FE43A8
:104C100040A004404408FE4344A004400018FE4362
:104C200000C004403000FE43309004403400FE4396
:104C3000349004401C18FE431CC004401018FE436E
:104C400010C004400818FE4308C004400C18FE437E
:104C50000CC004400C10FE430CB004401010FE4386
:104C600010B004401810FE4318B004401C10FE435E
:104C70001CB004401410FE4314B004400418FE435A
:104C800004C004400010FE4300B004400008FE438E
:104C900000A004400408FE4304A004400C08FE43A6
:104CA0000CA004400808FE4308A004401418FE436A
:104CB00014C004401818FE4318C004400410FE43FA
:104CC00004B004400810FE4308B004401400FE4342
:104CD000149004404C08FE434CA004400420FE43C2
:104CE00004D004402410FE4324B004402010FE43AE
:104CF00020B004402810FE4328B004402C10FE438E
:104D00002CB004400020FE4300D004404808FE437D
:104D100048A004401000FE43109004400000000032
:104D200000000000593100007D3100000D3200000C
:104D3000093200000532000001320000FD310000A0
:104D400021310000DD310000D9310000D1310000F7
:104D5000C9310000C1310000B1310000A1310000B3
:104D60009D310000953100008D31000001310000BF
:104D700009310000113100001931000065310000D7
:104D80004D3100000D0AFFFF000000000000000090
:104D900005330000FD320000F9320000F53200005A
:104DA000F1320000ED320000E9320000E53200008F
:104DB0001519151519FFFFFF000100009093FF1F43
:104DC0001200000000020000BC93FF1F95000000CD
:104DD000050309046C94FF1F00000000000300009D
:104DE0007C94FF1F0000000001030904A493FF1F2F
:104DF00000000000020309045494FF1F000000009B
:104E0000030309048094FF1F00000000000000005D
:104E100000000000000000009894FF1FF8B500BFDC
:104E2000F8BC08BC9E467047C1470000350400002E
:084E3000D90C0000AD1A0000CE
:044E3800F8B500BF0A
:084E3C0010F1FF7F01000000EE
:104E440038B5084B1C681C6054B1074D94FAA4F3A0
:104E5400B3FA83F355F823309847631E1C40F5D109
:104E640038BD00BFA0D004404493FF1F38B5084BA1
:104E74001C681C6054B1074D94FAA4F3B3FA83F38D
:104E840055F823309847631E1C40F5D138BD00BF48
:104E9400A0C004402493FF1F38B5084B1C681C6055
:104EA40054B1074D94FAA4F3B3FA83F355F82330BD
:104EB4009847631E1C40F5D138BD00BFA0B0044024
:104EC400F492FF1F38B5084B1C681C6054B1074DA1
:104ED40094FAA4F3B3FA83F355F823309847631E86
:104EE4001C40F5D138BD00BFA0A00440A492FF1F10
:104EF40038B5084B1C681C6054B1074D94FAA4F3F0
:104F0400B3FA83F355F823309847631E1C40F5D158
:104F140038BD00BFA09004406C92FF1F0000000049
:104F2400100000006400000008000000E803000016
:104F340002000000030000002C010000010000003A
:104F440000600640016006400260064003600640BF
:104F5400046006400560064006600640076006409F
:104F640008600640096006400A6006400B6006407F
:104F7400000000000000000000000000000000002D
:104F8400000000000000000000000000000000001D
:104F9400000000000000000000000000000000000D
:104FA40000000000000000000000000000000000FD
:1051840000000000000000000100131200000000F5
:10519400A0860100010000000000000000000000E3
:1051A40000000000000000000000000000000000FB
:1051B40000000000000000000000000000000000EB
:1051C40000000000000000000000000000000000DB
:1051D4000000000000000000000000000070064015
:1051E40001700640027006400370064004700640D9
:1051F40005700640067006400770064008700640B9
:10520400097006400A7006400B700640000000005A
:10521400000000000000000000000000000000008A
:10522400000000000000000000000000000000007A
:10523400000000000000000000000000000000006A
:10524400000000000000000000000000000000005A
:105424000000000001001D1E00000000A086010015
:105434000100000000000000000000000000000067
:105444000000000000000000000000000000000058
:105454000000000000000000000000000000000048
:105464000000000000000000000000000000000038
:105474000000000000000000F0A9FF1F891D0000CB
:10548400891D0000891D0000891D0000891D000080
:10549400891D0000891D0000891D0000891D000070
:1054A400891D0000891D0000891D0000891D000060
:1054B400891D0000891D0000891D0000891D000050
:1054C400891D0000891D0000891D0000891D000040
:1054D400891D0000891D0000891D0000891D000030
:1054E400891D0000891D0000891D0000891D000020
:1054F400891D0000891D0000891D0000891D000010
:10550400891D0000891D0000891D0000891D0000FF
:10551400891D0000891D0000891D0000891D0000EF
:10552400891D0000891D0000891D0000891D0000DF
:10553400891D0000891D0000891D0000891D0000CF
:10554400891D0000891D0000891D0000891D0000BF
:10555400891D0000891D0000891D0000FFFFFFFF59
:10556400244D000000000000E803000000000000DB
:10557400E132000001000000904D00000000000036
:10558400E803000000000000010A040040000000DD
:105594001A00000028000000400000000100000084
:1055A4001201100100000040C016890475020102B6
:1055B4000301000018035400650065006E007300C9
:1055C40079006400750069006E006F00090295009F
:1055D400030100C032080B000202020100090400AA
:1055E400000102020100052400100105240101014B
:1055F4000424020605240600010705810310004067
:1056040009040100020A000000070502024000002C
:1056140007058302400000090402000201030000A0
:1056240007240100012500062402010105062402C5
:1056340002020509240301030102010509240302EE
:1056440004010101050905050240000000000525CB
:105654000101010905840240000000000525010143
:105664000300000018035400650065006E00730019
:10567400790020004D004900440049000E03500009
:105684006F0072007400200031000000040309045C
:105694000C030000000000000000000000000000F7
:1056A4000000000000000100000000008497FF1FBC
:1056B400EC97FF1F5498FF1F00000000000000003B
:1056C40000000000000000000000000000000000D6
:1056D40000000000000000000000000000000000C6
:1056E40000000000000000000000000000000000B6
:1056F40000000000000000000000000000000000A6
:105704000000000000000000000000000000000095
:105714000000000000000000000000000000000085
:105724000000000000000000000000000000000075
:105734000000000000000000000000000000000065
:105744000000000000000000000000000000000055
:1057540001000000000000000E33CDAB34126DE6F2
:10576400ECDE05000B00000000000000000000005B
:105774000000000000000000000000000000000025
:105784000000000000000000000000000000000015
:105794000000000000000000000000000000000005
:1057A40000000000000000000000000000000000F5
:105AD4009894FF1F0000000000000000C498FF1FFE
:105AE400C498FF1FCC98FF1FCC98FF1FD498FF1FAA
:105AF400D498FF1FDC98FF1FDC98FF1FE498FF1F5A
:105B0400E498FF1FEC98FF1FEC98FF1FF498FF1F09
:105B1400F498FF1FFC98FF1FFC98FF1F0499FF1FB8
:105B24000499FF1F0C99FF1F0C99FF1F1499FF1F65
:105B34001499FF1F1C99FF1F1C99FF1F2499FF1F15
:105B44002499FF1F2C99FF1F2C99FF1F3499FF1FC5
:105B54003499FF1F3C99FF1F3C99FF1F4499FF1F75
:105B64004499FF1F4C99FF1F4C99FF1F5499FF1F25
:105B74005499FF1F5C99FF1F5C99FF1F6499FF1FD5
:105B84006499FF1F6C99FF1F6C99FF1F7499FF1F85
:105B94007499FF1F7C99FF1F7C99FF1F8499FF1F35
:105BA4008499FF1F8C99FF1F8C99FF1F9499FF1FE5
:105BB4009499FF1F9C99FF1F9C99FF1FA499FF1F95
:105BC400A499FF1FAC99FF1FAC99FF1FB499FF1F45
:105BD400B499FF1FBC99FF1FBC99FF1FC499FF1FF5
:105BE400C499FF1FCC99FF1FCC99FF1FD499FF1FA5
:105BF400D499FF1FDC99FF1FDC99FF1FE499FF1F55
:105C0400E499FF1FEC99FF1FEC99FF1FF499FF1F04
:105C1400F499FF1FFC99FF1FFC99FF1F049AFF1FB3
:105C2400049AFF1F0C9AFF1F0C9AFF1F149AFF1F60
:105C3400149AFF1F1C9AFF1F1C9AFF1F249AFF1F10
:105C4400249AFF1F2C9AFF1F2C9AFF1F349AFF1FC0
:105C5400349AFF1F3C9AFF1F3C9AFF1F449AFF1F70
:105C6400449AFF1F4C9AFF1F4C9AFF1F549AFF1F20
:105C7400549AFF1F5C9AFF1F5C9AFF1F649AFF1FD0
:105C8400649AFF1F6C9AFF1F6C9AFF1F749AFF1F80
:105C9400749AFF1F7C9AFF1F7C9AFF1F849AFF1F30
:105CA400849AFF1F8C9AFF1F8C9AFF1F949AFF1FE0
:105CB400949AFF1F9C9AFF1F9C9AFF1FA49AFF1F90
:105CC400A49AFF1FAC9AFF1FAC9AFF1FB49AFF1F40
:105CD400B49AFF1FBC9AFF1FBC9AFF1FC49AFF1FF0
:105CE400C49AFF1FCC9AFF1FCC9AFF1FD49AFF1FA0
:105CF400D49AFF1FDC9AFF1FDC9AFF1FE49AFF1F50
:105D0400E49AFF1FEC9AFF1FEC9AFF1FF49AFF1FFF
:105D1400F49AFF1FFC9AFF1FFC9AFF1F049BFF1FAE
:105D2400049BFF1F0C9BFF1F0C9BFF1F149BFF1F5B
:105D3400149BFF1F1C9BFF1F1C9BFF1F249BFF1F0B
:105D4400249BFF1F2C9BFF1F2C9BFF1F349BFF1FBB
:105D5400349BFF1F3C9BFF1F3C9BFF1F449BFF1F6B
:105D6400449BFF1F4C9BFF1F4C9BFF1F549BFF1F1B
:105D7400549BFF1F5C9BFF1F5C9BFF1F649BFF1FCB
:105D8400649BFF1F6C9BFF1F6C9BFF1F749BFF1F7B
:105D9400749BFF1F7C9BFF1F7C9BFF1F849BFF1F2B
:105DA400849BFF1F8C9BFF1F8C9BFF1F949BFF1FDB
:105DB400949BFF1F9C9BFF1F9C9BFF1FA49BFF1F8B
:105DC400A49BFF1FAC9BFF1FAC9BFF1FB49BFF1F3B
:105DD400B49BFF1FBC9BFF1FBC9BFF1FC49BFF1FEB
:105DE400C49BFF1FCC9BFF1FCC9BFF1FD49BFF1F9B
:105DF400D49BFF1FDC9BFF1FDC9BFF1FE49BFF1F4B
:105E0400E49BFF1FEC9BFF1FEC9BFF1FF49BFF1FFA
:105E1400F49BFF1FFC9BFF1FFC9BFF1F049CFF1FA9
:105E2400049CFF1F0C9CFF1F0C9CFF1F149CFF1F56
:105E3400149CFF1F1C9CFF1F1C9CFF1F249CFF1F06
:105E4400249CFF1F2C9CFF1F2C9CFF1F349CFF1FB6
:105E5400349CFF1F3C9CFF1F3C9CFF1F449CFF1F66
:105E6400449CFF1F4C9CFF1F4C9CFF1F549CFF1F16
:105E7400549CFF1F5C9CFF1F5C9CFF1F649CFF1FC6
:105E8400649CFF1F6C9CFF1F6C9CFF1F749CFF1F76
:105E9400749CFF1F7C9CFF1F7C9CFF1F849CFF1F26
:105EA400849CFF1F8C9CFF1F8C9CFF1F949CFF1FD6
:105EB400949CFF1F9C9CFF1F9C9CFF1FA49CFF1F86
:105EC400A49CFF1FAC9CFF1FAC9CFF1FB49CFF1F36
:105ED400B49CFF1FBC9CFF1FBC9CFF1F0000020062
:045EE400FFFFFFFFBE
:00000001FF
