:1000000000000320D1010000156C0000CD6B000042
:10001000CD6B0000CD6B0000CD6B0000CD6B000000
:10002000CD6B0000CD6B0000CD6B0000156C0000A7
:10003000156C0000CD6B0000C57F0000C97F00007B
:10004000156C0000156C0000156C0000156C0000AC
:10005000156C0000156C0000156C0000156C00009C
:10006000156C0000156C0000156C0000156C00008C
:10007000156C0000156C0000156C0000156C00007C
:10008000156C0000156C0000156C0000156C00006C
:10009000156C0000156C0000156C0000156C00005C
:1000A0002D34000039340000156C0000156C000080
:1000B000156C0000156C0000156C0000858B0000AD
:1000C000156C0000156C0000156C0000156C00002C
:1000D000156C0000156C0000156C0000156C00001C
:1000E000156C0000156C0000156C0000156C00000C
:1000F000156C0000156C0000156C0000156C0000FC
:10010000156C0000156C0000156C0000156C0000EB
:10011000156C000069710000156C0000156C000082
:10012000156C0000156C0000156C0000156C0000CB
:10013000156C0000156C0000156C0000156C0000BB
:10014000156C0000156C0000156C0000156C0000AB
:10015000156C0000156C0000156C0000156C00009B
:10016000156C0000156C000045340000156C000093
:10017000156C0000156C0000156C0000156C00007B
:10018000156C0000156C0000156C0000156C00006B
:10019000156C0000156C0000156C0000156C00005B
:1001A000156C0000156C0000156C00005134000047
:1001B000156C0000156C0000156C0000156C00003B
:1001C000156C0000156C0000156C0000156C00002B
:1001D000594B4CF2205210B51A804DF628121A8055
:1001E00000BF00BF06F01AFD544B4FF030621A609A
:1001F000534A9A60534ADA60534B4FF470021A60C4
:10020000524B534A1A60534B1A78110703D51A7888
:1002100042F008021A70504B5049AA221A70504AF4
:10022000504B8B4204D252F8040F43F8040BF8E70A
:100230004D4B4E4900228B4202D243F8042BFAE781
:100240004B494C4A002352F8230041F82300013364
:10025000742BF8D1484B494A802103F8011B934283
:10026000FBD1474B424A1A60464B8A221A70A3F5CB
:10027000805324225A70A0221A709A799207FCD5D2
:100280009A79D406FCD4404A937903F00C03082BE6
:100290003D4BF9D101221A7148225A719A79900680
:1002A000FCD5394A9179384B4906FBD5374A38494C
:1002B00011600221516020221A709A7902F00C021A
:1002C0000C2AFAD1334B344A1A60344A344C13683E
:1002D00013F4807303D123604FF4A8531360314BA0
:1002E000314A1A6000225A60072243F8042C2F4A30
:1002F000C3F80C2D62B606F0C7FD2368DA0705D5F2
:100300002B4806F031FD2B4B2B4A1A602B4B1B78E8
:100310005B0609D5274C284B22689A4204D1244811
:1003200006F022FD0023236006F07EFC0BF09AFD10
:1003300007F0EEFEFEE700BF0E20054030800440CF
:10034000823F04000100002B88ED00E0002008E05F
:100350000300008502D0074000E007405C1CFF1F3F
:1003600098D000005008FF1F0020FF1FA03D002074
:100370000002FF1F0000000000E400E064E400E071
:1003800008ED00E000500640004006404480044074
:100390000000030104800440C010050010D0034099
:1003A00014D0034014E000E0FF760100000020209C
:1003B00042443A621CE00340A5C3945A00F007404F
:1003C000FFFFFFFFFFFFFFFFFFFFFFFFFFFFFFFF3D
:1003D000FFFFFFFFFFFFFFFFFFFFFFFFFFFFFFFF2D
:1003E000FFFFFFFFFFFFFFFFFFFFFFFFFFFFFFFF1D
:1003F000FFFFFFFFFFFFFFFFFFFFFFFFFFFFFFFF0D
:10040000FFFFFFFFFFFFFFFFFFFFFFFFDEF9FFFF23
:1004100010B5054C237833B9044B13B10448AFF33E
:1004200000800123237010BD0020FF1F000000008A
:1004300094D00000084B10B51BB108490848AFF331
:1004400000800848036803B910BD074B002BFBD0A0
:10045000BDE81040184700BF000000000420FF1F47
:1004600094D000005C1CFF1F00000000704700BF1C
:10047000704700BF704700BFFF2800D97047064B88
:10048000064910B504462246186902F055FC044B93
:10049000E0B2187010BD00BF1C23002040F6FF1F03
:1004A000EDDFFF1F00B5012183B0022006F070FCD4
:1004B000044A054B12680192019A1A6003B05DF874
:1004C00004FB00BF883B0020F4DFFF1FF0B5B1F153
:1004D000000E27DB154F3E5CB64523DC12F1800F82
:1004E00020D0BEF1070F1EDC11490EF18045013D01
:1004F00005EBC00501EB401301EB85051C3353F8F8
:10050000044C43F80449AB42F9D10136082E094B9B
:10051000A8BF0826F6B20EEBC00E3E541E5441F89A
:100520002E20F0BDF0BD0249EFE700BF88FEFF1F9F
:1005300088FDFF1F1CE1FF1F00291ADB30B40E4DA0
:100540002C5CA14214DC07290CDC0C4B01EBC00134
:10055000421C03EB810103EB42124B6841F8043B60
:100560009142FAD1631E2CB1DBB2054A2B541354CD
:1005700030BC70470023F8E788FEFF1F88FDFF1F8F
:100580001CE1FF1F10B40B4A002302EB401252F88B
:10059000044B8C4205D00133082BF8D15DF8044B95
:1005A0007047C2B2072AF9D859B240B25DF8044B7D
:1005B000FFF7C2BF88FDFF1F00290ADB054B1B5C4C
:1005C000994206DC002A04DB01EBC001024B43F830
:1005D0002120704788FEFF1F88FDFF1F43010A4945
:1005E00003F1200210B40A440B44002443F8044BE6
:1005F00093424FF00001F9D1044A054B11541954AC
:100600005DF8044B704700BF88FDFF1F88FEFF1F89
:100610001CE1FF1F00281ADDF0B40D4B0D4E1D78B4
:1006200005F180410139013D06EB81010024002DD7
:10063000376806DD074B53F8042F43F8042C994222
:10064000F9D10134A04246F82570F0D1F0BC7047D2
:1006500018E1FF1FACDFFF1F00281DDDF0B50F4BB9
:100660000F4E1D7805F1804E0EF1FF3E013D06EB69
:100670008E0E31460024002D56F82570C8BF7346F3
:1006800005DD53F8042C43F804298B42F9D10134D9
:10069000A0423760EFD1F0BD704700BF18E1FF1FE7
:1006A000ACDFFF1F70B4124E45017419002314F81B
:1006B00013208A4204D00133102BF8D170BC70474C
:1006C00003EB001206EB420201333544002401E043
:1006D00001330232082B07D09078D1781070102B9C
:1006E0005170F5D170BC7047AC73EC73F0E700BF8C
:1006F00040F7FF1F094B78B101221A70084B002206
:1007000003F5007003F120011A705A7002338B4216
:10071000FAD19842F6D170471870EFE75408FF1FDE
:1007200040F7FF1FF0B5012189B0032006F036FB2A
:100730000121022006F032FB474E484B484A717BAC
:1007400030691B7804920025012213241227059298
:10075000039500950194029702F04EFA414B4248EE
:10076000424C1D7029464FF480720BF06BFE3369CA
:100770003F49404E2068404A404DC3F86862C3F884
:100780006C1240F2EE2613780BB12B783BB923683C
:1007900011781B1A00295BD0B3F5FA6FF3D9384DE5
:1007A000384E6B6D1868036847F61221DB6998476D
:1007B000236807930121079AC5F8002101FA01F384
:1007C00000244FF6FF720B4385F8581085F87030FF
:1007D00085F85A4085F859406C662C6685F8F840D3
:1007E00085F8754085F8744085F8764085F877403F
:1007F000C5F8FC40AA66EA6602F090FE30681E2149
:100800002044243405F058FCB4F5907FF6D104243C
:100810000121022006F0BCFA642006F0E7FA01216B
:10082000032006F0B5FA642006F0E0FA0021022069
:1008300006F0AEFA642006F0D9FA0021032006F093
:10084000A7FA642006F0D2FA013CE1D109B0F0BD6C
:10085000B34298D9A3E700BF1C2300205508FF1F0F
:10086000801A0600EDDFFF1F40F6FF1F883B0020C7
:1008700051260000790400006C3C00207D3C0020E3
:100880001C20FF1FF0E4FF1F00B5012883B009D032
:10089000022802D003B05DF804FBFFF703FE03B0AB
:1008A0005DF804FB0146032006F072FA044A054B8A
:1008B00012680192019A1A6003B05DF804FB00BF50
:1008C000883B0020F0DFFF1F10B50D4A0D4B12686A
:1008D0001B6882B00192019CE31A092B0AD80A4BCB
:1008E0001B68E41A092C03D90021022006F050FAF3
:1008F00002B010BD0021032006F04AFAEFE700BF66
:10090000883B0020F0DFFF1FF4DFFF1FF8B50F4D1D
:100910000F4E2B780F4F0133DBB203F007002B7023
:10092000307008243B6800EBC00003EB800005F04A
:10093000B7FB48B12B780133DBB203F00700013C71
:100940002B703070EED1F8BD3078F8BD24E1FF1F78
:1009500090FEFF1FF0E4FF1F2DE9F84F17469DF8AA
:100960002890214C05460E469846002204E00132AC
:10097000082A04F10C040DD054F8041C8D42F6D161
:1009800023689E42F3D12AB102EBC2024FEA820BE6
:10099000164C20E040F2F45306EB460203FB05F34D
:1009A00003EB8203124A114C52F803A0FFF7AEFF8B
:1009B00000EB40030F4A9B0000EBC0004FEA800BA6
:1009C0002068D55013445146584401225E60C3F854
:1009D000089005F04DFB2068424658443946BDE872
:1009E000F84F05F045BB00BF28FDFF1FF0E4FF1FD7
:1009F0002C21FF1F24FDFF1FB8B4154B19788B0065
:100A00000A3323F0070300AFADEB030D6B4671B162
:100A1000104D01F18042013A05EB8202ADF1040074
:100A2000043D52F8044940F8044FAA42F9D161B19B
:100A300001F18042013A084903EB8202043B53F87A
:100A4000040F41F8040F9342F9D1BD46B8BC70477A
:100A500018E1FF1FACDFFF1FA8DFFF1F08B5074B22
:100A60005B6D18680368F8211B6898474FF60F0103
:100A70000348BDE8084004F05BBF00BF1C20FF1F17
:100A800000E5FF1F08B5074B5B6D18680368FA2186
:100A90001B6898474FF60F210348BDE8084004F053
:100AA00047BF00BF1C20FF1F00E5FF1F08B5074B15
:100AB0005B6D18680368FC211B6898474FF60F416F
:100AC0000348BDE8084004F033BF00BF1C20FF1FEF
:100AD00000E5FF1F08B5074B5B6D18680368FB2135
:100AE0001B6898474FF60F310348BDE8084004F0F3
:100AF0001FBF00BF1C20FF1F00E5FF1FF8B51A4DE8
:100B000000242B4604E00134082C03F110030ED01E
:100B10001A688242F7D15A688A42F4D11C211348DC
:100B200007F0AEF8124807F0DFFA60B2F8BD114FD7
:100B300039784B1CDBB209313B70C9B203F00700B6
:100B4000002605EB00125C1C52684AB1E3B29942E0
:100B500003F007004FF00106F3D1397040B2F8BD41
:100B6000002EFBD03B70F9E798E0FF1F90C9000012
:100B7000F012FF1FEEDFFF1F38B590F9014090F92A
:100B80000250002C04DD013CE0B207280AD938BD30
:100B9000FDD160B22A4600210134FFF797FC082CF2
:100BA000F7D1F4E72A4640B20021BDE83840FFF70C
:100BB0008DBC00BF38B590F9014090F90250002C6F
:100BC00005DD601E072801DC7F2D0DD938BDFDD164
:100BD0007F2D04D90134082CF8D07F2DFAD829466E
:100BE0002046FFF7CFFCF5E72946BDE83840FFF780
:100BF000C9BC00BF10B590F90140002C03DD601E98
:100C000007280EDD10BDFDD120460134FFF7E6FCBC
:100C1000082CF7D020460134FFF7E0FC082CF3D174
:100C2000F0E7BDE81040FFF7D9BC00BF90F90130F4
:100C3000DAB2082A17D890F90200C1B24A1E072A70
:100C400011D8094AD25C9042D8BF0A4623B107495D
:100C50000B4403F8012C7047054B03F1080103F81E
:100C6000012F8B42FBD1704788FEFF1F1CE1FF1F45
:100C70001BE1FF1F90F90120D3B2082B15D890F982
:100C800002100F4B0B40002B10DB591C08BF012337
:100C900022B1013A0B4941F8223070470A4A02F169
:100CA000200142F8043F9142FBD17047013B63F0C1
:100CB00001030133591C08BF0123002AE9D1EDE7E4
:100CC00001000080B8FEFF1FB4FEFF1F90F9012055
:100CD000D3B2082B13D88178C37843EA01231BB21F
:100CE000002B0CDB22B1013A054941F82230704754
:100CF000044A02F1200142F8043F8A42FBD17047C6
:100D000078E0FF1F74E0FF1F70B5104B90F90140B1
:100D100085781B5D90F903605D1B002C6DB204DDCE
:100D2000013CE0B207280AD970BDFDD160B232465D
:100D300029460134FFF7CAFB082CF7D1F4E7324605
:100D4000294640B2BDE87040FFF7C0BB88FEFF1FD8
:100D500038B50F4B90F9014085781B5D5D1B013D57
:100D6000002C6DB204DD013CE0B2072809D938BD82
:100D7000FDD160B229460134FFF7DEFB082CF8D123
:100D8000F5E7294640B2BDE83840FFF7D5BB00BFC4
:100D900088FEFF1F70B5114B90F9014085781B5DEF
:100DA00090F903605D1B013D002C6DB204DD013C38
:100DB000E0B207280AD970BDFDD160B2324629469B
:100DC0000134FFF7F9FB082CF7D1F4E73246294646
:100DD00040B2BDE87040FFF7EFBB00BF88FEFF1FC9
:100DE00070B590F90150EBB21F2B21D890F9022079
:100DF000002A1DDB90F90310002919DB43790479DF
:100E000043EA042424B201EBC216B4F5804F314604
:100E10002846A8BF4FF48044FFF770FE0549064BF3
:100E200000010A189C42B8BF1C460D5094605660E1
:100E300070BD00BF98E0FF1F00C0FFFF70B590F9C4
:100E40000150EBB21F2B17D88478C37803EBC4147E
:100E5000B4F5804F10DA0679437943EA062636B2B4
:100E6000002E09DB21462846FFF748FE034A000111
:100E7000131815505C60DE6070BD00BF98E0FF1F66
:100E80002DE9F041E0290C469DF8185008D8013DA5
:100E9000EDB20F2D02D849B2002912DBBDE8F08176
:100EA000F729FBD90834E4B2012303FA04F414F05F
:100EB000DD0FF3D0436D18680368BDE8F0411B688F
:100EC00018471F46436D8046186803682943C9B216
:100ED0001B6816469847D8F854301868036806F01F
:100EE0007F011B6804F0EF049847C02CD6D0D8F8D7
:100EF00054301868036807F07F011B68BDE8F041B3
:100F0000184700BF00B51F2883B003D80F288CBF37
:100F100000230123DBB91306A0F10F0203F0FE4307
:100F2000D2B243F43043013A090443F00B031202F6
:100F300001F4FE0102F47062194311430B4804F0FE
:100F4000F7FC012003B05DF804EBFFF79DBC013016
:100F5000C0B20090D3B20648CAB2B021FFF790FFEA
:100F6000012003B05DF804EBFFF78EBC00E5FF1F26
:100F70001C20FF1F2DE9F0410C4606464FEA4108B0
:100F800040F2F45108EB040001FB06F1234F01EBA2
:100F90008001394482B08D68551935D443F6FF720B
:100FA0009542A8BF154640F2F45202FB06F208EB48
:100FB000040102EB81023A445268D3B932BB184BA8
:100FC000690083FB0123C917C1EBE30303F00102AE
:100FD00002EB630221463046FFF794FF40F2F453E0
:100FE000444403FB06F606EB84043D5102B0BDE821
:100FF000F081002AE3D00021134600912A462146C1
:101000003046FFF7A9FCE9E70025CCE700932A4624
:10101000012321463046FFF79FFCDFE72C21FF1F0D
:10102000813FE00F90F90330002B0DDB90F9042095
:10103000002A09DB10B490F901401F2C02D88178F6
:101040007F2902D95DF8044B704702EBC31220469A
:1010500001235DF8044BFFF78DBF00BF90F903300B
:10106000002B0EDB90F90420002A0ADB10B490F963
:1010700001401F2C03D890F902107F2902D95DF896
:10108000044B704702EBC312204600235DF8044B6B
:10109000FFF770BFF8B5CB111D061CD4D7113C0665
:1010A00019D4044615460E46DAB26321FFF72AFF2B
:1010B00006F07F0220466221FFF724FFFAB22046A5
:1010C0000621FFF71FFF05F07F0220462621BDE81D
:1010D000F840FFF717BFF8BDF0B5154F83B03C4699
:1010E000002566688E4204F1100414D00135082DE5
:1010F000F7D100252C46A2180BD4B2F5804FA8BF1B
:101100004FF4804203B15DB903B0BDE8F040FFF792
:10111000C1BF0022F6E707EB0515AC68ED68EAE70A
:1011200001242B460094FFF717FC03B0F0BD00BF6D
:1011300098E0FF1F90F90230002B09DB90F90310B3
:10114000002905DB30B490F901401F2C01D930BCD7
:1011500070470579427901EBC311204602EBC512B5
:10116000012330BCFFF7B8BF90F90230002B09DB38
:1011700090F90310002905DB30B490F901401F2CD1
:1011800001D930BC70470579427901EBC311204683
:1011900002EBC512002330BCFFF79EBF2DE9F047DC
:1011A0001D4F1E4E1E4DDFF87C90B846002407E010
:1011B0002434B4F5907F06F1040605F10C0525D022
:1011C0003868204404F06CFF0028F1D0D8F8000003
:1011D000204405F06FFB420089FB0213D217C2EBDB
:1011E000E30303F0010A32680AEB630A52458646BC
:1011F000524608D0A96895E80810012918466146AA
:1012000006D0FFF77FFEC6F800A0D1E7BDE8F08763
:101210007246FFF73FFFF6E7F0E4FF1FCCDFFF1F4A
:1012200024FDFF1F813FE00F1F281DD87F291BD8F9
:1012300000B50F2883B018D9A0F10F03DBB2090461
:10124000013B01F4FE011B0241F4404103F47063D1
:1012500041F00C0119430C4804F06AFB012003B073
:101260005DF804EBFFF710BB70470130C0B200908F
:10127000CAB20023C0210548FFF702FE012003B0D7
:101280005DF804EBFFF700BB00E5FF1F1C20FF1F0C
:101290001F2836D800B50F2883B001F30D0112D8EE
:1012A000013001F50052C0B20090C2F3C713E02133
:1012B00002F07F021348FFF7E3FD012003B05DF861
:1012C00004EBFFF7E1BA01F50051A0F10F030A04A6
:1012D000DBB202F4FE02013B42F46042490442F0F8
:1012E0000E021B0201F0FE4103F470631143194327
:1012F000054804F01DFB012003B05DF804EBFFF787
:10130000C3BA70471C20FF1F00E5FF1F1F2817D816
:1013100000B5002983B02CDB7F29A8BF7F210F28CF
:101320000FD80130C0B20090CAB20023D0211248B9
:10133000FFF7A6FD012003B05DF804EBFFF7A4BAA8
:101340007047A0F10F03DBB2013B1B0203F4706393
:1013500043F45043090443F00D0301F4FE01194323
:10136000064804F0E5FA012003B05DF804EBFFF74E
:101370008BBA0021D3E700BF1C20FF1F00E5FF1F31
:101380001F4B1B788B4223DC1E4B1B7899421FDCC2
:1013900010B51F2882B02BD9DCB90F381206C3B2A2
:1013A00002F0FE4242F41042013B090442F00902FD
:1013B0001B0201F4FE0103F4706311431943124848
:1013C00004F0B6FA012002B0BDE81040FFF75CBAA5
:1013D00070470130C0B20090D3B20C48CAB290211D
:1013E000FFF74EFD012002B0BDE81040FFF74CBAF8
:1013F0000F288CBF00240124002CCED0E9E700BFC9
:1014000020FDFF1F5708FF1F00E5FF1F1C20FF1FC7
:1014100000B51F2883B003D80F288CBF00230123F9
:10142000BBB9A0F10F03DBB20904013B01F4FE01DB
:101430001B0241F4004103F4706341F008011943B9
:101440000B4804F075FA012003B05DF804EBFFF7D8
:101450001BBA0130C0B20090CAB2002380210548F7
:10146000FFF70EFD012003B05DF804EBFFF70CBAA7
:1014700000E5FF1F1C20FF1F2DE9F04F604C94F981
:1014800000500D447F2D85B000F2A480002BC0F2E7
:10149000A180002A40F3AF804FEAC008C0EB0809E2
:1014A0004FEA4919574E7F2A09F1E00AA8BF7F2267
:1014B00004461746B244B1444FF0000B03E009F173
:1014C0001C09D14513D0D9F800209542F7D1D9F89D
:1014D0000C20012AF3D129462046019309F11C0969
:1014E000FFF796FF49F810BCD145019BEBD1DFF81F
:1014F0002CE145495EF824200132114000294EF8C4
:10150000242073DBDFF81891C4EB080C49F8241091
:101510004FEA4C1C082203E0013A49F8241018D085
:10152000C1EBC1010CEB810170183749C06801287B
:101530000FD15EF824000130014000294EF824004C
:10154000EADA013961F007010131013A49F8241062
:10155000E6D12E4A117801293FD92D4A107893FB04
:10156000F0F22C4B02EB8202C2EB021283FB02E38D
:10157000D217C2EB6313002B2CDD59F824C0C4EB47
:1015800008024FEACC0E5201CCEB0E0902EB8902A5
:10159000324410FB01F15161C4EB08084FEA4812D4
:1015A0001D49CCEB0E0802EB880806EB080E0A6812
:1015B000039246F808502046CEF80830039CCEF837
:1015C000107001233A462946CEF80440CEF80C307C
:1015D000FFF7D6FE05B0BDE8F08F0D4A1078012860
:1015E000BDD859F824C04FEACC0ED5E7013961F0D7
:1015F0000701013186E72946FFF70AFFEAE700BF46
:10160000ECDFFF1FE8060020070000805808FF1FDE
:101610005908FF1F1F85EB51883B0020F8DFFF1F93
:1016200028E1FF1F2DE9F04F87B01F28109C00F222
:10163000AC807F2900F2A980002BC0F2A680072C85
:1016400000F2A3805C4D5D4F2D5DDFF890B15C4EE4
:101650003F5D8BF800503770002D00F09680DFF86A
:1016600080E1584DDFF87CC1574E5EF824E055F814
:1016700024505CF8249056F824A09FB1534EDFF814
:10168000688107F1804C07EBC4040CF1FF3C06EBCA
:101690008C0C08EB8404043E54F8047D46F8047F67
:1016A0006645F9D11F46029203910190BEF1000FE9
:1016B0007ED1002D07D072DD05F17F03FE2B02D80D
:1016C0002846FEF7C9FF9BF8000000285DD03F4E7A
:1016D0004FF000083346454656469A4607E0FFF766
:1016E000CBFE9BF800000135A842B0444DDD431EFF
:1016F000B9F1000FA3EB05034B44B8BFC5EB0903D9
:1017000093FBF0F00AF014F841EC100B07F0ECFB3F
:1017100000222F4B51EC100B0AF070F80AF01EFB60
:10172000039B5AF82510DFF8C4C0DFF8C4E0029A22
:10173000194404460C443B460198214645B3002E0B
:10174000CDD0244BDCF800201B7805922248059967
:101750005A1C03EB830341444EF823400EEB830EE7
:1017600080FB0240D317C3EBE0032A2000FB1323C6
:10177000029ACEF80C20019ACEF81020154ACEF825
:101780000870CEF804101370ABE707B0BDE8F08F17
:1017900021463B46029A0198FFF76EFEA1E7C5F18C
:1017A0007F03FE2BC5F100008DD8FEF733FF8AE7DB
:1017B000FFF722F97DE700BF1CE1FF1F88FEFF1F36
:1017C00018E1FF1F94FEFF1F78E0FF1FACDFFF1F33
:1017D00000002840F0220020310CC330E822002015
:1017E000B8FEFF1FD8FEFF1F88FDFF1F883B0020AB
:1017F000A8E1FF1F10B58478074B90F9042090F9F9
:1018000003101B6890F9010082B0013C64B200949F
:10181000FFF708FF02B010BD5C08FF1F2DE9F04381
:10182000174B184C1B68DFF8608083B0251F0193AD
:10183000DDF8049005F5537700260FE098F80030A6
:1018400044F8046C013B6E6088F800306660A66066
:10185000E6601434BC4205F114050ED06B68002B11
:10186000F7D04B45F5D2E0681F28E7D86368A26837
:1018700054F8041CFFF700FEE0E703B0BDE8F08376
:10188000883B0020ACE1FF1FF022002010B490F94B
:1018900001401F2C02D95DF8044B7047054B90F9AD
:1018A000032090F902101B6820465DF8044BFFF7F7
:1018B000E3BD00BF5C08FF1F2DE9F04FDFF8C8A0B3
:1018C0002F4DDAF800302F4EDFF8C080DFF8C090DF
:1018D00083B04FF0000B0093009FA5F1E00411E0EE
:1018E000616801290BD954F8080C54F80C1C02FB50
:1018F00000F2A8FB0232791AB1EBD20F23D81C34C4
:10190000A54216D054F8042C3AB154F8082C22B150
:1019100054F80C1C791A8A4228D3317801294FF0E7
:101920006402DDD899F800100129D9D81C34A542E9
:10193000E8D10BF1010BBBF1200F05F1E005CCD193
:1019400003B0BDE8F08FDAF8002001920198226818
:1019500044F80C0C012354F8101C44F8043C58467D
:10196000FFF70EFD6268013A6260C8E754F8101C88
:101970005846FFF74DFD002344F8043CCDE700BF77
:10198000D80700205808FF1F883B0020B5814E1B58
:101990005908FF1FF8B51D4B1D4F1E4E1E4C1F480A
:1019A0001F4A64210025196001237F213D70357095
:1019B0002370037011700024214628460134FFF77C
:1019C00027FD802CF8D10135102DF4D1154B0022C4
:1019D00003F5E05003F1E0015A619A611C3399422A
:1019E000FAD181420B46F5D10F4C104B207803F50C
:1019F000527100221A605A609A60DA601A611433D8
:101A00009942F7D1A0F12A032370F8BD5C08FF1FAB
:101A1000ECDFFF1F20FDFF1F5808FF1F5908FF1FA5
:101A20005708FF1FE8060020F0220020A8E1FF1F52
:101A3000F8B5454A454B464EC3F82433002583E8A4
:101A4000240018469D60C3F8443303F029F906F5D5
:101A50009F63404A404C326006F6F82106F5DF608D
:101A600006F6F8074FF4007273634FF4C87375609D
:101A7000B560B063F76330467164A6F84A20A6F8F3
:101A80004C30366203F0C8FE94F870303349344A63
:101A9000316043F00103012161F347034FF6FF7604
:101AA000304F256029466560A560E5602561656168
:101AB000A561E56125626562A562E56225636563EE
:101AC000A563E56325646564A564E564256584F81C
:101AD000585084F8595084F85A50256665666265F6
:101AE000A666E66604F17800176084F870308022FC
:101AF00084F8745084F8755084F8765084F87750E0
:101B000084F8F8500AF09EFC2046174A1749C4F89A
:101B10000051C4F80451C4F8085184F80C5184F8F9
:101B20000D5109F0ADFC4FF4907006F0FBFA06463B
:101B3000044600F590752046243404F065FAAC4262
:101B4000F9D10B4B1E60F8BD14CB000060F9FF1FEC
:101B500000E5FF1F58CB00001C20FF1F7CC90000C0
:101B6000EC220020D812FF1F5008FF1F7504000050
:101B7000F0E4FF1F4378013BDBB2072B06D8074A8E
:101B800052F8231001F12003402B03D9002104480F
:101B900000F094BDC9B2024800F090BDD8FEFF1F0E
:101BA0001C23002038B590F9012090F902400E4D19
:101BB0000E48D3B21F2B40F2F45188BF002224EA12
:101BC000E47401FB02F204EB440402EB84032B44B3
:101BD0009C68C4F3072100F071FDE1B20348BDE841
:101BE000384000F06BBD00BF2C21FF1F1C230020DC
:101BF00038B590F9012090F902400E4D0E48D3B24D
:101C00001F2B40F2F45188BF002224EAE47401FB48
:101C100002F204EB440402EB84032B445C68C4F33B
:101C2000072100F04BFDE1B20348BDE8384000F069
:101C300045BD00BF2C21FF1F1C23002038B590F9A3
:101C40000140E3B21F2B1FD890F90220002A1BDBB2
:101C500090F90330002B17DB114D03EBC2102B461C
:101C6000002204E00132082A03F110030CD01968A5
:101C70008C42F7D159688842F4D105EB0212916881
:101C8000CCB2C1F3072101E000210C46054800F069
:101C900015FD21460348BDE8384000F00FBD00BFE8
:101CA00098E0FF1F1C2300200021014800F006BD22
:101CB0001C23002010B40F4B90F9024090F9012032
:101CC0000D492340002B0BDB120142FA83F311F87C
:101CD00013100B0609D409485DF8044B00F0EEBC64
:101CE000013B63F00F030133EEE75DF8044BFFF7B0
:101CF000DBBF00BF0F00008040F7FF1F1C23002048
:101D00004378013BDBB2072B05D8044A044812F89C
:101D1000231000F0D3BCFFF7C7BF00BF94FEFF1F26
:101D20001C2300204378013BDBB2072B05D8044A73
:101D3000044812F8231000F0C1BCFFF7B5BF00BF84
:101D4000B8FEFF1F1C230020054B93F9001011F172
:101D5000800F03D0C9B2034800F0B0BCFFF7A4BFA6
:101D6000ECDFFF1F1C23002010B4104B90F9024041
:101D700090F901100E4A2340002B0DDB090141FAB6
:101D800083F302EB430359784BB2002B09DD09487A
:101D90005DF8044B00F092BC013B63F00F0301338C
:101DA000ECE75DF8044BFFF77FBF00BF0F0000803A
:101DB00040F7FF1F1C230020FF21014800F07EBCDC
:101DC0001C230020044B19780B0602D4034800F0B2
:101DD00075BCFFF7F1BF00BF84FDFF1F1C2300206F
:101DE000044B19780B0602D4034800F067BCFFF7D8
:101DF000E3BF00BF85FDFF1F1C230020044B1978A3
:101E00000B0602D4034800F059BCFFF7D5BF00BF52
:101E100040F9FF1F1C230020044B19780B0602D445
:101E2000034800F04BBCFFF7C7BF00BFB4FEFF1F65
:101E30001C230020044B19780F2902D8034800F016
:101E40003DBCFFF7B9BF00BF5608FF1F1C23002091
:101E500090F90130064990F90220C3EBC3130B44FB
:101E6000995C0B0602D4034800F028BCFFF7A4BF1E
:101E7000F8FEFF1F1C230020044B19780B0602D428
:101E8000034800F01BBCFFF797BF00BFEFDFFF1F49
:101E90001C23002038B5074B074C1D682046C5F3AE
:101EA000072100F00BFCE9B22046BDE8384000F005
:101EB00005BC00BF5C08FF1F1C2300204378013BCA
:101EC000DBB2072B5AB207D8054B995C4B1E072B88
:101ED00002D8044800F0F2BBFF21024800F0EEBB3C
:101EE0001CE1FF1F1C23002010B5054CFF212046DC
:101EF00000F0E4FB2046FF21BDE8104000F0DEBB0F
:101F00001C23002010B50A4B1C78013CE4B22306C8
:101F100009D40021074800F0D1FB21460548BDE85F
:101F2000104000F0CBBBBDE81040FFF7DDBF00BFA5
:101F30005908FF1F1C23002010B50A4B1C78013CD8
:101F4000E4B2230609D40021074800F0B7FB21467C
:101F50000548BDE8104000F0B1BBBDE81040FFF7F8
:101F6000C3BF00BF5808FF1F1C2300204378013B5C
:101F7000DBB2072B0ED810B5074A084852F82340A9
:101F8000C4F3072100F09AFBE1B20448BDE8104019
:101F900000F094BBFFF7A8BF78E0FF1F1C230020D0
:101FA00038B590F90140E3B21F2B1FD890F90220F9
:101FB000002A1BDB90F90330002B17DB114D03EBDC
:101FC000C2102B46002204E00132082A03F110035C
:101FD0000CD019688C42F7D159688842F4D105EBCE
:101FE0000212D468C4F30721E4B201E000242146C0
:101FF000054800F063FB21460348BDE8384000F087
:102000005DBB00BF98E0FF1F1C23002070B40B785D
:10201000013B0A469B2B00F2B180DFE813F065021A
:102020005A025302490242023E0237021B021202C6
:102030000B020202FB01AF00AF00AF00AF00AF0028
:10204000AF00AF00F701EA01E701AF00AF00AF005A
:10205000AF00AF00AF00AF00E301DF01DB01D7014C
:10206000D001CC01C5019C00BE01BA01B601AF018F
:102070008A01830164016001AF00AF00AF00AF00CF
:102080005C01550151014A0146014201AF00AF0018
:10209000AF00AF003B0131012A01270124012101DA
:1020A0001E01AF00AF00AF00AF00AF00AF00AF0048
:1020B000AF00AF00AF00AF00AF00AF00AF00AF00A8
:1020C000AF00AF00AF00AF00AF00AF00AF00AF0098
:1020D000AF00AF00AF00AF00AF00AF00AF00AF0088
:1020E000AF00AF001701AF00AF00AF00AF00AF000F
:1020F000AF00AF00AF00AF0011010B01AF00AF00A8
:10210000AF00AF00AF00AF00AF00AF000501AF0000
:10211000AF00AF00AF00AF00AF00AF00AF00AF0047
:10212000FF00F900F300ED00E700E100AF00AF00B1
:10213000AF00AF00AF00AF00AF00AF00AF00AF0027
:10214000AF00AF00AF00AF00DB00D700CF00CB0087
:10215000D300C500B10092F90130D9B208290DD8D9
:1021600092F9021001F12002D2B2402A06D8002BC7
:1021700000F0C981013BBD4A42F8231070BC704792
:1021800092F90130D9B20829F8D892F9021001F178
:102190000802D2B2102AF1D8002B00F0AC81013B2A
:1021A000B34A42F82310E9E70028E7D0104670BC94
:1021B000FFF7A6BD104670BCFEF7CABD104670BC46
:1021C000FEF7A2BD104670BCFEF7E4BD104670BC21
:1021D000FEF77CBD0028D1D0104670BCFFF7C6BE0C
:1021E0000028CBD0104670BCFFF746BE0028C5D0F3
:1021F000104670BCFFF7E6BD0028BFD0104670BC8B
:10220000FFF7EEBD0028B9D0104670BCFFF7F6BD51
:102210000028B3D0104670BCFFF7FEBD0028ADD03B
:10222000104670BCFFF706BE0028A7D0104670BC51
:10223000FFF70EBE0028A1D0104670BCFFF794BD7A
:1022400000289BD0104670BCFFF734BD92F9010006
:10225000012893D870BCFEF74DBA70BCFEF73ABCAB
:1022600070BCFEF723BC70BCFEF70CBC70BCFEF764
:10227000F5BB92F9021092F9010070BCFFF746B865
:102280009178D37892F9010043EA012109B270BC38
:10229000FEF7FEBF92F9021092F9010070BCFEF742
:1022A000C3BF104670BCFEF75FBF104670BCFEF7A0
:1022B000C5BD00283FF462AF104670BCFFF770BE8A
:1022C000104670BCFEF78CBD00283FF457AF104697
:1022D00070BCFFF7B3BC104670BCFEF72BBF1046B6
:1022E00070BCFEF7BBBE92F90140E3B21F2B3FF674
:1022F00045AF92F902000028FFF640AFD17813797C
:1023000043EA01231BB2002BFFF638AF40F2F45131
:1023100001FB04F100EB4000564C01EB800222442B
:1023200053602BE700283FF429AF104670BCFFF73D
:102330005FBC92F90130D9B21F293FF61FAF92F965
:1023400002100029FFF61AAFD67810794A4C494D91
:1023500040F2F45201EB410102FB03F200EB0620D4
:1023600002EB810302B243F6FF718A42A8BF0A461C
:102370002B44A242B8BF22469A60FFE600283FF4F1
:10238000FDAE104670BCFFF70DBC104670BCFEF7EA
:1023900049BE104670BCFEF76DBC00283FF4EEAE9F
:1023A000104670BCFFF7BEBC00283FF4E7AE1046F5
:1023B00070BCFFF7DFBB104670BCFEF737BC0028CF
:1023C0003FF4DCAE104670BCFFF778BD104670BC21
:1023D000FEF710BC104670BCFEF7ECBB104670BC9C
:1023E000FEF7CABB104670BCFFF704BA70BCFFF71B
:1023F000D1BA92F901001F283FF6C0AE92F902103F
:102400007F293FF6BBAE70BCFFF702B8104670BC28
:10241000FFF73CBA92F90130184A23EAE3731370CC
:10242000ACE600283FF4AAAE144B1548197870BCEE
:1024300000F044B992F90130124A23EAE3731370B1
:102440009CE600283FF49AAE0E4B0D48197870BCFC
:1024500000F034B9517893780B4A43EA01231BB258
:1024600083F307030133137088E600BFD8FEFF1F14
:1024700094FEFF1F2C21FF1F01C0FFFF5708FF1F05
:102480001C23002020FDFF1F5908FF1F00283FF4D8
:1024900075AE104670BCFFF735BD517893781E4A73
:1024A000DBE700283FF46AAE104670BCFFF744BD7E
:1024B00092F90130194A13F1800F08BF6FF07E03C3
:1024C00013705BE600283FF459AE104670BCFFF76E
:1024D0003BBC5178937843EA01231BB2002BFFF6F3
:1024E0004DAE0F4A136049E600283FF447AE104650
:1024F00070BCFFF7CFBC0B4B03F1200243F8041F65
:102500009A42FBD13AE6084B03F1200243F8041F3C
:102510009342FBD132E600BF5808FF1FECDFFF1FDC
:102520005C08FF1F90FEFF1FD4FEFF1FF8B53C4C58
:102530002378002B4ED13B4C0021204603F04CFA6F
:1025400098B394F85950681EC3B20F2B41D894F831
:102550005A2094F85B6094F85C1002F17003DBB2CF
:102560000F2B2CD87F2E34D840012F4CA0F1200205
:102570007F29A8BF7F212244231893F81EE0DF7F24
:1025800083F820E083F82170023B9A42F5D104EBF6
:10259000000E264F264A2654CBB28EF801303B70EF
:1025A000244B16701D70FDF77DFFFFF785F9FFF7CF
:1025B00035F9FEF7F3FDBDE8F840FEF785B982F086
:1025C00080030F2B0DD95032D2B20F2A10D87F2E94
:1025D00017D9F8BD18490020FFF718FD0023237014
:1025E000A9E77F2EF5D8154B1B7833B1144B1E701D
:1025F000104B1D70FDF756FFD7E73146FEF752F836
:10260000F4E7104B104C114AC0EBC01018447F295E
:102610000B46A8BF7F23835523701670E8E700BFE1
:10262000EDDFFF1F00E5FF1F40F7FF1F40F9FF1F11
:10263000B4FEFF1F5608FF1F40F6FF1F5408FF1F80
:1026400085FDFF1FF8FEFF1FEFDFFF1F84FDFF1F4B
:1026500001490120FFF7DABC40F6FF1F0020704758
:102660000369D3F83801D3F83431C01A704700BF7A
:102670000369D3F83411D3F83821914208D2D3F842
:102680003421511C1A44C3F8341192F830007047B9
:102690004FF0FF30704700BF0369D3F83411D3F80F
:1026A000382191423DBFD3F834219B1893F8300074
:1026B0004FF0FF30704700BF704700BF0369D3F889
:1026C0004422B2F5817F03D90123037100207047B2
:1026D000D3F8442210B49C180132C3F8442284F881
:1026E0003C1101205DF8044B704700BF38B5036909
:1026F0000A4A026093F84822022A044601D0204682
:1027000038BDD3F87452002DF9D0284605F01CFCD2
:102710002846082105F008FD204638BDB8C900004C
:1027200038B503690546D3F84402B0F5817F1AD85D
:102730001446D3F84422D3F84402C2F58172013220
:1027400003F59E73A242184402D2012314462B7152
:10275000224604F067F92A69D2F844322344C2F8C9
:102760004432204638BD01232B71002038BD00BF04
:102770002DE9F04F574C83B006460D4692461F4652
:102780009DF830809DF834E09DF83890234621462E
:102790000022022004E00432202A36D011F8040F6F
:1027A0008542F8D148785045F5D196F84A121A4436
:1027B0008A4592F803B000F08680BBF1000F28D064
:1027C000BEF1000F0BD096F84C2296F84A02019306
:1027D000002A14BF0221002104F0E0FA019B4FEA15
:1027E0000B2202F4E062B8F1000F60D142F0640203
:1027F000394901EBCA01012049680A6086F84AA2FA
:1028000086F84C8286F8980203E096F84A224FF048
:10281000000B0022022104E00432202A36D014F8F2
:10282000041F8D42F8D1A178B942F5D11A4496F827
:102830004B32D4789F4240D0002C34D0B9F1000FF5
:1028400009D096F84C3296F84B02002B14BF0221A7
:10285000002104F0A3FA230203F4E063B8F1000FAF
:1028600028D143F064031C4A02EBC70201215268DD
:10287000136086F84B7286F84C8286F89912BBF189
:10288000000F10D0012003B0BDE8F08F96F84B3256
:10289000BB4208D1B9F1000F05D00024BBF1000FF5
:1028A00001D0002CEED1002003B0BDE8F08F42F043
:1028B00003029DE743F00303D5E7B9F1000FEDD123
:1028C000002CC8D1EFE7BEF1000FA2D1BBF1000F81
:1028D00085D19EE7D4C900006CCB0000F8B5C36871
:1028E0001B789B0610D483680D4680211970C3683D
:1028F0001221197090F84932012B044606D08AB98A
:1029000080F848220120F8BD0020F8BD1A4675B9AC
:10291000794B4FF080711960022A0FD0012084F8A2
:102920004802F8BD531E012BF1D90120F8BD012D3D
:102930004BD1714B4FF000711960EDE7D4F8746220
:10294000002E00F097803379202B30D0002D43D11A
:1029500032686A49938B6A4F9BB243F008039383B2
:102960003279531102F110009B0041F8207003F1FD
:10297000604303F56143012102F01F0201FA02F2F4
:1029800031681A608B8B9BB243F002038B833379DF
:1029900003F1804303F5043392221D701A70002264
:1029A000022384F85E2284F848320120F8BD3046C4
:1029B00005F0CAFA3046082105F0B6FB00230120D5
:1029C000C4F8743284F84802F8BD022D5DD14D4B35
:1029D0004FF4806119609FE7012D26D13268474985
:1029E000938B494F9BB243F0080393833279531181
:1029F00002F110009B0041F8207003F1604303F5E1
:102A0000614302F01F02954032681D60938B9BB2B8
:102A100043F002039383337903F1804303F50433D6
:102A20000021932219701A70B9E7022D35D1D4F81C
:102A3000741232480A68354E938B9BB243F00803F8
:102A400093830A79531102F110059B0040F8256029
:102A500003F1604303F56143012002F01F0200FA15
:102A600002F208681A60838B9BB243F002038383EF
:102A70000B79D1E7082005F053FB314607463E4667
:102A800005F0FCF9C4F874725DE7032D7FF444AFE0
:102A90001C4B4FF0006119603EE7032D7FF47FAFC0
:102AA000D4F8741215480A68194E938B9BB243F000
:102AB000080393830A79531102F110059B0040F833
:102AC000256003F1604303F56143012002F01F021A
:102AD00000FA02F208681A60838B9BB243F002038B
:102AE00083830B7903F1804303F5043300219222A1
:102AF00019701A7053E700BF00E100E00002FF1FE9
:102B00002D34000008E100E03934000045340000B5
:102B100051340000F0B5284EDFF8ACE0A6FB0143CD
:102B2000A6FB02429E09370275469609142400232B
:102B3000B7FBF6F604E00133372B1BD055F8044FF2
:102B400022029642F7DA83BB14241C4A4568B1FB83
:102B5000F4F491422B70C0F8504207D8184B8269A8
:102B6000A3FB0131C1F307511170F0BD8369042249
:102B70001A70F0BD002422464FF470274FF47065A0
:102B80004FF0360CB21AF71B002A87EAE776A6EB5D
:102B9000E776B8BF5242964202DD0A4AD35CD4E7D8
:102BA000084B2C4613F80C30CFE703F1FF3C5EF8DE
:102BB0002C502F02E6E700BFD34D6210FF6BDC0202
:102BC000819F5E16D4CA0000F8C90000F0B49DF8D9
:102BD00014409DF810609DF818503CB135B1C7689D
:102BE0003F78BF0602D50020F0BC704706950594DB
:102BF0000496F0BCFFF7BCBD2DE9F04184B004465B
:102C000094469DF828609DF82C209DF830009DF892
:102C100034E09DF83C700D4600294CD1DFF810815E
:102C2000D8F8001041F04001C8F80010002184F8E5
:102C300049C284F85512BCF1000F2BD163692021E1
:102C4000197012B994F84A22D2B210B994F84B0212
:102C5000C0B294F8981294F8996202960346CDF89F
:102C600000E0019120462946FFF7B0FF0E9A2F4958
:102C70002046FFF74FFF3A4629462046FFF72EFE33
:102C800094F84932002B37D0A368C0221A7004B0E0
:102C9000BDE8F0816169CEB14FF0280C81F800C029
:102CA0009E4221682ED95B00DBB20B707600E3698F
:102CB000F6B21E70C5E7012913D1DFF87480D8F889
:102CC000001041F08001C8F80010AFE74FF0200C71
:102CD00081F800C021685B00DBB20B70E3691E70F5
:102CE000AFE7022916D1DFF84C80D8F8001041F088
:102CF0004001C8F8001099E7A36880221A7004B058
:102D0000BDE8F0817600F6B20E705E00E369F6B2BF
:102D10001E7096E7032989D1DFF81880D8F80010D3
:102D200041F08001C8F8001080E700BF006CDC02B1
:102D3000348004402880044070B5D0F83841D0F881
:102D400034319C4218D9D0F83831D0F83451D0F809
:102D500034615D1B954228BF1546044600F13003DF
:102D60002A460846991903F05DFED4F834312B4405
:102D7000C4F83431284670BD002070BD2DE9F04103
:102D8000BF4EC7683378D0F808E00133DBB2337048
:102D90003D789EF800300446DBB2806903F02002E3
:102DA0000178EDB2FAB113F0100F94F85E327FD0D3
:102DB000022B00F0D78094F85E32032B00F0D28013
:102DC00094F85532082B00F0238294F85532092BE1
:102DD00000F05C8294F85532012B00F0CC81802306
:102DE0008EF800305BE002F0FF08EA0624D405F01C
:102DF000400202F0FF071ABB03F0100303F0FF02CA
:102E0000002B00F08E8015F0010540F0A881D4F869
:102E10004022D4F844329A4207D2D4F840325A1CA5
:102E20002344C4F8402293F83C5123691D70A368E1
:102E3000D0221A70A06979E0102368063B7029D56A
:102E400094F855320C2B00F00F8105F0040505F0C5
:102E5000FF02002D73D0A3680021D0220B2084F83C
:102E60005502C4F844121A702269D4F86C1213780F
:102E70005B0884F8563209B188472269D4F8443295
:102E8000002B00F0758194F83C8182F800800123CA
:102E9000C4F84032A269137843F050031370E3681A
:102EA00002221A703378013BDBB23370BDE8F08147
:102EB000022B00F09F8094F85E32032B00F09A8082
:102EC000D4F83831D4F858220233934200F04181CB
:102ED00094F85532012B00F03781D4F838310133A2
:102EE000934280F00B8194F85532012B00F0018160
:102EF000D4F838312269591CC4F8381123441278A7
:102F000083F83020E36802221A7094F85532DBB25D
:102F1000012BC7D194F85D22002AC3D184F85D3219
:102F2000C0E794F855320C2B00F09381037843F0FE
:102F300050030370E36802221A70BDE8F081A169B2
:102F40000B7843F020030B70A3680C20C02184F899
:102F50005502C4F83821197023691B785B0884F87E
:102F6000563297E7D4F8742213689B8B190604D560
:102F700094F85E32022B00F0B08094F85E32032B9E
:102F800000F086803F4B12791968012393400B4271
:102F900088D03D493D4B0A70D4F8741209791970F4
:102FA0000022072384F85E2284F85532D4F8943244
:102FB000013304D0D4F894320133C4F89432ED06CE
:102FC00011D5042384F85532D4F88C32013304D05F
:102FD000D4F88C320133C4F88C32E268102100231B
:102FE0001170C4F84032A36880221A70E36802228C
:102FF0001A7032E0D4F874321A68928B120603D534
:1030000094F85E22022A5CD094F85E22032A00F033
:10301000D6801C491A790968012393400B423FF47A
:1030200041AF1949194B0A70D4F8742212791A70F9
:10303000A36880220020072184F85E0284F85512DC
:103040001A70E36802221A70D4F89432013304D063
:10305000D4F894320133C4F89432D4F87032002B8F
:103060003FF420AF98471DE7D4F86832002B3FF4B7
:10307000ECAE0022C4F83421D4F838019847E4E6D5
:10308000302300202C8000401E8000401F80004024
:103090003B781B06FCD5C34B12791A70002384F8C9
:1030A0005E32D4F844322169013BC4F84032D4F88E
:1030B00040322344022293F83C310B70E3681A70CB
:1030C000F0E6B9491B790B70A368E8211970E36831
:1030D000032184F85E121A70E4E6B34912790A708B
:1030E000A268F0211170E268032184F85E12137067
:1030F000D8E694F85D32002B3FF4FAAEA3680021C5
:10310000B02284F85D121A70D4F838312269591C43
:10311000C4F838112344127883F8302094F85432DC
:10312000012B00F0C580E36802221A7094F8553232
:10313000012B36D0D4F86432002284F85522002BBB
:103140003FF4E3AE9847E0E694F85D32002B7FF45D
:10315000C4AEE8238EF80030D4F85822BDE6C02370
:103160008EF800302369A0691B7884F85572DDE67B
:1031700084F83C3189E694F85432012B0CBF80234B
:10318000B0238EF80030E36802221A70D4F880323F
:1031900001333FF462AFD4F880320133C4F8803297
:1031A0005BE7D4F88032013304D0D4F880320133A5
:1031B000C4F88032D4F87032002BC3D1A5E6794A26
:1031C0001B791370A3680021B02284F85E121A7074
:1031D000D4F858322269013BC4F83831D4F8383178
:1031E000591CC4F838112344127883F8302094F81D
:1031F0005432012B00F0DA80E36802221A70D4F80E
:103200006432002284F85522002B7FF42BAF49E66C
:1032100005F0100303F0FF02002B50D0002304211F
:10322000102284F85E3284F855123A70A268802128
:103230001170E268C4F8403202231370D4F88C3263
:1032400001333FF40AAFD4F88C320133C4F88C3226
:1032500003E7C9B211F0500F4AD0037843F050038E
:103260000370A1690B7803F0DF030B70E3680221A0
:103270001970D4F8683284F85522002B3FF412AE4E
:10328000C4F83421D4F8380198470BE6E80641D554
:103290000422102384F855223B70A36880221A7000
:1032A000E36802221A70D4F88C320133CBD1D4E611
:1032B0002023013BFDD1A36880221A7033E715F06B
:1032C00001053CD084F85E22D4F84032002B7CD13A
:1032D000022384F85532D4F88432013304D0D4F870
:1032E00084320133C4F8843280238EF800307DE6C6
:1032F00023691B78D4F83821B2F5817FDBB23FF621
:1033000015AED4F83821A1180132C4F8382181F85B
:1033100030300BE6E9072ED50223802284F855329F
:103320008EF80020E2681370D4F8843201333FF441
:1033300094AED4F884320133C4F884328DE6D4F8E4
:1033400040320133C4F84032D4F84422934234D39B
:1033500094F8543284F85552012B0CBF8023B023CB
:103360008EF80030E36802221A70D4F86032002B25
:103370007FF478AE96E594F85E32012B32D0D4F823
:103380005832012B4FF00A020CBFE823E02384F8E7
:1033900055228EF800302269E368127802221A70F2
:1033A00080E500BF1C8000401F8000402023013BBF
:1033B000FDD1A36880221A701EE794F85E32012BBB
:1033C00020D0D4F84032216973E6032384F85532C3
:1033D000D4F88832013387D0D4F888320133C4F866
:1033E000883281E70223E12284F85E328EF80020E1
:1033F000D4F874120C4A097911702169E2680978CD
:1034000013704FE50223F12284F85E328EF800201B
:10341000D4F87412044A09791170226994F83D11A4
:103420001170E26813703DE51B80004000210148E7
:10343000FFF7A4BC6008FF1F01210148FFF79EBCF5
:10344000FC0AFF1F02210148FFF798BC980DFF1FDF
:1034500003210148FFF792BC3410FF1F2DE9F84308
:10346000224BDFF8A090DFF8A080214E214D1E6096
:1034700000244FF47A774A4641461C711C739F60C2
:1034800018465C731D6107F0FBFF1B4B05F52772A7
:1034900001211A611C714A469F601C7359731846BA
:1034A00041461E6007F0ECFF144B05F5A7620221B0
:1034B0001A611C714A469F601C7359731846414635
:1034C0001E6007F0DDFF0E4B4FF0030E05F2D475C2
:1034D0001C711C7383F80DE04A46414618461D6175
:1034E0009F601E60BDE8F84307F0CABF1C230020A0
:1034F000B8C900006008FF1FF42200200823002044
:10350000342300205008FF1FED26000008B5836A11
:10351000DB6B03B19847012008BD00BFF8B5524BE3
:10352000524A5349534D544F544E4FF480701860D3
:1035300013684024234313600A200C6003F056FCF8
:103540002A684F4C4F48504B5049DFF880E142F019
:1035500040522A60227842F002022270027842F041
:10356000800202701A6842F002021A601A6822F0A1
:1035700001021A603B6843F400033B600B6805F5E9
:10358000142504F5783400F5743043F00E0305F685
:103590003805343400F59A700B604FF040424FF01C
:1035A000840C4FF44047012143F24103C6F800C0A8
:1035B0002A60276072460160CEF800301368002B45
:1035C000FCDA334B00221A600A2003F00FFC314A68
:1035D000136843F00203136013689B07FCD401F0E7
:1035E00019FF2D4B012103F1800243F8041F934280
:1035F0004FF00104F9D14FF4807200212748284D83
:10360000284E294F08F01EFFDFF8C4C0DFF8C4E0E1
:103610002648274A1F4900238CF80030CEF8004086
:103620000324046023482B60234C106023483B6034
:1036300033600C600368224943F4805303605D20CB
:103640003368136803F088FB1E4A1F4B4FF000518C
:1036500011602B602B6843F012032B602B6843F43E
:1036600040232B60F8BD00BF18D0044014F10F4078
:1036700004F10F4000D800400870044004300A40B4
:103680000040064000500640048004403080044062
:1036900000200A4040110A40FC2F00208C300020FE
:1036A00048110A4058110A404C110A40A8110A401A
:1036B00054110A4000300020158B010084110A408B
:1036C000793C000008E100E004000003A0200A406B
:1036D0008830002090100A40F8B5C3680BB1632908
:1036E00000D8F8BD06460D4603F05EFB294BB060DE
:1036F0001A68002A40D02848016821F07F418D4295
:1037000015D39469691A002C42D06269914204D29F
:1037100027E05A698A421C4624D8A369891A002BDB
:10372000F7D100237161F461B361A661D9E772B684
:103730001A4A1B4F00244FF0007E0460C2F800E0DC
:103740001A68F461491B05F1FF3E4FF04044756172
:10375000B2611E605161D661C7F800E0046062B6D4
:10376000F8BD2346D869521A5A61B361F06171619C
:10377000DE61F3699E61F8BD094F07487561691EF6
:103780004FF04044B261F2611E6039600460F8BDE0
:103790001446C6E7803000208C100A4044110A40CD
:1037A00088100A4072B6194A13683BB1834202D1AD
:1037B00013E0984204D09B69002BFAD162B670479F
:1037C000D9699A698A619A69002AF7D05B69506958
:1037D000D1610344536162B670479B690C4870B471
:1037E000002505607BB1046859690A4E24F07F44C6
:1037F00021444FF04044596131600460DD61136041
:1038000062B670BC70471360FAE700BF80300020DA
:103810008C100A4088100A4002699368F0B50C4683
:103820005906074603D4126893685B06FBD540230C
:10383000D4F808E0A3602368136063685360E3680A
:10384000D3602369136163695361A169916104F1D4
:10385000340393E80300E36AE669256BD36202F15F
:103860003403D6619762156383E803001368E16B44
:10387000D163012B134603D01B6819680129FBD1C2
:1038800001211C60216013689C4229D0134600204E
:1038900000E00B46196858620D681962AC420E468A
:1038A0001846F6D100217362316297F8343013F074
:1038B000FD0F09D00C490B6873B153621A620E6098
:1038C0000120C2F808E0F0BD08490B68002BF4D1D4
:1038D000074853620260F2E7064853620260EEE76F
:1038E00016460023DEE700BF843000204C23002072
:1038F00050230020482300202DE9F047CC88B4F560
:10390000804F02D90020BDE8F087994690460746CF
:103910008A4601F0C7FD05460028F3D001F0C2FD3C
:103920000446002876D0BAF80630002B43D13F4A2F
:1039300028602AF47F6626F00F06012306F58050E2
:10394000DFF8ECE039686B60C5F808E0C5F80CA05A
:1039500006F5005E286106F5405006F58046C5F87C
:1039600014E04FF0000CA8614FF4805EEE614FF45C
:1039700000506360A162A2604FF440514FF4804256
:10398000C4F80CC0C4F82C80C4F810E06061A161D8
:10399000E261BAF806202263DAF800206263DAF8FE
:1039A0000420A263386823602946C4F83C90BDE82F
:1039B000F047FFF731BF01F075FD78B3BAF8063074
:1039C0009AF900601B04F24343F00043F60FD20F54
:1039D00028F47F6143F0800321F00F0143EA0623BE
:1039E00012020126466001F5805E836001F50056F3
:1039F00001F5405342F0802201F58041C0F80C806F
:103A000042F08002C0F810E046618361C161286025
:103A100004608EE7284601F04DFD73E7284601F06B
:103A200049FD204601F046FD6CE700BF8081008023
:103A3000800208002DE9F04780460F461646994659
:103A400001F030FDB0B1741EA40B054615D08246BE
:103A500004E0013CCAF8000082460ED001F022FDCD
:103A60000028F6D100E0254628462C6801F022FD0A
:103A70005545F8D10020BDE8F08700230124B6F5B4
:103A8000804FC0F82880C7620663C0F83C9004608D
:103A9000436383632A4624D91A4998F835C0546091
:103AA0004FF4804E002027F47F6323F00F0341EA98
:103AB0000C21916003F5805903F5005C03F540513A
:103AC00003F58043D760C2F81090C2F814C091612A
:103AD000D36188B9CEEB0606B6F5804F77441268FD
:103AE000DAD8310441F4004198F835C0546001201F
:103AF00041F08001B646D6E729464046BDE8F0478A
:103B0000FFF78ABE800000402DE9F047584ED6F8F6
:103B100000A0BAF1000F00F0A080DFF85881002566
:103B2000DAF808301F0668D4DAF808301C045FD4CD
:103B3000DAF82430DAF82070002B77D01F62DAF838
:103B40000820002F5FD050067B6260D55046DAF81F
:103B5000289001F0AFFC002108460C46D6F800C0C2
:103B6000D8F800E0BA4601E01746A2B1BB6A3A6A4B
:103B70009945F9D17B6A002B5FD01A62002A59D08F
:103B80005362002C54D027623D62574508BF9246CD
:103B90001746002AEAD1002863D1002964D1D9F858
:103BA000103033F01F0308D09A68520637D5C9F891
:103BB0001030C9F80C50C9F818500CB913E03C4645
:103BC000A268130409D5D9F83C3042F040022046DF
:103BD0001BB1A36AA260DB6B9847276A204601F0FD
:103BE00069FC002FEBD1BAF1000F99D1BDE8F08745
:103BF0005046FFF78BFC00289AD1DAF820A0BAF1E2
:103C0000000F8DD1F2E75106C8F8003018D45046A5
:103C1000BA4601F04FFCBAF1000F81D1E6E79A688D
:103C20001A681B6833F01F03BED1C6E7376086E70A
:103C30003C46A9E79E460121A3E7944601209DE763
:103C4000DAF82890504601F035FCD9F8103033F0FE
:103C50001F0304D0BA463C46A6E7BDE8F087BDE89E
:103C6000F087C6F800C098E7C8F800E097E700BF03
:103C7000502300204C2300206E4B2DE9F0411E689C
:103C80001E6071031BD56C4F3C68C4B1DFF8DC814A
:103C9000A3681A0600F18580A3681B047BD4636ABD
:103CA000256A002B00F082801D62002D00F08280CA
:103CB0006B6220462C4601F0FDFB002CE8D1370357
:103CC00018D55E4F3C68ACB1DFF8A481A3681D062F
:103CD0005DD4A368180455D4636A256A002B6CD0A0
:103CE0001D62002D6CD06B6220462C4601F0E2FB79
:103CF000002CEBD1B10766D472070CD5504B1C6871
:103D000044F02A021A60A30729D4270703D44D4B95
:103D10001A78022A65D0F00117D4B1011DD54A4A9C
:103D20001168D1B18B6913604BB15A69474D48484E
:103D3000013A00264FF04044DE612A600460C86802
:103D40000368BDE8F0419B6818473E4B1A78012A8A
:103D500068D0032A59D0B101E1D4BDE8F08114F054
:103D6000010533D0374B1A78012ACED839483A4A60
:103D70003A4C01254FF040411D7026F080760460DA
:103D80001160CAE72046FFF7C1FB0028A4D1246ACE
:103D9000002C9BD1AEE72046FFF7B8FB00287FF44C
:103DA0007EAF246A002C7FF473AF88E73D60002D5E
:103DB0007FF47EAFC8F800307BE73D60002D92D1E4
:103DC000C8F8003090E7FFF79FFE95E71D4A244BA7
:103DD000244F157002221A60386800F025FE3D60FD
:103DE00093E7650799D503241A4D1B481C701449A5
:103DF0004FF0404442F210772F60046009688C0550
:103E000001D519490A60F20187D504210C4A1970BD
:103E100010680022C0F38160114600F077FB114B5F
:103E200018607AE7064A02211970136843F4807318
:103E3000136072E744110A405023002048230020F9
:103E400084110A40883000208030002088100A4009
:103E50008C100A4080100A4084100A40A08601009D
:103E600038200A408C31002034200A404C230020A6
:103E7000843000202DE9F04F85B00290002A00F038
:103E80009A80006B974B007D03FB01F302284FEAF9
:103E9000134300F0B38005214FF0010B04E001391A
:103EA0004FEA4B0B00F0A1804BEA5B008242F6D850
:103EB0001FFA8BF203920299BDF80C0091F835209D
:103EC000A1F84000002A40F0948084334FEA531C4C
:103ED000022600234FF0FF3EDFF80CA20193994623
:103EE000F046019F0AEBC700002401788278C5786C
:103EF0000379614432449142354433446BD9A94239
:103F000065D98B4238BF0B46734500F1010002D2E0
:103F10009E46B846A1460134042CE6D15F441F2FCB
:103F2000E0D9019B01339B450193DAD1BEF1BB0F70
:103F300057D8029ABDF80C00A2F844005FFA8CFC36
:103F4000F6B21FFA88F1B8F11F0F82F84AC082F862
:103F50004B60A2F84890A2F846101CD809EBC803A1
:103F6000981C1AF8032062440AF803201AF800206B
:103F700032440AF80020D81C04331AF800203244D6
:103F80000AF800201AF80320D8443244B8F11F0F71
:103F90000AF80320E2D9029C01201C2300FA09F24E
:103FA00003FA09F9A4F8421084F8362084F837900F
:103FB00005B0BDE8F08F029B1A6B4A4B127D03FBE4
:103FC00001F3022A4FEA13436ED0012263E7AB42AA
:103FD00038BF2B4698E7AA42F9D9934238BF134617
:103FE00092E7002005B0BDE8F08F202203929346AF
:103FF00061E766335E094FF0020C6AE70F2A63D966
:1040000020224FF480700299DFF8DCA0A1F8402054
:1040100057334FF0FF375C093E4600252B46002101
:104020001AF8032022449142034438BF1146FF2B63
:10403000F6D98F4288BF2E4605F1010588BF0F468D
:104040008542EBD1BB2FCCD8029AE4B2FF2E1346A7
:1040500082F84A40A2F84400A2F8466098BF33466E
:1040600007D81AF8032022440AF803200344FF2B40
:10407000F7D9012823D0022819D0042895BF06F0CB
:10408000030206F00702112301239340029A82F8EB
:1040900036300299F60800230120A1F8426081F829
:1040A000373005B0BDE8F08F01200246ABE706F0DF
:1040B000010255239340029A82F83630E9E7029ACA
:1040C000FF2382F83630E4E7013A012101FA02F0D9
:1040D000B0F5807F94DCC20808BF0A4693D092B244
:1040E00091E700BFAB2A01008C300020F0B5B0F89A
:1040F0004240B0F840101F2C2BD81F4E40F0020752
:1041000056F82420D5074FEA840E27D402F006057E
:10411000022D22F01F0308D11CE0984216D01A6825
:10412000D20708D41B6823F01F03B3F84020914244
:10413000F3D998420AD01A6832F01F0204D114E071
:10414000126832F01F0210D09042F9D10C441F2C9B
:10415000D6D9F0BDB3F84050A942DED90C441F2C8B
:10416000026046F80E70CBD9F3E70C441A6802607F
:104170001F2C1F60C4D9ECE7003000202DE9F04768
:1041800006460D4617469A4601F07CF9044600287B
:1041900000F0908001F086F98046002800F08C80C5
:1041A000602200214FF04009204608F04BF94A46B2
:1041B0000021404608F046F90123032DC8F80030DD
:1041C000C8F80890C4F810802663636184F835A0AD
:1041D00084F8345047D03FB172680AB961E01A469A
:1041E000936B002BFBD194636DBB96F814E0BEF18A
:1041F000010F8CBF00230123D8064FF48041737D4B
:1042000094F8362043F0704343EA0723089F43EABB
:1042100007430343194341EA0E316160F07DB37DEA
:1042200094F8371042F0804242EAC05242EA034317
:1042300043EA0123A36035F0020309D0032D204691
:1042400033D0BDE8F0870021084696F814E0D6E7A1
:10425000214A1368ABB11A68226044F002021A6066
:104260002046BDE8F087099A08992046FFF702FE2C
:10427000814638B3002FAFD196F814E0394638465E
:10428000BDE76368154944F0020043F400436360EE
:10429000206014600B6843F0200320460B60BDE8EB
:1042A000F0877460002DA0D0CDE7FFF71FFF2046F8
:1042B000BDE8F087BDE8F087204601F0EBF8404606
:1042C000BDE8F087404601F0F5F8204601F0E2F83D
:1042D0004846BDE8F08700BF58110A4040110A4027
:1042E000F8B590F8343013F0FD0F044600F08180EB
:1042F000744800F1800550F8041FCA070CD421F05F
:104300001F018C4203D16FE0944268D011460B68C4
:1043100023F01F02DB07F7D5A842ECD1236B1B7DEE
:10432000022B00F0A880B4F84610B4F84460B4F84A
:10433000487094F84AE094F84B501F291BD8624A01
:1043400007EBC10303F1020CD05CCEEB0000D054AC
:1043500012F80C00401B02F80C0003F1030C0433AC
:1043600012F80C00401B02F80C00D05C3144401BDA
:104370001F29D054E4D9554E306800B3544F01E0A2
:104380002846E5B1836A056A9C42F9D1436A002B4D
:1043900000F084801D62002D7ED06B62236933F0B3
:1043A0001F0205D08342EBD01B6833F01F02F9D106
:1043B0008342E5D001F07EF82846002DE2D1206945
:1043C00030F01F0306D0056801F074F835F01F03C4
:1043D0002846F8D12046BDE8F84001F05BB82368D4
:1043E0000B60A84287D199E723680360A84282D175
:1043F00094E7026822F01F02904201D154E01A466D
:10440000136823F01F039C42F9D163681D0403D590
:10441000536843F40043536023682E4813600368D5
:104420002D4943F0400303600B682B4A9806FBD5E7
:1044300020231360294E30680028C0D0284F02E0A6
:104440002846002DBBD0836A056A9C42F8D1436A96
:1044500043B31D6225B36B62236933F01F0205D09D
:104460008342EDD01B6833F01F02F9D19842E7D0A8
:1044700001F020F8E4E7B4F84630B4F8440094F8CA
:104480004A50FF2B3FF677AF0F4AD15C491BD154FE
:104490000344FF2BF9D96EE73B607FE735607AE78D
:1044A0003B60D9E73560D5E70A490B4A0B6823F032
:1044B00020030B60136813F40043FBD1094A136017
:1044C000B8E700BFFC2F00208C30002048230020DC
:1044D0008430002040110A4044110A40502300203B
:1044E0004C23002058110A4007490A6800238360C2
:1044F00043600AB905E01A465368002BFBD15060AF
:1045000070470860704700BFA43900202DE9F041D2
:1045100082B080460F46164600F0A4FF04460028ED
:1045200038D02422002107F08DFF00250820E675F1
:1045300084F81480A77565752B46009001952A466E
:1045400029462046FFF71AFE0646206040B300F0D9
:10455000B9FF164E2268DFF868E0154F206101218F
:104560002B46D76382F835108EF80010114A124F8F
:1045700037604FF40025314620467560FFF7BCF9DF
:104580000E4B1A680AB908E01A469368002BFBD153
:104590009460204602B0BDE8F0811C602046F9E737
:1045A000204600F067FF3046F4E700BFB039002036
:1045B0003D470000A031002080060001B8390020EE
:1045C00092310020F0B40D698DB3D46A88B32B5CAE
:1045D0000133DBB25CB36278032A28D12B542778ED
:1045E00003EB570131291A4625DC022F2AD9302B3B
:1045F00098BF022202D925E0312B21D0E9180232DE
:104600000133A678CE70D2B2D9B297420B4604F1EC
:104610000204F1D80A4601302A44C0B2002302281D
:10462000D37004D8431C2954D8B20328FAD1F0BC63
:1046300070470346CEE7C3F132077F00FFB2D4E7ED
:104640001A46E8E71946E6E72DE9F04FDFF8E8906B
:10465000364DD9F8004085B08046002614B913E0E5
:1046600064688CB1A268002AFAD129882068304B8E
:1046700009390091076841462046B847002844D1CF
:1046800026466468002CEDD12A4C2F882744093433
:10469000A74203D81AE03444A74217D96378267892
:1046A000042BF8D1092EF6D1D9F80050002DF2D004
:1046B0004FF0000AC4EB070B0396AB684BB16D6873
:1046C000002DFAD1039E3444A742E7D805B0BDE8D7
:1046D000F08F2B68CDF800B01B6801221E464146C2
:1046E00023462846B04770B16B68BAF1000F16D068
:1046F000CAF80430D8F80C306B60AA46C8F80C50E1
:10470000C5F80880DBE7AA46D9E7636856B173604D
:104710000023C4F808806360C8F80C40D6E7C9F8E5
:104720000030E7E7C9F80030F2E700BF9031002021
:10473000A9310020A0310020A43900200146C06B1F
:1047400010B103685B6818472DE9F0418B6A1D6B57
:104750002B7E0A460E2B3FD8DFE813F00F004A00ED
:1047600062007F008E002301A8003C01C9003E01C9
:1047700007019800EB000C0140002E689F4B726807
:10478000DF799F4B9F4C1868217822F0FF6323F458
:10479000E02343EA074373600131802928BF0121E8
:1047A00050B1437D9942F7D0034602E05A7D8A42D8
:1047B000F2D09B68002BF9D1934E21700027090499
:1047C00041F4A0643B4631463A46284686E89000CC
:1047D000FFF792F801232B76BDE8F0812846FFF71A
:1047E00033FF8A4A0F2300212B761170BDE8F08138
:1047F000854C286863886B754168854E266021F07A
:104800007F010B4343607D4A00234FF490162146FD
:1048100028466660FFF770F802232B76BDE8F0812A
:10482000764B1A796A765A79AA769A79EA76597A1B
:104830001A7A42EA0122EA83D97A9A7A42EA012272
:104840002A849A7BD87B197C1A700243587099701D
:1048500051EA020318D003232B766B4C6D4B236077
:104860006D4E6E4A6660002321462846FFF744F8E5
:1048700004232B76BDE8F081604B1A79032A03D913
:104880005A79032A00F0AE800B232B765E4C644BE2
:1048900023605A4A00234FF41026214628466660BA
:1048A000FFF72AF80C232B76BDE8F081294600207B
:1048B000FFF788FE514B5A78F2B107222A765C78CE
:1048C0006E8C514F554A240444F0407446F0FF6604
:1048D000002344F4D06446F480263946284687E80D
:1048E0005000FFF709F808232B76BDE8F081294630
:1048F0000120FFF767FE414B9A78002AC4D00922B5
:104900002A769C786E8C404F444A240444F04074CC
:1049100046F0FF66002344F4D06446F4802639460E
:10492000284687E85000FEF7E7FF0A232B76BDE80C
:10493000F081324AD178937843EA0123B3F5006FCE
:104940004CD9384B4FF400621A804FF000612E4C66
:10495000334E61600023294A266021462846FEF72F
:10496000CBFF0D232B76BDE8F08129460220FFF70F
:1049700029FE89E7214B244EDA792A771A7A6A7759
:104980005C79002724043B4644F4106431463A46DF
:10499000284686E89000FEF7AFFF0E232B76BDE891
:1049A000F081164B1C786E8C174F1C4A240444F07F
:1049B000407446F0FF66002344F4D06446F4802639
:1049C0003946284687E85000FEF796FF06232B76E7
:1049D000BDE8F081094B72E7084B92E7114A1904D0
:1049E0001380B4E7D9799A7942EA01226A841A7865
:1049F000002A3FF460AF05222A76D3E7A0310020D9
:104A0000B8390020A0390020B039002092310020B0
:104A100080060001800600030000FC07A43100208E
:104A20008006000290310020002834D0F8B5C46818
:104A300006466CB11B4D0027236820461B6998472A
:104A400063682A68A76062602C601C46002BF3D163
:104A5000706828B1846BFFF743FC2046002CF9D125
:104A60003068FFF73DFC104A1368CBB19E4203D17A
:104A700012E0A64204D023469C68002CF9D1F8BD70
:104A8000A2689A60206908B100F02AFD2046BDE8BE
:104A9000F84000F0EFBC7047B36813603446F1E7AC
:104AA000F8BD00BFA4390020B839002070B590F8D7
:104AB0009E33044663B100F55876002556F8040F7E
:104AC000013518B1FFF7B0FF94F89E33AB42F5D82B
:104AD000002584F89E53C4F86053C4F8805384F8CA
:104AE000A15384F8A25384F8A453294684F8A5530B
:104AF00084F8A65384F8A75384F8A85384F8A953DC
:104B000084F8AA531C2204F5597007F09BFC84F822
:104B1000AB5384F8AC5384F8AD5384F8AE5384F8A7
:104B2000AF5384F8B05384F8B15384F8B25384F887
:104B3000B35370BDF8B5069E6AB9564C564DC0F8D1
:104B40003853C0F818438C6924F07F4424F0FF04E4
:104B5000B4F5106F01D00020F8BDCC7E022CFAD83D
:104B60000F2E80F89823F6D9103304E0103E0F2E54
:104B700003F110034CD913F8104C092CF6D113F89B
:104B80000F4C042CF2D113F80C4C012CEED113F87D
:104B90000B4C092CEAD113F8094C022CE6D813F877
:104BA000075C072DE2D113F8065C052DDED113F862
:104BB000055C05F0F005802DD8D113F8045C032DB9
:104BC000D4D113F8035C012DD0D113F8025C002D71
:104BD000CCD113F80D5C002A4ED113F80E4C80F89E
:104BE000994313F80D4C80F89A4313F8094C80F858
:104BF0009B4313F8054C04F00F0480F89C4313F812
:104C0000014C80F89D430132D2B280F89823ADE781
:104C1000002AA0D0002204460D4680F89E23C0F84A
:104C20006023C0F8802380F8A12380F8A22380F8B5
:104C3000A423114680F8A52380F8A62380F8A72393
:104C400080F8A82380F8A92380F8AA231C2200F565
:104C5000597007F0F7FB114BC4F858334FF4801329
:104C6000C4F85C332846234604F5627204F5567195
:104C7000FEF742FE0120F8BD13F80EEC90F8997390
:104C8000BE45C7D190F89B73A742BCD280F89A5317
:104C9000ABE700BF40CB000028CB0000A0060029F6
:104CA00010B5072104460C3000F022FC04F590708A
:104CB000022100F035FC04F5F070042100F048FCFE
:104CC00004F53870012100F05DFC2046BDE810407D
:104CD000FFF70ABC79B190F89E3399420BD890F84F
:104CE000A1234AB190F8AB23012303FA01F1114348
:104CF00080F8AB137047704770B504460126C4F8BE
:104D00005C130A4BC0F858330D46034600F5567144
:104D100080F8A1638068FEF7EFFD94F8AB3306FAE4
:104D200005F123EA010184F8AB1370BD23030800E9
:104D300090F89E338B420BD390F8A1334BB190F88F
:104D4000AC23012303FA01F1114380F8AC1370473F
:104D50007047002970B518BFA322044608BFA022DF
:104D600041F480230126C0F85823C0F85C330D4677
:104D7000034600F5567180F8A16300F56172806802
:104D8000FEF7BAFD94F8AC3306FA05F123EA010107
:104D900084F8AC1370BD00BF2DE9F04105460E4606
:104DA00002F002F805F546739E4223D005F54E73D6
:104DB0009E4201D0BDE8F08195F8A243002CF9D0C5
:104DC000661E2E4496F8A433082BF3D1AB6895F8F1
:104DD000A303002785F8A273597D2246FFF796FBAF
:104DE00005EB8405134AC5F860030923177086F89C
:104DF000A433DFE795F8B373002FDBD095F89E233B
:104E000082B10124A04602E00134A2420AD308FA8A
:104E100004F33B42F8D021462846FFF789FF95F876
:104E20009E23F1E7304644F62061BDE8F041FEF7ED
:104E300053BC00BFBC39002079B190F89E33994231
:104E40000BD890F8A1234AB190F8AD23012303FABF
:104E500001F1114380F8AD137047704770B50446F7
:104E60000126C4F85C130A4BC0F858330D460346BC
:104E700000F5567180F8A1638068FEF73DFD94F857
:104E8000AD3306FA05F123EA010184F8AD1370BDD4
:104E90002301100079B190F89E3399420BD890F815
:104EA000A1234AB190F8AE23012303FA01F1114383
:104EB00080F8AE137047704770B504460126C4F8F9
:104EC0005C130A4BC0F858330D46034600F5567183
:104ED00080F8A1638068FEF70FFD94F8AE3306FA00
:104EE00005F123EA010184F8AE1370BD230111001E
:104EF00079B190F89E3399420BD890F8A1234AB12A
:104F000090F8AF23012303FA01F1114380F8AF13A6
:104F10007047704770B504460126C4F85C130A4B0D
:104F2000C0F858330D46034600F5567180F8A1636A
:104F30008068FEF7E1FC94F8AF3306FA05F123EA46
:104F4000010184F8AF1370BD2301120079B190F80C
:104F50009E3399420BD890F8A1234AB190F8B02320
:104F6000012303FA01F1114380F8B0137047704731
:104F700070B504460126C4F85C130A4BC0F85833D8
:104F80000D46034600F5567180F8A1638068FEF770
:104F9000B3FC94F8B03306FA05F123EA010184F872
:104FA000B01370BD2301130079B190F89E3399427C
:104FB0000BD890F8A1234AB190F8B123012303FA4A
:104FC00001F1114380F8B1137047704770B5044682
:104FD0000126C4F85C130A4BC0F858330D4603464B
:104FE00000F5567180F8A1638068FEF785FC94F89F
:104FF000B13306FA05F123EA010184F8B11370BD5B
:105000002301140079B190F89E3399420BD890F89F
:10501000A1234AB190F8B223012303FA01F111430D
:1050200080F8B2137047704770B504460126C4F883
:105030005C130A4BC0F858330D46034600F5567111
:1050400080F8A1638068FEF757FC94F8B23306FA43
:1050500005F123EA010184F8B21370BD23030400B3
:105060002DE9F0414C1E044482B094F8A4330F465D
:105070000646092B27D8DFE803F04B4B050505054D
:1050800005292B38D5075FD50133DBB2072B84F810
:10509000A43318D1434A117800297CD142490978B8
:1050A000002978D190F8B30301211170B94020EAAA
:1050B000010186F8B3133046394684F8A433FFF76C
:1050C000A1FF86F8A27302B0BDE8F081900747D433
:1050D00012F00105F7D139463046FFF7ADFE314AEF
:1050E0000123157084F8A433EDE712F00105EAD12D
:1050F00000EB8708D8F86003FFF796FCC8F8605308
:1051000039463046FFF798FE012384F8A433DAE7E6
:10511000D307D8D5022384F8A43390F8B3333BB92E
:1051200044F6206100F54670FEF7D6FA96F8B333E0
:105130000122BA4013433946304686F8B33302B0F1
:10514000BDE8F041FFF778BE90F8B333012202FAD0
:1051500007F723EA070780F8B37384F8A423B2E7BC
:10516000394630460192FFF71FFF019A0823910547
:1051700084F8A43313D412F4806F14BF02230023E5
:1051800006F54E7046F2A81186F8A33302B0BDE8CA
:10519000F041FEF7A1BA062384F8A43393E7012374
:1051A000EEE700BFBC3900209231002010B590F826
:1051B0009A2390F89913C0F85C1340F6013343EA40
:1051C0000243C0F858330446034600F556710022E6
:1051D0008068FEF791FB012384F8A13310BD00BF66
:1051E00070B5002380F8A1334B6B714A0D8F934249
:1051F00082B0044663D06F4A93423DD0A32B27D0A0
:1052000094F8AB1300297FD194F8AD13002940F036
:10521000928094F8AE13002940F0978094F8AF1371
:10522000002940F09C8094F8B013002979D194F8BB
:10523000B133002B40F0A78094F8AC33002B40F042
:10524000AC8094F8B213002940F0938002B070BD96
:105250000B6B042BD4D1002DD2D090F89E339D42FD
:10526000CED8CB6A29461A68FFF7FAFE94F8A13324
:10527000002BC5D002B070BD90F8982390F88A3307
:1052800090F88B5390F88D1380F89E33012A80F8A4
:105290009F5380F8A01341D9FFF788FF94F89E33FD
:1052A000002BE3D0012529462046FFF713FD94F893
:1052B0009E330135AB42F6D294F8A133D8E790F88B
:1052C0009E339D429CD1D0F86033002B98D194F846
:1052D0009D3390F89C238068019301263346032177
:1052E0000096FEF74BFF344BC4F860030546C363DA
:1052F0003246234604F560716D68FEF79BFB94F817
:10530000A133002BB6D17BE791FAA1F1B1FA81F17B
:10531000204602B0BDE87040FFF7DCBC002BC1D1D5
:105320006EE791FAA1F1B1FA81F1204602B0BDE831
:105330007040FFF70BBE91FAA1F1B1FA81F120465E
:1053400002B0BDE87040FFF777BD91FAA1F1B1FA64
:1053500081F1204602B0BDE87040FFF79BBD91FA95
:10536000A1F1B1FA81F1204602B0BDE87040FFF72B
:10537000BFBD91FAA1F1B1FA81F1204602B0BDE8BA
:105380007040FFF73FBE93FAA3F1B1FA81F12046D6
:1053900002B0BDE87040FFF707BE93FAA3F1B1FA7F
:1053A00081F1204602B0BDE87040FFF7C1BC00BFEC
:1053B00023030800A00600290554000070B5054627
:1053C0000024012604E095F89E330134A3420ED355
:1053D000D5F8803306FA04F21A42F4D02146284662
:1053E000FFF7A6FC95F89E330134A342F0D22B467A
:1053F00005F56071D5F860030122BDE87040FEF745
:1054000019BB00BFC36B1BB101461846FFF7D6BFDF
:10541000704700BF0D4B0E481946F0B403F140022F
:105420000C4E41F8802F1A4637680B4C0B4D1F600D
:1054300042F8C01F1B640A4B2768016832602F6066
:10544000256019600360F0BC704700BF803A0020FF
:10545000843B0020803B0020E4390020C03900203C
:10546000003A0020024B186808B102681A607047C1
:10547000E4390020024B1A6802601860704700BFD0
:10548000E4390020024B186808B102681A607047BE
:10549000843B0020024B1A6802601860704700BF0E
:1054A000843B0020024B186808B102681A607047FC
:1054B000803B0020024B1A6802601860704700BFF2
:1054C000803B0020054B186830B102681A60002349
:1054D000037043708370C370704700BF603A002050
:1054E000024B1A6802601860704700BF603A0020E3
:1054F00001EBC10100EB810188420DD210B4074CD1
:10550000226800E01846034643F8242B99420246DD
:10551000F8D820605DF8044B704700BFE4390020E4
:1055200001EB410100EB411188420DD210B4074C50
:10553000226800E01846034643F8602B9942024671
:10554000F8D820605DF8044B704700BF843B002012
:1055500000EB8111884212D230B4094D02462C680A
:1055600000E01A46134643F8404B99421446F8D8D7
:10557000C343194421F03F010844286030BC704700
:10558000803B0020352303FB010188420DD210B47B
:10559000064C226800E01846034643F8352B994232
:1055A0000246F8D820605DF8044B7047603A00204E
:1055B000C36B4BB1C26A996B8A4206D0D96B8A42DF
:1055C00004BF002283F853207047002283F8522042
:1055D000704700BF0023C3600361704770B5B0F827
:1055E000423090F8521004469D0881B994F8533027
:1055F00003F0FF0203B970BDEBB284F85330E16BE6
:10560000206923469200BDE87040FEF713BAEBB262
:1056100001F0FF0280F85230816B0346920000696E
:10562000FEF708FAE2E700BF012A01D00020704728
:105630001A78092AFAD15A78042AF7D1F0B55A799A
:10564000012A83B00D4604463CD0023A102A6FD995
:10565000089A03F109079A180021974280F854101C
:1056600080F8551064D28E46587A032860D93918CC
:105670008A425DD39B7A042B36D00B2B14D133E0B6
:10568000052B57D0252B53D18A4240F281800878D0
:1056900003284DD90E1896424AD84B78042B77D060
:1056A0000B2B0F4674D03146242BE9D1BB78581E02
:1056B000032804D9F12B3BD1FB78022B38D14FF0D2
:1056C000010EE1E79979089A03F109079A18A1F107
:1056D000030E0020BEFA8EFEBA424FEA5E1E84F828
:1056E000540084F85500BFD8BEF1000F20D000222E
:1056F0000023E3602AB1B4F84230B4F84A1099426A
:1057000073D200232361E2680023A4F84E30A4F88A
:10571000503084F8593084F85A3084F85B3084F87B
:105720005C30A4F88031002A41D0012003B0F0BDE4
:105730000020FBE70628FBD9FB78023B012BF7D8BA
:10574000BB7813F0F00013D08028F1D194F8540006
:10575000002899D103F00F0384F85430FB7884F8C3
:10576000563078793B7943EA0023A4F840308BE740
:1057700094F85500002887D184F85530FB7884F8D8
:10578000573078793B7943EA0023A4F842307BE72D
:10579000BEF1000FCCD094F854202AB1B4F84030B8
:1057A000B4F84A10994207D294F85520A0E720692E
:1057B000C01A18BF0120B9E794F8561000930023CF
:1057C000019328460123FEF7D9FCE06050B1104A4E
:1057D000C2632346B4F84020616BFEF72BF9012326
:1057E00084F8483094F8552084E7002694F8571040
:1057F0000093284601963346FEF7C0FC206100283E
:1058000081D0044BC36384F8526084F853607AE714
:1058100021590000B155000010B50321044600F5E0
:10582000F070FFF77DFE04F540700721FFF790FE52
:1058300004F598600121FFF7A5FE0023C4F8843128
:10584000C4F88831C4F88C31C4F89031C4F894316C
:10585000C4F89831C4F89C31C4F8A031C4F8A4311C
:10586000C4F8A831C4F8AC31C4F8B031C4F8B431CC
:10587000C4F8B831C4F8BC31C4F8C031C4F8C4317C
:10588000C4F8C831C4F8CC31C4F8D031A4F84E30D3
:10589000A4F85030E36023612046BDE81040FEF7D5
:1058A00023BE00BFF8B58B680A6BB0F85070B0F833
:1058B0004E10C3F30E43D31A9B0811D0426B02EB78
:1058C000830352F8044B4CB1B0F84C500131A9425B
:1058D0002ABF00218E000E46456CAC519A42F0D191
:1058E0008F4298BFB0F84C30A0F8507098BFFF18A6
:1058F000013FB0F84020A0F84E10791AB1EB920F9A
:1059000003D2002380F84830F8BD03460446416BBB
:10591000C068FEF78FF8012384F84830F8BD00BF57
:10592000C36B1BB101461846FFF7BCBF704700BFF1
:105930000369002B4ED02DE9F041B0F842700646C5
:10594000BF0872B696F8525096F85340EDB2AF4287
:10595000E4B21BD9F4B1A7421CD9651CF26BEBB2BF
:1059600006F1140842F82410404686F85330FDF73B
:1059700019FFAF4225D97F2F40F2DC51404688BF46
:10598000C821FDF7A9FE62B6BDE8F081A742E4D8C0
:1059900062B6D6E76C1CB26BE3B206F1140842F8AB
:1059A0002510404686F85230FDF7FCFEA742E2D8AB
:1059B000BA003346B16B3069FEF73CF862B6BDE819
:1059C000F081BA003346F16B3069FEF733F862B606
:1059D000BDE8F081704700BF2DE9F843B0F84E20D4
:1059E000B0F850309A4232D0B0F84C700133BB421C
:1059F00030D29D001FFA83FE04460E46406C94F898
:105A000048104559A4F850E071B9E16861B193427A
:105A100096BF07F1FF37D243BA1A1344B4F84020B7
:105A2000B3EB920F80F0CA8005F00F074FEA1528FC
:105A3000A7F1080208F00F01C5F30313062A01F1CC
:105A4000010984F8583022D84EB1B14507D0002062
:105A5000BDE8F8834FF0000E75467346CCE7082F7B
:105A6000C5F303333DD0092F00F001810A2F40F028
:105A700016810A2BEBD1D4F88C31A02284F85A205D
:105A80005FFA89F9C3BB2F0EC5F307462DE1BB1E94
:105A9000012B5FFA88F66BD9052F65D0042F33D020
:105AA0007B1F022B40F294800F2FD0D1F72E5FD8AE
:105AB000F02EB4F8801101D00029C8D0D4F8A0315C
:105AC000002B00F04682B1F5917F80F035824B1CAF
:105AD0009BB22144A4F8803181F85D800020BDE8AC
