:1000000000800020BD0100001D210000D52000005F
:10001000D5200000D5200000D5200000D52000000C
:10002000D5200000D5200000D52000001D210000B3
:100030001D210000D520000001350000053500001D
:100040001D2100001D2100001D2100001D210000B8
:100050001D2100001D2100001D2100001D210000A8
:100060001D2100001D2100001D2100001D21000098
:100070001D2100001D2100001D2100001D21000088
:100080001D2100001D2100001D2100001D21000078
:100090001D2100001D2100001D2100001D21000068
:1000A0008D1B0000991B00001D2100001D21000078
:1000B0001D2100001D2100001D2100001D21000048
:1000C0001D2100001D2100001D2100001D21000038
:1000D0001D2100001D2100001D2100001D21000028
:1000E0001D2100001D2100001D2100001D21000018
:1000F0001D210000914300001D2100001D21000072
:100100001D2100001D2100001D2100001D210000F7
:100110001D2100001D2100001D2100001D210000E7
:100120001D2100001D2100001D2100001D210000D7
:100130001D2100001D2100001D2100001D210000C7
:100140001D2100001D2100001D2100001D210000B7
:100150000137000015370000293700003D37000047
:100160001D2100000D2700001D2100001D210000A1
:100170001D2100001D2100001D2100001D21000087
:100180001D2100001D2100001D2100001D21000077
:100190001D2100001D2100001D2100001D21000067
:1001A0001D2100001D2100001D2100001D21000057
:1001B0001D2100001D2100001D210000564B4CF2A6
:1001C000205210B51A804DF628121A8000BF00BFC9
:1001D00001F0A8FF514B4FF010621A60504A9A602C
:1001E000504ADA60504A136813F4807304D14F49BF
:1001F0000B604FF4A85313604D4B1A78110703D5C9
:100200001A7842F008021A704A4B4B492A221A7097
:100210004A4A4B4B8B4204D252F8040F43F8040B6A
:10022000F8E7484B484900228B4202D243F8042B9E
:10023000FAE74649464A002352F8230041F82300D2
:1002400001336F2BF8D1434B434A802103F8011B44
:100250009342FBD1414B3D4A1A60414B8A221A70AE
:10026000A3F5805324225A70A0221A709A7992071B
:10027000FCD59A79D406FCD43A4A937903F00C035E
:10028000082B384BF9D103221A7146225A719A79F8
:100290009006FCD5334A9179324B4906FBD5324A58
:1002A0004FF0827111600921516020221A709A79F1
:1002B00002F00C020C2AFAD12C4B2D4A1A602D4B5D
:1002C0002D4A1A6000225A60072243F8042C2B4A58
:1002D000C3F80C2D62B602F0EFF8144B1B68DA0776
:1002E00005D5274802F07AF8264B274A1A60274B93
:1002F0001B785B0609D5234C234B22689A4204D114
:100300001F4802F06BF80023236001F011FF05F095
:1003100023F903F051FBFEE70E2005403080044036
:10032000823F04000100002B10D0034014D0034092
:1003300002D0074000E00740E49CFF1F2864000053
:10034000308CFF1FE49CFF1FB0AAFF1F0082FF1F1D
:100350000000000000E400E05FE400E008ED00E0E1
:1003600000500640004006404480044004800440A1
:10037000C010050014E000E0BFD401000000202000
:100380004925F8611CE00340A5C3945A00F00740DA
:10039000FFFFFFFFFFFFFFFFFFFFFFFFFFFFFFFF6D
:1003A000FFFFFFFFFFFFFFFFFFFFFFFFFFFFFFFF5D
:1003B000FFFFFFFFFFFFFFFFFFFFFFFFFFFFFFFF4D
:1003C000FFFFFFFFFFFFFFFFFFFFFFFFFFFFFFFF3D
:1003D000FFFFFFFFFFFFFFFFFFFFFFFFFFFFFFFF2D
:1003E000FFFFFFFFFFFFFFFFFFFFFFFFFFFFFFFF1D
:1003F000FFFFFFFFFFFFFFFFFFFFFFFFFFFFFFFF0D
:10040000FFFFFFFFFFFFFFFFFFFFFFFFDEF9FFFF23
:1004100010B5054C237833B9044B13B10448AFF33E
:1004200000800123237010BDE49CFF1F000000002A
:1004300024640000084B10B51BB108490848AFF30D
:1004400000800848036803B910BD074B002BFBD0A0
:10045000BDE81040184700BF00000000E89CFF1FE7
:1004600024640000E49CFF1F00000000704700BFF0
:10047000FF2800D97047074B074910B504462246AC
:10048000186901F019F8054B18782044C0B21870AB
:1004900010BD00BFDCA7FF1F44A6FF1F2C9EFF1F3F
:1004A00000B5074B83B01878012101F0ABFF054A76
:1004B000054B12680192019A1A6003B05DF804FBC3
:1004C000248DFF1F84A8FF1F3CA6FF1FFC2002F005
:1004D000F7BE00BFFA2002F0F3BE00BF034B5B6D16
:1004E00018680368F8211B68184700BF189DFF1F94
:1004F0002DE9F0415B4E5C4D3078DFF8AC815B4C10
:1005000088B0012101F084FF2878012101F080FFEB
:10051000574B98F80D10D8F81000049312230027B9
:10052000012202931323059203970097019342231C
:1005300000F03CFF4F4B50481F7039464FF480721B
:1005400005F0FAFAD8F810304C4920684C4A4D4F63
:10055000DFF858C1C3F8681240F2EE2E137843B1A9
:100560003B78DB0705D52368DCF800105B1A0E2BFF
:1005700007D8236811781B1A00296FD0B3F5FA6FDA
:10058000ECD9414FDFF828817B6D1868036847F686
:100590001221DB699847236807930120079BC7F85E
:1005A000003100FA00F200234FF6FF71024387F892
:1005B000580087F8702087F85A3087F859307B66E2
:1005C0003B6687F8F83087F8753087F8743087F81D
:1005D000763087F87730C7F8FC30B966F9660424BE
:1005E0000121307801F00EFFD8F8000001F016FF6D
:1005F0000121287801F006FFD8F8000001F00EFF75
:100600000021307801F0FEFED8F8000001F006FF6E
:100610000021287801F0F6FED8F8000001F0FEFE77
:10062000013CDDD1194C1A48072102F0C5FD1948DB
:1006300003F08EF8204601F01BFC17491748184AB2
:10064000184B096820602046E260236101F03AFC03
:10065000204601F00FFC08B0BDE8F08173457FF63D
:100660007DAF8EE7208DFF1F248DFF1F84A8FF1F05
:10067000801A06002C9EFF1F44A6FF1F7104000075
:1006800078A9FF1F98A9FF1F189DFF1F00A8FF1F33
:10069000346000007893FF1F188DFF1FDD040000F9
:1006A000D5040000CD040000DCA7FF1FA8AAFF1F8F
:1006B000148DFF1F2DE9F0434749484A0B68106825
:1006C000474E484D484C85B00393039B09680291FF
:1006D0001B1A029911601846336004F0F7FC296870
:1006E000804604F03FFC237D2860032B63D004F197
:1006F0000C0723693C4A3C490433BB42236104BFD5
:1007000013461261C3F80080227D032A4CD0501C8E
:10071000087502B9CB6028683449354D354C04F072
:10072000DDFD03462B600146334804F0D7FD0D2163
:100730002060324802F040FD314803F009F831688A
:100740002F4803F059F82E4803F002F80D212D48E8
:1007500002F032FD2A4802F0FBFF286804F0D8F8C6
:10076000022502460B460095254803F04DF8244823
:1007700002F0EEFF0721244802F01EFD204802F09F
:10078000E7FF206804F0C4F8009502460B461C48B9
:1007900003F03AF81A4802F0DBFF21681B4801F029
:1007A00091FB05B0BDE8F083CB680433BB4208BFC2
:1007B0000B46CB60AFE7274657F80C9F59F8041B50
:1007C00004F0CEFBB94534BF4B46234602222860D5
:1007D000E36022758DE700BF84A8FF1F34A6FF1FCA
:1007E00040A6FF1F30A6FF1F009DFF1F00004040D6
:1007F00084A7FF1F188DFF1F00606A473C60000040
:100800007893FF1F4C6000005C60000000A8FF1F91
:1008100000B5012883B009D0022802D003B05DF8EA
:1008200004FBFFF73DFE03B05DF804FB064B0146F9
:10083000187801F0E7FD054A054B12680192019A0C
:100840001A6003B05DF804FB208DFF1F84A8FF1F12
:1008500038A6FF1F10B50E4A0E4B12681B6882B0F7
:100860000192019CE31A312B0BD80B4B1B68E41A45
:10087000312C04D9094B0021187801F0C3FD02B0D6
:1008800010BD074B0021187801F0BCFDEDE700BF5B
:1008900084A8FF1F38A6FF1F3CA6FF1F248DFF1F43
:1008A000208DFF1F2DE9F041E0290C469DF81850DE
:1008B00008D8013DEDB20F2D02D849B2002912DB54
:1008C000BDE8F081F729FBD90834E4B2012303FA2B
:1008D00004F414F0DD0FF3D0436D18680368BDE82D
:1008E000F0411B6818471F46436D8046186803682F
:1008F0002943C9B21B6816469847D8F8543018687F
:10090000036806F07F011B6804F0EF049847C02CD1
:10091000D6D0D8F854301868036807F07F011B68F8
:10092000BDE8F041184700BF00B5013183B0C9B23E
:100930000091C2B2002380210348FFF7B3FF03B048
:100940005DF804EBFFF7ACBD189DFF1F2DE9F04FDC
:100950001D4BDFF87C901A68D9F8003083B0002B6B
:100960000192DDF804A02BDD0027DFF868B0174EF8
:10097000B8463368002B1CDD5C46002504E0336874
:10098000AB4204F1100414DDE3680135002BF6D00E
:100990006368A268C3EB0A039342F0D92068394622
:1009A000FFF7C2FF3368C4F80C80AB4204F11004B7
:1009B000EADCD9F800300137BB420BF1800BD8DC00
:1009C00003B0BDE8F08F00BF84A8FF1F1C8DFF1F80
:1009D000108DFF1F309EFF1F2DE9F04FDFF8A0B1F3
:1009E000DBF8007087B0002F0546039190461E4645
:1009F00040F3A1805A4C013304EBC619DFB24FF02B
:100A0000000A05E0DBF80000504509F1100926DD79
:100A1000D9F80030AB420AF1010AF3D1D9F80C3011
:100A2000012BEFD117214F4802F0C6FB4E4802F0D0
:100A30008FFE99F800204D48009700238021FFF792
:100A400031FF4B4B0021187801F0DCFCDBF8000093
:100A500000235045C9F80C3009F11009D8DCDFF843
:100A60001CB1DFF820A15BF826305A1C002892FB4D
:100A7000F0F100FB11214BF826204AF826104FEA2E
:100A8000C60920DD09EB010E04EB0E1EDEF80CE0BA
:100A9000BEF1010F17D1023302EB000E04E0D26861
:100AA000012A03F1010341D193FBF0F100FB113165
:100AB00009EB010273459C4604EB0212EFD14BF89F
:100AC00026304AF826102B4B27481B68059309EB64
:100AD00001031B01059AE55023444FF0010E5A60B3
:100AE000039AC3F80CE09A6002F086FE09212248BE
:100AF00002F062FB5AF826301B4899444FEA091964
:100B0000002354F809100A2202F036FE164802F0BB
:100B10001FFE5FFA88F3EAB2902114480097FFF7AE
:100B2000C1FEFFF7BDFC07B0BDE8F08F4BF826C053
:100B30004AF82610C7E71149DFF848A051F82330DA
:100B4000074C0133721C41F8263093FBF7F107FB89
:100B500011314AF82610D7B24FEAC609B3E700BFF1
:100B6000309EFF1F646000007893FF1F189DFF1FD9
:100B7000248DFF1F84A8FF1F7C60000044A7FF1F77
:100B80001C8DFF1F88A7FF1F00B5013183B0C9B2BC
:100B90000091C2B20023C0210348FFF783FE03B0D7
:100BA0005DF804EBFFF77CBC189DFF1F00B540EA21
:100BB000012183B009B2013201F50051D2B2009295
:100BC000C1F3C61301F07F020448E021FFF76AFE7B
:100BD00003B05DF804EBFFF763BC00BF189DFF1F77
:100BE000F0B5834D2B7887B033B9FFF7AFFE07B070
:100BF000BDE8F040FFF72EBE7E4C0120FFF708FE57
:100C00000B217D4802F0D8FA00230A2221787B4884
:100C100002F0B2FD794802F09BFD0B21784802F00A
:100C2000CBFA00230A226178744802F0A5FD7348CC
:100C300002F08EFD0B21734802F0BEFA0023A1786A
:100C40006E480A2202F098FD6C4802F081FD23787C
:100C50004F2B0AD0462B2DD000232B70FFF776FEAA
:100C600007B0BDE8F040FFF7F5BD637803F170020F
:100C7000D2B20F2A53D903F15002D2B20F2A3CD973
:100C800003F14002D2B20F2A56D903F12002D2B2A8
:100C90000F2A27D9A178574EF82900F0A280FA2907
:100CA00000F09580FB2900F08880FC297CD0237817
:100CB000462BD1D1A178E27863784E4E42EA0122E8
:100CC000012B17B26AD0022B41D0632BC4D1412F24
:100CD00052D0422F50D0432F4ED0442F4CD0FFF74C
:100CE000DFFBB9E7A3F1E002E178A078FFF75EFF50
:100CF0006378454AE03B1360CCE7A3F1AF01C9B28A
:100D0000E378A27841480091B021FFF7CBFDFFF7CF
:100D1000C7FB63783C4AA3F1B0011160B0E73C49DE
:100D2000E2780968A078903BFFF756FE6378364A70
:100D3000A3F1900111609EE7A3F1C001A078FFF735
:100D400023FF6378304AA3F1C00111609DE7002FB3
:100D50004BDB7F2F3A46A8BF7F22D2B22A4B2B48CB
:100D60001B680133DBB20093D0210023FFF79AFD0B
:100D7000FFF796FB6378A8E7264B274A597B18694B
:100D80000492002401224FF0120E13263B460592D6
:100D900003948DE8504000F009FBA0E71C4B1F6056
:100DA000FFF77EFB73788EE7184B5B6D186803685E
:100DB0001B689847FFF774FB79E7144B5B6D186865
:100DC00003681B689847FFF76BFBA1786DE70F4B33
:100DD0005B6D186803681B689847FFF761FBA17893
:100DE00060E7FFF767FCB17859E70022B6E700BF7C
:100DF0002C9EFF1F44A6FF1F886000007893FF1FF2
:100E000094600000A06000002C8DFF1F189DFF1F44
:100E1000288DFF1FDCA7FF1F801A0600F0B52F4C9E
:100E20002F4F94F87030DFF8D0E0C7F800E00025CD
:100E3000012243F0010383B062F347034FF6FF76CC
:100E4000294604F17800802284F8703067652560B7
:100E50006560A560E56025616561A561E561256264
:100E60006562A562E56225636563A563E563256444
:100E70006564A564E564256584F8585084F8595084
:100E800084F85A5025666566A666E66684F874504E
:100E900084F8755084F8765084F8775084F8F850C8
:100EA00004F04AFE20460F4A0F49C4F80051C4F826
:100EB0000451C4F8085184F80C5184F80D5103F022
:100EC000BDFB0A4A0A4B126801920199094A1D7535
:100ED000DB601B61116003B0F0BD00BF189DFF1FF8
:100EE000289EFF1F0C8DFF1F6D04000084A8FF1FAC
:100EF000009DFF1F40A6FF1F5093FF1F002070475B
:100F00000369D3F83801D3F83431C01A704700BFF1
:100F10000369D3F83411D3F83821914208D2D3F8B9
:100F20003421511C1A44C3F8341192F83000704730
:100F30004FF0FF30704700BF0369D3F83411D3F886
:100F4000382191423DBFD3F834219B1893F83000EB
:100F50004FF0FF30704700BF704700BF0369D3F800
:100F60004422B2F5817F03D9012303710020704729
:100F7000D3F8442210B49C180132C3F8442284F8F8
:100F80003C11012010BC704738B503690A4A026061
:100F900093F84822022A044601D0204638BDD3F8EF
:100FA0007452002DF9D0284602F06EFA2846082126
:100FB00002F00CFD204638BDB460000038B503696E
:100FC0000546D3F84402B0F5817F1AD81446D3F809
:100FD0004422D3F84402C2F58172013203F59E73B4
:100FE000A242184402D2012314462B71224600F07B
:100FF0009DFF2A69D2F844322344C2F84432204685
:1010000038BD01232B71002038BD00BF2DE9F0470A
:101010001E46044617469DF820909DF824309DF802
:1010200028A00D4659B301290FD090F84A329A42B0
:101030004FF0000800D14DB3012D0ED094F84B3283
:101040009E4212D00020BDE8F0871D2F4FD01A2FEE
:1010500077D094F84A324FF000081E2E1AD01F2E77
:101060006DD094F84B329E42ECD1BAF1000FE9D02A
:101070000025B8F1000FE5D0002DE3D031E0102AB3
:1010800035D0132A33D090F84A328846A6F111039E
:10109000012BE6D8022594F84B329E4257D0BAF184
:1010A000000F09D094F84C3294F84B02002B14BF77
:1010B0000221002101F0ACF92B02B9F1000F13D18C
:1010C00043F06403264A02EBC60201215268136012
:1010D00084F84B6284F84C9284F89912B8F1000FAE
:1010E000B0D00120BDE8F08743F00303EAE74FF0FA
:1010F000020894F84A22974226D04BB194F84C3219
:1011000094F84A02002B14BF0221002101F080F95B
:101110004FEA0822B9F1000F0ED142F06402104BE1
:1011200003EBC703596801230A6084F84A7284F804
:101130004C9284F898327EE742F00302EFE70625EE
:10114000A9E74FF00608D4E7002BE1D073E7BAF126
:10115000000FB1D0B8F1000F3FF474AF8CE700BFBF
:10116000E4610000F8B5C3681B789B0610D483685F
:101170000D4680211970C3681221197090F8493208
:10118000012B044606D08AB980F848220120F8BD18
:101190000020F8BD1A4675B9474B4FF080711960B1
:1011A000022A0FD0012084F84802F8BD531E012BFB
:1011B000F1D90120F8BD012DF2D13F4B4FF0007164
:1011C0001960EDE7D4F87462002E6AD03379102BE1
:1011D00030D0002D3CD132683849938B384F9BB2C8
:1011E00043F0080393833279531102F110009B00FE
:1011F00041F8207003F1604303F56143012102F0DF
:101200001F0201FA02F231681A608B8B9BB243F025
:1012100002038B83337903F1804303F50433962271
:101220001D701A700022022384F85E2284F848326E
:101230000120F8BD304602F027F93046082102F0BF
:10124000C5FB00230120C4F8743284F84802F8BDBD
:10125000012DE7D132681949938B1A4F9BB243F0A5
:10126000080393833279531102F110009B0041F877
:10127000207003F1604303F5614302F01F029540C3
:1012800032681D60938B9BB243F0020393833379E2
:1012900003F1804303F504330021972219701A707B
:1012A000C0E7082002F090FB314607463E4602F0B8
:1012B00087F8C4F8747289E700E100E00082FF1F3C
:1012C0008D1B0000991B0000F0B5284EDFF8ACE044
:1012D000A6FB0143A6FB02429E093702754696090A
:1012E00014240023B7FBF6F604E00133372B1BD0A0
:1012F00055F8044F22029642F7DA83BB14241C4AA5
:101300004568B1FBF4F491422B70C0F8504207D805
:10131000184B8269A3FB0131C1F307511170F0BD75
:10132000836904221A70F0BD002422464FF470270E
:101330004FF470654FF0360CB21AF71B002A87EA9B
:10134000E776A6EBE776B8BF5242964202DD0A4A3C
:10135000D35CD4E7084B2C4613F80C30CFE703F1ED
:10136000FF3C5EF82C502F02E6E700BFD34D621021
:10137000FF6BDC02819F5E16AC610000D060000054
:10138000F0B49DF814409DF810609DF818503CB1E1
:1013900035B1C7683F78BF0602D50020F0BC704762
:1013A000069505940496F0BCFFF730BE2DE9F04198
:1013B00084B0044694469DF828609DF82C209DF842
:1013C00030009DF834E09DF83C700D4600294BD16B
:1013D000DFF8E080D8F8001041F04001C8F80010B4
:1013E000002184F849C284F85512BCF1000F2AD1BB
:1013F00063692021197012B994F84A22D2B210B947
:1014000094F84B02C0B294F8981294F8996202963C
:101410000346CDF800E0019120462946FFF7B0FFD2
:101420000E9A23492046FFF74FFF3A4629462046A9
:10143000FFF798FE94F8493263B3A368C0221A708C
:1014400004B0BDE8F0816169CEB14FF0280C81F89D
:1014500000C09E42216823D95B00DBB20B7076008E
:10146000E369F6B21E70C6E70129B9D1DFF84480FE
:10147000D8F8001041F08001C8F80010B0E74FF034
:10148000200C81F800C021685B00DBB20B70E369BF
:101490001E70B0E7A36880221A7004B0BDE8F08126
:1014A0007600F6B20E705E00E369F6B21E70A2E737
:1014B000008793033480044070B5D0F83841D0F8E9
:1014C00034319C4218D9D0F83831D0F83451D0F8A2
:1014D00034615D1B954228BF1546044600F1300378
:1014E0002A460846991900F021FDD4F834312B44DE
:1014F000C4F83431284670BD002070BD2DE9F0419C
:10150000C04E337804460133DBB2C068A76833703D
:1015100005783B78DBB203F0200282B0EDB23AB33B
:1015200013F0100F94F85E327AD0022B00F0D880BE
:1015300094F85E32032B00F0D38094F85532082BD8
:1015400000F0298294F85532092B00F0648294F857
:101550005532012B00F0D38180233B70E3680222D7
:101560001A703378013BDBB2337002B0BDE8F08112
:1015700002F0FF08EA0624D405F0400202F0FF0E54
:101580001ABB03F0100303F0FF02002B00F083806E
:1015900015F0010540F0A881D4F84022D4F8443277
:1015A0009A4207D2D4F840325A1C2344C4F840224D
:1015B00093F83C5123691D70A368D0221A70E0682B
:1015C0006EE0102303706806C8D594F855320C2BD2
:1015D00000F0098105F0040505F0FF07002D64D037
:1015E000A3680021D0220B2084F85502C4F84412CD
:1015F0001A702269D4F86C1213785B0884F856329A
:1016000009B188472269D4F84432002B00F0748174
:1016100094F83C8182F800800123C4F840329DE7B1
:10162000022B00F0A68094F85E32032B00F0A1801C
:10163000D4F83831D4F858220233934200F04F8165
:1016400094F85532012B00F04581D4F8383101333C
:10165000934280F0198194F85532012B00F00F81EC
:10166000D4F838312269591CC4F83811234412784F
:1016700083F83020E36802221A7094F85532DBB206
:10168000012B7FF46EAF94F85D22002A7FF469AFDE
:1016900084F85D3265E794F855320C2B00F09C819C
:1016A0000223037002B0BDE8F081574B574A94F80B
:1016B0004B0284F85C72002914BF114619460322BC
:1016C00000F0CCFDA3680C21C02284F85512C4F8A8
:1016D00038711A7023691B785B0884F856323DE72D
:1016E000D4F8742213689B8B190604D594F85E32E3
:1016F000022B00F0B88094F85E32032B00F08E804D
:10170000434B12791968012393400B423FF429AFF0
:101710004049414B0A70D4F87412097919700022BB
:10172000072384F85E2284F85532D4F894320133CA
:1017300004D0D4F894320133C4F89432EA0611D5B7
:10174000042384F85532D4F88C32013304D0D4F811
:101750008C320133C4F88C32E268102100231170FE
:10176000C4F84032A36880221A70E36802221A701B
:1017700032E0D4F874321A68928B120603D594F8CA
:101780005E22022A63D094F85E22032A00F0DA80F7
:101790001F491A790968012393400B423FF4E1AED7
:1017A0001C491D4B0A70D4F8742212791A70A36870
:1017B00080220020072184F85E0284F855121A70F6
:1017C000E36802221A70D4F89432013304D0D4F8BA
:1017D00094320133C4F89432D4F87032002B3FF4C1
:1017E000C0AE9847BDE6D4F86832002B3FF4F2AEA5
:1017F0000022C4F83421D4F83801019198470199A6
:10180000E8E600BFF0A7FF1FFD1B0000091C000059
:101810002C8000401E8000401F8000400378190685
:10182000FCD5C14B12791A70002384F85E32D4F8CB
:1018300044322169013BC4F84032D4F84032234499
:10184000022293F83C310B70E3681A7089E6B749BD
:101850001B790B70A368E8211970E368032184F8F1
:101860005E121A707DE6B14912790A70A268F02101
:101870001170E268032184F85E12137071E694F827
:101880005D32002B3FF4ECAEA3680021B02284F857
:101890005D121A70D4F838312269591CC4F8381115
:1018A0002344127883F8302094F85432012B00F04E
:1018B000C480E36802221A7094F85532012B33D0A9
:1018C000D4F86432002284F85522002B3FF4D5AEC0
:1018D0009847D2E694F85D32002B7FF4B6AEE82349
:1018E0003B70D4F85822B0E6C0233B702369E0680F
:1018F0001B7884F855E2D3E684F83C318AE694F804
:101900005432012B0CBF8023B0233B70E3680222CA
:101910001A70D4F8803201333FF45EAFD4F88032CD
:101920000133C4F8803257E7D4F88032013304D051
:10193000D4F880320133C4F88032D4F87032002BEE
:10194000C6D19AE6784A1B791370A3680021B022A9
:1019500084F85E121A70D4F858322269013BC4F838
:101960003831D4F83831591CC4F83811234412786E
:1019700083F8302094F85432012B00F0C180E368E2
:1019800002221A70D4F86432002284F85522002B07
:101990007FF427AFE5E505F0100303F0FF02002B0D
:1019A00052D000230421102284F85E3284F85512AC
:1019B0000270A26880211170E268C4F840320223EC
:1019C0001370D4F88C3201333FF406AFD4F88C3264
:1019D0000133C4F88C32FFE6554B564D84F85C2237
:1019E000002914BF29461946032294F84B0200F03F
:1019F00035FC23691B78D4F83821B2F5817FDBB23E
:101A000007D8D4F83821A1180132C4F8382181F858
:101A10003030E06844E6EB062ED50422102384F82B
:101A200055220370A36880221A70E36802221A709C
:101A3000D4F88C320133C9D1CEE62823013BFDD145
:101A4000A36880221A7034E715F0010528D084F8C5
:101A50005E22D4F84032002B59D1022384F855324B
:101A6000D4F88432013304D0D4F884320133C4F87A
:101A7000843280233B7078E6E9072CD5022380224C
:101A800084F855323A70E2681370D4F88432013326
:101A90003FF4A2AED4F884320133C4F884329BE61A
:101AA000D4F840320133C4F84032D4F8442293428F
:101AB00042D394F8543284F85552012B0CBF802342
:101AC000B0233B70E36802221A70D4F86032002B16
:101AD0007FF487AE45E594F85E32012B34D0D4F81C
:101AE0005832012B4FF00A020CBFE823E02384F8A0
:101AF00055223B702269E368127802221A7030E5A1
:101B00002823013BFDD1A36880221A7037E7032305
:101B100084F85532D4F888320133AAD0D4F8883208
:101B20000133C4F88832A4E71C8000401F800040C5
:101B3000FD1B0000091C000094F85E32012B12D03E
:101B4000D4F8403221697AE60223E12284F85E3239
:101B50003A70D4F874120C4A097911702169E2685C
:101B600009781370FDE40223F12284F85E323A70A2
:101B7000D4F87412044A09791170226994F83D115D
:101B80001170E2681370ECE41B80004000210148F2
:101B9000FFF7B4BC308DFF1F01210148FFF7AEBC39
:101BA000CC8FFF1FC3681B7803F020035BB190F854
:101BB0005C320133DBB2012B80F85C3217D990F82C
:101BC0004B0200F0C7BB70B503F0FF05044680F878
:101BD000555290F84B0200F0BDFBD4F868325BB16F
:101BE000C4F83451D4F83801BDE87040184790F873
:101BF0004932012BE3D1704770BD00BF002101487D
:101C0000FFF7D0BF308DFF1F01210148FFF7CABF8A
:101C1000CC8FFF1F2DE9F843134BDFF85C90DFF802
:101C20005C80124E124D1E6000244FF47A774A46B3
:101C300041461C711C739F6018465C731D6102F065
:101C4000FDFC0C4B4FF0010E05F527751C711C7344
:101C500083F80DE04A46414618461D619F601E60AC
:101C6000BDE8F84302F0EABCDCA7FF1FB460000047
:101C7000308DFF1FC8A7FF1F0C8DFF1F890F0000AD
:101C800010B5044601F01AFD204610BD38B50446D3
:101C9000C16372B60948E16B03F020FB054694F876
:101CA000380003F013FA0146284603F059F903F00F
:101CB00027FC80B2A08362B638BD00BF809618486A
:101CC0000368828B10B50446C2850BB11430984767
:101CD00094F82C308BB9636813B104F12400984751
:101CE000A36813B104F128009847A16A626A94F8C6
:101CF0002C3001310132A1626262032B31D0626962
:101D000094F844100133DBB20132012984F82C30FD
:101D1000626106D0062B00D010BD002384F82C3061
:101D200010BD1A49E28B0988606989B292B28A4271
:101D300088BF01F1FF318A1AA16992B28842A4F8E2
:101D400048201DD2A16961616069A1698842E18D65
:101D500012D98A42DED28A1AC2F317120A44E285E5
:101D6000D8E7626822B104F12400904794F82C303F
:101D7000626A01326262C2E7A1EB1212E285C9E730
:101D80006069A16901318842DCD8DDE7F2A7FF1F55
:101D900000B50F4B0F481B680F4A83B0019390F8B2
:101DA000823001991160022B02D003B05DF804FB70
:101DB0000A49C28D0B8801339BB20B8022B1013AD4
:101DC000C28503B05DF804FBFFF77AFFEDE700BFC3
:101DD00084A8FF1F00A8FF1FFCA7FF1FF2A7FF1F7B
:101DE00010B5084C084940F2BF32204601F01CFCF7
:101DF00021680022227121B1044B05480B441B11BC
:101E00001A5410BDF4A7FF1F911D0000008FFCBFE6
:101E100044E400E038B51549C1630023DC22012504
:101E2000C3830446436180F838508361028680F89A
:101E300039300364A0F84630A0F8483080F882308A
:101E400080F84430C367C3854362836280F82C30D6
:101E500080F82030A0F88030036043608360C36066
:101E60000361FFF713FF204638BD00BF0000F042BA
:101E7000FFF7B6BF10B50023114AC38382B0436198
:101E8000836180F8203012680192C2680199C3858D
:101E900004464362836280F82C30A0F880300164ED
:101EA00002B1904794F8443023B1012384F8823082
:101EB00002B010BD022384F8823002B010BD00BF12
:101EC00084A8FF1F38B590F84430012B12D00C467F
:101ED00005464FF07E51204603F0EAFA50B9064914
:101EE000204603F003FB28B921462846BDE83840C8
:101EF000FFF7CCBE38BD00BF0000964338B5074B96
:101F0000074A08490025802418461D601C7102F00C
:101F100095FB0548BDE83840FFF77CBFF4A7FF1FDD
:101F20000C8DFF1F811C000000A8FF1F01B441EAB7
:101F3000000313F003036FD1403A41D351F8043B3F
:101F400040F8043B51F8043B40F8043B51F8043B93
:101F500040F8043B51F8043B40F8043B51F8043B83
:101F600040F8043B51F8043B40F8043B51F8043B73
:101F700040F8043B51F8043B40F8043B51F8043B63
:101F800040F8043B51F8043B40F8043B51F8043B53
:101F900040F8043B51F8043B40F8043B51F8043B43
:101FA00040F8043B51F8043B40F8043B51F8043B33
:101FB00040F8043B51F8043B40F8043B403ABDD2A2
:101FC000303211D351F8043B40F8043B51F8043B44
:101FD00040F8043B51F8043B40F8043B51F8043B03
:101FE00040F8043B103AEDD20C3205D351F8043BD3
:101FF00040F8043B043AF9D204320AD0D2071CBF9D
:1020000011F8013B00F8013B03D30B7803704B78C8
:10201000437001BC704700BF0C2A4AD310F0030381
:1020200011D0C3F10403D21ADB071CBF11F8013B26
:1020300000F8013B07D311F8013B00F8013B11F810
:10204000013B00F8013B11F003033FF475AF30B4DE
:10205000043AC91AC3F1040C51F8044B022B19D0ED
:10206000032B0BD0240A51F8043B1D0644EA050457
:1020700040F8044B1C46043AF4D216E0240E51F802
:10208000043B1D0244EA050440F8044B1C46043A94
:10209000F4D20AE0240C51F8043B1D0444EA050480
:1020A00040F8044B1C46043AF4D20432B1EB0C0164
:1020B00030BC043AA0D3013A11F8013B00F8013BCF
:1020C000F9D20B7803704B7843708B78837001BC26
:1020D000704700BF08B5104C08E0236859050DD4BF
:1020E00023681A050FD42368DB0411D4236858032E
:1020F000F3D500F00BFB23685905F1D502F048F940
:1021000023681A05EFD500F009F82368DB04EDD544
:1021100000F004F8EAE700BF3480044008B5FFF798
:10212000D9FF00BF014B10221A80704700200540E4
:10213000704700BF094908B50B6830B16A461844BA
:10214000A2F58052904202D20860184608BD03F002
:10215000FDF90C2303604FF0FF3008BD6892FF1FAC
:10216000EFF3138070B9EFF310836BB9EFF30582CF
:102170005AB94FF48070EFF311832BB1984228BF06
:10218000184670474FF0FF3070470F2A01D81846A5
:10219000F1E7014BD05CEEE7F0E300E0704700BFF1
:1021A00010B40F4B53F8302092F880422CB1012329
:1021B00069B182F8803010BC704703EBC0035B68E4
:1021C0001A6841B922F002021A6010BC704782F806
:1021D000003110BC704742F003021A6010BC704717
:1021E000E46100001C4A02EBC00301295B6811D0C6
:1021F00004291BD052F83000002280F8802229B137
:10220000022920D0032922D01A6070474FF480722F
:102210001A60704752F830004FF4A27280F88012B2
:102220001A601A6822F020021A60704752F83010C3
:102230004FF4A272012081F880021A601A6842F0FD
:1022400020021A60704740F203121A6070474FF480
:1022500081721A60704700BFE4610000212848D8ED
:10226000F8B5042A44D8DFE802F0484B4E03450095
:102270004FF410262B4B03EBC0030D465C6821681E
:1022800011F4E06148D0284B284A2949C3F89C2121
:1022900004F140422748C3F8A411A2F59221264F29
:1022A000C3F8A0017C292548C3F8A871C3F8AC0184
:1022B0002CD9A2F594237C2B2AD9A2F596237C2B2A
:1022C00028D9A2F598237C2B29D9A2F59A227C2A19
:1022D00027D81B4872B6236823F4702343F080721A
:1022E000C4F384011643236040F82150266062B68F
:1022F000F8BD70474FF43026BCE74FF40026B9E72D
:102300004FF44026B6E74FF42026B3E70D48E1E747
:102310000D48DFE70D48DDE7FFF764FFB3E70C4842
:10232000D8E7F8BDE46100000082FF1FE18CFF1FC9
:10233000898CFF1FB58CFF1F5D8CFF1F318CFF1F29
:102340004493FF1F6C92FF1FA492FF1FF492FF1F84
:102350002493FF1F1A4B03EBC00010B4426802F134
:102360004043A3F592217C2923D9A3F594217C290C
:102370000DD9A3F596217C291FD9A3F598217C2995
:1023800019D9A3F59A237C2B11D80E4C00E00E4CE2
:1023900072B613680D4823F08773C2F3840123F4E7
:1023A000803343F08073136044F8210062B610BCA0
:1023B0007047074CECE7074CEAE7074CE8E700BF3B
:1023C000E46100004493FF1FA492FF1F9D210000C1
:1023D0006C92FF1F2493FF1FF492FF1F30B4054B34
:1023E000054D064C002210211A602A6020601960F9
:1023F00030BC704714D0034004D0034000D00340E9
:10240000704700BF212801D8FFF7CABE704700BF40
:10241000212801D8FFF7E6BE704700BF2DE9F84339
:10242000054672B6204F214B214A1B683C68126852
:1024300062B6520102D5322B88BF013495B3C3F581
:10244000EA331C4EDFF86490DFF86480BF334FF44A
:102450007A72A6FB031302FB04F404EB931472B626
:10246000D9F800103A68D8F800E062B6C1F5EA334E
:10247000BF33A6FB03031EF0806FC4EB93134FF42E
:102480007A7002D0322988BF013200FB0233B3F5E3
:102490007A7F04D3013D05D004F57A74DFE701F0BB
:1024A000ADFADCE7BDE8F88384A8FF1F18E000E080
:1024B00004ED00E089888888F8B52E4B2E49DFF8B6
:1024C000D4E0DFF8D4C02D4E2D4D2E4C2E4A2F4F88
:1024D0004FF4000018604FF0807018604FF00070EB
:1024E00018604FF0806018604FF0006018600020A6
:1024F000086028234EF6FF71CCF80010CEF80030AB
:10250000336013602B6023603B60B36293620922E7
:1025100045F8242CC4F8D80F05F57F65C7F8D41FFB
:1025200007F5FF2707F5FA67C6F8F83F2B6006F5B1
:10253000FF26C4F8D42F05F5FD2504F5FF243860E7
:1025400006F2F4761248316005F5FF6504F5FD6486
:102550002B602360026001F0C7FAFFF751FF1420DF
:10256000FFF75CFF00F00CFD4FF48C70BDE8F84005
:10257000FFF754BF08E100E00480034014800340EB
:10258000248003402C8003401C800340348003409F
:1025900000800B400C80034008800340431E042B46
:1025A00014D872B60A4951F8230068B170B4094CC6
:1025B000058834F81320466841F82360521B24F83C
:1025C000132062B670BC704762B670470020704737
:1025D000E4A8FF1F94AAFF1F013804280BD872B685
:1025E000074B53F8203043B100205B680130002BCB
:1025F000FBD162B67047002070471846F9E700BF6C
:102600003CA9FF1FF0B472B61A491B4E012311F802
:10261000014B194F9A00240742F0010505D556F8E1
:10262000324064B156F83520BAB10133062BEED1F1
:1026300062B6124B00221A70F0BC00F01BBD0F4CAA
:102640000F4D217807EB4313083001395860217092
:1026500047F8325062B6F0BC7047084A094913780F
:1026600007EBC5040830013B6060137047F8351074
:1026700062B6F0E7946300000080FF1F6DA9FF1FA2
:1026800088004000C8004000431E042B1DD81B4A90
:10269000400140F0100030B4104472B6184CE25CB7
:1026A000032A1BD8DFE802F00212151703220D8857
:1026B000E25410F0080F14BFC823882343EA0543EF
:1026C00008314160036062B630BC704708300222B6
:1026D000EDE70522EBE708300422E8E7094A52F863
:1026E000230038B1084A52F82300416042F8231011
:1026F00062B6E9E742F82310034AF7E70080FF1FBC
:102700007CA9FF1F3CA9FF1F50A9FF1F2DE9F04F17
:10271000DFF818B3DFF818A387B044E0AE4F4FEAF4
:10272000930807EBC809013ED9F8042003F0080319
:10273000F6B2A2F1080003F0FF04002B40F005817F
:1027400057F838301B0C99B222F8081C002B00F007
:10275000F380A24B22F8064C42F8044C53F8262092
:10276000002A00F06E819E4D55F8263058609D4C31
:1027700045F8260034F81630194424F8161000F0F5
:1027800059FC002800F05681974A984B19F0080F21
:1027900000F1080018BF1346C9F8040047F83830A4
:1027A00008238BF800309BF80040E4B261071DD588
:1027B0008F4B1B78BBB18F490A7802F0FF032AB117
:1027C000013BDBB20B70002B00F0B4838A490A781E
:1027D00002F0FF032AB1013BDBB20B70002B00F0CB
:1027E000F88000F06DFC04238BF8003004F008033F
:1027F00003F0FF02002B00F0D5809AF80030DBB226
:102800001E098BD19C08DFF8D09159F8342009EBD0
:10281000C401C2F38302013A49680C2A7DD8DFE87B
:1028200002F080807C7C7C7C7C7C447C7C7C07000F
:102830000868724D6C4F4A68714B49F8347081B228
:10284000704E6A6040F2816400222860A1424FF01D
:102850000100C9F8102001931A60C9F818203070DF
:1028600000F2F380B1F5D06F80F03383B1F5817F52
:1028700000F0CE8200F24C81802900F0248282296F
:1028800040F08D82A98801F07F01052900F287823E
:102890005D4F5E4C89000F44227062703A78970752
:1028A00040F132832070022011E2554B01931A68E7
:1028B0004AB3574B5749534E18880C7837784028FD
:1028C000054684F0010E28BF402544F00204002F85
:1028D00081F800E0A0EB050009EBC40E0CBF8821D5
:1028E000C82180B287F0010741EA0541CEF80420F3
:1028F000188037702A4449F8341010B9402D18BF99
:102900000022019B1A603D4B1A88B2F5A06F04D1DA
:1029100000219A785970404B1A70404A0123137075
:102920003EE7364A158842F22100854200F05A817E
:102930002D4A49F83420F0E72B4A2C4B19F0080FA8
:1029400018BF134647F838302AE700F093FB344AA3
:10295000344952F82630002B00F0348158688C5DE1
:1029600042F8260003F10802C9F80420032C05D818
:10297000DFE804F0120F150204228A551A8819F0B4
:10298000080F0CBF8823C82343EA024347F83830B6
:1029900006E702228A55F1E703228A55EEE705226F
:1029A0008A55EBE7E00700F15781210600F18181AC
:1029B000A20706D51C4A1D4913780220DBB213700A
:1029C0000870E30602D5194B10221A7007B0BDE853
:1029D000F08F00F0D1FC04E70080FF1FE4A8FF1F88
:1029E0008CA8FF1F94AAFF1FC80040008800400069
:1029F00078A9FF1FF9A8FF1F88A9FF1F64A9FF1F5F
:102A000088A8FF1FF8A8FF1FC020074070A9FF1F5C
:102A1000A0A8FF1F6CA9FF1F982007409420074023
:102A20003CA9FF1F7CA9FF1F88200740802007408A
:102A300090200740B64A47F83800137801331370E6
:102A4000AEE643F82600B34D91E642F22104A142DE
:102A500000F0B48000F2ED80B1F5086F00F0538112
:102A6000B1F5106F40F09B81AB4AA9781170AB4D66
:102A7000042402E00134182C0CD059F834301A0622
:102A8000F8D505EBC40301345868083800F0F2FAB1
:102A9000182CF2D1A249A34BA34A0291A3499D4D00
:102AA000A34C0596039504944FF000080E46154676
:102AB0001C46206828B1476800F0DCFA3846002F31
:102AC000F9D100232360039B28681A46002342F8AB
:102AD000283028B1476800F0CDFA3846002FF9D1E8
:102AE00000222A60029A33781146002241F8042B12
:102AF000049A0291023B4FF0000122F81810032BB8
:102B000000F29A81DFE813F0C7019501C701950132
:102B100040F20232914240F03781A98801F07F01F2
:102B2000052900F23C816A88002A40F03881814CF6
:102B300089000C448046217841F002012170002078
:102B400002908446864604467B490D7845F002078C
:102B500009EBC703B8F1000F5C600CBF8824C824E0
:102B600044EA0C0385F0010449F8373032700C70E8
:102B70006A4F724BDFF8C0C1002840F01781BEF1E8
:102B8000400F1BD144F0020409EBC403029FDFF89D
:102B90008CE15F60002A40F01E81020442F088024E
:102BA00086F800800D7007444EF834203B464028DC
:102BB00004D10020624A019910800B60614A012310
:102BC0001370AAE68B5D032B00F21B8101A252F861
:102BD00023F000BFA1270000A1270000A72C0000C0
:102BE000AD2C0000928862B9574ACD1D11F8013B07
:102BF00002F8013F8D42F9D1544A1268862A00F04A
:102C0000BF804D494D4E0878327840F0020580F083
:102C10000100087009EBC501002A4FF00000486070
:102C200082F001020CBF8821C82149F835103270AA
:102C30007EE642F22124A14240F0AD80A98800291D
:102C400040F06081424F434A434C3F68AD78176083
:102C500080460A46257072E73A49304B3F48364E67
:102C6000DFF8D0C03E4DDFF810E13E4F02240C707B
:102C70003D4C18605C6098603C48D8601A619A616D
:102C80000D2332703A4C8CF800303A4EFF232B70F3
:102C900001209F258EF800303A703370257008703F
:102CA00007B0BDE8F08F00238B5579E501238B55E4
:102CB00076E52049304B80220D2008701A70A2075B
:102CC0007FF57FAE76E62D4C022022706270EA8896
:102CD000824280F0308118490D78402A45F0020781
:102CE000964609EBC70028BF4FF0400E04EB0E03D9
:102CF00044600293CEEB02004FEA0E4C4FF0010805
:102D00000022C8242CE7044A1C4C12782270DEE70B
:102D10006DA9FF1F8CA8FF1F78A9FF1F0080FF1F50
:102D200050A9FF1FE4A8FF1F3CA9FF1F7CA9FF1F9C
:102D300094AAFF1FC02007406CA9FF1FF8A8FF1F1F
:102D4000A0A8FF1F942007409FAAFF1FA0AAFF1F53
:102D500084A8FF1FA8AAFF1F98A9FF1F8800400092
:102D60008820074098200740A4A8FF1FFCA8FF1F49
:102D7000842007408C2007408020074070A9FF1F57
:102D8000754A0F2111703CE7B1F5A06F07D1002201
:102D90004FF00108D3E642F221329142F7D06F4B57
:102DA0000F221A706E4A01231370B6E540287FF691
:102DB000E9AE44F0020407EBC401029E4E60AAB1E2
:102DC00083F80080674A8CF800503346403840331F
:102DD00047F83420EEE6029B86F80080020442F0B9
:102DE000C8020D7003444EF83420E0E683F80080FA
:102DF000029B5D4A8CF800504038403347F834203D
:102E0000D8E619F0080F0CBF022303238B55C7E443
:102E1000A98801F07F010529C1D86A88002ABED19E
:102E20004E4C89000C448046217821F0020121702B
:102E300085E64FF00103337008F10108B8F1050F82
:102E400004F1040405F1040506F101067FF431AE36
:102E5000464B059E464D474F002119704FF0010823
:102E600017F8013B05F8043B1B0718D44FEA880408
:102E700044F0020244F00304002349F8323049F8D8
:102E800034303D4B9D4208F10108E9D196F80080AD
:102E900088F0010253E64FF000033370CCE700F0F6
:102EA000C9F800283CD009EB48134FEA88040830E1
:102EB00058602D4B49F8343000F0BCF830B344F082
:102EC000010309EBC30208305060264A49F8332059
:102ED000CEE72A4A5468002C3FF461AF6888AF8877
:102EE00004E00C325468002C3FF459AF138883423D
:102EF000F7D15388BB42F4D1000A03280CBF2078D5
:102F00001089E4E680461AE60220E0E6174B44F01A
:102F100001021B7849F83200144A01331370A7E705
:102F2000124B124A1B784FEA8804013349F83400E7
:102F30001370C1E700BE4028864628BF4FF0400E00
:102F400004EB0E03CEEB00004FEA0E4C029300227E
:102F50004FF00108F8E500BFF9A8FF1FC0200740A7
:102F600094200740C8004000880040006DA9FF1F62
:102F7000C420074094630000D82007409C630000F1
:102F80002DE9F04101F0EEFA00231F491A4601EB4A
:102F9000C30041F833200133182B42604FF0000486
:102FA0001948F4D1194A1A4F13681A491A4D1B4E81
:102FB000DFF874C0DFF874E0DFF8748043F4802336
:102FC0001360C0F307233B70C0F307430B70000E80
:102FD000FF2302F528322870D4328CF80030104DCF
:102FE0008EF800300F483370012388F800307026C7
:102FF00081F850404FF40074102107F8183C2E70EF
:1030000004601170BDE8F0810080FF1F348004402F
:103010009C200740B0200740B42007401020074004
:1030200049E400E008E100E08020074088200740F4
:103030009420074072B60D480268B2FA82F31D2B45
:1030400010DC4FF00041D94022EA0102026062B672
:10305000074803EBC303DB00C2180021C150104630
:103060005160704762B60020704700BF4C93FF1F4D
:10307000BC83FF1F0D4B0E4AC31AA2FB03231B097F
:103080001D2B0CD80B4A127852B972B60A484FF071
:103090000041026821FA03F31A43026062B67047E6
:1030A000064A1278002AF0D0FFF7ACBABC83FF1FA3
:1030B000398EE3386DA9FF1F4C93FF1F78A9FF1FBE
:1030C00038B5084B1C7824B9074D296809B14B88DD
:1030D00003B938BD9B000B800420FFF7D5FA2C60A4
:1030E00038BD00BF81A9FF1F84A9FF1F38B50F4D50
:1030F000286878B143880288C118013393420C7A5A
:1031000002D24380204638BDFFF7B4FF002320469B
:103110002B6038BD064B1B782BB10220FFF73EFA1F
:1031200028600028E6D14FF0FF3038BD94A9FF1F7A
:1031300078A9FF1F10B5094C206818B143881844BE
:10314000007A10BD064B1B782BB10220FFF726FA40
:1031500020600028F2D14FF0FF3010BD94A9FF1F6E
:1031600078A9FF1F044B054A1B6850881BB11A88B9
:103170005B88D31A1844704794A9FF1F94AAFF1FB5
:103180000B4B1B789BB110B50A4C206848B1FFF778
:1031900071FF002302202360FFF700FA30B1FFF730
:1031A00069FF0220FFF7FAF90028F8D110BD704737
:1031B00078A9FF1F94A9FF1F2DE9F04FDFF8F890C1
:1031C00083B0012289F80020019169B3DFF8EC8017
:1031D000364F019E8346D8F80000B0B3344D448882
:1031E000C4F14001B14228BF314604EB010E002278
:1031F0001FFA8EFE2A70761AA0F802E000F108028B
:1032000051B1013C224459441BF8014B02F8014FD3
:103210008B45F9D1B0F802E0BEF13F0F0BD8254A3B
:1032200005211170002ED6D10198002389F80030B5
:1032300003B0BDE8F08F4022028001460320FFF773
:1032400023FA0022C8F80020E9E73A782AB3184D9B
:103250004DF2E9044FF0010A07E0013C16D02A784C
:10326000A2B900F0CBFB3A78BAB10320FFF7B4F96A
:103270000728F2D889F800A0FFF7DCFEC8F80000A4
:103280000028ACD10C4B013C1870E8D101234FF061
:10329000FF302B7003B0BDE8F08F00234FF0FF30FC
:1032A00089F8003003B0BDE8F08F00BF78A9FF1F98
:1032B00090A9FF1F88A9FF1F89A9FF1F8CA9FF1FC5
:1032C00000B583B002AB012103F8010D1846FFF7EA
:1032D00073FF03B05DF804FB38B50E4D0E4C286843
:1032E0000123237028B1408800232370C0F14000DF
:1032F00038BD0A4B1B7813B90020207038BD03205D
:10330000FFF76AF90728F7D8FFF794FE286000282E
:10331000E9D1F1E78CA9FF1F89A9FF1F78A9FF1F39
:10332000F8B5114B1B788BB1104E114D3468012745
:103330002F7064B10F4A63880027177021462380DD
:103340000320FFF7A1F9376000232B70F8BDFFF7CA
:1033500071FE084B28B1014603201C70FFF794F959
:10336000F2E71F70F0E700BF78A9FF1F8CA9FF1FCD
:1033700089A9FF1F88A9FF1F38B50E4B1B7873B9A9
:103380000D4C216861B103F0FF054B880B800320D1
:10339000FFF77AF9256038BD084B01221A7038BD55
:1033A000FFF748FE0028F7D00146BDE8384003206B
:1033B000FFF76AB989A9FF1F8CA9FF1F88A9FF1F02
:1033C000F0B572B699B902688AB103790F2B0ED89D
:1033D000274C218841FA03F5ED070AD503F1007364
:1033E00003F59063B2EB431F03D162B6F0BD204CEE
:1033F0002188002341FA03F212F0010207D00133C1
:10340000102BF7D162B6002203710260F0BD0125D6
:103410009D402943218062B6164E174D174FDFF8A5
:1034200064E0D9B20171346844F0020434602C685D
:1034300044F002042C60A6F580268224A5F58025A0
:1034400003F100733C6003F59063223E243D0C4C75
:103450008EF800105B0131702970217003601A60D2
:103460005A609A60DA601A615A619A61DA61F0BD55
:103470009AA9FF1F408004403C8004400080004027
:103480001F8000401A80004003790F2B11D8094A91
:1034900010B4137072B6084904790A880123A34056
:1034A00022EA03030B8062B61022002310BC0271D3
:1034B000036070471A8000409AA9FF1F70B5EFF3B0
:1034C000108272B60C4C206880B10C4E0025436906
:1034D000236073B19D6102B962B6457783689847EE
:1034E000EFF3108272B620680028F0D102B962B6FC
:1034F00070BD3360EFE700BF9CA9FF1FA0A9FF1FAD
:10350000FFF7DCBF024A136801331360704700BF46
:1035100084A8FF1F0368C9B21B6818470368C9B2B3
:103520001B6818470368C9B21B6818470368C9B20B
:103530001B681847084B4A08134410B50446B3FBF0
:10354000F1F000F0D3FB054B1B7803B110BD204612
:10355000BDE8104001F048B8001C4E0E7493FF1FE8
:1035600008B5084600F0B6FD012008BD08B50846BC
:1035700000F0B0FD012008BD38B508460D4602F048
:103580003FFB04460146284600F0AEFD204638BD0C
:1035900010B508461446114600F0A6FD204610BDA1
:1035A0000846114600F0D0BF0846114600F0B2BFF1
:1035B00000F0C8BE08B5084600F064FD003018BF32
:1035C000012008BD08B5084600F03AFD003018BFDC
:1035D000012008BD0846114600F0CEBC084600F0A8
:1035E00005BD00BF084600F0ABBC00BF00F046BC04
:1035F00010B5064B144603EB5100B0FBF1F000F0A0
:1036000075FB2046BDE8104000F0E6BB001C4E0EE6
:1036100000F072BE00F030BE00F01ABE00F0F4BD43
:1036200000F0FEBD704700BF0368F0B4FBB1002599
:1036300001249D60DC601B4C1A601C44241104F1C1
:1036400044056A11032692009E60174F0679174BB6
:1036500047F8241002F1604202F5614205F01F05AF
:10366000012000FA05F5E6541560F0BC7047104CD7
:10367000236843F40003236000BF0E4B0E4DA4F5F6
:103680008734A4F59E7401261E60234604609C685E
:10369000002CD0D01033AB420360F8D1002303607C
:1036A0001846E2E7008FFCBF6493FF1F44E400E08C
:1036B0003C80044000700340407103400168A9B1A0
:1036C0000B4BF0B40B441B110A4E0B4F0B4D46F83D
:1036D000237003F1440202F01F0401235211A3409E
:1036E000002445F822308C600460F0BC704700BFB5
:1036F000008FFCBF6493FF1F2536000080E100E0CF
:10370000024A034B012111601B6818470C710340EA
:103710006493FF1F024A034B012111605B68184745
:103720001C7103406493FF1F024A034B0121116087
:103730009B6818472C7103406493FF1F024A034B98
:1037400001211160DB6818473C7103406493FF1F3F
:1037500030B5044683B002252A4601A80549FEF784
:10376000E5FB23682A4601A95B682046984703B019
:1037700030BD00BF5C630000F0B507468BB0002A87
:1037800033D0012A08BF0A2251B3212400E0F4B249
:10379000B1FBF2F502FB1511C8B2092900F13001A5
:1037A00098BFC8B20AA988BF3730214488BFC0B2C9
:1037B00001F8240C661E2946002DE8D133B1013CE6
:1037C000E4B20AAB23442D2203F8242C3B6801AA5F
:1037D00011195B683846C4F1220298470BB0F0BD5E
:1037E00030228DF825202124E8E70368C9B21B6840
:1037F00098470BB0F0BD00BF0029BABF49422D2346
:1038000000230A22FFF7B8BF2DE9F04385B08046B8
:103810001946104616461F469DF8305001F066FBCB
:10382000002840F0B18027F00044304621464FF098
:10383000FF32594B01F05AFB98B9304621464FF000
:10384000FF32554B01F034FB58B9D8F800305349DA
:103850005B684046032298478146484605B0BDE86C
:10386000F083304639464FF060424D4B01F034FB57
:10387000002870D1304639464FF06042494B01F084
:103880000DFB002867D1304639460022002301F0A5
:1038900005FB002863D18146002D65D0424B0024F2
:1038A0000022104619463AA3D3E9002301F084F818
:1038B00001340B46E1B28D420246F2D83046394619
:1038C00000F0C8FE0F46064601F026FB044600F055
:1038D000FDFF02460B463046394600F0B9FE4B4626
:1038E00006460F460A2221464046FFF745FF0F2DA8
:1038F00028BF0F2501352E238146EDB28DF800300B
:1039000001240022294B3046394601F055F80F4674
:10391000064601F001FB04AB2344C0B200F13002C3
:1039200003F8102C00F0E2FF02460B463046394601
:1039300000F08EFE0134E4B2AC4206460F46E0D100
:10394000D8F8003022465B684046694698474846AA
:1039500005B0BDE8F083D8F80030154978E707F1E5
:1039600000474FF0010997E700220F4B30463946D8
:1039700000F070FE01F0D0FA4B4601460A224046A4
:10398000FFF7FAFE814668E7D8F8003009495FE79B
:10399000000000A09999B93FFFFFEF7F6863000026
:1039A000FFFFEF41FFFFEFC10000E03F00002440B8
:1039B000646300006063000008B5FCF799FDFDF743
:1039C0000FF900F01BF8FAE701F0EEBD01F0F4BDCD
:1039D000704700BFFFF7D4BBFFF7ACBBFFF786BB58
:1039E000FFF7C0BBFFF79CBCFFF776BC084611464B
:1039F000FFF7E2BB0846FFF763BC00BF2DE9F843C1
:103A0000314E337893B1314F3A787AB90122D907E0
:103A10003A7036D49A0719D400225B073A7005D55C
:103A20002B4B1A6812B1EFF305820AB1BDE8F88397
:103A3000EFF3108172B6186818B1264C2278002A6C
:103A40002ED00029F2D162B6BDE8F883DFF890806D
:103A500098F80020002ADFD0DFF88890002405E0E5
:103A6000013498F80030E4B2A34212D959F8245036
:103A70002B6828461B6998470028F1D02B69984786
:103A8000EEE7FFF76FFBC8B9134B1B781BB9337810
:103A9000C0E73378C0E7337803F0FE033370B9E74B
:103AA00045691D60012323705DB1AA6101B962B649
:103AB00000254577836898472570B7E700F0BCFD7F
:103AC000E2E7064B1D60F1E78893FF1FADA9FF1FDA
:103AD000A8A9FF1FACA9FF1FA694FF1FA4A9FF1F41
:103AE0005CAAFF1F50AAFF1F30B42948294A2A4B5D
:103AF0002A4D6024E121047011701B78284C082B9A
:103B000030D00A2B2748284937D00C2B0CBF352240
:103B10005D2212232A60236002600B60234B24493C
:103B20001B78244ABBB101230B601360224B23494D
:103B30001B78234A012B26D9042B0FD9082B1ED919
:103B4000102B94BF862387230B6013601D4B01222B
:103B50001A7030BC70470B601360E7E784230B607A
:103B60001360F3E700F58E200F490830212213235C
:103B70002A60236002600B60D0E73922F7E78523D3
:103B80000B601360E2E780230B601360DEE700BF89
:103B900000400740014007408993FF1F08B00340E1
:103BA0000CB0034008B00B400CB00B40AFA9FF1F96
:103BB00020B0034020B00B408A93FF1F24B0034085
:103BC00024B00B40AEA9FF1FF0B44D1E2E460024BA
:103BD00000E00134B0FBF2F302FB1300092800F10E
:103BE00030078ABF3730F8B2C0B206F8010F184666
:103BF000002BEED10A1953704CB1107815F8016FF3
:103C000028700133E01A834202F80169F5DB0846A7
:103C1000F0BC70472DE9F84F2C4B1B6807460BB1E1
:103C200001221A70DFF8BC90DFF8BC8099F80040E0
:103C3000D8F80030264D274E01349C422ABF4FF061
:103C4000000A5FFA84FA5446AB462B78A3421CD193
:103C5000FEF786FA40282BDC33791B06F5D59BF856
:103C60000030D8F80010DBB25A1C8A4225D23F2A15
:103C700029D919493F3B0968CB5CD1B2DBB2DBB231
:103C8000F37129702B78A342E2D03F2C8ABF124BEC
:103C9000124B1B68124988BF403CFFB21F550D4BA9
:103CA0000120BC22087089F800A0DA70BDE8F88F06
:103CB000FF28CADDFFF7A2FEC7E700210A46074B2F
:103CC0009B5CDBB2DBE7D1B2F9E700BF48AAFF1F7C
:103CD00041AAFF1F00A00640FCA9FF1FB8A9FF1FB3
:103CE00040AAFF1F4CAAFF1F9893FF1F2B4A2C4985
:103CF0001368F0B543F4806313600A78294F2A4EA5
:103D00002A4D2B4C2B4900233B7033702B702370B2
:103D10000B70002A3DD0152A21D0274B1B78012B90
:103D200025D0052B30D01F2827D80020024601259A
:103D3000224B234C1A7023495D7004224FF0020E6F
:103D400088273C26402598729A704FF4005083F8DB
:103D500013E05A751F74DE7025700860F0BD1A4BB1
:103D600040F213321A60144B1B78012BD9D1174B38
:103D70004FF451721F281A60D7D9C0F34432C0F3F0
:103D8000471500F01F00D3E7114B4FF451721A6032
:103D9000C9E7104B40F213321A60BEE7348004408A
:103DA000F8A9FF1FB4A9FF1FB5A9FF1F4CAAFF1F49
:103DB00041AAFF1F40AAFF1F9C93FF1F00A00640BF
:103DC0002DE400E004E100E018C0044044A00440F9
:103DD0001CC0044040A00440234B23499B7803F0BF
:103DE000EC0200F003031343420700F00F0248BF48
:103DF00043F01003042A8B702ED01B4B1A4A5B79B8
:103E0000C10603F0EF0348BF43F0100353719379E9
:103E1000820603F0EF03144A48BF43F0100310F486
:103E20000070937105D1114B114A1968914218D055
:103E3000704730B491780F4D0F4B0C480C4C41F04B
:103E4000A00191702A78046003EBC20340F247326C
:103E50005B6830BC1A6070478B7943F040038B710C
:103E6000CBE71860704700BF00A0064048AAFF1FBC
:103E7000D400D4429C93FF1FE4610000234B1B68D5
:103E80005B0541D510B5224C237823B1FFF7B6FD71
:103E90002378002BFAD11F481F4A204B4FF40054BF
:103EA00000210460D1701B78FBB1152B03D11C4B92
:103EB00040F203121A601B4B1B7803F07F03012BA7
:103EC0001DD0052B03D1184B40F203121A60174A7C
:103ED000114B1748174912681C79DB7900230370CE
:103EE0000B700AB10123137010BD134B40F2031283
:103EF0001A600C4B1B7803F07F03012BE1D10F4BB1
:103F000040F203121A60E2E7704700BF34800440B9
:103F100040AAFF1F84E100E000A00640F8A9FF1FAF
:103F200018C004409C93FF1F1CC00440B0A9FF1F91
:103F3000B4A9FF1FB5A9FF1F40A0044044A004403E
:103F40000A4A38B50546137803F0FF04002BFAD16E
:103F500001212846FEF75CFA21462846FEF752FA70
:103F6000034A044B52F835201A6038BD40AAFF1F9F
:103F7000E461000048AAFF1F09B140F08000174A21
:103F80001378984216D010B4154C246864050FD5E8
:103F900003F07F03012B1CD0052B11D0002900F06A
:103FA0007F0114BF6023442301290DD0052902D0CD
:103FB000107010BC70470B4943F440730B60F7E777
:103FC000084B00241C60E9E7074943F440730B6089
:103FD000EEE7054B00241C60E0E700BF9C93FF1F49
:103FE000348004401CC0044044A00440104B1A78A4
:103FF00082420AD00F490968490505D5AAB1152A98
:1040000009D068B1152801D0187070470A4A40F2EB
:1040100013311160F8E7084A002111600028F1D13E
:10402000064A40F213311160EEE704490A60E8E7FE
:10403000F8A9FF1F3480044018C0044040A0044089
:104040000D4B1B6813F4806305D0212805D90B4B59
:1040500000201860704718467047094B10B5074C90
:1040600053F8303023600121FEF7D2F92368002293
:104070001A70012010BD00BF34800440B0A9FF1F9A
:10408000E46100000F4B1B6813F4806308D0122812
:1040900008D0142811D00C4A537B03F0FE0353734D
:1040A00000207047094B40F202321A60064A537BE7
:1040B00043F00103537301207047054B40F2023275
:1040C0001A60F3E73480044000A006400CA00440CE
:1040D00014C00440034B1B685B0501D5FFF79ABD74
:1040E000704700BF348004403E4B1B685A0575D5AD
:1040F0002DE9F04F3C4B1B6883B00BB101221A70C5
:1041000043189842019363D2DFF8F080DFF8F09013
:10411000364CDFF8F0B0364F451C18E02278924557
:104120005FFA8AF629D0BAF13F0F1ED9DBF80020DA
:1041300015F8011CAAF14003D1542A462D49012348
:104140000B701D44019B88F800609A4240D298F899
:104150000030D9F8002003F1010A9245DED323781C
:1041600003F0FF0643B10026B246234B15F8012C9D
:1041700003F80A202A46E1E7B246BC22FA7005E0BD
:104180003A7913060BD422785245CCD1FDF7E8FFDB
:104190004028F5DDFF28F6DDFFF730FCF3E7227855
:1041A000D9F80010D2B2501C88420BD23F2816D941
:1041B000DBF800103F3A8A5CC1B2D2B2D2B2FA71D7
:1041C0002170E0E7002108460B4B1A5CD2B2F5E7FC
:1041D000074BBC22DA7003B0BDE8F08F7047C1B264
:1041E000F2E700BF3480044048AAFF1F41AAFF1F26
:1041F00000A0064040AAFF1FB8A9FF1F4CAAFF1F3E
:104200009893FF1FFCA9FF1F10B5044C237823B11E
:10421000FFF7F4FB2378002BFAD110BD40AAFF1F53
:10422000084B094A1B781078DBB2C0B2834202D235
:104230000138C01A7047054A1268013A1044C01A82
:10424000704700BF4CAAFF1F41AAFF1F9893FF1F92
:10425000064A074B10781B78C0B2DBB2984202D2F4
:10426000044A12681044C01A704700BFB4A9FF1F67
:10427000B5A9FF1F8C93FF1F70B4184B184D1B7806
:104280002A78D9B2D2B2914222D0164B1C68531C64
:10429000A34214D3002213461348C05CC0B2134E8D
:1042A0002A7032684AB1994238BF0919CB1A1049AD
:1042B00009688B4201D80023137070BC70473F2BF4
:1042C00009D90C483F3A0068805CDAB2C0B2E6E730
:1042D0004FF0FF30F1E7DAB2DEE700BFB4A9FF1F0D
:1042E000B5A9FF1F8C93FF1F00AAFF1FB0A9FF1FD6
:1042F0009093FF1F44AAFF1F0D4A0E4B12781B78A4
:10430000DBB29A4211D00C4A11685A1C8A4204D37B
:1043100000220A4B985CC0B270473F2AF9D9084A7C
:104320003F3B1268D05CC0B270474FF0FF3070471F
:10433000B4A9FF1FB5A9FF1F8C93FF1F00AAFF1F81
:1043400044AAFF1F0D4B1B685B0516D530B40C4B00
:104350000C4CDA780C480D4902F0CB024025DA709B
:104360005D74DA7842F03402DA7023780268DBB2E6
:104370000B700AB10023137030BC704734800440C6
:1043800000A00640B5A9FF1FB0A9FF1FB4A9FF1FD9
:104390002DE9F041504A137913F0300F44D072B632
:1043A000937D03F0FF01002B57D062B6DFF85881F0
:1043B0004A4B4B4D98F800004A4C1B782F68D4F8B4
:1043C00000C0DFF848E11546C0B2DEB20CE096420C
:1043D000A0F13F0404D03F2A7CD90CF804301046E9
:1043E0004A1E12F0FF010DD0EB79421CBA42DBB23B
:1043F000EDD3002EF4D000204A1E12F0FF010EF87B
:104400000030F1D1384B1A68C3B288F800305AB185
:104410003649B04238BFBB1B09682CBF831B1B1831
:104420008B4224BF012313702B48C178C9B20D06FB
:1044300018D44A060FD5284B1B795B060BD52C4B9D
:104440002C491B6800220A7003B11A70224B3C22CF
:10445000DA70BDE8F081BDE8F0814023D179537472
:1044600062B6E1E703791C06E3D5234BDFF8A0E051
:104470001D789EF80030EDB2DBB29D421ED01F4C7D
:104480001F4A2668D2F800C01E4F0DE03F2C02796B
:104490001ED91CF803202346D2B2D2B2C271027DCB
:1044A000072A0BD89D4209D05C1CA642A3F13F030A
:1044B000ECD803790023FA5CD2B2EEE7DBB2064A0D
:1044C0008EF800301379180644BF7C23D370B0E710
:1044D0002346F0E710468FE700A00640B5A9FF1F6E
:1044E0008C93FF1F44AAFF1FB0A9FF1F9493FF1FC7
:1044F00048AAFF1F40AAFF1F4CAAFF1F9893FF1F47
:10450000FCA9FF1FB8A9FF1FB4A9FF1F00AAFF1F26
:1045100041AAFF1F084B1860084B50B101F140023F
:104520001A60074A074B01F11A0028311060196020
:10453000704740221A60F4E744AAFF1F8C93FF1FC4
:104540009093FF1F9493FF1F044B1860044B10B10E
:1045500040311960704740221A607047FCA9FF1F64
:104560009893FF1F70B584B072B6194B194D1A4855
:10457000702241260F2480211A702E701A46047072
:10458000197013781B06FCD5144B186862B6144BCF
:10459000144C984298BF00EB800001A998BF4000DE
:1045A0000A22FFF711FB01A92046002311F8012B75
:1045B00001333AB10A2B20F8022FF7D116232370CA
:1045C00004B070BD5B00DBB2237004B070BD00BFEF
:1045D00000000240070002400600024008000240BE
:1045E0007F9698009094FF1F70B4104E104D347851
:1045F000CCB12B68984214D02A46002303E052F82D
:10460000041F81420DD00133DBB2A342F7D15A1C03
:10461000D2B2084945F823000B78327043F0020308
:104620000B7070BC704723460122F2E75CAAFF1FA3
:1046300050AAFF1F8893FF1F704700BF0B4601461B
:10464000184600F07DBF00BF81F0004102E000BFCE
:1046500083F0004330B54FEA41044FEA430594EA42
:10466000050F08BF90EA020F1FBF54EA000C55EA7D
:10467000020C7FEA645C7FEA655C00F0E2804FEA4E
:104680005454D4EB5555B8BF6D420CDD2C4480EA30
:10469000020281EA030382EA000083EA010180EA60
:1046A000020281EA0303362D88BF30BD11F0004FAE
:1046B0004FEA01314FF4801C4CEA113102D04042E4
:1046C00061EB410113F0004F4FEA03334CEA13331F
:1046D00002D0524263EB430394EA050F00F0A78037
:1046E000A4F10104D5F1200E0DDB02FA0EFC22FA32
:1046F00005F2801841F1000103FA0EF2801843FA26
:1047000005F359410EE0A5F120050EF1200E012A16
:1047100003FA0EFC28BF4CF0020C43FA05F3C01854
:1047200051EBE37101F0004507D54FF0000EDCF1CD
:10473000000C7EEB00006EEB0101B1F5801F1BD376
:10474000B1F5001F0CD349085FEA30004FEA3C0C7A
:1047500004F101044FEA445212F5800F80F09A8070
:10476000BCF1004F08BF5FEA500C50F1000041EB74
:10477000045141EA050130BD5FEA4C0C404141EB78
:10478000010111F4801FA4F10104E9D191F0000F9F
:1047900004BF01460020B1FA81F308BF2033A3F122
:1047A0000B03B3F120020CDA0C3208DD02F1140C19
:1047B000C2F10C0201FA0CF021FA02F10CE002F154
:1047C0001402D8BFC2F1200C01FA02F120FA0CFC4D
:1047D000DCBF41EA0C019040E41AA2BF01EB045196
:1047E000294330BD6FEA04041F3C1CDA0C340EDC94
:1047F00004F11404C4F1200220FA04F001FA02F3D7
:1048000040EA030021FA04F345EA030130BDC4F194
:104810000C04C4F1200220FA02F001FA04F340EA89
:104820000300294630BD21FA04F0294630BD94F03A
:10483000000F83F4801306BF81F480110134013D21
:104840004EE77FEA645C18BF7FEA655C29D094EA92
:10485000050F08BF90EA020F05D054EA000C04BF10
:104860001946104630BD91EA030F1EBF00210020FB
:1048700030BD5FEA545C05D14000494128BF41F09A
:10488000004130BD14F580043CBF01F5801130BDFE
:1048900001F0004545F0FE4141F470014FF0000089
:1048A00030BD7FEA645C1ABF194610467FEA655C3A
:1048B0001CBF0B46024650EA013406BF52EA0335DC
:1048C00091EA030F41F4002130BD00BF90F0000FCA
:1048D00004BF0021704730B54FF4806404F1320406
:1048E0004FF000054FF0000150E700BF90F0000FBF
:1048F00004BF0021704730B54FF4806404F13204E6
:1049000010F0004548BF40424FF000013EE700BFB5
:1049100042004FEAE2014FEA31014FEA02701FBF45
:1049200012F07F4393F07F4F81F06051704792F017
:10493000000F14BF93F07F4F704730B54FF4607491
:1049400001F0004521F0004120E700BF50EA0102DC
:1049500008BF704730B54FF000050AE050EA010289
:1049600008BF704730B511F0004502D5404261EBF9
:1049700041014FF4806404F132045FEA915C3FF43A
:10498000DCAE4FF003025FEADC0C18BF03325FEAD3
:10499000DC0C18BF033202EBDC02C2F1200300FA88
:1049A00003FC20FA02F001FA03FE40EA0E0021FAAD
:1049B00002F11444C1E600BF70B54FF0FF0C4CF497
:1049C000E06C1CEA11541DBF1CEA135594EA0C0F4D
:1049D00095EA0C0F00F0DEF82C4481EA030621EA88
:1049E0004C5123EA4C5350EA013518BF52EA0335C3
:1049F00041F4801143F4801338D0A0FB02CE4FF075
:104A00000005E1FB02E506F00042E0FB03E54FF0A4
:104A10000006E1FB03569CF0000F18BF4EF0010E9C
:104A2000A4F1FF04B6F5007F64F5407404D25FEA98
:104A30004E0E6D4146EB060642EAC62141EA55514B
:104A40004FEAC52040EA5E504FEACE2EB4F1FD0C8D
:104A500088BFBCF5E06F1ED8BEF1004F08BF5FEA0B
:104A6000500E50F1000041EB045170BD06F00046BD
:104A700046EA010140EA020081EA0301B4EB5C046A
:104A8000C2BFD4EB0C0541EA045170BD41F4801162
:104A90004FF0000E013C00F3AB8014F1360FDEBF87
:104AA000002001F0004170BDC4F10004203C35DA63
:104AB0000C341BDC04F11404C4F1200500FA05F3E6
:104AC00020FA04F001FA05F240EA020001F0004287
:104AD00021F0004110EBD37021FA04F642EB0601FD
:104AE0005EEA430E08BF20EAD37070BDC4F10C0427
:104AF000C4F1200500FA04F320FA05F001FA04F2EB
:104B000040EA020001F0004110EBD37041F10001D6
:104B10005EEA430E08BF20EAD37070BDC4F12005E1
:104B200000FA05F24EEA020E20FA04F301FA05F249
:104B300043EA020321FA04F001F0004121FA04F2F1
:104B400020EA020000EBD3705EEA430E08BF20EAC1
:104B5000D37070BD94F0000F0FD101F000464000FB
:104B600041EB010111F4801F08BF013CF7D041EA7D
:104B7000060195F0000F18BF704703F00046520081
:104B800043EB030313F4801F08BF013DF7D043EA52
:104B90000603704794EA0C0F0CEA135518BF95EA08
:104BA0000C0F0CD050EA410618BF52EA4306D1D18F
:104BB00081EA030101F000414FF0000070BD50EAAE
:104BC000410606BF1046194652EA430619D094EA38
:104BD0000C0F02D150EA013613D195EA0C0F05D122
:104BE00052EA03361CBF104619460AD181EA030176
:104BF00001F0004141F0FE4141F470014FF000002E
:104C000070BD41F0FE4141F4780170BD70B54FF0C8
:104C1000FF0C4CF4E06C1CEA11541DBF1CEA135548
:104C200094EA0C0F95EA0C0F00F0A7F8A4EB05042A
:104C300081EA030E52EA03354FEA013100F0888021
:104C40004FEA03334FF0805545EA131343EA1263EA
:104C50004FEA022245EA111545EA10654FEA00269F
:104C60000EF000419D4208BF964244F1FD0404F558
:104C7000407402D25B084FEA3202B61A65EB0305B4
:104C80005B084FEA32024FF480104FF4002CB6EB71
:104C9000020E75EB030E22BFB61A754640EA0C00F1
:104CA0005B084FEA3202B6EB020E75EB030E22BF31
:104CB000B61A754640EA5C005B084FEA3202B6EB72
:104CC000020E75EB030E22BFB61A754640EA9C0031
:104CD0005B084FEA3202B6EB020E75EB030E22BF01
:104CE000B61A754640EADC0055EA060E18D04FEABF
:104CF000051545EA16754FEA06164FEAC30343EA5F
:104D000052734FEAC2025FEA1C1CC0D111F4801F2B
:104D10000BD141EA00014FF000004FF0004CB6E724
:104D200011F4801F04BF01430020B4F1FD0C88BFC3
:104D3000BCF5E06F3FF6AFAEB5EB030C04BFB6EBCE
:104D4000020C5FEA500C50F1000041EB045170BDC1
:104D50000EF0004E4EEA113114EB5C04C2BFD4EBEE
:104D60000C0541EA045170BD41F480114FF0000E72
:104D7000013C90E645EA060E8DE60CEA135594EAEE
:104D80000C0F08BF95EA0C0F3FF43BAF94EA0C0FF1
:104D90000AD150EA01347FF434AF95EA0C0F7FF466
:104DA00025AF104619462CE795EA0C0F06D152EABA
:104DB00003353FF4FDAE1046194622E750EA41069E
:104DC00018BF52EA43067FF4C5AE50EA41047FF4AF
:104DD0000DAF52EA43057FF4EBAE12E74FF0FF3C14
:104DE00006E000BF4FF0010C02E000BF4FF0010CE5
:104DF0004DF804CD4FEA410C7FEA6C5C4FEA430C5E
:104E000018BF7FEA6C5C1BD001B050EA410C0CBFAC
:104E100052EA430C91EA030F02BF90EA020F00200E
:104E2000704710F1000F91EA030F58BF994208BF75
:104E300090422CBFD8176FEAE37040F00100704732
:104E40004FEA410C7FEA6C5C02D150EA013C07D189
:104E50004FEA430C7FEA6C5CD6D152EA033CD3D0D4
:104E60005DF8040B704700BF8446104662468C46CE
:104E70001946634600E000BF01B5FFF7B7FF002801
:104E800048BF10F1000F01BD4DF808EDFFF7F4FF2A
:104E90000CBF012000205DF808FB00BF4DF808EDB5
:104EA000FFF7EAFF34BF012000205DF808FB00BFD8
:104EB0004DF808EDFFF7E0FF94BF012000205DF8FA
:104EC00008FB00BF4DF808EDFFF7CEFF94BF0120AF
:104ED00000205DF808FB00BF4DF808EDFFF7C4FFA8
:104EE00034BF012000205DF808FB00BF4FEA410CF1
:104EF0007FEA6C5C02D150EA013C0AD14FEA430CD4
:104F00007FEA6C5C02D152EA033C02D14FF0000010
:104F100070474FF0010070474A0011D212F500129D
:104F200011D20DD56FF47873B3EB62520ED44FEA01
:104F3000C12343F0004343EA505323FA02F0704781
:104F40004FF00000704750EA013002D14FF0FF30BF
:104F500070474FF00000704780F0004002E000BF53
:104F600081F0004142001FBF5FEA410392EA030F54
:104F70007FEA226C7FEA236C6AD04FEA1262D2EB9E
:104F80001363C1BFD218414048404140B8BF5B42A3
:104F9000192B88BF704710F0004F40F4000020F03C
:104FA0007F4018BF404211F0004F41F4000121F052
:104FB0007F4118BF494292EA030F3FD0A2F101029C
:104FC00041FA03FC10EB0C00C3F1200301FA03F1DA
:104FD00000F0004302D5494260EB4000B0F5000FFD
:104FE00013D3B0F1807F06D340084FEA310102F1BC
:104FF0000102FE2A51D2B1F1004F40EBC25008BF6E
:1050000020F0010040EA03007047490040EB000037
:1050100010F4000FA2F10102EDD1B0FA80FCACF166
:10502000080CB2EB0C0200FA0CF0AABF00EBC25065
:1050300052421843BCBFD0401843704792F0000F53
:1050400081F4000106BF80F400000132013BB5E7A6
:105050004FEA41037FEA226C18BF7FEA236C21D01C
:1050600092EA030F04D092F0000F08BF0846704781
:1050700090EA010F1CBF0020704712F07F4F04D14F
:10508000400028BF40F00040704712F100723CBF62
:1050900000F50000704700F0004343F0FE4040F48C
:1050A000000070477FEA226216BF08467FEA23634A
:1050B0000146420206BF5FEA412390EA010F40F435
:1050C000800070474FF0000304E000BF10F0004381
:1050D00048BF40425FEA000C08BF704743F0964368
:1050E00001464FF000001CE050EA010208BF704783
:1050F0004FF000030AE000BF50EA010208BF70470A
:1051000011F0004302D5404261EB41015FEA010C1E
:1051100002BF84460146002043F0B64308BFA3F116
:105120008053A3F50003BCFA8CF2083AA3EBC253F8
:1051300010DB01FA02FC634400FA02FCC2F1200217
:10514000BCF1004F20FA02F243EB020008BF20F04E
:105150000100704702F1200201FA02FCC2F12002B4
:1051600050EA4C0021FA02F243EB020008BF20EAA9
:10517000DC7070474FF0FF0C1CEAD0521EBF1CEAD7
:10518000D15392EA0C0F93EA0C0F6FD01A4480EAC5
:10519000010C400218BF5FEA41211ED04FF00063AE
:1051A00043EA501043EA5111A0FB01310CF00040DA
:1051B000B1F5000F3EBF490041EAD3715B0040EA00
:1051C000010062F17F02FD2A1DD8B3F1004F40EBD0
:1051D000C25008BF20F00100704790F0000F0CF0A3
:1051E000004C08BF49024CEA502040EA51207F3A67
:1051F000C2BFD2F1FF0340EAC250704740F4000042
:105200004FF00003013A5DDC12F1190FDCBF00F032
:1052100000407047C2F10002410021FA02F1C2F1E0
:10522000200200FA02FC5FEA310040F1000053EA7C
:105230004C0308BF20EADC70704792F0000F00F0CA
:10524000004C02BF400010F4000F013AF9D040EAD0
:105250000C0093F0000F01F0004C02BF490011F464
:10526000000F013BF9D041EA0C018FE70CEAD15362
:1052700092EA0C0F18BF93EA0C0F0AD030F0004CE2
:1052800018BF31F0004CD8D180EA010000F0004096
:10529000704790F0000F17BF90F0004F084691F054
:1052A000000F91F0004F14D092EA0C0F01D142028E
:1052B0000FD193EA0C0F03D14B0218BF084608D157
:1052C00080EA010000F0004040F0FE4040F40000A1
:1052D000704740F0FE4040F4400070474FF0FF0C34
:1052E0001CEAD0521EBF1CEAD15392EA0C0F93EA7B
:1052F0000C0F69D0A2EB030280EA010C49024FEACD
:10530000402037D04FF0805343EA111143EA101385
:105310000CF000408B4238BF5B0042F17D024FF43D
:10532000000C8B4224BF5B1A40EA0C00B3EB510F18
:1053300024BFA3EB510340EA5C00B3EB910F24BF01
:10534000A3EB910340EA9C00B3EBD10F24BFA3EB86
:10535000D10340EADC001B0118BF5FEA1C1CE0D14E
:10536000FD2A3FF650AF8B4240EBC25008BF20F001
:10537000010070470CF0004C4CEA50207F32C2BF55
:10538000D2F1FF0340EAC250704740F400004FF0F2
:105390000003013A37E792F0000F00F0004C02BF23
:1053A000400010F4000F013AF9D040EA0C0093F0ED
:1053B000000F01F0004C02BF490011F4000F013B47
:1053C000F9D041EA0C0195E70CEAD15392EA0C0FAF
:1053D00008D142027FF47DAF93EA0C0F7FF470AFE7
:1053E000084676E793EA0C0F04D14B023FF44CAF2A
:1053F00008466EE730F0004C18BF31F0004CCAD1BF
:1054000030F000427FF45CAF31F000437FF43CAFFA
:105410005FE700BF4FF0FF3C06E000BF4FF0010C1C
:1054200002E000BF4FF0010C4DF804CD4FEA4002FE
:105430004FEA41037FEA226C18BF7FEA236C11D048
:1054400001B052EA530C18BF90EA010F58BFB2EBFB
:10545000030088BFC81738BF6FEAE17018BF40F07B
:10546000010070477FEA226C02D15FEA402C05D12F
:105470007FEA236CE4D15FEA412CE1D05DF8040BB4
:10548000704700BF844608466146FFE70FB5FFF747
:10549000C9FF002848BF10F1000F0FBD4DF808EDFF
:1054A000FFF7F4FF0CBF012000205DF808FB00BFF0
:1054B0004DF808EDFFF7EAFF34BF012000205DF84A
:1054C00008FB00BF4DF808EDFFF7E0FF94BF012097
:1054D00000205DF808FB00BF4DF808EDFFF7D2FF94
:1054E00094BF012000205DF808FB00BF4DF808EDD7
:1054F000FFF7C8FF34BF012000205DF808FB00BFA4
:1055000042000ED2B2F1FE4F0BD34FF09E03B3EB2D
:10551000126209D44FEA002343F0004323FA02F059
:1055200070474FF00000704712F1610F01D1420245
:1055300002D14FF0FF3070474FF00000704700BFBE
:1055400013460A460146022000F0C8BB014B18680A
:10555000704700BFD098FF1F70B50F4E0F4D761BE0
:10556000B61018BF002405D0013455F8043B984705
:10557000A642F9D10A4E0B4D761B00F041FFB61042
:1055800018BF002406D0013455F8043B9847A642C2
:10559000F9D170BD70BD00BF0C6400000C64000048
:1055A000206400000C640000024B0146186800F003
:1055B0000BB800BFD098FF1F024B0146186800F0DF
:1055C00051BC00BFD098FF1F2DE9F04F01F10B0532
:1055D000162D83B0064640F29F8035F0070500F196
:1055E000BF80A94200F2BC8000F0F4FAB5F5FC7F60
:1055F000C0F09C826B0A00F0BA80042B00F2838119
:10560000A80900F1390E4FEA4E033830C44F07EBBA
:105610008303A3F108015C68A14207D1ACE0002A32
:1056200080F2AC80E468A14200F0A680636823F0B9
:1056300003035A1B0F2AF2DDB9493C6901F1080E38
:10564000744500F0B381636823F003035A1B0F2AEB
:1056500000F39981002AC1F814E0C1F810E080F24B
:105660009E80B3F5007F80F06781DB0803F1010CB9
:1056700001229B1002FA03F34A6851F83C80C4F8F7
:10568000088001EBCC091A43A9F10803E3604A60E2
:1056900041F83C40C8F80C40831001249C409442DF
:1056A00000F28A80144206D120F003006400144204
:1056B00000F10400FAD007EBC009CC468046DCF8C4
:1056C0000C108C4507D173E1002A80F28181C968F2
:1056D0008C4500F06D814B6823F003035A1B0F2AA1
:1056E000F2DD0C46D1F80CC054F8088F4B1945F088
:1056F00001054D6042F00101C8F80CC03046CCF8FD
:1057000008807B613B61C3F80CE0C3F808E0596096
:105710009A5000F061FA1FE0102921D800F05AFADF
:105720001025062302207E4F07EB8303A3F1080216
:105730005C68944200F045816368E168A56823F0E5
:105740000303234430465A68E96042F001028D6049
:105750005A6000F041FA0834204603B0BDE8F08FEB
:1057600000240C232046336003B0BDE8F08F802373
:105770004FF0400E3F2049E770465DE72344E16863
:105780005A68A56842F00102E96030468D605A60AF
:1057900000F022FA0834204603B0BDE8F08F23441D
:1057A00030465A6842F001025A6000F015FA083497
:1057B000204603B0BDE8F08FBC68636823F003089F
:1057C000A84504D3C5EB08030F2B00F38C80554B81
:1057D000DFF860911A68D9F8003001332A4404EBED
:1057E000080A00F0608102F580520F3222F47F62D5
:1057F00022F00F0211463046019200F0EFF9B0F1AD
:10580000FF3F8346019A00F05881824500F2FC80F8
:10581000454B1968DA451144196000F05381D9F8F5
:105820000000DFF810E101301BBFCAEB0B0A514446
:10583000CEF800B019601BF0070100F01781C1F12C
:105840000800C1F58051834408315A44C2F30B0269
:10585000C2EB010949463046019300F0BFF9431CF1
:10586000019B00F03F81CBEB00024A4442F0010271
:105870001968C7F808B04944BC42CBF80420196045
:10588000DFF8A49016D0B8F10F0F40F2FD806268E7
:10589000A8F10C0323F00703E01802F001024FF017
:1058A000050E1A430F2B6260C0F804E0C0F808E050
:1058B00000F21C811D4BBC681A68914288BF1960B8
:1058C0001B4B1A689142626888BF196022F003027C
:1058D0009542A2EB050301D80F2B04DC304600F003
:1058E0007BF9002438E7621943F0010345F0010514
:1058F00065603046BA60536000F06EF908342046A7
:1059000003B0BDE8F08F142B71D9542B00F2A480A2
:10591000280B00F16F0E4FEA4E036E3076E600BFA3
:10592000D498FF1F68AAFF1F6CAAFF1F64AAFF1F5D
:1059300060AAFF1FE09CFF1F5A0A042A5ED9142A9E
:1059400000F2B38002F15C0149005B3207EB810C8D
:1059500057F82110DFF8DC81ACF1080C8C4500F021
:1059600088804A6822F00302934202D289688C45FB
:10597000F7D1D1F80CC07A68C4F80CC0A160CCF89B
:105980000840CC6088E6631942F0010745F0010544
:10599000656030464B610B61C3F80CE0C3F808E06A
:1059A0005F609A50083400F017F9D5E64A6873E64C
:1059B00008F1010818F0030F0CF1080C7FF47FAE1A
:1059C00030E0DC68A34208BF02303FF435AEB3E6F6
:1059D0000B440C465A68C96854F8085F42F001024B
:1059E0005A603046E9608D6000F0F6F8B4E603F1E5
:1059F0005C0E03F15B004FEA4E0307E69A0902F1E1
:105A0000390149003832A1E7BC424A4B3FF400AFAC
:105A10009C68626822F003025AE759F808399945F0
:105A200040F0828010F0030F00F1FF30F5D17B6869
:105A300023EA04037B6064009C423FF6BDAE002C69
:105A40003FF4BAAE1C4240467FF435AE64001C42BF
:105A500000F10400FAD02EE6B3F5AA7F18D8E80BBF
:105A600000F1780E4FEA4E037730CFE54FF48051C6
:105A7000EBE60121D8F80430921001FA02F21A4341
:105A8000C8F80420614677E70123CBF8043025E706
:105A900040F25452934220D8A80C00F17D0E4FEAF8
:105AA0004E037C30B2E51032A4E6542A26D81A0BF5
:105AB00002F16F0149006E3248E7BC68626822F06B
:105AC000030205E7CAF30B0000287FF4A8AE4244A6
:105AD000BB6842F001025A60ECE6FE234FF07F0EF5
