:1000000000000320D1010000714A0000294A0000CD
:10001000294A0000294A0000294A0000294A000014
:10002000294A0000294A0000294A0000714A0000BC
:10003000714A0000294A0000A55B0000A95B00008E
:10004000714A0000714A0000714A0000714A0000C4
:10005000714A0000714A0000714A0000714A0000B4
:10006000714A0000714A0000714A0000714A0000A4
:10007000714A0000714A0000714A0000714A000094
:10008000714A0000714A0000714A0000714A000084
:10009000714A0000714A0000714A0000714A000074
:1000A000DD1C0000E91C0000714A0000714A0000DC
:1000B000714A0000714A0000714A00001567000093
:1000C000714A0000714A0000714A0000714A000044
:1000D000714A0000714A0000714A0000714A000034
:1000E000714A0000714A0000714A0000714A000024
:1000F000714A0000714A0000714A0000714A000014
:10010000714A0000714A0000714A0000714A000003
:10011000714A0000994F0000714A0000714A0000C6
:10012000714A0000714A0000714A0000714A0000E3
:10013000714A0000714A0000714A0000714A0000D3
:10014000714A0000714A0000714A0000714A0000C3
:10015000714A0000714A0000714A0000714A0000B3
:10016000714A0000714A0000F51C0000714A00004D
:10017000714A0000714A0000714A0000714A000093
:10018000714A0000714A0000714A0000714A000083
:10019000714A0000714A0000714A0000714A000073
:1001A000714A0000714A0000714A0000011D000000
:1001B000714A0000714A0000714A0000714A000053
:1001C000714A0000714A0000714A0000714A000043
:1001D000594B4CF2205210B51A804DF628121A8055
:1001E00000BF00BF04F048FC544B4FF030621A606F
:1001F000534A9A60534ADA60534B4FF470021A60C4
:10020000524B534A1A60534B1A78110703D51A7888
:1002100042F008021A70504B5049AA221A70504AF4
:10022000504B8B4204D252F8040F43F8040BF8E70A
:100230004D4B4E4900228B4202D243F8042BFAE781
:100240004B494C4A002352F8230041F82300013364
:10025000742BF8D1484B494A802103F8011B934283
:10026000FBD1474B424A1A60464B8A221A70A3F5CB
:10027000805324225A70A0221A709A799207FCD5D2
:100280009A79D406FCD4404A937903F00C03082BE6
:100290003D4BF9D101221A7148225A719A79900680
:1002A000FCD5394A9179384B4906FBD5374A38494C
:1002B00011600221516020221A709A7902F00C021A
:1002C0000C2AFAD1334B344A1A60344A344C13683E
:1002D00013F4807303D123604FF4A8531360314BA0
:1002E000314A1A6000225A60072243F8042C2F4A30
:1002F000C3F80C2D62B604F0F5FC2368DA0705D5C7
:100300002B4804F05FFC2B4B2B4A1A602B4B1B78BD
:100310005B0609D5274C284B22689A4204D1244811
:1003200004F050FC0023236004F0ACFB06F056FB05
:1003300005F0CAFCFEE700BF0E20054030800440F7
:10034000823F04000100002B88ED00E0002008E05F
:100350000300008502D0074000E007405C1CFF1F3F
:10036000D87900005008FF1F0020FF1F9C8DFF1F41
:100370000002FF1F0000000000E400E064E400E071
:1003800008ED00E000500640004006404480044074
:100390000000030104800440C010050010D0034099
:1003A00014D0034014E000E0FF760100000020209C
:1003B000A765F4611CE00340A5C3945A00F0074010
:1003C000FFFFFFFFFFFFFFFFFFFFFFFFFFFFFFFF3D
:1003D000FFFFFFFFFFFFFFFFFFFFFFFFFFFFFFFF2D
:1003E000FFFFFFFFFFFFFFFFFFFFFFFFFFFFFFFF1D
:1003F000FFFFFFFFFFFFFFFFFFFFFFFFFFFFFFFF0D
:10040000FFFFFFFFFFFFFFFFFFFFFFFFDEF9FFFF23
:1004100010B5054C237833B9044B13B10448AFF33E
:1004200000800123237010BD0020FF1F000000008A
:10043000D4790000084B10B51BB108490848AFF348
:1004400000800848036803B910BD074B002BFBD0A0
:10045000BDE81040184700BF000000000420FF1F47
:10046000D47900005C1CFF1F00000000704700BF33
:10047000704700BF704700BFFF2800D97047074B87
:10048000074910B504462246186901F0ADF8054B3E
:1004900018782044C0B2187010BD00BF687FFF1FDD
:1004A000FC68FF1F3021FF1F00B5074B83B0187891
:1004B000012104F09BFB054A054B12680192019A49
:1004C0001A6003B05DF804FB6808FF1F888BFF1FEC
:1004D0003849FF1F2DE9F0414D4E4E4D3078DFF881
:1004E00058814D4C88B0012104F086FB2878012109
:1004F00004F082FB494B98F80D10D8F810000493D3
:1005000012230027012202931323059203970097D9
:100510000193422300F0C8FF414B42481F70394607
:100520004FF4807206F04AFDD8F81030DFF80CE185
:100530003D4920683D4A3E4FC3F868E2C3F86C125B
:1005400040F2EE2E13780BB13B783BB9236811785B
:100550001B1A002958D0B3F5FA6FF3D9354FDFF8DD
:10056000E0807B6D1868036847F61221DB699847C5
:10057000236807930120079BC7F8003100FA00F2B7
:1005800000234FF6FF71024387F8580087F8702068
:1005900087F85A3087F859307B663B6687F8F83021
:1005A00087F8753087F8743087F8763087F87730B9
:1005B000C7F8FC30B966F96601F008FC0424012193
:1005C000307804F013FBD8F8000004F03DFB012163
:1005D000287804F00BFBD8F8000004F035FB00216C
:1005E000307804F003FBD8F8000004F02DFB002164
:1005F000287804F0FBFAD8F8000004F025FB013C51
:10060000DDD108B0BDE8F08173459BD9A6E700BFF6
:100610006408FF1F6808FF1F888BFF1F801A0600F1
:100620003021FF1FFC68FF1FCD0E00006C8CFF1FE8
:100630007D8CFF1F1C20FF1F687FFF1F79040000B7
:100640005C08FF1F00B5012883B009D0022802D042
:1006500003B05DF804FBFFF727FF03B05DF804FB70
:10066000064B0146187804F0C1FA054A054B12689A
:100670000192019A1A6003B05DF804FB6408FF1F41
:10068000888BFF1F3449FF1F10B50E4A0E4B1268AE
:100690001B6882B00192019CE31A312B0BD80B4BE3
:1006A0001B68E41A312C04D9094B0021187804F096
:1006B0009DFA02B010BD074B0021187804F096FA9D
:1006C000EDE700BF888BFF1F3449FF1F3849FF1F2C
:1006D0006808FF1F6408FF1F2DE9F041E0290C4660
:1006E0009DF8185008D8013DEDB20F2D02D849B23F
:1006F000002912DBBDE8F081F729FBD90834E4B208
:10070000012303FA04F414F0DD0FF3D0436D1868ED
:100710000368BDE8F0411B6818471F46436D8046DB
:10072000186803682943C9B21B6816469847D8F869
:1007300054301868036806F07F011B6804F0EF046A
:100740009847C02CD6D0D8F854301868036807F002
:100750007F011B68BDE8F041184700BF30B501318B
:1007600083B0CDB2C2B204460095002380210C486C
:10077000FFF7B2FF2304691E03F4FE03090243F4EA
:10078000004343F0080301F470611943054803F086
:1007900027FD012003B0BDE83040FFF753BF00BF85
:1007A0001C20FF1F006EFF1F2DE9F04F1D4BDFF8CF
:1007B0007C901A68D9F8003083B0002B0192DDF8E4
:1007C00004A02BDD0027DFF868B0174EB846336869
:1007D000002B1CDD5C46002504E03368AB4204F1CD
:1007E000100414DDE3680135002BF6D06368A268BD
:1007F000C3EB0A039342F0D920683946FFF7AEFFF6
:100800003368C4F80C80AB4204F11004EADCD9F878
:1008100000300137BB420BF1800BD8DC03B0BDE8E0
:10082000F08F00BF888BFF1F6008FF1F5808FF1F55
:100830003421FF1F2DE9F04FDFF8B491D9F80040C3
:1008400089B0002C0646039190469A4640F3A58055
:1008500001335FFA83FB0BF1FF331B0203F4706378
:10086000049343F4004343F008035A4F0593C3B283
:1008700007EBCA140025029305E0D9F80000A8424E
:1008800004F1100425DD2368B34205F10105F4D11C
:10089000E368012BF1D1029A4F48CDF800B0002354
:1008A0008021FFF719FF23684C481B0403F4FE0165
:1008B000059B194303F094FC494B0021187804F080
:1008C00095F9D9F800000023A842E36004F1100470
:1008D000D9DCDFF814C1DFF814915CF82A20541C2D
:1008E000002894FBF0F300FB13434CF82A4049F82E
:1008F0002A304FEACA051BDDE91807EB0111C96868
:10090000012915D10232044404E0C968012902F129
:1009100001023DD192FBF0F300FB1323E918A24240
:10092000964607EB0111F0D14CF82A2049F82A30FD
:100930002C4ACDF800B02B44126807921B01FD1819
:10094000FE50DDF81CE00399029AC5F804E001248A
:100950005FFA88F34FEA0868A9601F48EC609021AD
:1009600008F0FE48FFF7B8FE48F410483104049B35
:100970001A4848F0090801F4FE0148EA0101194348
:1009800003F02EFC2046FFF75DFE09B0BDE8F08FB6
:100990004CF82AE049F82A30CAE7134A134952F8BA
:1009A00023300C4F0AF1010001335FFA80FB42F85B
:1009B0002A3093FBF4F204FB12330BF1FF321202E4
:1009C00002F470620492F2B241F82A304FEACA058A
:1009D0000292ADE73421FF1F1C20FF1F006EFF1F96
:1009E0006808FF1F888BFF1FF448FF1FC06DFF1FA3
:1009F0006008FF1F70B5013282B0D4B20646C2B2A1
:100A00000D460094CBB20E48B021FFF765FE2B06D1
:100A100003F0FE43310443F43043013C43F00B0345
:100A2000240201F4FE01194304F4706421430548D3
:100A300003F0D6FB012002B0BDE87040FFF702BE14
:100A40001C20FF1F006EFF1F30B5013183B0CDB2F7
:100A5000C2B2044600950023C0210C48FFF73CFEBB
:100A60002304691E03F4FE03090243F4404343F0E8
:100A70000C0301F470611943054803F0B1FB012038
:100A800003B0BDE83040FFF7DDBD00BF1C20FF1FF5
:100A9000006EFF1F30B540EA012183B00DB2013274
:100AA000D4B205F50052C2F3C613009402F07F02DF
:100AB000E0211048FFF710FE631E1B0205F30D0531
:100AC00005F5005503F47063290443F4604343F0D3
:100AD0000E0301F4FE016D04194305F0FE452943A0
:100AE000054803F07DFB012003B0BDE83040FFF76F
:100AF000A9BD00BF1C20FF1F006EFF1F2DE9F041A4
:100B00009E4C237886B03BB19D4D2B784F2B45D022
:100B1000462B69D0002323709A4C0021204603F015
:100B2000B3FB30B9FFF740FE06B0BDE8F041FFF778
:100B3000ABBDFFF7B9FC94F85A3094F85B0094F819
:100B40005C5094F8592003F17001C9B20F2906D8FE
:100B5000511EC1EBC11101448B4C44F8215083F06C
:100B600080010F2911D95033DBB20F2BDAD8013AAB
:100B7000C2EBC2120244854B43F82250FFF714FE29
:100B800006B0BDE8F041FFF77FBD511EC1EBC111BA
:100B900001447D4C002644F82160E4E76B7803F1C2
:100BA0007002D2B20F2A67D903F15002D2B20F2AD3
:100BB00056D903F14002D2B20F2A46D903F12002DE
:100BC000D2B20F2A36D9A9786D4EF82900F0BF802D
:100BD000FA2900F0AC80FB2900F09980FC2900F094
:100BE00087802B78462B95D1AE78EB786A7843EAEC
:100BF0000626012A36B278D0022A4AD0632A89D141
:100C0000412E05D0422E03D0432E01D0442E81D157
:100C10005F4B604A597B18690492002501224FF00E
:100C2000120E13273346059203958DE8A04000F07D
:100C30003BFC6FE7A3F1E002E978A878FFF72AFF11
:100C40006B78554AE03B1360BDE7A3F1C001A8787B
:100C5000FFF7FAFE6B78504AA3F1C0011160ADE7CF
:100C6000A3F1B002E978A878FFF7C4FE6B784A4A8E
:100C7000A3F1B00111609CE74849EA780968A878B7
:100C8000903BFFF7D7FD6B78434AA3F190011160C9
:100C90008AE7DFF804814248D8F80030002E03F1DB
:100CA000010361DB7F2E3746DBB2A8BF7F270093AD
:100CB000D021FAB20023FFF70FFD390401F4FE0141
:100CC000D8F800302F480133DBB2013B1B0203F49C
:100CD000706343F4504343F00D03194303F080FA6B
:100CE0000120FFF7AFFC6A7888E72C4B1E6011E704
:100CF0002B4B5B6D186803681B6898474FF60F41D4
:100D0000204803F06DFA0120FFF79CFC69E7244BB3
:100D10005B6D186803681B6898474FF60F311948D8
:100D200003F05EFA0120FFF78DFCA97856E71C4B13
:100D30005B6D186803681B6898474FF60F211148D0
:100D400003F04EFA0120FFF77DFCA97843E7144B2E
:100D50005B6D186803681B6898474FF60F010948D8
:100D600003F03EFAB17833E7DAB200230092D021E3
:100D70001A46FFF7B1FC0021A2E700BF3021FF1F98
:100D8000FC68FF1F006EFF1F3C49FF1F3429FF1F37
:100D9000687FFF1F801A06005408FF1F6C08FF1FA2
:100DA0001C20FF1FF8B53F4C3F4F94F87030DFF820
:100DB00018E1C7F800E0012243F00103002562F3C7
:100DC00047034FF6FF7684F870306765A6662946BC
:100DD00004F17800802225606560A560E5602561EA
:100DE0006561A561E56125626562A562E5622563CD
:100DF0006563A563E56325646564A564E5642565AD
:100E000084F8585084F8595084F85A50256665661D
:100E1000E66684F8745084F8755084F8765084F847
:100E2000775084F8F85006F0C9F82049204AC4F8F1
:100E300000512046C4F80451C4F8085184F80C51FC
:100E400084F80D5105F0B8FD1A4B1B4C1B4A5D6030
:100E500018469D60C3F82433C3F844331A6004F580
:100E6000DF6702F075FB04F6F8064FF4C873144808
:100E7000206004F59F6E04F6F8214FF40072A4F888
:100E80004C306560A56024622046C4F834E0A76356
:100E9000E6636164A4F84A2003F016F9094B236065
:100EA000F8BD00BF1C20FF1F2C21FF1F7504000090
:100EB0005008FF1F006AFF1F006EFF1F74760000BE
:100EC000B8760000FC740000E812FF1F0C490B7894
:100ED000013B0F2B0ED848788A7842EA002212B2E2
:100EE0007F2A07D8C3EBC3131344064A52F82310D2
:100EF0007F2900D97047C9B2034800F037B800BF56
:100F0000FC68FF1F3429FF1F687FFF1F0020704708
:100F10000369D3F83801D3F83431C01A704700BFE1
:100F20000369D3F83411D3F83821914208D2D3F8A9
:100F30003421511C1A44C3F8341192F83000704720
:100F40004FF0FF30704700BF0369D3F83411D3F876
:100F5000382191423DBFD3F834219B1893F83000DB
:100F60004FF0FF30704700BF704700BF0369D3F8F0
:100F70004422B2F5817F03D9012303710020704719
:100F8000D3F8442210B49C180132C3F8442284F8E8
:100F90003C1101205DF8044B704700BF38B5036970
:100FA0000A4A026093F84822022A044601D02046E9
:100FB00038BDD3F87452002DF9D0284604F0B4FDA2
:100FC0002846082104F08AFE204638BD1875000026
:100FD00038B503690546D3F84402B0F5817F1AD8C5
:100FE0001446D3F84422D3F84402C2F58172013288
:100FF00003F59E73A242184402D2012314462B71BA
:10100000224603F03DFC2A69D2F844322344C2F858
:101010004432204638BD01232B71002038BD00BF6B
:101020002DE9F04F574C83B006460D4692461F46B9
:101030009DF830809DF834E09DF838902346214695
:101040000022022004E00432202A36D011F8040FD6
:101050008542F8D148785045F5D196F84A121A449D
:101060008A4592F803B000F08680BBF1000F28D0CB
:10107000BEF1000F0BD096F84C2296F84A0201936D
:10108000002A14BF0221002103F0B6FD019B4FEAA4
:101090000B2202F4E062B8F1000F60D142F064026A
:1010A000394901EBCA01012049680A6086F84AA261
:1010B00086F84C8286F8980203E096F84A224FF0B0
:1010C000000B0022022104E00432202A36D014F85A
:1010D000041F8D42F8D1A178B942F5D11A4496F88F
:1010E0004B32D4789F4240D0002C34D0B9F1000F5D
:1010F00009D096F84C3296F84B02002B14BF02210F
:10110000002103F079FD230203F4E063B8F1000F3E
:1011100028D143F064031C4A02EBC7020121526844
:10112000136086F84B7286F84C8286F89912BBF1F0
:10113000000F10D0012003B0BDE8F08F96F84B32BD
:10114000BB4208D1B9F1000F05D00024BBF1000F5C
:1011500001D0002CEED1002003B0BDE8F08F42F0AA
:1011600003029DE743F00303D5E7B9F1000FEDD18A
:10117000002CC8D1EFE7BEF1000FA2D1BBF1000FE8
:1011800085D19EE734750000CC760000F8B5C368C1
:101190001B789B0610D483680D4680211970C368A4
:1011A0001221197090F84932012B044606D08AB9F1
:1011B00080F848220120F8BD0020F8BD1A4675B914
:1011C000794B4FF080711960022A0FD0012084F80A
:1011D0004802F8BD531E012BF1D90120F8BD012DA5
:1011E0004BD1714B4FF000711960EDE7D4F8746288
:1011F000002E00F097803379202B30D0002D43D182
:1012000032686A49938B6A4F9BB243F00803938319
:101210003279531102F110009B0041F8207003F164
:10122000604303F56143012102F01F0201FA02F25B
:1012300031681A608B8B9BB243F002038B83337946
:1012400003F1804303F5043392221D701A700022CB
:10125000022384F85E2284F848320120F8BD30462B
:1012600004F062FC3046082104F038FD0023012020
:10127000C4F8743284F84802F8BD022D5DD14D4B9C
:101280004FF4806119609FE7012D26D132684749EC
:10129000938B494F9BB243F00803938332795311E8
:1012A00002F110009B0041F8207003F1604303F548
:1012B000614302F01F02954032681D60938B9BB220
:1012C00043F002039383337903F1804303F504333E
:1012D0000021932219701A70B9E7022D35D1D4F884
:1012E000741232480A68354E938B9BB243F0080360
:1012F00093830A79531102F110059B0040F8256091
:1013000003F1604303F56143012002F01F0200FA7C
:1013100002F208681A60838B9BB243F00203838356
:101320000B79D1E7082004F0D7FC314607463E464A
:1013300004F094FBC4F874725DE7032D7FF444AFAE
:101340001C4B4FF0006119603EE7032D7FF47FAF27
:10135000D4F8741215480A68194E938B9BB243F067
:10136000080393830A79531102F110059B0040F89A
:10137000256003F1604303F56143012002F01F0281
:1013800000FA02F208681A60838B9BB243F00203F2
:1013900083830B7903F1804303F504330021922208
:1013A00019701A7053E700BF00E100E00002FF1F50
:1013B000DD1C000008E100E0E91C0000F51C000055
:1013C000011D0000F0B5284EDFF8ACE0A6FB01439C
:1013D000A6FB02429E093702754696091424002393
:1013E000B7FBF6F604E00133372B1BD055F8044F5A
:1013F00022029642F7DA83BB14241C4A4568B1FBEB
:10140000F4F491422B70C0F8504207D8184B82690F
:10141000A3FB0131C1F307511170F0BD83690422B0
:101420001A70F0BD002422464FF470274FF4706507
:101430004FF0360CB21AF71B002A87EAE776A6EBC4
:10144000E776B8BF5242964202DD0A4AD35CD4E73F
:10145000084B2C4613F80C30CFE703F1FF3C5EF845
:101460002C502F02E6E700BFD34D6210FF6BDC0269
:10147000819F5E163476000058750000F0B49DF828
:1014800014409DF810609DF818503CB135B1C76804
:101490003F78BF0602D50020F0BC70470695059442
:1014A0000496F0BCFFF7BCBD2DE9F04184B00446C2
:1014B00094469DF828609DF82C209DF830009DF8FA
:1014C00034E09DF83C700D4600294CD1DFF81081C6
:1014D000D8F8001041F04001C8F80010002184F84D
:1014E00049C284F85512BCF1000F2BD16369202149
:1014F000197012B994F84A22D2B210B994F84B027A
:10150000C0B294F8981294F8996202960346CDF806
:1015100000E0019120462946FFF7B0FF0E9A2F49BF
:101520002046FFF74FFF3A4629462046FFF72EFE9A
:1015300094F84932002B37D0A368C0221A7004B047
:10154000BDE8F0816169CEB14FF0280C81F800C090
:101550009E4221682ED95B00DBB20B707600E369F6
:10156000F6B21E70C5E7012913D1DFF87480D8F8F0
:10157000001041F08001C8F80010AFE74FF0200CD8
:1015800081F800C021685B00DBB20B70E3691E705C
:10159000AFE7022916D1DFF84C80D8F8001041F0EF
:1015A0004001C8F8001099E7A36880221A7004B0BF
:1015B000BDE8F0817600F6B20E705E00E369F6B227
:1015C0001E7096E7032989D1DFF81880D8F800103B
:1015D00041F08001C8F8001080E700BF006CDC0219
:1015E000348004402880044070B5D0F83841D0F8E9
:1015F00034319C4218D9D0F83831D0F83451D0F871
:1016000034615D1B954228BF1546044600F1300346
:101610002A460846991903F033F9D4F834312B449B
:10162000C4F83431284670BD002070BD2DE9F0416A
:10163000BF4EC7683378D0F808E00133DBB23370AF
:101640003D789EF800300446DBB2806903F020024A
:101650000178EDB2FAB113F0100F94F85E327FD03A
:10166000022B00F0D78094F85E32032B00F0D2807A
:1016700094F85532082B00F0238294F85532092B48
:1016800000F05C8294F85532012B00F0CC8180236D
:101690008EF800305BE002F0FF08EA0624D405F083
:1016A000400202F0FF071ABB03F0100303F0FF0231
:1016B000002B00F08E8015F0010540F0A881D4F8D1
:1016C0004022D4F844329A4207D2D4F840325A1C0D
:1016D0002344C4F8402293F83C5123691D70A36849
:1016E000D0221A70A06979E0102368063B7029D5D2
:1016F00094F855320C2B00F00F8105F0040505F02D
:10170000FF02002D73D0A3680021D0220B2084F8A3
:101710005502C4F844121A702269D4F86C12137876
:101720005B0884F8563209B188472269D4F84432FC
:10173000002B00F0758194F83C8182F80080012331
:10174000C4F84032A269137843F050031370E36881
:1017500002221A703378013BDBB23370BDE8F081AE
:10176000022B00F09F8094F85E32032B00F09A80E9
:10177000D4F83831D4F858220233934200F0418132
:1017800094F85532012B00F03781D4F83831013309
:10179000934280F00B8194F85532012B00F00181C7
:1017A000D4F838312269591CC4F83811234412780E
:1017B00083F83020E36802221A7094F85532DBB2C5
:1017C000012BC7D194F85D22002AC3D184F85D3281
:1017D000C0E794F855320C2B00F09381037843F066
:1017E00050030370E36802221A70BDE8F081A1691A
:1017F0000B7843F020030B70A3680C20C02184F801
:101800005502C4F83821197023691B785B0884F8E5
:10181000563297E7D4F8742213689B8B190604D5C7
:1018200094F85E32022B00F0B08094F85E32032B05
:1018300000F086803F4B12791968012393400B42D8
:1018400088D03D493D4B0A70D4F87412097919705B
:101850000022072384F85E2284F85532D4F89432AB
:10186000013304D0D4F894320133C4F89432ED0635
:1018700011D5042384F85532D4F88C32013304D0C6
:10188000D4F88C320133C4F88C32E2681021002382
:101890001170C4F84032A36880221A70E3680222F3
:1018A0001A7032E0D4F874321A68928B120603D59B
:1018B00094F85E22022A5CD094F85E22032A00F09B
:1018C000D6801C491A790968012393400B423FF4E2
:1018D00041AF1949194B0A70D4F8742212791A7061
:1018E000A36880220020072184F85E0284F8551244
:1018F0001A70E36802221A70D4F89432013304D0CB
:10190000D4F894320133C4F89432D4F87032002BF6
:101910003FF420AF98471DE7D4F86832002B3FF41E
:10192000ECAE0022C4F83421D4F838019847E4E63C
:101930007C7FFF1F2C8000401E8000401F800040E5
:101940003B781B06FCD5C34B12791A70002384F830
:101950005E32D4F844322169013BC4F84032D4F8F5
:1019600040322344022293F83C310B70E3681A7032
:10197000F0E6B9491B790B70A368E8211970E36898
:10198000032184F85E121A70E4E6B34912790A70F2
:10199000A268F0211170E268032184F85E121370CE
:1019A000D8E694F85D32002B3FF4FAAEA36800212C
:1019B000B02284F85D121A70D4F838312269591CAB
:1019C000C4F838112344127883F8302094F8543244
:1019D000012B00F0C580E36802221A7094F855329A
:1019E000012B36D0D4F86432002284F85522002B23
:1019F0003FF4E3AE9847E0E694F85D32002B7FF4C5
:101A0000C4AEE8238EF80030D4F85822BDE6C023D7
:101A10008EF800302369A0691B7884F85572DDE6E2
:101A200084F83C3189E694F85432012B0CBF8023B2
:101A3000B0238EF80030E36802221A70D4F88032A6
:101A400001333FF462AFD4F880320133C4F88032FE
:101A50005BE7D4F88032013304D0D4F8803201330C
:101A6000C4F88032D4F87032002BC3D1A5E6794A8D
:101A70001B791370A3680021B02284F85E121A70DB
:101A8000D4F858322269013BC4F83831D4F83831DF
:101A9000591CC4F838112344127883F8302094F884
:101AA0005432012B00F0DA80E36802221A70D4F875
:101AB0006432002284F85522002B7FF42BAF49E6D4
:101AC00005F0100303F0FF02002B50D00023042187
:101AD000102284F85E3284F855123A70A268802190
:101AE0001170E268C4F8403202231370D4F88C32CB
:101AF00001333FF40AAFD4F88C320133C4F88C328E
:101B000003E7C9B211F0500F4AD0037843F05003F5
:101B10000370A1690B7803F0DF030B70E368022107
:101B20001970D4F8683284F85522002B3FF412AEB5
:101B3000C4F83421D4F8380198470BE6E80641D5BB
:101B40000422102384F855223B70A36880221A7067
:101B5000E36802221A70D4F88C320133CBD1D4E678
:101B60002023013BFDD1A36880221A7033E715F0D2
:101B700001053CD084F85E22D4F84032002B7CD1A1
:101B8000022384F85532D4F88432013304D0D4F8D7
:101B900084320133C4F8843280238EF800307DE62D
:101BA00023691B78D4F83821B2F5817FDBB23FF688
:101BB00015AED4F83821A1180132C4F8382181F8C3
:101BC00030300BE6E9072ED50223802284F8553207
:101BD0008EF80020E2681370D4F8843201333FF4A9
:101BE00094AED4F884320133C4F884328DE6D4F84C
:101BF00040320133C4F84032D4F84422934234D303
:101C000094F8543284F85552012B0CBF8023B02332
:101C10008EF80030E36802221A70D4F86032002B8C
:101C20007FF478AE96E594F85E32012B32D0D4F88A
:101C30005832012B4FF00A020CBFE823E02384F84E
:101C400055228EF800302269E368127802221A7059
:101C500080E500BF1C8000401F8000402023013B26
:101C6000FDD1A36880221A701EE794F85E32012B22
:101C700020D0D4F84032216973E6032384F855322A
:101C8000D4F88832013387D0D4F888320133C4F8CD
:101C9000883281E70223E12284F85E328EF8002048
:101CA000D4F874120C4A097911702169E268097834
:101CB00013704FE50223F12284F85E328EF8002083
:101CC000D4F87412044A09791170226994F83D110C
:101CD0001170E26813703DE51B800040002101484F
:101CE000FFF7A4BC7008FF1F01210148FFF79EBC4D
:101CF0000C0BFF1F02210148FFF798BCA80DFF1F26
:101D000003210148FFF792BC4410FF1F2DE9F8435F
:101D1000224BDFF8A090DFF8A080214E214D1E60FD
:101D200000244FF47A774A4641461C711C739F6029
:101D300018465C731D6104F03FFE1B4B05F52772CE
:101D400001211A611C714A469F601C735973184621
:101D500041461E6004F030FE144B05F5A7620221D7
:101D60001A611C714A469F601C735973184641469C
:101D70001E6004F021FE0E4B4FF0030E05F2D475E9
:101D80001C711C7383F80DE04A46414618461D61DC
:101D90009F601E60BDE8F84304F00EBE687FFF1F21
:101DA000187500007008FF1F407FFF1F547FFF1F42
:101DB000807FFF1F5008FF1F9D0F000008B5836A3A
:101DC000DB6B03B19847012008BD00BFF8B5524B4B
:101DD000524A5349534D544F544E4FF4807018603B
:101DE00013684024234313600A200C6002F02CFF88
:101DF0002A684F4C4F48504B5049DFF880E142F081
:101E000040522A60227842F002022270027842F0A8
:101E1000800202701A6842F002021A601A6822F008
:101E200001021A603B6843F400033B600B6805F550
:101E3000142504F5783400F5743043F00E0305F6EC
:101E40003805343400F59A700B604FF040424FF083
:101E5000840C4FF44047012143F24103C6F800C00F
:101E60002A60276072460160CEF800301368002BAC
:101E7000FCDA334B00221A600A2002F0E5FE314AF8
:101E8000136843F00203136013689B07FCD401F04E
:101E900019FF2D4B012103F1800243F8041F9342E7
:101EA0004FF00104F9D14FF4807200212748284DEA
:101EB000284E294F05F082F8DFF8C4C0DFF8C4E0EF
:101EC0002648274A1F4900238CF80030CEF80040EE
:101ED0000324046023482B60234C106023483B609C
:101EE00033600C600368224943F4805303605D2033
:101EF0003368136802F05EFE1E4A1F4B4FF000511C
:101F000011602B602B6843F012032B602B6843F4A5
:101F100040232B60F8BD00BF18D0044014F10F40DF
:101F200004F10F4000D800400870044004300A401B
:101F300000400640005006400480044030800440C9
:101F400000200A4040110A40FC7FFF1F8C80FF1FC9
:101F500048110A4058110A404C110A40A8110A4081
:101F600054110A400080FF1F158B010084110A40A4
:101F70002925000008E100E004000003A0200A4039
:101F80008880FF1F90100A40F8B5C3680BB1632921
:101F900000D8F8BD06460D4602F034FE294BB0606D
:101FA0001A68002A40D02848016821F07F418D42FC
:101FB00015D39469691A002C42D06269914204D207
:101FC00027E05A698A421C4624D8A369891A002B43
:101FD000F7D100237161F461B361A661D9E772B6EC
:101FE0001A4A1B4F00244FF0007E0460C2F800E044
:101FF0001A68F461491B05F1FF3E4FF040447561DA
:10200000B2611E605161D661C7F800E0046062B63B
:10201000F8BD2346D869521A5A61B361F061716103
:10202000DE61F3699E61F8BD094F07487561691E5D
:102030004FF04044B261F2611E6039600460F8BD47
:102040001446C6E78080FF1F8C100A4044110A40E6
:1020500088100A4072B6194A13683BB1834202D114
:1020600013E0984204D09B69002BFAD162B6704706
:10207000D9699A698A619A69002AF7D05B695069BF
:10208000D1610344536162B670479B690C4870B4D8
:10209000002505607BB1046859690A4E24F07F442D
:1020A00021444FF04044596131600460DD611360A8
:1020B00062B670BC70471360FAE700BF8080FF1FF4
:1020C0008C100A4088100A4002699368F0B50C46EB
:1020D0005906074603D4126893685B06FBD5402374
:1020E000D4F808E0A3602368136063685360E36872
:1020F000D3602369136163695361A169916104F13C
:10210000340393E80300E36AE669256BD36202F1C6
:102110003403D6619762156383E803001368E16BAB
:10212000D163012B134603D01B6819680129FBD129
:1021300001211C60216013689C4229D013460020B5
:1021400000E00B46196858620D681962AC420E46F1
:102150001846F6D100217362316297F8343013F0DB
:10216000FD0F09D00C490B6873B153621A620E60FF
:102170000120C2F808E0F0BD08490B68002BF4D13B
:10218000074853620260F2E7064853620260EEE7D6
:1021900016460023DEE700BF8480FF1F987FFF1FE5
:1021A0009C7FFF1F947FFF1F2DE9F047CC88B4F57B
:1021B000804F02D90020BDE8F08799469046074637
:1021C0008A4601F0C7FD05460028F3D001F0C2FDA4
:1021D0000446002876D0BAF80630002B43D13F4A97
:1021E00028602AF47F6626F00F06012306F580504A
:1021F000DFF8ECE039686B60C5F808E0C5F80CA0C2
:1022000006F5005E286106F5405006F58046C5F8E3
:1022100014E04FF0000CA8614FF4805EEE614FF4C3
:1022200000506360A162A2604FF440514FF48042BD
:10223000C4F80CC0C4F82C80C4F810E06061A1613F
:10224000E261BAF806202263DAF800206263DAF865
:102250000420A263386823602946C4F83C90BDE896
:10226000F047FFF731BF01F075FD78B3BAF80630DB
:102270009AF900601B04F24343F00043F60FD20FBB
:1022800028F47F6143F0800321F00F0143EA062325
:1022900012020126466001F5805E836001F500565A
:1022A00001F5405342F0802201F58041C0F80C80D6
:1022B00042F08002C0F810E046618361C16128608D
:1022C00004608EE7284601F04DFD73E7284601F0D3
:1022D00049FD204601F046FD6CE700BF808100808B
:1022E000800208002DE9F04780460F4616469946C1
:1022F00001F030FDB0B1741EA40B054615D0824626
:1023000004E0013CCAF8000082460ED001F022FD34
:102310000028F6D100E0254628462C6801F022FD71
:102320005545F8D10020BDE8F08700230124B6F51B
:10233000804FC0F82880C7620663C0F83C900460F4
:10234000436383632A4624D91A4998F835C05460F8
:102350004FF4804E002027F47F6323F00F0341EAFF
:102360000C21916003F5805903F5005C03F54051A1
:1023700003F58043D760C2F81090C2F814C0916191
:10238000D36188B9CEEB0606B6F5804F7744126864
:10239000DAD8310441F4004198F835C05460012086
:1023A00041F08001B646D6E729464046BDE8F047F1
:1023B000FFF78ABE800000402DE9F047584ED6F85E
:1023C00000A0BAF1000F00F0A080DFF858810025CE
:1023D000DAF808301F0668D4DAF808301C045FD435
:1023E000DAF82430DAF82070002B77D01F62DAF8A0
:1023F0000820002F5FD050067B6260D55046DAF887
:10240000289001F0AFFC002108460C46D6F800C029
:10241000D8F800E0BA4601E01746A2B1BB6A3A6AB2
:102420009945F9D17B6A002B5FD01A62002A59D0F6
:102430005362002C54D027623D62574508BF924634
:102440001746002AEAD1002863D1002964D1D9F8BF
:10245000103033F01F0308D09A68520637D5C9F8F8
:102460001030C9F80C50C9F818500CB913E03C46AC
:10247000A268130409D5D9F83C3042F04002204646
:102480001BB1A36AA260DB6B9847276A204601F064
:1024900069FC002FEBD1BAF1000F99D1BDE8F087AC
:1024A0005046FFF78BFC00289AD1DAF820A0BAF149
:1024B000000F8DD1F2E75106C8F8003018D450460D
:1024C000BA4601F04FFCBAF1000F81D1E6E79A68F5
:1024D0001A681B6833F01F03BED1C6E7376086E772
:1024E0003C46A9E79E460121A3E7944601209DE7CB
:1024F000DAF82890504601F035FCD9F8103033F066
:102500001F0304D0BA463C46A6E7BDE8F087BDE805
:10251000F087C6F800C098E7C8F800E097E700BF6A
:102520009C7FFF1F987FFF1F6E4B2DE9F0411E68B7
:102530001E6071031BD56C4F3C68C4B1DFF8DC81B1
:10254000A3681A0600F18580A3681B047BD4636A24
:10255000256A002B00F082801D62002D00F0828031
:102560006B6220462C4601F0FDFB002CE8D13703BE
:1025700018D55E4F3C68ACB1DFF8A481A3681D0696
:102580005DD4A368180455D4636A256A002B6CD007
:102590001D62002D6CD06B6220462C4601F0E2FBE0
:1025A000002CEBD1B10766D472070CD5504B1C68D8
:1025B00044F02A021A60A30729D4270703D44D4BFD
:1025C0001A78022A65D0F00117D4B1011DD54A4A04
:1025D0001168D1B18B6913604BB15A69474D4848B6
:1025E000013A00264FF04044DE612A600460C8686A
:1025F0000368BDE8F0419B6818473E4B1A78012AF2
:1026000068D0032A59D0B101E1D4BDE8F08114F0BB
:10261000010533D0374B1A78012ACED839483A4AC7
:102620003A4C01254FF040411D7026F08076046041
:102630001160CAE72046FFF7C1FB0028A4D1246A35
:10264000002C9BD1AEE72046FFF7B8FB00287FF4B3
:102650007EAF246A002C7FF473AF88E73D60002DC5
:102660007FF47EAFC8F800307BE73D60002D92D14B
:10267000C8F8003090E7FFF79FFE95E71D4A244B0E
:10268000244F157002221A60386800F025FE3D6064
:1026900093E7650799D503241A4D1B481C7014490C
:1026A0004FF0404442F210772F60046009688C05B7
:1026B00001D519490A60F20187D504210C4A197025
:1026C00010680022C0F38160114600F077FB114BC7
:1026D00018607AE7064A02211970136843F4807380
:1026E000136072E744110A409C7FFF1F947FFF1F15
:1026F00084110A408880FF1F8080FF1F88100A40D5
:102700008C100A4080100A4084100A40A086010004
:1027100038200A408C81FF1F34200A40987FFF1F19
:102720008480FF1F2DE9F04F85B00290002A00F051
:102730009A80006B974B007D03FB01F302284FEA60
:10274000134300F0B38005214FF0010B04E0013981
:102750004FEA4B0B00F0A1804BEA5B008242F6D8B7
:102760001FFA8BF203920299BDF80C0091F8352004
:10277000A1F84000002A40F0948084334FEA531CB3
:10278000022600234FF0FF3EDFF80CA2019399468A
:10279000F046019F0AEBC700002401788278C578D3
:1027A0000379614432449142354433446BD9A942A0
:1027B00065D98B4238BF0B46734500F1010002D248
:1027C0009E46B846A1460134042CE6D15F441F2F33
:1027D000E0D9019B01339B450193DAD1BEF1BB0FD8
:1027E00057D8029ABDF80C00A2F844005FFA8CFC9E
:1027F000F6B21FFA88F1B8F11F0F82F84AC082F8CA
:102800004B60A2F84890A2F846101CD809EBC80308
:10281000981C1AF8032062440AF803201AF80020D2
:1028200032440AF80020D81C04331AF8002032443D
:102830000AF800201AF80320D8443244B8F11F0FD8
:102840000AF80320E2D9029C01201C2300FA09F2B5
:1028500003FA09F9A4F8421084F8362084F8379076
:1028600005B0BDE8F08F029B1A6B4A4B127D03FB4B
:1028700001F3022A4FEA13436ED0012263E7AB4211
:1028800038BF2B4698E7AA42F9D9934238BF13467E
:1028900092E7002005B0BDE8F08F20220392934616
:1028A00061E766335E094FF0020C6AE70F2A63D9CD
:1028B00020224FF480700299DFF8DCA0A1F84020BC
:1028C00057334FF0FF375C093E4600252B46002169
:1028D0001AF8032022449142034438BF1146FF2BCB
:1028E000F6D98F4288BF2E4605F1010588BF0F46F5
:1028F0008542EBD1BB2FCCD8029AE4B2FF2E13460F
:1029000082F84A40A2F84400A2F8466098BF3346D5
:1029100007D81AF8032022440AF803200344FF2BA7
:10292000F7D9012823D0022819D0042895BF06F032
:10293000030206F00702112301239340029A82F852
:1029400036300299F60800230120A1F8426081F890
:10295000373005B0BDE8F08F01200246ABE706F046
:10296000010255239340029A82F83630E9E7029A31
:10297000FF2382F83630E4E7013A012101FA02F040
:10298000B0F5807F94DCC20808BF0A4693D092B2AB
:1029900091E700BFAB2A01008C80FF1FF0B5B0F8B3
:1029A0004240B0F840101F2C2BD81F4E40F00207B9
:1029B00056F82420D5074FEA840E27D402F00605E6
:1029C000022D22F01F0308D11CE0984216D01A688D
:1029D000D20708D41B6823F01F03B3F840209142AC
:1029E000F3D998420AD01A6832F01F0204D114E0D9
:1029F000126832F01F0210D09042F9D10C441F2C03
:102A0000D6D9F0BDB3F84050A942DED90C441F2CF2
:102A1000026046F80E70CBD9F3E70C441A680260E6
:102A20001F2C1F60C4D9ECE70080FF1F2DE9F04781
:102A300006460D4617469A4601F07CF904460028E2
:102A400000F0908001F086F98046002800F08C802C
:102A5000602200214FF04009204604F0AFFA4A46B8
:102A60000021404604F0AAFA0123032DC8F80030E3
:102A7000C8F80890C4F810802663636184F835A014
:102A800084F8345047D03FB172680AB961E01A4601
:102A9000936B002BFBD194636DBB96F814E0BEF1F1
:102AA000010F8CBF00230123D8064FF48041737DB2
:102AB00094F8362043F0704343EA0723089F43EA23
:102AC00007430343194341EA0E316160F07DB37D52
:102AD00094F8371042F0804242EAC05242EA03437F
:102AE00043EA0123A36035F0020309D0032D2046F9
:102AF00033D0BDE8F0870021084696F814E0D6E709
:102B0000214A1368ABB11A68226044F002021A60CD
:102B10002046BDE8F087099A08992046FFF702FE93
:102B2000814638B3002FAFD196F814E039463846C5
:102B3000BDE76368154944F0020043F40043636055
:102B4000206014600B6843F0200320460B60BDE852
:102B5000F0877460002DA0D0CDE7FFF71FFF20465F
:102B6000BDE8F087BDE8F087204601F0EBF840466D
:102B7000BDE8F087404601F0F5F8204601F0E2F8A4
:102B80004846BDE8F08700BF58110A4040110A408E
:102B9000F8B590F8343013F0FD0F044600F0818052
:102BA000744800F1800550F8041FCA070CD421F0C6
:102BB0001F018C4203D16FE0944268D011460B682C
:102BC00023F01F02DB07F7D5A842ECD1236B1B7D56
:102BD000022B00F0A880B4F84610B4F84460B4F8B2
:102BE000487094F84AE094F84B501F291BD8624A69
:102BF00007EBC10303F1020CD05CCEEB0000D05414
:102C000012F80C00401B02F80C0003F1030C043313
:102C100012F80C00401B02F80C00D05C3144401B41
:102C20001F29D054E4D9554E306800B3544F01E009
:102C30002846E5B1836A056A9C42F9D1436A002BB4
:102C400000F084801D62002D7ED06B62236933F01A
:102C50001F0205D08342EBD01B6833F01F02F9D16D
:102C60008342E5D001F07EF82846002DE2D12069AC
:102C700030F01F0306D0056801F074F835F01F032B
:102C80002846F8D12046BDE8F84001F05BB823683B
:102C90000B60A84287D199E723680360A84282D1DC
:102CA00094E7026822F01F02904201D154E01A46D4
:102CB000136823F01F039C42F9D163681D0403D5F8
:102CC000536843F40043536023682E48136003683D
:102CD0002D4943F0400303600B682B4A9806FBD54F
:102CE00020231360294E30680028C0D0284F02E00E
:102CF0002846002DBBD0836A056A9C42F8D1436AFE
:102D000043B31D6225B36B62236933F01F0205D004
:102D10008342EDD01B6833F01F02F9D19842E7D00F
:102D200001F020F8E4E7B4F84630B4F8440094F831
:102D30004A50FF2B3FF677AF0F4AD15C491BD15465
:102D40000344FF2BF9D96EE73B607FE735607AE7F4
:102D50003B60D9E73560D5E70A490B4A0B6823F099
:102D600020030B60136813F40043FBD1094A13607E
:102D7000B8E700BFFC7FFF1F8C80FF1F947FFF1F01
:102D80008480FF1F40110A4044110A409C7FFF1FAE
:102D9000987FFF1F58110A4007490A680023836083
:102DA00043600AB905E01A465368002BFBD1506016
:102DB00070470860704700BFA489FF1F2DE9F041EC
:102DC00082B080460F46164600F0A4FF0446002855
:102DD00038D02422002104F0F1F800250820E675FF
:102DE00084F81480A77565752B46009001952A46D6
:102DF00029462046FFF71AFE0646206040B300F041
:102E0000B9FF164E2268DFF868E0154F20610121F6
:102E10002B46D76382F835108EF80010114A124FF6
:102E200037604FF40025314620467560FFF7BCF946
:102E30000E4B1A680AB908E01A469368002BFBD1BA
:102E40009460204602B0BDE8F0811C602046F9E79E
:102E5000204600F067FF3046F4E700BFB089FF1F4F
:102E6000ED2F0000A081FF1F80060001B889FF1F21
:102E70009281FF1FF0B40D698DB3D46A88B32B5CC7
:102E80000133DBB25CB36278032A28D12B54277854
:102E900003EB570131291A4625DC022F2AD9302BA2
:102EA00098BF022202D925E0312B21D0E918023245
:102EB0000133A678CE70D2B2D9B297420B4604F154
:102EC0000204F1D80A4601302A44C0B20023022885
:102ED000D37004D8431C2954D8B20328FAD1F0BCCB
:102EE00070470346CEE7C3F132077F00FFB2D4E755
:102EF0001A46E8E71946E6E72DE9F04FDFF8E890D3
:102F0000364DD9F8004085B08046002614B913E04C
:102F100064688CB1A268002AFAD129882068304BF5
:102F200009390091076841462046B847002844D136
:102F300026466468002CEDD12A4C2F88274409349A
:102F4000A74203D81AE03444A74217D963782678F9
:102F5000042BF8D1092EF6D1D9F80050002DF2D06B
:102F60004FF0000AC4EB070B0396AB684BB16D68DA
:102F7000002DFAD1039E3444A742E7D805B0BDE83E
:102F8000F08F2B68CDF800B01B6801221E46414629
:102F900023462846B04770B16B68BAF1000F16D0CF
:102FA000CAF80430D8F80C306B60AA46C8F80C5048
:102FB000C5F80880DBE7AA46D9E7636856B17360B5
:102FC0000023C4F808806360C8F80C40D6E7C9F84D
:102FD0000030E7E7C9F80030F2E700BF9081FF1F3B
:102FE000A981FF1FA081FF1FA489FF1F0146C06B9D
:102FF00010B103685B6818472DE9F0418B6A1D6BBF
:103000002B7E0A460E2B3FD8DFE813F00F004A0054
:1030100062007F008E002301A8003C01C9003E0130
:1030200007019800EB000C0140002E689F4B72686E
:10303000DF799F4B9F4C1868217822F0FF6323F4BF
:10304000E02343EA074373600131802928BF01214F
:1030500050B1437D9942F7D0034602E05A7D8A423F
:10306000F2D09B68002BF9D1934E21700027090400
:1030700041F4A0643B4631463A46284686E8900033
:10308000FFF792F801232B76BDE8F0812846FFF781
:1030900033FF8A4A0F2300212B761170BDE8F0819F
:1030A000854C286863886B754168854E266021F0E1
:1030B0007F010B4343607D4A00234FF49016214665
:1030C00028466660FFF770F802232B76BDE8F08192
:1030D000764B1A796A765A79AA769A79EA76597A83
:1030E0001A7A42EA0122EA83D97A9A7A42EA0122DA
:1030F0002A849A7BD87B197C1A7002435870997085
:1031000051EA020318D003232B766B4C6D4B2360DE
:103110006D4E6E4A6660002321462846FFF744F84C
:1031200004232B76BDE8F081604B1A79032A03D97A
:103130005A79032A00F0AE800B232B765E4C644B49
:1031400023605A4A00234FF4102621462846666021
:10315000FFF72AF80C232B76BDE8F08129460020E2
:10316000FFF788FE514B5A78F2B107222A765C7835
:103170006E8C514F554A240444F0407446F0FF666B
:10318000002344F4D06446F480263946284687E874
:103190005000FFF709F808232B76BDE8F081294697
:1031A0000120FFF767FE414B9A78002AC4D009221C
:1031B0002A769C786E8C404F444A240444F0407434
:1031C00046F0FF66002344F4D06446F48026394676
:1031D000284687E85000FEF7E7FF0A232B76BDE874
:1031E000F081324AD178937843EA0123B3F5006F36
:1031F0004CD9384B4FF400621A804FF000612E4CCE
:10320000334E61600023294A266021462846FEF796
:10321000CBFF0D232B76BDE8F08129460220FFF776
:1032200029FE89E7214B244EDA792A771A7A6A77C0
:103230005C79002724043B4644F4106431463A4646
:10324000284686E89000FEF7AFFF0E232B76BDE8F8
:10325000F081164B1C786E8C174F1C4A240444F0E6
:10326000407446F0FF66002344F4D06446F48026A0
:103270003946284687E85000FEF796FF06232B764E
:10328000BDE8F081094B72E7084B92E7114A190437
:103290001380B4E7D9799A7942EA01226A841A78CC
:1032A000002A3FF460AF05222A76D3E7A081FF1FF2
:1032B000B889FF1FA089FF1FB089FF1F9281FF1FE0
:1032C00080060001800600030000FC07A481FF1FA8
:1032D000800600029081FF1F002834D0F8B5C46832
:1032E00006466CB11B4D0027236820461B69984792
:1032F00063682A68A76062602C601C46002BF3D1CB
:10330000706828B1846BFFF743FC2046002CF9D18C
:103310003068FFF73DFC104A1368CBB19E4203D1E1
:1033200012E0A64204D023469C68002CF9D1F8BDD7
:10333000A2689A60206908B100F02AFD2046BDE825
:10334000F84000F0EFBC7047B36813603446F1E713
:10335000F8BD00BFA489FF1FB889FF1F70B590F8A2
:103360009E33044663B100F55876002556F8040FE5
:10337000013518B1FFF7B0FF94F89E33AB42F5D892
:10338000002584F89E53C4F86053C4F8805384F831
:10339000A15384F8A25384F8A453294684F8A55372
:1033A00084F8A65384F8A75384F8A85384F8A95343
:1033B00084F8AA531C2204F5597003F0FFFD84F829
:1033C000AB5384F8AC5384F8AD5384F8AE5384F80F
:1033D000AF5384F8B05384F8B15384F8B25384F8EF
:1033E000B35370BDF8B5069E6AB9564C564DC0F839
:1033F0003853C0F818438C6924F07F4424F0FF044C
:10340000B4F5106F01D00020F8BDCC7E022CFAD8A4
:103410000F2E80F89823F6D9103304E0103E0F2EBB
:1034200003F110034CD913F8104C092CF6D113F802
:103430000F4C042CF2D113F80C4C012CEED113F8E4
:103440000B4C092CEAD113F8094C022CE6D813F8DE
:10345000075C072DE2D113F8065C052DDED113F8C9
:10346000055C05F0F005802DD8D113F8045C032D20
:10347000D4D113F8035C012DD0D113F8025C002DD8
:10348000CCD113F80D5C002A4ED113F80E4C80F805
:10349000994313F80D4C80F89A4313F8094C80F8BF
:1034A0009B4313F8054C04F00F0480F89C4313F879
:1034B000014C80F89D430132D2B280F89823ADE7E9
:1034C000002AA0D0002204460D4680F89E23C0F8B2
:1034D0006023C0F8802380F8A12380F8A22380F81D
:1034E000A423114680F8A52380F8A62380F8A723FB
:1034F00080F8A82380F8A92380F8AA231C2200F5CD
:10350000597003F05BFD114BC4F858334FF480132E
:10351000C4F85C332846234604F5627204F55671FC
:10352000FEF742FE0120F8BD13F80EEC90F89973F7
:10353000BE45C7D190F89B73A742BCD280F89A537E
:10354000ABE700BFA076000088760000A006002947
:1035500010B5072104460C3000F022FC04F59070F1
:10356000022100F035FC04F5F070042100F048FC65
:1035700004F53870012100F05DFC2046BDE81040E4
:10358000FFF70ABC79B190F89E3399420BD890F8B6
:10359000A1234AB190F8AB23012303FA01F11143AF
:1035A00080F8AB137047704770B504460126C4F825
:1035B0005C130A4BC0F858330D46034600F55671AC
:1035C00080F8A1638068FEF7EFFD94F8AB3306FA4C
:1035D00005F123EA010184F8AB1370BD2303080051
:1035E00090F89E338B420BD390F8A1334BB190F8F7
:1035F000AC23012303FA01F1114380F8AC137047A7
:103600007047002970B518BFA322044608BFA02246
:1036100041F480230126C0F85823C0F85C330D46DE
:10362000034600F5567180F8A16300F56172806869
:10363000FEF7BAFD94F8AC3306FA05F123EA01016E
:1036400084F8AC1370BD00BF2DE9F04105460E466D
:1036500001F0D8FA05F546739E4223D005F54E7366
:103660009E4201D0BDE8F08195F8A243002CF9D02C
:10367000661E2E4496F8A433082BF3D1AB6895F858
:10368000A303002785F8A273597D2246FFF796FB16
:1036900005EB8405134AC5F860030923177086F803
:1036A000A433DFE795F8B373002FDBD095F89E23A2
:1036B00082B10124A04602E00134A2420AD308FAF2
:1036C00004F33B42F8D021462846FFF789FF95F8DE
:1036D0009E23F1E7304644F62061BDE8F041FEF755
:1036E00053BC00BFBC89FF1F79B190F89E3399424B
:1036F0000BD890F8A1234AB190F8AD23012303FA27
:1037000001F1114380F8AD137047704770B504465E
:103710000126C4F85C130A4BC0F858330D46034623
:1037200000F5567180F8A1638068FEF73DFD94F8BE
:10373000AD3306FA05F123EA010184F8AD1370BD3B
:103740002301100079B190F89E3399420BD890F87C
:10375000A1234AB190F8AE23012303FA01F11143EA
:1037600080F8AE137047704770B504460126C4F860
:103770005C130A4BC0F858330D46034600F55671EA
:1037800080F8A1638068FEF70FFD94F8AE3306FA67
:1037900005F123EA010184F8AE1370BD2301110085
:1037A00079B190F89E3399420BD890F8A1234AB191
:1037B00090F8AF23012303FA01F1114380F8AF130E
:1037C0007047704770B504460126C4F85C130A4B75
:1037D000C0F858330D46034600F5567180F8A163D2
:1037E0008068FEF7E1FC94F8AF3306FA05F123EAAE
:1037F000010184F8AF1370BD2301120079B190F874
:103800009E3399420BD890F8A1234AB190F8B02387
:10381000012303FA01F1114380F8B0137047704798
:1038200070B504460126C4F85C130A4BC0F858333F
:103830000D46034600F5567180F8A1638068FEF7D7
:10384000B3FC94F8B03306FA05F123EA010184F8D9
:10385000B01370BD2301130079B190F89E339942E3
:103860000BD890F8A1234AB190F8B123012303FAB1
:1038700001F1114380F8B1137047704770B50446E9
:103880000126C4F85C130A4BC0F858330D460346B2
:1038900000F5567180F8A1638068FEF785FC94F806
:1038A000B13306FA05F123EA010184F8B11370BDC2
:1038B0002301140079B190F89E3399420BD890F807
:1038C000A1234AB190F8B223012303FA01F1114375
:1038D00080F8B2137047704770B504460126C4F8EB
:1038E0005C130A4BC0F858330D46034600F5567179
:1038F00080F8A1638068FEF757FC94F8B23306FAAB
:1039000005F123EA010184F8B21370BD230304001A
:103910002DE9F0414C1E044482B094F8A4330F46C4
:103920000646092B27D8DFE803F04B4B05050505B4
:1039300005292B38D5075FD50133DBB2072B84F877
:10394000A43318D1434A117800297CD1424909781F
:10395000002978D190F8B30301211170B94020EA11
:10396000010186F8B3133046394684F8A433FFF7D3
:10397000A1FF86F8A27302B0BDE8F081900747D49A
:1039800012F00105F7D139463046FFF7ADFE314A56
:103990000123157084F8A433EDE712F00105EAD194
:1039A00000EB8708D8F86003FFF796FCC8F860536F
:1039B00039463046FFF798FE012384F8A433DAE74E
:1039C000D307D8D5022384F8A43390F8B3333BB996
:1039D00044F6206100F54670FEF7D6FA96F8B33348
:1039E0000122BA4013433946304686F8B33302B059
:1039F000BDE8F041FFF778BE90F8B333012202FA38
:103A000007F723EA070780F8B37384F8A423B2E723
:103A1000394630460192FFF71FFF019A08239105AE
:103A200084F8A43313D412F4806F14BF022300234C
:103A300006F54E7046F2A81186F8A33302B0BDE831
:103A4000F041FEF7A1BA062384F8A43393E70123DB
:103A5000EEE700BFBC89FF1F9281FF1F10B590F8F1
:103A60009A2390F89913C0F85C1340F6013343EAA7
:103A70000243C0F858330446034600F5567100224D
:103A80008068FEF791FB012384F8A13310BD00BFCD
:103A900070B5002380F8A1334B6B714A0D8F9342B0
:103AA00082B0044663D06F4A93423DD0A32B27D007
:103AB00094F8AB1300297FD194F8AD13002940F09E
:103AC000928094F8AE13002940F0978094F8AF13D9
:103AD000002940F09C8094F8B013002979D194F823
:103AE000B133002B40F0A78094F8AC33002B40F0AA
:103AF000AC8094F8B213002940F0938002B070BDFE
:103B00000B6B042BD4D1002DD2D090F89E339D4264
:103B1000CED8CB6A29461A68FFF7FAFE94F8A1338B
:103B2000002BC5D002B070BD90F8982390F88A336E
:103B300090F88B5390F88D1380F89E33012A80F80B
:103B40009F5380F8A01341D9FFF788FF94F89E3364
:103B5000002BE3D0012529462046FFF713FD94F8FA
:103B60009E330135AB42F6D294F8A133D8E790F8F2
:103B70009E339D429CD1D0F86033002B98D194F8AD
:103B80009D3390F89C2380680193012633460321DE
:103B90000096FEF74BFF344BC4F860030546C36341
:103BA0003246234604F560716D68FEF79BFB94F87E
:103BB000A133002BB6D17BE791FAA1F1B1FA81F1E3
:103BC000204602B0BDE87040FFF7DCBC002BC1D13D
:103BD0006EE791FAA1F1B1FA81F1204602B0BDE899
:103BE0007040FFF70BBE91FAA1F1B1FA81F12046C6
:103BF00002B0BDE87040FFF777BD91FAA1F1B1FACC
:103C000081F1204602B0BDE87040FFF79BBD91FAFC
:103C1000A1F1B1FA81F1204602B0BDE87040FFF792
:103C2000BFBD91FAA1F1B1FA81F1204602B0BDE821
:103C30007040FFF73FBE93FAA3F1B1FA81F120463D
:103C400002B0BDE87040FFF707BE93FAA3F1B1FAE6
:103C500081F1204602B0BDE87040FFF7C1BC00BF53
:103C600023030800A0060029B53C000070B50546F6
:103C70000024012604E095F89E330134A3420ED3BC
:103C8000D5F8803306FA04F21A42F4D021462846C9
:103C9000FFF7A6FC95F89E330134A342F0D22B46E1
:103CA00005F56071D5F860030122BDE87040FEF7AC
:103CB00019BB00BFC36B1BB101461846FFF7D6BF47
:103CC000704700BF0D4B0E481946F0B403F1400297
:103CD0000C4E41F8802F1A4637680B4C0B4D1F6075
:103CE00042F8C01F1B640A4B2768016832602F60CE
:103CF000256019600360F0BC704700BF808AFF1F19
:103D0000848BFF1F808BFF1FE489FF1FC089FF1F6B
:103D1000008AFF1F024B186808B102681A607047DA
:103D2000E489FF1F024B1A6802601860704700BFE9
:103D3000E489FF1F024B186808B102681A607047D7
:103D4000848BFF1F024B1A6802601860704700BF27
:103D5000848BFF1F024B186808B102681A60704715
:103D6000808BFF1F024B1A6802601860704700BF0B
:103D7000808BFF1F054B186830B102681A60002362
:103D8000037043708370C370704700BF608AFF1F69
:103D9000024B1A6802601860704700BF608AFF1FFC
:103DA00001EBC10100EB810188420DD210B4074C38
:103DB000226800E01846034643F8242B9942024645
:103DC000F8D820605DF8044B704700BFE489FF1FFE
:103DD00001EB410100EB411188420DD210B4074CB8
:103DE000226800E01846034643F8602B99420246D9
:103DF000F8D820605DF8044B704700BF848BFF1F2C
:103E000000EB8111884212D230B4094D02462C6871
:103E100000E01A46134643F8404B99421446F8D83E
:103E2000C343194421F03F010844286030BC704767
:103E3000808BFF1F352303FB010188420DD210B494
:103E4000064C226800E01846034643F8352B994299
:103E50000246F8D820605DF8044B7047608AFF1F67
:103E6000C36B4BB1C26A996B8A4206D0D96B8A4246
:103E700004BF002283F853207047002283F85220A9
:103E8000704700BF0023C3600361704770B5B0F88E
:103E9000423090F8521004469D0881B994F853308E
:103EA00003F0FF0203B970BDEBB284F85330E16B4D
:103EB000206923469200BDE87040FEF713BAEBB2CA
:103EC00001F0FF0280F85230816B034692000069D6
:103ED000FEF708FAE2E700BF012A01D00020704790
:103EE0001A78092AFAD15A78042AF7D1F0B55A7902
:103EF000012A83B00D4604463CD0023A102A6FD9FD
:103F0000089A03F109079A180021974280F8541083
:103F100080F8551064D28E46587A032860D9391833
:103F20008A425DD39B7A042B36D00B2B14D133E01D
:103F3000052B57D0252B53D18A4240F28180087837
:103F400003284DD90E1896424AD84B78042B77D0C7
:103F50000B2B0F4674D03146242BE9D1BB78581E69
:103F6000032804D9F12B3BD1FB78022B38D14FF039
:103F7000010EE1E79979089A03F109079A18A1F16E
:103F8000030E0020BEFA8EFEBA424FEA5E1E84F88F
:103F9000540084F85500BFD8BEF1000F20D0002295
:103FA0000023E3602AB1B4F84230B4F84A109942D1
:103FB00073D200232361E2680023A4F84E30A4F8F2
:103FC000503084F8593084F85A3084F85B3084F8E3
:103FD0005C30A4F88031002A41D0012003B0F0BD4C
:103FE0000020FBE70628FBD9FB78023B012BF7D822
:103FF000BB7813F0F00013D08028F1D194F854006E
:10400000002899D103F00F0384F85430FB7884F82A
:10401000563078793B7943EA0023A4F840308BE7A7
:1040200094F85500002887D184F85530FB7884F83F
:10403000573078793B7943EA0023A4F842307BE794
:10404000BEF1000FCCD094F854202AB1B4F840301F
:10405000B4F84A10994207D294F85520A0E7206995
:10406000C01A18BF0120B9E794F856100093002336
:10407000019328460123FEF7D9FCE06050B1104AB5
:10408000C2632346B4F84020616BFEF72BF901238D
:1040900084F8483094F8552084E7002694F85710A7
:1040A0000093284601963346FEF7C0FC20610028A5
:1040B00081D0044BC36384F8526084F853607AE77C
:1040C000D1410000613E000010B50321044600F517
:1040D000F070FFF77DFE04F540700721FFF790FEBA
:1040E00004F598600121FFF7A5FE0023C4F8843190
:1040F000C4F88831C4F88C31C4F89031C4F89431D4
:10410000C4F89831C4F89C31C4F8A031C4F8A43183
:10411000C4F8A831C4F8AC31C4F8B031C4F8B43133
:10412000C4F8B831C4F8BC31C4F8C031C4F8C431E3
:10413000C4F8C831C4F8CC31C4F8D031A4F84E303A
:10414000A4F85030E36023612046BDE81040FEF73C
:1041500023BE00BFF8B58B680A6BB0F85070B0F89A
:104160004E10C3F30E43D31A9B0811D0426B02EBDF
:10417000830352F8044B4CB1B0F84C500131A942C2
:104180002ABF00218E000E46456CAC519A42F0D1F8
:104190008F4298BFB0F84C30A0F8507098BFFF180D
:1041A000013FB0F84020A0F84E10791AB1EB920F01
:1041B00003D2002380F84830F8BD03460446416B23
:1041C000C068FEF78FF8012384F84830F8BD00BFBF
:1041D000C36B1BB101461846FFF7BCBF704700BF59
:1041E0000369002B4ED02DE9F041B0F8427006462D
:1041F000BF0872B696F8525096F85340EDB2AF42EF
:10420000E4B21BD9F4B1A7421CD9651CF26BEBB226
:1042100006F1140842F82410404686F85330FDF7A2
:1042200019FFAF4225D97F2F40F2DC51404688BFAD
:10423000C821FDF7A9FE62B6BDE8F081A742E4D827
:1042400062B6D6E76C1CB26BE3B206F1140842F812
:104250002510404686F85230FDF7FCFEA742E2D812
:10426000BA003346B16B3069FEF73CF862B6BDE880
:10427000F081BA003346F16B3069FEF733F862B66D
:10428000BDE8F081704700BF2DE9F843B0F84E203B
:10429000B0F850309A4232D0B0F84C700133BB4283
:1042A00030D29D001FFA83FE04460E46406C94F8FF
:1042B00048104559A4F850E071B9E16861B19342E2
:1042C00096BF07F1FF37D243BA1A1344B4F840201F
:1042D000B3EB920F80F0CA8005F00F074FEA152864
:1042E000A7F1080208F00F01C5F30313062A01F134
:1042F000010984F8583022D84EB1B14507D00020CA
:10430000BDE8F8834FF0000E75467346CCE7082FE2
:10431000C5F303333DD0092F00F001810A2F40F08F
:1043200016810A2BEBD1D4F88C31A02284F85A20C4
:104330005FFA89F9C3BB2F0EC5F307462DE1BB1EFB
:10434000012B5FFA88F66BD9052F65D0042F33D087
:104350007B1F022B40F294800F2FD0D1F72E5FD815
:10436000F02EB4F8801101D00029C8D0D4F8A031C3
:10437000002B00F04682B1F5917F80F035824B1C16
:104380009BB22144A4F8803181F85D800020BDE813
:10439000F883082BB3D1D4F88431802284F85A20D2
:1043A0005FFA89F9002BC6D0C5F307462F0E4846A1
:1043B0003A4631469847F0E0D4F8A081B8F1000FB2
:1043C00000F0CD81B4F88011B1F5917F80F0EE80DE
:1043D0004B1C621899B2B1F5917FA4F88011C5F316
:1043E000074782F85D6000F0AA814B1C621899B201
:1043F000B1F5917FA4F880114FEA156582F85D70E0
:1044000000F096814B1C9BB22144A4F8803181F8C6
:104410005D500020BDE8F883F02E31D9F72E2FD063
:10442000F13E0E2E3FF66BAF01A353F826F000BF0E
:10443000714600005546000043460000FF42000060
:10444000FF42000039460000FF420000B346000072
:10445000FF4200009946000009460000ED450000BB
:10446000FF4200007F4600002146000072B623464E
:10447000B4F84020616BE068FDF734FF62B62BE7CB
:10448000D4F8A031B4F88011002B00F01F81B1F5F1
:10449000917F80F046814B1C9BB22144052FA4F8EC
:1044A000803181F85D8000F03281D4F8A061002E67
:1044B00000F0DD81B4F88031B3F5917F80F0728136
:1044C000591C89B223442A0C072FA4F8801183F8C1
:1044D0005D2040F04081002E00F0CC81B1F5917F4D
:1044E00000F06D814B1C9BB2DFB2180A21442D0EE7
:1044F00081F85D5019460022F02384F85B7084F83F
:104500005C00A4F8802184F85A30002E00F0F58079
:1045100004F15D000122B0470120BDE8F883092BBA
:104520007FF4EDAE2F0E00F02E81D4F8883190226A
:1045300084F85A205FFA89F9002B00F05C81C5F3FA
:104540000746FFB23A4631464846984725E00B2FCA
:104550000DD10B2B7FF4D3AED4F89031B02284F878
:104560005A205FFA89F9002B7FF41EAFE3E60C2F87
:1045700040F051810C2B7FF4C2AED4F89431C022AC
:1045800084F85A205FFA89F9002B3FF4D4AEC5F3C2
:104590000746484631462F0E984784F8599084F8CC
:1045A0005B6084F85C700120BDE8F883002204F1B0
:1045B0005D00C047D4F8A08184F85D600121A4F8B3
:1045C0008011C5F30747B8F1000F7FF40EAF0B461B
:1045D000591C89B22344B1F5917FA4F880114FEAA8
:1045E000156583F85D703FF48AAE0BE7D4F8C431EB
:1045F000002B00F0EF809847C5F3074684F85A80F7
:104600005FFA89F92F0EC8E7D4F8C031002BF2D138
:10461000D4F8D0316BB1FB209847C5F30746EDE7DE
:10462000D4F8CC31002BE6D1D4F8D0310BB1FF2037
:104630009847C5F30746E1E7D4F8B431002BDAD147
:10464000F7E7D4F8B031C5F30746002BD6D0304693
:104650009847D3E7D4F8AC21002AEAD02E0C6B0C93
:1046600006F07F0003F47E531843F6B29047C5E787
:10467000D4F8A831C5F30746002BE8D1BEE7D4F83B
:10468000C831002BB7D1D4F8D031002BD1D0FE20C7
:104690009847C5F30746B1E7D4F8BC31002BAAD13F
:1046A000D4F8D031002BC4D0FA209847C5F3074680
:1046B000A4E7D4F8B831002B9DD1D4F8D031002B29
:1046C000B7D0F8209847C5F3074697E7B1F5917F33
:1046D000FFF4E1AE052F1AD0B1F5917FC0F09680BE
:1046E000072F37D10B120020F02284F85B1084F8DA
:1046F0005C30A4F8800184F85A20D4F8A431002B4F
:104700005AD004F15D0098470120BDE8F883F72EE8
:104710007FF4F5ADB4F88011D4F8A061CFB2080AE7
:10472000E9E6002204F15D00984700210123B4E688
:10473000002204F15D00C0470021012364E600224D
:1047400004F15D00C047012184F85D702D0EA4F8CE
:10475000801157E60026CFB2C1F30720CBE6B4F8AC
:104760008021B2F5917FBFF4CAAD531C9BB22244A5
:10477000B3F5917FA4F88031C5F3074782F85D60F7
:104780003FF4BDAD24E7D4F88431802284F85A2068
:104790005FFA89F9C5F307468BB3314648463A4676
:1047A0009847FAE61946002204F15D00B047D4F8B4
:1047B000A0610023012185E60120BDE8F88304F112
:1047C0005D000022B0470127002001463B46D4F897
:1047D000A0618BE6D4F8D031002B3FF42AAFFC2047
:1047E0009847C5F3074609E7002204F15D009847A2
:1047F00000210123C5E5FFB2C5F30746CDE61F46FC
:10480000CBE6B1F5917FBFF47AADB8E54A1C0B4613
:10481000002691B256E60D2F0DD10D2B7FF46FAD12
:10482000D4F89831D02284F85A205FFA89F9002B05
:104830007FF4ADAE7FE50E2B7FF461ADD4F89C2103
:10484000E02384F85A307AB12E0C690C06F07F030D
:1048500001F47E5119435FFA89F9A1F500514846E8
:104860009047F6B22F0E98E65FFA89F963E5B4F83F
:10487000801131E7B1F5917F3FF434AF32E600BFEC
:1048800001B441EA000313F003036FD1403A41D36E
:1048900051F8043B40F8043B51F8043B40F8043B1A
:1048A00051F8043B40F8043B51F8043B40F8043B0A
:1048B00051F8043B40F8043B51F8043B40F8043BFA
:1048C00051F8043B40F8043B51F8043B40F8043BEA
:1048D00051F8043B40F8043B51F8043B40F8043BDA
:1048E00051F8043B40F8043B51F8043B40F8043BCA
:1048F00051F8043B40F8043B51F8043B40F8043BBA
:1049000051F8043B40F8043B51F8043B40F8043BA9
:10491000403ABDD2303211D351F8043B40F8043B49
:1049200051F8043B40F8043B51F8043B40F8043B89
:1049300051F8043B40F8043B103AEDD20C3205D359
:1049400051F8043B40F8043B043AF9D204320AD04F
:10495000D2071CBF11F8013B00F8013B03D30B78D1
:1049600003704B78437001BC704700BF0C2A4AD3D8
:1049700010F0030311D0C3F10403D21ADB071CBFEC
:1049800011F8013B00F8013B07D311F8013B00F897
:10499000013B11F8013B00F8013B11F003033FF428
:1049A00075AF30B4043AC91AC3F1040C51F8044B82
:1049B000022B19D0032B0BD0240A51F8043B1D06FF
:1049C00044EA050440F8044B1C46043AF4D216E0CD
:1049D000240E51F8043B1D0244EA050440F8044B40
:1049E0001C46043AF4D20AE0240C51F8043B1D049E
:1049F00044EA050440F8044B1C46043AF4D204325D
:104A0000B1EB0C0130BC043AA0D3013A11F8013BE0
:104A100000F8013BF9D20B7803704B7843708B7828
:104A2000837001BC704700BF08B5104C08E02368D4
:104A300059050DD423681A050FD42368DB0411D45B
:104A400023685803F3D500F0A7FA23685905F1D578
:104A500001F060FE23681A05EFD500F009F823681D
:104A6000DB04EDD500F004F8EAE700BF3480044031
:104A700008B5FFF7D9FF00BF014B10221A8070471D
:104A800000200540704700BF094908B50B6830B1E8
:104A90006A461844A2F50052904202D208601846B5
:104AA00008BD01F095FF0C2303604FF0FF3008BDF7
:104AB000E012FF1FEFF3138070B9EFF310836BB9AF
:104AC000EFF305825AB94FF48070EFF311832BB1E5
:104AD000984228BF184670474FF0FF3070470F2AA2
:104AE00001D81846F1E7014BD05CEEE7F0E300E0B7
:104AF00010B4114B53F8302092F8804234B10123A6
:104B000079B182F880305DF8044B704703EBC00345
:104B10005B681A6851B922F002021A605DF8044B12
:104B2000704782F800315DF8044B704742F0030291
:104B30001A605DF8044B7047CC7600001C4A02EB0B
:104B4000C00301295B6811D004291BD052F8300042
:104B5000002280F8802229B1022920D0032922D006
:104B60001A6070474FF480721A60704752F8300034
:104B70004FF4A27280F880121A601A6822F02002A4
:104B80001A60704752F830104FF4A272012081F879
:104B900080021A601A6842F020021A60704740F2E0
:104BA00003121A6070474FF481721A60704700BF99
:104BB000CC7600001030024B43F82010704700BF45
:104BC0000002FF1F30B4054B054D064C002210219A
:104BD0001A602A602060196030BC704714D003400E
:104BE00004D0034000D00340704700BF3F2801D8E5
:104BF000FFF77EBF704700BF3F2801D8FFF79EBF79
:104C0000704700BF72B60C490C4B0D4A1B68086810
:104C1000126862B6520102D5322B88BF01300949B1
:104C2000C3F5BB334FF47A72FF33A1FB031302FBCE
:104C300000F000EB93107047888BFF1F18E000E036
:104C400004ED00E0ABAAAAAA2DE9F843054672B626
:104C5000204F214B214A1B683C68126862B6520102
:104C600002D5322B88BF013495B3C3F5BB331C4E3C
:104C7000DFF86490DFF86480FF334FF47A72A6FBAC
:104C8000031302FB04F404EB931472B6D9F800107A
:104C90003A68D8F800E062B6C1F5BB33FF33A6FB33
:104CA00003031EF0806FC4EB93134FF47A7002D0AD
:104CB000322988BF013200FB0233B3F57A7F04D377
:104CC000013D05D004F57A74DFE701F00BF8DCE76D
:104CD000BDE8F883888BFF1F18E000E004ED00E0DA
:104CE000ABAAAAAAF8B54F4B4F48DFF860C14F4CAA
:104CF0004F49DFF85CE14F4E4F4D504F4FF000628F
:104D00001A604FF080521A604FF000521A604FF054
:104D100080421A604FF000421A600022282302608D
:104D20004BF6FF70CCF80000CEF8003023600EF593
:104D3000012E0B6033602B6006F500263B6005F505
:104D40000025A36207F500278B6204F5012401F515
:104D5000012106F6E87605F6E87507F57F6710315C
:104D60000EF1100E203433602B60CEF800303B6023
:104D70000B602360324CBB618B6109212160A7F578
:104D8000002704F58054203F08343A602060BB605F
:104D9000E36047F8041C04F5FD2407F5FE270437FB
:104DA00004F2FC7422603860A360FB6044F8041CC9
:104DB000083404F6FC74C7F8FC2F2060A4F5E12445
:104DC000A4F2DC7433602B60C7F8F81F21681D481B
:104DD00041F40071216001681B4C0EF57F4E0EF10D
:104DE000E80E07F5883706F5803605F5803541F081
:104DF00000710160CEF8002047F6FF71082239608B
:104E000033602B60226000F0E3FFFFF7EDFE14201B
:104E1000FFF71AFF00F00EFD4FF48C70BDE8F8406C
:104E2000FFF712BF04E100E0048003401480034058
:104E30001C800340248003402C80034034800340C6
:104E4000008003400480044000900C400880034030
:104E50000C800340431E032B14D872B60A4951F844
:104E6000230068B170B4094C058834F813204668F3
:104E700041F82360521B24F8132062B670BC7047BF
:104E800062B6704700207047E48BFF1F908DFF1FB4
:104E9000F0B472B61A491B4E012311F8014B194F99
:104EA0009A00240742F0010505D556F8324064B156
:104EB00056F83520BAB10133052BEED162B6124B4C
:104EC00000221A70F0BC00F037BD0F4C0F4D217856
:104ED00007EB4313083001395860217047F832500E
:104EE00062B6F0BC7047084A0949137807EBC5045D
:104EF0000830013B6060137047F8351062B6F0E788
:104F0000347900000000FF1F618CFF1F8800400003
:104F1000C8004000431E032B1DD81B4A400140F02F
:104F2000100030B4104472B6184CE25C032A1BD84F
:104F3000DFE802F00212151703220D88E25410F088
:104F4000080F14BFC823882343EA05430831416092
:104F5000036062B630BC704708300222EDE70522DC
:104F6000EBE708300422E8E7094A52F8230038B199
:104F7000084A52F82300416042F8231062B6E9E77C
:104F800042F82310034AF7E70000FF1F708CFF1F51
:104F9000388CFF1F488CFF1F2DE9F04FDFF824B33A
:104FA000DFF824A387B044E0B04F4FEA930807EB43
:104FB000C809013ED9F8042003F00803F6B2A2F1B3
:104FC000080003F0FF04002B40F00D8157F8383043
:104FD0001B0C99B222F8081C002B00F0FB80A44B9C
:104FE00022F8064C42F8044C53F82620002A00F020
:104FF0007781A04D55F8263058609F4C45F8260023
:1050000034F81630194424F8161000F075FC002806
:1050100000F05F81994A9A4B19F0080F00F10800DF
:1050200018BF1346C9F8040047F8383008238BF836
:1050300000309BF80040E4B261071DD5914B1B780E
:10504000BBB191490A7802F0FF032AB1013BDBB200
:105050000B70002B00F0D3838C490A7802F0FF0319
:105060002AB1013BDBB20B70002B00F02F8100F066
:1050700089FC04238BF8003004F0080303F0FF02DE
:10508000002B00F0DC809AF80030DBB21E098BD1D7
:105090009A08DFF8D88158F8321008EBC200C1F343
:1050A0008301013940680C297FD8DFE801F0828252
:1050B0007E7E7E7E7E7E457E7E7E0700D0F800E08E
:1050C000734C41686D4B48F83230724F724E6160DC
:1050D00040F281621FFA8EF1002501209142C8F84A
:1050E0001050C4F800E03D60C8F81850307000F26D
:1050F0000B81B1F5D06F80F04283B1F5817F00F074
:105100002B8300F26681802900F0CB82822940F057
:10511000E781A188614B01F07F01042900F2E18160
:105120005F4A89000B441570557019788D0740F15E
:105130004083107002205DE2564F3A685AB3594BD3
:105140005949554E18880C7896F800E040280546D5
:1051500084F0010C28BF402544F00204BEF1000F8A
:1051600081F800C0A0EB050008EBC40C0CBF88213F
:10517000C82180B28EF0010E41EA0541CCF804202E
:10518000188086F800E02A4448F8341010B9402D01
:1051900018BF00223A603E4B1A88B2F5A06F04D1C6
:1051A00000219A785970414B1A70414A01231370BB
:1051B0003CE7374C258842F221018D4200F097816F
:1051C00024683C49324D8C4200F05C812B4948F800
:1051D0003210EAE7294A2A4B19F0080F18BF134684
:1051E00047F8383022E700F0A7FB334A334952F83A
:1051F0002630002B78D058688C5D42F8260003F1E9
:105200000802C9F80420032C05D8DFE804F0120FC7
:10521000150204228A551A8819F0080F0CBF88233A
:10522000C82343EA024347F83830FFE602228A5592
:10523000F1E703228A55EEE705228A55EBE7E007FE
:1052400000F16D81210600F19781A20706D51C4A65
:105250001C4913780220DBB213700870E30602D5F4
:10526000184B10221A7007B0BDE8F08F0000FF1F26
:10527000E48BFF1F908BFF1F908DFF1FC800400025
:10528000880040006C8CFF1FF58BFF1F888CFF1F70
:10529000588CFF1F8C8BFF1FF48BFF1FC020074013
:1052A000648CFF1FA08BFF1F608CFF1F982007409E
:1052B0009420074021090003388CFF1F708CFF1FCA
:1052C00088200740802007409020074000F0A6FB80
:1052D000CDE6AE4A47F83800137801331370A5E6DF
:1052E00043F82600AA4D88E68B5D032B00F2D2819D
:1052F00001A252F823F000BF2D5000002D500000F5
:10530000735500006D55000040F62112914200F0E7
:10531000B58000F2DB80B1F5086F00F06781B1F570
:10532000106F40F0DD809B4AA1789B4D11700424E2
:1053300002E00134142C0CD058F834301A06F8D599
:1053400005EBC40301345868083800F0F5FA142C52
:10535000F2D19248924A934901909348934C8C4DD4
:10536000029400230497059681461C460F46164674
:105370000395306828B1456800F0DEFA2846002D14
:10538000F9D100233360039B38681A46002342F8A2
:10539000243028B1456800F0CFFA2846002DF9D115
:1053A00000223A60019A99F800301146002241F833
:1053B000042B029A0191023B4FF0000122F81410D5
:1053C000032B00F27781DFE813F0A7017101A70139
:1053D000710140F20232914240F02881A28802F02D
:1053E0007F02042A7CD86588002D79D1704901900C
:1053F000920011440A7842F002020A7000208146AD
:105400000290864602466B490C7844F0020C08EB89
:10541000CC030393019B002B039B5A600CBF882293
:10542000C822029B3570134384F0010248F83C30D7
:105430000A70DFF864C15F4B002840F00F81BEF1B5
:10544000400F1BD142F0020208EBC203DFF848E133
:10545000C3F80490002D40F01781050445F088053D
:105460009DF80430337040280C7009EB00034EF8AF
:10547000325003D10020504A3B6010804F4A012334
:10548000137092E66C684E498C427FF49FAE0178AF
:10549000A92900F0D3804B490120087045494A4EA4
:1054A0000C78307844F0020584F001040C7008EBAD
:1054B000C50100284FF000044C6080F001000CBFD3
:1054C0008821C82148F8351030707FE640F6212247
:1054D000914200F0AF8042F22122914200F0AA8076
:1054E000334B0F221A70354A012313705DE63149A0
:1054F000354E0F78357847F0020E87F001070F70B0
:1055000008EBCE01002D4FF000074F6085F001053C
:105510000CBF8821C82148F83E10357050E6274955
:105520001D4B2A48234EDFF888C0294DDFF8B8E02C
:10553000284F02240C70284C18605C609860274843
:10554000D8601A619A610D233270254C8CF80030B6
:10555000244EFF232B7001209F258EF800303A70D7
:1055600033702570087007B0BDE8F08F01238B55AC
:105570005CE500238B5559E50D491B4B80220D201E
:1055800008701A70A2077FF569AE60E6618CFF1F94
:10559000908BFF1F6C8CFF1F0000FF1F488CFF1FAC
:1055A000E48BFF1F388CFF1F708CFF1F908DFF1F37
:1055B000C0200740608CFF1FA08BFF1F9420074076
:1055C000010004007D8CFF1FF48BFF1F880040004A
:1055D0008820074098200740A48BFF1FF88BFF1FEF
:1055E000842007408C200740802007408449854A5A
:1055F00009781170E588854280F0F18082490C7845
:1056000044F0020C08EBCC00402DAE4628BF4FF012
:10561000400E426002EB0E094FEA0E430122CEEB30
:105620000500019202930025C822FAE6B1F5A06FA9
:105630007FF456AF012300250193DFE64178452929
:105640007FF429AF8178C2297FF425AFC1786B2917
:105650007FF421AF6D49052008701FE740287FF6D1
:10566000F1AE42F002020CEBC201C1F804907DB130
:105670006749684D9DF804601C702E70403809F130
:1056800040034CF83210F6E6050445F0C805E7E69D
:105690006149EEE719F0080F0CBF022303238B5575
:1056A000C4E4584A022015705570A3E74FF0010377
:1056B00089F800300134042C06F1040607F10407D0
:1056C00009F101097FF455AE544D554A554B059EDD
:1056D000049F019600202E4618704FF001091546D0
:1056E00016F8013B05F8043B1B071AD44FEA89045E
:1056F00044F0020144F00304002348F8313048F834
:105700003430494B9D4209F10109E9D1019E3378BA
:10571000019383F0010571E64FF0000389F8003032
:10572000C8E700F0E9F800284FD008EB49134FEA2A
:10573000890408305860384B48F8343000F0DCF801
:10574000002838D044F0010308EBC3010830304A88
:10575000486048F83320CBE7A28802F07F02042A91
:105760003FF6BEAE6588002D7FF4BAAE2F4901909A
:10577000920011440A7822F002020A703EE62C4997
:105780004A68002A3FF4ACAE6588B4F804E004E04F
:105790000C314A68002A3FF4A3AE0B88AB42F7D124
:1057A0004B887345F4D12D0A032D0CBF107808895E
:1057B00020E702201EE71B4B1A4A1B7844F0010128
:1057C000013348F83100137092E7164B154A1B78E5
:1057D0004FEA8904013348F834001370AEE74028DB
:1057E000864628BF4FF0400E4FEA0E430293012336
:1057F000CEEB000002EB0E090025019303E600BE8C
:105800006C8CFF1F648CFF1F608CFF1FF58BFF1FCC
:10581000C8004000F48BFF1F88004000347900006E
:10582000C4200740618CFF1FD4200740C0200740E0
:10583000387900002DE9F04101F056F800232349A2
:105840001A4601EBC30041F833200133142B4260A8
:105850004FF000041D48F4D11D491E4A0B68DFF8C3
:105860008C801D4F1D4D1E4EDFF884C0DFF884E094
:1058700043F480230B60136843F040731360C0F35C
:10588000072388F8003001F52831C0F307433B7047
:10589000000EFF23CC3102F5C922287002F5847274
:1058A0008CF800300F4D8EF800300F483370012314
:1058B00008F8083C70260C704FF40014102107F80B
:1058C0002C3C2E7004601170BDE8F0810000FF1FB9
:1058D0003480044000D80040B0200740B420074086
:1058E0001020074035E400E004E100E09C20074080
:1058F000802007408820074072B60D480268B2FA3F
:1059000082F30F2B10DC4FF00041D94022EA010254
:10591000026062B6074803EBC303DB00C218002134
:10592000C15010465160704762B60020704700BFFA
:10593000E412FF1FD003FF1F0D4B0E4AC31AA2FB38
:1059400003231B090F2B0CD80B4A127852B972B6DD
:105950000A484FF00041026821FA03F31A4302603B
:1059600062B67047064A1278002AF0D0FFF790BA64
:10597000D003FF1F398EE338618CFF1FE412FF1F35
:105980006C8CFF1F70B50A4C257845B9094E3168FB
:105990000123237009B14B8813B90023237070BD14
:1059A0009B000B800320FFF7B5FA3560F5E700BFD9
:1059B000748CFF1F788CFF1F38B5164D2868E0B136
:1059C00001884488A14213DD03191B7A83B104F1D5
:1059D0000803C2180C1B002302E012F8011F21B1BA
:1059E0000133A342F9D1204638BD1C46204638BDBC
:1059F000FFF7A2FF0020286038BD074B1B780BB9CA
:105A0000002038BD0220FFF725FA28600028D7D1F2
:105A1000F6E700BF848CFF1F6C8CFF1F0D4B1B78BB
:105A2000BBB910B50C4C216803F0FF024B883F2B2B
:105A300007DC07330B4401F1470003F8012F8342D1
:105A4000FBD140230B800120FFF764FA0023236081
:105A500010BD70477C8CFF1F808CFF1FF0B572B6A5
:105A600099B902688AB103790F2B0ED8284C218886
:105A700041FA03F5ED070AD503F1007303F59063CE
:105A8000B2EB431F03D162B6F0BD214C2188002345
:105A900041FA03F212F0010207D00133102BF7D1C3
:105AA00062B6002203710260F0BD01259D402943CA
:105AB000218062B6174E184D184FDFF868E0D9B252
:105AC0000171346844F0020434602C6844F002042C
:105AD0002C60A6F5802640F28244A5F5802503F1CE
