:1000000000800020BD0100009D3B0000553B00002A
:10001000553B0000553B0000553B0000553B0000A0
:10002000553B0000553B0000553B00009D3B000048
:100030009D3B0000553B0000554F0000594F00000C
:100040009D3B00009D3B00009D3B00009D3B000050
:100050009D3B00009D3B00009D3B00009D3B000040
:100060009D3B00009D3B00009D3B00009D3B000030
:100070009D3B00009D3B00009D3B00009D3B000020
:100080009D3B00009D3B00009D3B00009D3B000010
:100090009D3B00009D3B00009D3B00009D3B000000
:1000A000F52E0000012F00009D3B00009D3B00004D
:1000B0009D3B00009D3B00009D3B00009D3B0000E0
:1000C0009D3B00009D3B00009D3B00009D3B0000D0
:1000D0009D3B00009D3B00009D3B00009D3B0000C0
:1000E0009D3B00009D3B00009D3B00009D3B0000B0
:1000F0009D3B00007D5A00009D3B00009D3B0000A1
:100100009D3B00009D3B00009D3B00009D3B00008F
:100110009D3B00009D3B00009D3B00009D3B00007F
:100120009D3B00009D3B00009D3B00009D3B00006F
:100130009D3B00009D3B00009D3B00009D3B00005F
:100140009D3B00009D3B00009D3B00009D3B00004F
:100150009D3B00009D3B00009D3B00009D3B00003F
:100160009D3B00008D4100009D3B00009D3B000039
:100170009D3B00009D3B00009D3B00009D3B00001F
:100180009D3B00009D3B00009D3B00009D3B00000F
:100190009D3B00009D3B00009D3B00009D3B0000FF
:1001A0009D3B00009D3B00009D3B00009D3B0000EF
:1001B0009D3B00009D3B00009D3B0000564B4CF2D8
:1001C000205210B51A804DF628121A8000BF00BFC9
:1001D00003F0E8FC514B4FF010621A60504A9A60ED
:1001E000504ADA60504A136813F4807304D14F49BF
:1001F0000B604FF4A85313604D4B1A78110703D5C9
:100200001A7842F008021A704A4B4B492A221A7097
:100210004A4A4B4B8B4204D252F8040F43F8040B6A
:10022000F8E7484B484900228B4202D243F8042B9E
:10023000FAE74649464A002352F8230041F82300D2
:1002400001336F2BF8D1434B434A802103F8011B44
:100250009342FBD1414B3D4A1A60414B8A221A70AE
:10026000A3F5805324225A70A0221A709A7992071B
:10027000FCD59A79D406FCD43A4A937903F00C035E
:10028000082B384BF9D103221A7140225A719A79FE
:100290009006FCD5334A9179324B4906FBD5324A58
:1002A000324911600221516020221A709A7902F0BD
:1002B0000C020C2AFAD12E4B2E4A1A602E4B2F4AD2
:1002C0001A6000225A60072243F8042C2C4AC3F813
:1002D0000C2D62B603F030FE144B1B68DA0705D50F
:1002E000284803F0BBFD284B284A1A60284B1B788E
:1002F0005B0609D5244C254B22689A4204D121483B
:1003000003F0ACFD0023236003F052FC08F01AFF59
:1003100004F0C6FEFEE700BF0E200540308004401A
:10032000823F04000100002B10D0034014D0034092
:1003300002D0074000E007405497FF1FA8A100002B
:100340002087FF1F5497FF1FA40F00200082FF1F6C
:100350000000000000E400E05FE400E008ED00E0E1
:100360000050064000400640448004400000030165
:1003700004800440C010050014E000E0FF76010096
:1003800000002020F6B63B621CE00340A5C3945A4F
:1003900000F00740FFFFFFFFFFFFFFFFFFFFFFFF32
:1003A000FFFFFFFFFFFFFFFFFFFFFFFFFFFFFFFF5D
:1003B000FFFFFFFFFFFFFFFFFFFFFFFFFFFFFFFF4D
:1003C000FFFFFFFFFFFFFFFFFFFFFFFFFFFFFFFF3D
:1003D000FFFFFFFFFFFFFFFFFFFFFFFFFFFFFFFF2D
:1003E000FFFFFFFFFFFFFFFFFFFFFFFFFFFFFFFF1D
:1003F000FFFFFFFFFFFFFFFFFFFFFFFFFFFFFFFF0D
:10040000FFFFFFFFFFFFFFFFFFFFFFFFDEF9FFFF23
:1004100010B5054C237833B9044B13B10448AFF33E
:1004200000800123237010BD5497FF1F00000000BF
:10043000A4A10000084B10B51BB108490848AFF350
:1004400000800848036803B910BD074B002BFBD0A0
:10045000BDE81040184700BF000000005897FF1F7C
:10046000A4A100005497FF1F00000000704700BFC8
:10047000FF2800D97047064B064910B504462246AE
:10048000186902F0CDF9044BE0B2187010BD00BF3E
:100490007C0D00208C98FF1F7D98FF1FF0B5B1F1F7
:1004A000000E27DB154F3E5CB64523DC12F1800FB2
:1004B00020D0BEF1070F1EDC11490EF18045013D31
:1004C00005EBC00501EB401301EB85051C3353F828
:1004D000044C43F80449AB42F9D10136082E094BCC
:1004E000A8BF0826F6B20EEBC00E3E541E5441F8CB
:1004F0002E20F0BDF0BD0249EFE700BF7497FF1F4B
:10050000100B00209807002000291ADB30B40E4D94
:100510002C5CA14214DC07290CDC0C4B01EBC00164
:10052000421C03EB810103EB42124B6841F8043B90
:100530009142FAD1631E2CB1DBB2054A2B541354FD
:1005400030BC70470023F8E77497FF1F100B0020A2
:100550009807002010B40A4A002302EB401252F818
:10056000044B8C4204D00133082BF8D110BC7047E7
:10057000C2B2072AFAD859B240B210BCFFF7C4BFC2
:10058000100B002000290ADB054B1B5C994206DC9E
:10059000002A04DB01EBC001024B43F82120704725
:1005A0007497FF1F100B00204301094903F120023B
:1005B00010B40A440B44002443F8044B93424FF018
:1005C0000001F9D1034A044B1154195410BC70476F
:1005D000100B00207497FF1F9807002000281ADDD9
:1005E000F0B40D4B0D4E1D7805F180410139013DF0
:1005F00006EB81010024002D376806DD074B53F818
:10060000042F43F8042C9942F9D10134A04246F852
:100610002570F0D1F0BC7047650D0020B099FF1F28
:1006200000281DDDF0B50F4B0F4E1D7805F1804EF3
:100630000EF1FF3E013D06EB8E0E31460024002DEB
:1006400056F82570C8BF734605DD53F8042C43F8EF
:1006500004298B42F9D10134A0423760EFD1F0BDBB
:10066000704700BF650D0020B099FF1FF0B5012154
:1006700089B0032003F00CFC0121022003F008FCE8
:10068000494E4A4B4A4A717B30691B7804920025D7
:1006900001221227132405920395009502970194D5
:1006A00002F038F8434B4448444C1D7029464FF43F
:1006B000807209F037F833694149424E2068424A56
:1006C000424D434FC3F86862C3F86C1240F2EE2605
:1006D00013783BB12B78DB0704D5236839685B1AA4
:1006E0000E2B07D8236811781B1A002959D0B3F5AF
:1006F000FA6FEDD9374D384E6B6D1868036847F6C1
:100700001221DB699847236807930121079AC5F8EE
:10071000002101FA01F300244FF6FF720B4385F824
:10072000581085F8703085F85A4085F859406C6645
:100730002C6685F8F84085F8754085F8744085F892
:10074000764085F87740C5F8FC40AA66EA663068CE
:100750001E212044243402F0BBFCB4F5907FF6D176
:1007600004240121022003F08DFB642003F096FB9A
:100770000121032003F086FB642003F08FFB00219E
:10078000022003F07FFB642003F088FB002103209C
:1007900003F078FB642003F081FB013CE1D109B058
:1007A000F0BDB34294D9A5E77C0D00200C88FF1F53
:1007B000801A06007D98FF1F8C98FF1F940D002063
:1007C0005922000071040000780E0020900E0020D5
:1007D0009C0F0020100C0020E80A002000B5012822
:1007E00083B0014610D0022802D003B05DF804FBAC
:1007F000012103F047FB0A4A0A4B12680192019A51
:100800001A6003B05DF804FB032003F03BFB044ACD
:10081000054B12680092009A1A6003B05DF804FB61
:10082000940D00208498FF1F8098FF1F10B50D4A7B
:100830000D4B12681B6882B00192019CE31A092BD0
:100840000AD80A4B1B68E41A092C03D9002102209C
:1008500003F018FB02B010BD0021032003F012FBCF
:10086000EFE700BF940D00208098FF1F8498FF1FC2
:10087000F8B50F4D0F4E2B780F4F0133DBB203F05D
:1008800007002B70307008243B6800EBC00003EBBE
:10089000800002F011FC48B12B780133DBB203F089
:1008A0000700013C2B703070EED1F8BD3078F8BDF8
:1008B00055A8FF1F8998FF1FE80A00202DE9F84F6F
:1008C00017469DF82890214C05460E469846002272
:1008D00004E00132082A04F10C040DD054F8041C81
:1008E0008D42F6D123689E42F3D12AB102EBC202B7
:1008F0004FEA820B164C20E040F2F45306EB46021E
:1009000003FB05F303EB8203124A114C52F803A0D8
:10091000FFF7AEFF00EB40030F4A9B0000EBC00067
:100920004FEA800B2068D5501344514658440122A9
:100930005E60C3F8089002F0A7FB20684246584466
:100940003946BDE8F84F02F09FBB00BFD8A7FF1F94
:10095000E80A002058A8FF1FD4A7FF1FB8B4154B02
:1009600019788B000A3323F0070300AFADEB030DBA
:100970006B4671B1104D01F18042013A05EB8202E4
:10098000ADF10400043D52F8044940F8044FAA4276
:10099000F9D161B101F18042013A084903EB8202C9
:1009A000043B53F8040F41F8040F9342F9D1BD46BC
:1009B000B8BC7047650D0020B099FF1FAC99FF1FB0
:1009C000F8B51A4D00242B4604E00134082C03F13D
:1009D00010030ED01A688242F7D15A688A42F4D1C5
:1009E0001C21134804F012F9124804F045FB60B2D0
:1009F000F8BD114F39784B1CDBB209313B70C9B2DD
:100A000003F00700002605EB00125C1C52684AB197
:100A1000E3B2994203F007004FF00106F3D13970B9
:100A200040B2F8BD002EFBD03B70F9E7DC97FF1F0A
:100A3000349C0000488EFF1F640D002038B590F9EB
:100A4000014090F90250002C04DD013CE0B207287F
:100A50000AD938BDFDD160B22A4600210134FFF722
:100A60001DFD082CF7D1F4E72A4640B20021BDE86D
:100A70003840FFF713BD00BF38B590F9014090F939
:100A80000250002C05DD601E072801DC7F2D0DD9EA
:100A900038BDFDD17F2D04D90134082CF8D07F2D2D
:100AA000FAD829462046FFF755FDF5E72946BDE867
:100AB0003840FFF74FBD00BF10B590F90140002C42
:100AC00003DD601E07280EDD10BDFDD12046013478
:100AD000FFF76AFD082CF7D020460134FFF764FDCC
:100AE000082CF3D1F0E7BDE81040FFF75DBD00BF73
:100AF00090F90130DAB2082A17D890F90200C1B291
:100B00004A1E072A11D8094AD25C9042D8BF0A4629
:100B100023B107490B4403F8012C7047054B03F13F
:100B2000080103F8012F8B42FBD170477497FF1F18
:100B3000980700209707002090F90120D3B2082BD6
:100B400015D890F902100F4B0B40002B10DB591CED
:100B500008BF012322B1013A0B4941F82230704706
:100B60000A4A02F1200142F8043F9142FBD170474A
:100B7000013B63F001030133591C08BF0123002A24
:100B8000E9D1EDE7010000805C98FF1F5898FF1F36
:100B900090F90120D3B2082B13D88178C37843EAA7
:100BA00001231BB2002B0CDB22B1013A054941F8AD
:100BB00022307047044A02F1200142F8043F8A4281
:100BC000FBD17047BC97FF1FB897FF1F70B5104B44
:100BD00090F9014085781B5D90F903605D1B002C46
:100BE0006DB204DD013CE0B207280AD970BDFDD129
:100BF00060B2324629460134FFF750FC082CF7D189
:100C0000F4E73246294640B2BDE87040FFF746BCE3
:100C10007497FF1F38B50F4B90F9014085781B5D25
:100C20005D1B013D002C6DB204DD013CE0B20728E4
:100C300009D938BDFDD160B229460134FFF764FC03
:100C4000082CF8D1F5E7294640B2BDE83840FFF757
:100C50005BBC00BF7497FF1F70B5114B90F901404A
:100C600085781B5D90F903605D1B013D002C6DB222
:100C700004DD013CE0B207280AD970BDFDD160B2A5
:100C8000324629460134FFF77DFC082CF7D1F4E702
:100C90003246294640B2BDE87040FFF773BC00BF42
:100CA0007497FF1F70B590F90150EBB20F2B21D84C
:100CB00090F90220002A1DDB90F90310002919DBAE
:100CC0004379047943EA042424B201EBC216B4F553
:100CD000804F31462846A8BF4FF48044FFF770FE8E
:100CE0000549064B00010A189C42B8BF1C460D502E
:100CF0009460566070BD00BFDC97FF1F00C0FFFF0F
:100D000070B590F90150EBB20F2B17D88478C378E7
:100D100003EBC414B4F5804F10DA0679437943EA43
:100D2000062636B2002E09DB21462846FFF748FE8C
:100D3000034A0001131815505C60DE6070BD00BFEF
:100D4000DC97FF1F2DE9F041E0290C469DF8185073
:100D500008D8013DEDB20F2D02D849B2002912DBAF
:100D6000BDE8F081F729FBD90834E4B2012303FA86
:100D700004F414F0DD0FF3D0436D18680368BDE888
:100D8000F0411B6818471F46436D8046186803688A
:100D90002943C9B21B6816469847D8F854301868DA
:100DA000036806F07F011B6804F0EF049847C02C2D
:100DB000D6D0D8F854301868036807F07F011B6854
:100DC000BDE8F041184700BF00B5013083B0C0B2A4
:100DD0000090D3B20548CAB2B021FFF7B3FF01209B
:100DE00003B05DF804EBFFF7F9BC00BF100C002066
:100DF0002DE9F0410C4606464FEA410840F2F45115
:100E000008EB040001FB06F1234F01EB800139449C
:100E100082B08D68551935D443F6FF729542A8BF4C
:100E2000154640F2F45202FB06F208EB040102EB15
:100E300081023A445268D3B932BB184B690083FB34
:100E40000123C917C1EBE30303F0010202EB6302C4
:100E500021463046FFF7B8FF40F2F453444403FB09
:100E600006F606EB84043D5102B0BDE8F081002A8D
:100E7000E3D00021134600912A4621463046FFF771
:100E80001DFDE9E70025CCE700932A460123214612
:100E90003046FFF713FDDFE758A8FF1F813FE00F43
:100EA00090F90330002B0CDB90F90420002A08DBBA
:100EB00010B490F901400F2C02D881787F2901D914
:100EC00010BC704702EBC3122046012310BCFFF791
:100ED0008FBF00BF90F90330002B0DDB90F9042089
:100EE000002A09DB10B490F901400F2C03D890F9C7
:100EF00002107F2901D910BC704702EBC3122046B3
:100F0000002310BCFFF774BFF8B5CB111D061CD42D
:100F1000D7113C0619D4044615460E46DAB26321B1
:100F2000FFF752FF06F07F0220466221FFF74CFFD9
:100F3000FAB220460621FFF747FF05F07F02204660
:100F40002621BDE8F840FFF73FBFF8BDF0B5154FCB
:100F500083B03C46002566688E4204F1100414D02C
:100F60000135082DF7D100252C46A2180BD4B2F577
:100F7000804FA8BF4FF4804203B15DB903B0BDE814
:100F8000F040FFF7C1BF0022F6E707EB0515AC689C
:100F9000ED68EAE701242B460094FFF78FFC03B0CD
:100FA000F0BD00BFDC97FF1F90F90230002B09DB7A
:100FB00090F90310002905DB30B490F901400F2CA3
:100FC00001D930BC70470579427901EBC311204645
:100FD00002EBC512012330BCFFF7B8BF90F9023015
:100FE000002B09DB90F90310002905DB30B490F9E0
:100FF00001400F2C01D930BC70470579427901EBD3
:10100000C311204602EBC512002330BCFFF79EBF80
:101010002DE9F0471D4F1E4E1E4DDFF87C90B8465F
:10102000002407E02434B4F5907F06F1040605F1AE
:101030000C0525D03868204402F03EF80028F1D095
:10104000D8F80000204402F0FDFB420089FB0213A7
:10105000D217C2EBE30303F0010A32680AEB630A1A
:1010600052458646524608D0A96895E808100129DD
:101070001846614606D0FFF7A7FEC6F800A0D1E7E4
:10108000BDE8F0877246FFF73FFFF6E7E80A002069
:101090008C99FF1FD4A7FF1F813FE00F0F2812D8A4
:1010A0007F2910D800B5013083B0C0B20090CAB219
:1010B0000023C0210448FFF745FE012003B05DF87E
:1010C00004EBFFF78BBB7047100C00200F2816D8DD
:1010D00000B501F30D0283B0013002F50052C0B239
:1010E0000090C2F3C713E02102F07F020448FFF72B
:1010F00029FE012003B05DF804EBFFF76FBB7047DA
:10110000100C00200F2814D800B5002983B011DB83
:101110007F2911DD7F220130C0B200900023D02151
:101120000648FFF70FFE012003B05DF804EBFFF760
:1011300055BB70470022EEE7CAB2ECE7100C002066
:101140000C4B1B788B4214DC0B4B1B78994210DC48
:1011500000B5013083B0C0B20090D3B20748CAB224
:101160009021FFF7EFFD012003B05DF804EBFFF7DE
:1011700035BB70477197FF1F0288FF1F100C0020BE
:1011800000B5013083B0C0B20090CAB20023802104
:101190000448FFF7D7FD012003B05DF804EBFFF72B
:1011A0001DBB00BF100C00202DE9F04F604C94F9DE
:1011B00000500D447F2D85B000F2A480002BC0F2BA
:1011C000A180002A40F3AF804FEAC008C0EB0809B5
:1011D0004FEA4919574E7F2A09F1E00AA8BF7F223A
:1011E00004461746B244B1444FF0000B03E009F146
:1011F0001C09D14513D0D9F800209542F7D1D9F870
:101200000C20012AF3D129462046019309F11C093B
:10121000FFF7B6FF49F810BCD145019BEBD1DFF8D1
:101220002CE145495EF824200132114000294EF896
:10123000242073DBDFF81891C4EB080C49F8241064
:101240004FEA4C1C082203E0013A49F8241018D058
:10125000C1EBC1010CEB810170183749C06801284E
:101260000FD15EF824000130014000294EF824001F
:10127000EADA013961F007010131013A49F8241035
:10128000E6D12E4A117801293FD92D4A107893FBD7
:10129000F0F22C4B02EB8202C2EB021283FB02E360
:1012A000D217C2EB6313002B2CDD59F824C0C4EB1A
:1012B00008024FEACC0E5201CCEB0E0902EB890278
:1012C000324410FB01F15161C4EB08084FEA4812A7
:1012D0001D49CCEB0E0802EB880806EB080E0A68E5
:1012E000039246F808502046CEF80830039CCEF80A
:1012F000107001233A462946CEF80440CEF80C304F
:10130000FFF71EFF05B0BDE8F08F0D4A10780128E9
:10131000BDD859F824C04FEACC0ED5E7013961F0A9
:101320000701013186E72946FFF72AFFEAE700BFF8
:10133000D099FF1FD499FF1F070000800388FF1F6B
:101340000488FF1F1F85EB51940D00207C97FF1F21
:10135000240D00202DE9F04F87B00F28109C00F2DB
:10136000A8807F2900F2A580002BC0F2A280072C64
:1013700000F29F805A4D5B4F2D5DDFF888B15A4EC9
:101380003F5D8BF800503770002D00F09280DFF841
:1013900078E1564DDFF874C1554E5EF824E055F8FB
:1013A00024505CF8249056F824A09FB1514EDFF8E9
:1013B000608107F1804C07EBC4040CF1FF3C06EBA5
:1013C0008C0C08EB8404043E54F8047D46F8047F3A
:1013D0006645F9D11F46029203910190BEF1000FBC
:1013E0007AD1002D07D06EDD05F17F03FE2B02D8E8
:1013F0002846FFF715F99BF80000002859D03D4E0C
:101400004FF000083346454656469A4607E0FFF738
:10141000CBFE9BF800000135A842B04449DD431ED5
:10142000B9F1000FA3EB05034B44B8BFC5EB0903AB
:1014300093FBF0F006F0F2FF04F0C2FC00222E4B0A
:1014400007F052F807F000FB039B5AF82510DFF86D
:10145000C4C0DFF8C4E0029A194404460C443B4679
:101460000198214645B3002ED1D0244BDCF8002052
:101470001B780592224805995A1C03EB83034144CB
:101480004EF823400EEB830E80FB0240D317C3EBD4
:10149000E0032A2000FB1323029ACEF80C20019AC5
:1014A000CEF81020154ACEF80870CEF8041013704C
:1014B000AFE707B0BDE8F08F21463B46029A01989E
:1014C000FFF772FEA5E7C5F17F03FE2BC5F1000013
:1014D00091D8FFF783F88EE7FFF740FA81E700BF66
:1014E000980700207497FF1F650D0020F00A002068
:1014F000BC97FF1FB099FF1F00002840AC99FF1F49
:10150000310CC330200D00205C98FF1F34A8FF1F52
:10151000100B0020940D0020A007002010B5847847
:10152000074B90F9042090F903101B6890F9010013
:1015300082B0013C64B20094FFF70CFF02B010BD12
:101540000888FF1F2DE9F043174B184C1B68DFF884
:10155000608083B0251F0193DDF8049005F5537773
:1015600000260FE098F8003044F8046C013B6E60F0
:1015700088F800306660A660E6601434BC4205F16D
:1015800014050ED06B68002BF7D04B45F5D2E06800
:101590000F28E7D86368A26854F8041CFFF704FE1C
:1015A000E0E703B0BDE8F083940D0020A40700201D
:1015B000AC99FF1F10B490F901400F2C01D910BC59
:1015C0007047054B90F9032090F902101B682046E4
:1015D00010BCFFF7E9BD00BF0888FF1F2DE9F04FE1
:1015E000DFF8C8A02F4DDAF800302F4EDFF8C080AA
:1015F000DFF8C09083B04FF0000B0093009FA5F17F
:10160000E00411E0616801290BD954F8080C54F882
:101610000C1C02FB00F2A8FB0232791AB1EBD20FCC
:1016200023D81C34A54216D054F8042C3AB154F8EF
:10163000082C22B154F80C1C791A8A4228D331782C
:1016400001294FF06402DDD899F800100129D9D89A
:101650001C34A542E8D10BF1010BBBF1100F05F1D1
:10166000E005CCD103B0BDE8F08FDAF8002001929C
:101670000198226844F80C0C012354F8101C44F81B
:10168000043C5846FFF75CFD6268013A6260C8E7B7
:1016900054F8101C5846FFF773FD002344F8043C2F
:1016A000CDE700BFC49AFF1F0388FF1F940D0020E1
:1016B000B5814E1B0488FF1FF8B51D4B1D4F1E4EF4
:1016C0001E4C1F481F4A64210025196001237F21F9
:1016D0003D70357023700370117000242146284638
:1016E0000134FFF74DFD802CF8D10135102DF4D1D8
:1016F000154B002203F5606003F1E0015A619A6125
:101700001C339942FAD181420B46F5D10F4C104B54
:10171000207803F5527100221A605A609A60DA60EC
:101720001A6114339942F7D1A0F12A032370F8BD4E
:101730000888FF1FD099FF1F7197FF1F0388FF1FA5
:101740000488FF1F0288FF1FD499FF1FAC99FF1F59
:10175000A0070020F8B5314C314F94F87030DFF815
:10176000D0E0C7F800E0012243F00103002562F356
:1017700047034FF6FF7684F8703029462560656090
:10178000A560E56025616561A561E5612562656229
:10179000A562E56225636563A563E5632564656409
:1017A000A564E564256584F8585084F8595084F898
:1017B0005A5025666566A666676504F17800E66698
:1017C000802284F8745084F8755084F8765084F838
:1017D000775084F8F85007F0A5FF2046114A1249C7
:1017E000C4F80051C4F80451C4F8085184F80C51ED
:1017F00084F80D5106F0BAFC4FF4907003F05AFCD7
:101800000646044600F590752046243401F008FC95
:10181000AC42F9D1054B1E60F8BD00BF100C002092
:10182000EC0A0020FC87FF1F6D040000E80A00207E
:10183000308EFF1F4378013BDBB2072B06D8074AE7
:1018400052F8231001F12003402B03D90021044852
:1018500000F038BDC9B2024800F034BD34A8FF1F03
:101860007C0D002038B590F9012090F902400E4D12
:101870000E48D3B20F2B40F2F45188BF002224EA65
:10188000E47401FB02F204EB440402EB84032B44F6
:101890009C68C4F3072100F015FDE1B20348BDE8E0
:1018A000384000F00FBD00BF58A8FF1F7C0D00207E
:1018B00038B590F9012090F902400E4D0E48D3B290
:1018C0000F2B40F2F45188BF002224EAE47401FB9C
:1018D00002F204EB440402EB84032B445C68C4F37F
:1018E000072100F0EFFCE1B20348BDE8384000F00A
:1018F000E9BC00BF58A8FF1F7C0D002038B590F947
:101900000140E3B20F2B1FD890F90220002A1BDB05
:1019100090F90330002B17DB114D03EBC2102B465F
:10192000002204E00132082A03F110030CD01968E8
:101930008C42F7D159688842F4D105EB02129168C4
:10194000CCB2C1F3072101E000210C46054800F0AC
:10195000B9FC21460348BDE8384000F0B3BC00BFE5
:10196000DC97FF1F7C0D00200021014800F0AABC7D
:101970007C0D002010B40E4B90F9024090F901202C
:101980000C492340002B0ADB120142FA83F311F8C1
:1019900013100B0608D4084810BC00F093BC013BA0
:1019A00063F00F030133EFE710BCFFF7DDBF00BFAB
:1019B0000F000080240D00207C0D00204378013BA7
:1019C000DBB2072B05D8044A044812F8231000F0B4
:1019D00079BCFFF7C9BF00BFF00A00207C0D0020D2
:1019E0004378013BDBB2072B05D8044A044812F8C0
:1019F000231000F067BCFFF7B7BF00BF5C98FF1F64
:101A00007C0D0020054B93F9001011F1800F03D0DD
:101A1000C9B2034800F056BCFFF7A6BFD099FF1F1C
:101A20007C0D002010B40F4B90F9024090F901108A
:101A30000D4A2340002B0CDB090141FA83F302EB32
:101A4000430359784BB2002B08DD084810BC00F066
:101A500039BC013B63F00F030133EDE710BCFFF726
:101A600083BF00BF0F000080240D00207C0D0020EC
:101A7000FF21014800F026BC7C0D0020044B1978A2
:101A80000B0602D4034800F01DBCFFF7F1BF00BFF6
:101A90007097FF1F7C0D0020044B19780B0602D4B1
:101AA000034800F00FBCFFF7E3BF00BF54A8FF1FBF
:101AB0007C0D0020044B19780B0602D4034800F07B
:101AC00001BCFFF7D5BF00BF8898FF1F7C0D002029
:101AD000044B19780B0602D4034800F0F3BBFFF760
:101AE000C7BF00BF7C98FF1F7C0D0020044B1978F6
:101AF0000F2902D8034800F0E5BBFFF7B9BF00BFCC
:101B00000088FF1F7C0D002090F90130064990F9F4
:101B10000220C3EBC3130B44995C0B0602D40348A9
:101B200000F0D0BBFFF7A4BF34A8FF1F7C0D00203E
:101B3000044B19780B0602D4034800F0C3BBFFF72F
:101B400097BF00BF7297FF1F7C0D002038B5074B71
:101B5000074C1D682046C5F3072100F0B3FBE9B22E
:101B60002046BDE8384000F0ADBB00BF0888FF1F2D
:101B70007C0D00204378013BDBB2072B5AB207D81B
:101B8000054B995C4B1E072B02D8044800F09ABB0A
:101B9000FF21024800F096BB980700207C0D002032
:101BA00010B5054CFF21204600F08CFB2046FF219C
:101BB000BDE8104000F086BB7C0D002010B50A4B3C
:101BC0001C78013CE4B2230609D40021074800F048
:101BD00079FB21460548BDE8104000F073BBBDE825
:101BE0001040FFF7DDBF00BF0488FF1F7C0D002001
:101BF00010B50A4B1C78013CE4B2230609D400213D
:101C0000074800F05FFB21460548BDE8104000F0A2
:101C100059BBBDE81040FFF7C3BF00BF0388FF1FDB
:101C20007C0D00204378013BDBB2072B0ED810B5AA
:101C3000074A084852F82340C4F3072100F042FB4A
:101C4000E1B20448BDE8104000F03CBBFFF7A8BF7C
:101C5000BC97FF1F7C0D002038B590F90140E3B21E
:101C60000F2B1FD890F90220002A1BDB90F90330BC
:101C7000002B17DB114D03EBC2102B46002204E0B2
:101C80000132082A03F110030CD019688C42F7D1F5
:101C900059688842F4D105EB0212D468C4F30721D5
:101CA000E4B201E000242146054800F00BFB214688
:101CB0000348BDE8384000F005BB00BFDC97FF1FBC
:101CC0007C0D002070B40B78013B0A469B2B00F280
:101CD000B180DFE813F079026E0267025D025602FE
:101CE00052024B0240023702300227021202AF00BA
:101CF000AF00AF00AF00AF00AF00AF000E020102B7
:101D0000FE01AF00AF00AF00AF00AF00AF00AF000B
:101D1000FA01F201EE01EA01E301F601DC019C00A7
:101D2000D501D101CD01C601A1019A017B01770145
:101D3000AF00AF00AF00AF0073016C01680161013B
:101D40005D015901AF00AF00AF00AF005201480183
:101D500041013101290139012101AF00AF00AF007C
:101D6000AF00AF00AF00AF00AF00AF00AF00AF00FB
:101D7000AF00AF00AF00AF00AF00AF00AF00AF00EB
:101D8000AF00AF00AF00AF00AF00AF00AF00AF00DB
:101D9000AF00AF00AF00AF00AF00AF001701AF0062
:101DA000AF00AF00AF00AF00AF00AF00AF00AF00BB
:101DB00011010B01AF00AF00AF00AF00AF00AF00EB
:101DC000AF00AF000501AF00AF00AF00AF00AF0044
:101DD000AF00AF00AF00AF00FF00F900F300ED006F
:101DE000E700E100AF00AF00AF00AF00AF00AF0011
:101DF000AF00AF00AF00AF00AF00AF00AF00AF006B
:101E0000DB00D700CF00CB00D300C500B10092F9B2
:101E10000130D9B208290DD892F9021001F120023F
:101E2000D2B2402A06D8002B00F0D581013BB64A39
:101E300042F8231070BC704792F90130D9B20829DA
:101E4000F8D892F9021001F10802D2B2102AF1D8A2
:101E5000002B00F0C881013BAC4A42F82310E9E7AF
:101E60000028E7D0104670BCFFF7A8BD104670BC34
:101E7000FEF7D0BE104670BCFEF7A8BE104670BC80
:101E8000FEF7EABE104670BCFEF782BE0028D1D035
:101E9000104670BCFFF7C6BE0028CBD0104670BC01
:101EA000FFF746BE0028C5D0104670BCFFF7E6BD60
:101EB0000028BFD0104670BCFFF7EEBD0028B9D097
:101EC000104670BCFFF7F6BD0028B3D0104670BCBA
:101ED000FFF7FEBD0028ADD0104670BCFFF706BE70
:101EE0000028A7D0104670BCFFF70EBE0028A1D076
:101EF000104670BCFFF796BD00289BD0104670BC02
:101F0000FFF738BD92F90130012B93D8002B40F038
:101F100072817F4A13708DE77E4B5B6D1868036892
:101F2000FB211B6870BC18477A4B5B6D186803680F
:101F3000FA211B6870BC1847764B5B6D1868036804
:101F4000F8211B6870BC1847724B5B6D18680368FA
:101F5000FC211B6870BC184792F9021092F901002D
:101F600070BCFFF7CFB89178D37892F9010043EABB
:101F7000012109B270BCFFF7A9B892F9021092F9D9
:101F8000010070BCFFF78AB8104670BCFFF726B896
:101F9000104670BCFEF7B4BE00283FF44BAF1046AD
:101FA00070BCFFF759BE104670BCFEF77BBE002820
:101FB0003FF440AF104670BCFFF7A0BC104670BCA9
:101FC000FEF7F2BF104670BCFEF784BF92F90140E5
:101FD000E3B20F2B3FF62EAF92F902000028FFF676
:101FE00029AFD178137943EA01231BB2002BFFF606
:101FF00021AF40F2F45101FB04F100EB4000464CEC
:1020000001EB80022244536014E700283FF412AF32
:10201000104670BCFFF74CBC92F90130D9B20F29C1
:102020003FF608AF92F902100029FFF603AFD67809
:1020300010793A4C384D40F2F45201EB410102FB69
:1020400003F200EB062002EB810302B243F6FF71BC
:102050008A42A8BF0A462B44A242B8BF22469A60D1
:10206000E8E600283FF4E6AE104670BCFFF7FABB86
:10207000104670BCFEF714BF104670BCFEF75CBD86
:1020800000283FF4D7AE104670BCFFF7A9BC00286B
:102090003FF4D0AE104670BCFFF7CCBB00283FF435
:1020A000C9AE104670BCFFF765BD104670BCFEF7A8
:1020B00003BD104670BCFEF7DFBC104670BCFEF7D7
:1020C000BDBC104670BCFEF713BD104670BCFFF7D8
:1020D00025BA70BCFFF7F0BA92F901000F283FF65D
:1020E000A9AE92F902107F293FF6A4AE70BCFFF7AB
:1020F00047B8104670BCFFF75DBA92F90130084A44
:1021000023EAE373137095E634A8FF1FF00A00205A
:102110000188FF1F100C002058A8FF1F01C0FFFFFF
:102120000288FF1F00283FF485AE354B35481978EB
:1021300070BC00F0C7B892F90130334A23EAE37368
:10214000137077E600283FF475AE2F4B2D481978B1
:1021500070BC00F0B7B8517893782C4A43EA012359
:102160001BB283F307030133137063E600283FF4C7
:1021700061AE104670BCFFF721BD51789378244AB8
:10218000ECE700283FF456AE104670BCFFF730BDB8
:1021900092F901301F4A13F1800F08BF6FF07E03E0
:1021A000137047E600283FF445AE104670BCFFF7B9
:1021B00029BC5178937843EA01231BB2002BFFF628
:1021C00039AE154A136035E600283FF433AE1046A9
:1021D00070BCFFF7BBBC114B03F1200243F8041F96
:1021E0009342FBD126E60E4B03F1200243F8041F75
:1021F0009342FBD11EE60B4B01221A701AE600BF78
:102200000288FF1F7C0D00207197FF1F0488FF1FAD
:102210000388FF1FD099FF1F0888FF1F30A8FF1FEA
:10222000EC0A00200188FF1F10B5094C23782BB160
:1022300008490020FFF746FD00232370FFF7CEF981
:10224000FFF780F9FEF7E4FEBDE81040FEF7EEBAB6
:102250007D98FF1F8C98FF1F01490120FFF732BDB9
:102260008C98FF1F002070470369D3F83801D3F81A
:102270003431C01A704700BF0369D3F83411D3F862
:102280003821914208D2D3F83421511C1A44C3F8A2
:10229000341192F8300070474FF0FF30704700BFA4
:1022A0000369D3F83411D3F8382191423DBFD3F8F4
:1022B00034219B1893F830004FF0FF30704700BF77
:1022C000704700BF0369D3F84422B2F5817F03D978
:1022D0000123037100207047D3F8442210B49C18E6
:1022E0000132C3F8442284F83C11012010BC70472D
:1022F00038B503690A4A026093F84822022A044664
:1023000001D0204638BDD3F87452002DF9D02846AC
:1023100002F0E4FD2846082102F0CEFE204638BD3A
:102320005C9C000038B503690546D3F84402B0F55B
:10233000817F1AD81446D3F84422D3F84402C2F558
:102340008172013203F59E73A242184402D2012326
:1023500014462B71224601F029FB2A69D2F8443237
:102360002344C2F84432204638BD01232B7100209B
:1023700038BD00BF2DE9F0471E46044617469DF8BC
:1023800020909DF824309DF828A00D4659B30129CE
:102390000FD090F84A329A424FF0000800D14DB366
:1023A000012D0ED094F84B329E4212D00020BDE891
:1023B000F0871D2F4FD01A2F77D094F84A324FF064
:1023C00000081E2E1AD01F2E6DD094F84B329E425C
:1023D000ECD1BAF1000FE9D00025B8F1000FE5D03B
:1023E000002DE3D031E0102A35D0132A33D090F8F5
:1023F0004A328846A6F11103012BE6D8022594F84B
:102400004B329E4257D0BAF1000F09D094F84C32AB
:1024100094F84B02002B14BF0221002101F038FD7B
:102420002B02B9F1000F13D143F06403264A02EBEB
:10243000C60201215268136084F84B6284F84C9202
:1024400084F89912B8F1000FB0D00120BDE8F087F0
:1024500043F00303EAE74FF0020894F84A22974258
:1024600026D04BB194F84C3294F84A02002B14BF9A
:102470000221002101F00CFD4FEA0822B9F1000F02
:102480000ED142F06402104B03EBC70359680123DD
:102490000A6084F84A7284F84C9284F898327EE795
:1024A00042F00302EFE70625A9E74FF00608D4E75C
:1024B000002BE1D073E7BAF1000FB1D0B8F1000FF3
:1024C0003FF474AF8CE700BF8C9D0000F8B5C36883
:1024D0001B789B0610D483680D4680211970C36851
:1024E0001221197090F84932012B044606D08AB99E
:1024F00080F848220120F8BD0020F8BD1A4675B9C1
:10250000474B4FF080711960022A0FD0012084F8E8
:102510004802F8BD531E012BF1D90120F8BD012D51
:10252000F2D13F4B4FF000711960EDE7D4F87462BF
:10253000002E6AD03379102B30D0002D3CD1326878
:102540003849938B384F9BB243F008039383327919
:10255000531102F110009B0041F8207003F1604319
:1025600003F56143012102F01F0201FA02F2316812
:102570001A608B8B9BB243F002038B83337903F198
:10258000804303F5043396221D701A700022022343
:1025900084F85E2284F848320120F8BD304602F00B
:1025A0009DFC3046082102F087FD00230120C4F87D
:1025B000743284F84802F8BD012DE7D13268194918
:1025C000938B1A4F9BB243F00803938332795311D4
:1025D00002F110009B0041F8207003F1604303F505
:1025E000614302F01F02954032681D60938B9BB2DD
:1025F00043F002039383337903F1804303F50433FB
:102600000021972219701A70C0E7082002F050FDCF
:10261000314607463E4602F0FDFBC4F8747289E776
:1026200000E100E00082FF1FF52E0000012F0000F6
:10263000F0B5284EDFF8ACE0A6FB0143A6FB024252
:102640009E0937027546960914240023B7FBF6F657
:1026500004E00133372B1BD055F8044F2202964279
:10266000F7DA83BB14241C4A4568B1FBF4F49142A9
:102670002B70C0F8504207D8184B8269A3FB013178
:10268000C1F307511170F0BD836904221A70F0BDC7
:10269000002422464FF470274FF470654FF0360C3B
:1026A000B21AF71B002A87EAE776A6EBE776B8BFEF
:1026B0005242964202DD0A4AD35CD4E7084B2C46CC
:1026C00013F80C30CFE703F1FF3C5EF82C502F02DB
:1026D000E6E700BFD34D6210FF6BDC02819F5E1600
:1026E000549D0000789C0000F0B49DF814409DF8C3
:1026F00010609DF818503CB135B1C7683F78BF06EF
:1027000002D50020F0BC7047069505940496F0BCF5
:10271000FFF730BE2DE9F04184B0044694469DF8A1
:1027200028609DF82C209DF830009DF834E09DF83D
:102730003C700D4600294BD1DFF8E080D8F800103E
:1027400041F04001C8F80010002184F849C284F823
:102750005512BCF1000F2AD163692021197012B9FA
:1027600094F84A22D2B210B994F84B02C0B294F84D
:10277000981294F8996202960346CDF800E0019110
:1027800020462946FFF7B0FF0E9A23492046FFF75F
:102790004FFF3A4629462046FFF798FE94F8493203
:1027A00063B3A368C0221A7004B0BDE8F081616908
:1027B000CEB14FF0280C81F800C09E42216823D989
:1027C0005B00DBB20B707600E369F6B21E70C6E701
:1027D0000129B9D1DFF84480D8F8001041F0800118
:1027E000C8F80010B0E74FF0200C81F800C0216855
:1027F0005B00DBB20B70E3691E70B0E7A368802258
:102800001A7004B0BDE8F0817600F6B20E705E007A
:10281000E369F6B21E70A2E7006CDC02348004406B
:1028200070B5D0F83841D0F834319C4218D9D0F87E
:102830003831D0F83451D0F834615D1B954228BF4F
:102840001546044600F130032A460846991901F05E
:10285000ADF8D4F834312B44C4F83431284670BD77
:10286000002070BD2DE9F041C04E3378044601339D
:10287000DBB2C068A768337005783B78DBB203F041
:10288000200282B0EDB23AB313F0100F94F85E322A
:102890007AD0022B00F0D88094F85E32032B00F03F
:1028A000D38094F85532082B00F0298294F85532E1
:1028B000092B00F0648294F85532012B00F0D3818B
:1028C00080233B70E36802221A703378013BDBB24D
:1028D000337002B0BDE8F08102F0FF08EA0624D4AC
:1028E00005F0400202F0FF0E1ABB03F0100303F0E4
:1028F000FF02002B00F0838015F0010540F0A88155
:10290000D4F84022D4F844329A4207D2D4F8403264
:102910005A1C2344C4F8402293F83C5123691D708B
:10292000A368D0221A70E0686EE010230370680676
:10293000C8D594F855320C2B00F0098105F0040538
:1029400005F0FF07002D64D0A3680021D0220B20E2
:1029500084F85502C4F844121A702269D4F86C1233
:1029600013785B0884F8563209B188472269D4F895
:102970004432002B00F0748194F83C8182F800808E
:102980000123C4F840329DE7022B00F0A68094F8A2
:102990005E32032B00F0A180D4F83831D4F85822ED
:1029A0000233934200F04F8194F85532012B00F02E
:1029B0004581D4F838310133934280F0198194F87D
:1029C0005532012B00F00F81D4F838312269591C9F
:1029D000C4F838112344127883F83020E3680222C7
:1029E0001A7094F85532DBB2012B7FF46EAF94F875
:1029F0005D22002A7FF469AF84F85D3265E794F8C0
:102A000055320C2B00F09C810223037002B0BDE80C
:102A1000F081574B574A94F84B0284F85C720029B6
:102A200014BF11461946032201F058F9A3680C217E
:102A3000C02284F85512C4F838711A7023691B78C3
:102A40005B0884F856323DE7D4F8742213689B8BF8
:102A5000190604D594F85E32022B00F0B88094F881
:102A60005E32032B00F08E80434B127919680123EC
:102A700093400B423FF429AF4049414B0A70D4F8D0
:102A80007412097919700022072384F85E2284F8F1
:102A90005532D4F89432013304D0D4F8943201334F
:102AA000C4F89432EA0611D5042384F85532D4F8D8
:102AB0008C32013304D0D4F88C320133C4F88C3218
:102AC000E268102100231170C4F84032A36880220C
:102AD0001A70E36802221A7032E0D4F874321A686D
:102AE000928B120603D594F85E22022A63D094F8E2
:102AF0005E22032A00F0DA801F491A79096801234F
:102B000093400B423FF4E1AE1C491D4B0A70D4F8D0
:102B1000742212791A70A36880220020072184F899
:102B20005E0284F855121A70E36802221A70D4F813
:102B30009432013304D0D4F894320133C4F894327F
:102B4000D4F87032002B3FF4C0AE9847BDE6D4F8FD
:102B50006832002B3FF4F2AE0022C4F83421D4F8DE
:102B60003801019198470199E8E600BF900D0020D7
:102B7000652F0000712F00002C8000401E80004057
:102B80001F80004003781906FCD5C14B12791A70DA
:102B9000002384F85E32D4F844322169013BC4F842
:102BA0004032D4F840322344022293F83C310B7077
:102BB000E3681A7089E6B7491B790B70A368E821AE
:102BC0001970E368032184F85E121A707DE6B1493A
:102BD00012790A70A268F0211170E268032184F86A
:102BE0005E12137071E694F85D32002B3FF4ECAE88
:102BF000A3680021B02284F85D121A70D4F838312D
:102C00002269591CC4F838112344127883F8302003
:102C100094F85432012B00F0C480E36802221A7049
:102C200094F85532012B33D0D4F86432002284F862
:102C30005522002B3FF4D5AE9847D2E694F85D328A
:102C4000002B7FF4B6AEE8233B70D4F85822B0E6F0
:102C5000C0233B702369E0681B7884F855E2D3E613
:102C600084F83C318AE694F85432012B0CBF80235F
:102C7000B0233B70E36802221A70D4F8803201332B
:102C80003FF45EAFD4F880320133C4F8803257E7A6
:102C9000D4F88032013304D0D4F880320133C4F840
:102CA0008032D4F87032002BC6D19AE6784A1B796C
:102CB0001370A3680021B02284F85E121A70D4F851
:102CC00058322269013BC4F83831D4F83831591CE4
:102CD000C4F838112344127883F8302094F8543221
:102CE000012B00F0C180E36802221A70D4F864322C
:102CF000002284F85522002B7FF427AFE5E505F08C
:102D0000100303F0FF02002B52D0002304211022F5
:102D100084F85E3284F855120270A2688021117026
:102D2000E268C4F8403202231370D4F88C320133C5
:102D30003FF406AFD4F88C320133C4F88C32FFE68E
:102D4000554B564D84F85C22002914BF294619467C
:102D5000032294F84B0200F0C1FF23691B78D4F8DA
:102D60003821B2F5817FDBB207D8D4F83821A11819
:102D70000132C4F8382181F83030E06844E6EB06CF
:102D80002ED50422102384F855220370A3688022D4
:102D90001A70E36802221A70D4F88C320133C9D158
:102DA000CEE62023013BFDD1A36880221A7034E7D0
:102DB00015F0010528D084F85E22D4F84032002BAB
:102DC00059D1022384F85532D4F88432013304D027
:102DD000D4F884320133C4F8843280233B7078E61F
:102DE000E9072CD50223802284F855323A70E26834
:102DF0001370D4F8843201333FF4A2AED4F8843295
:102E00000133C4F884329BE6D4F840320133C4F86D
:102E10004032D4F84422934242D394F8543284F896
:102E20005552012B0CBF8023B0233B70E368022274
:102E30001A70D4F86032002B7FF487AE45E594F821
:102E40005E32012B34D0D4F85832012B4FF00A02F5
:102E50000CBFE823E02384F855223B702269E36825
:102E6000127802221A7030E52023013BFDD1A368BD
:102E700080221A7037E7032384F85532D4F8883259
:102E80000133AAD0D4F888320133C4F88832A4E7D9
:102E90001C8000401F800040652F0000712F000043
:102EA00094F85E32012B12D0D4F8403221697AE6D0
:102EB0000223E12284F85E323A70D4F874120C4A8C
:102EC000097911702169E26809781370FDE4022321
:102ED000F12284F85E323A70D4F87412044A097907
:102EE0001170226994F83D111170E2681370ECE4DE
:102EF0001B80004000210148FFF7B4BC1088FF1F71
:102F000001210148FFF7AEBCAC8AFF1FC3681B78E4
:102F100003F020035BB190F85C320133DBB2012B8C
:102F200080F85C3217D990F84B0200F053BF70B5AF
:102F300003F0FF05044680F8555290F84B0200F06C
:102F400049FFD4F868325BB1C4F83451D4F8380181
:102F5000BDE87040184790F84932012BE3D1704723
:102F600070BD00BF00210148FFF7D0BF1088FF1FD0
:102F700001210148FFF7CABFAC8AFF1F2DE9F843C2
:102F8000134BDFF85C90DFF85C80124E124D1E6030
:102F900000244FF47A774A4641461C711C739F60A7
:102FA00018465C731D6105F0E1F80C4B4FF0010E03
:102FB00005F527751C711C7383F80DE04A464146E0
:102FC00018461D619F601E60BDE8F84305F0CEB84D
:102FD0007C0D00205C9C00001088FF1F680D002005
:102FE000FC87FF1FF122000030B40C4B416182B01E
:102FF0001B680193019D816100230A240122016164
:103000008560C4600277C37743600360837780F88C
:103010002030437702B030BC704700BF940D0020D1
:1030200010B500210446FFF7DFFF204610BD00BFAA
:1030300070B4104C83B0246801940446019E00696A
:103040009DF81850E377A1616260A66060610AB9DB
:1030500021610846022D96BF00230123236084F8D6
:1030600020304FF0000388BF2260A577637703B05C
:1030700070BC7047940D002010B582B000240094FD
:10308000FFF7D6FF02B010BD08B50123FFF7F4FF2C
:1030900008BD00BF90F820303BB1012B03BF006892
:1030A000B0FA80F040090020704703684068181AA1
:1030B000B0FA80F04009704710B50446FFF7EAFF08
:1030C00018B9607F80F0010010BD002010BD00BF66
:1030D000C1607047F8B50D46014605F033FD4FF06D
:1030E0007E51044605F0D4FF08BB284605F086F95A
:1030F00006460F464FF08040214605F021FD05F0C1
:103100009FF932463B4602F027FF02460B46104627
:1031100023F0004100220F4B05F0E6F902460B4672
:1031200000200D4905F02CF805F0B6FCF8BD284646
:1031300005F064F906460F46204605F081F932464F
:103140003B4602F009FF0022024B05F0CDF905F0E5
:10315000A3FCF8BD0000E03F0000F03F38B50D468D
:103160000021044605F08AFF70B94FF07E512046D9
:1031700005F084FF28B929462046BDE8384000F014
:1031800005B84FF07E5038BD204638BD0239F8B53D
:1031900004461D2900F23183DFE811F08D0281021F
:1031A0007C027302690264025B0251024C02430218
:1031B000390234022C0222021002FD01AD0183010A
:1031C000E801FD003B0110016201BC0083006A00C0
:1031D00093005C0039001E004FF07C5105F058FF51
:1031E0002146002840F07082204605F0ABFC4FF0ED
:1031F0007E5105F0A5FC1E21FFF7B0FF4FF07C517A
:1032000005F0A8FD4FF07C5105F09CFCF8BDC449C9
:1032100005F03EFF002840F06282C249204605F0DA
:1032200037FF002840F0CA82BF49204605F030FF32
:10323000002800F0D3822046BC4905F081FCBC493F
:10324000044605F087FD214605F084FDB94905F0E7
:1032500079FCF8BD01464FF07E5005F071FC1E214F
:10326000FFF77CFF01464FF07E5005F069FCF8BD8A
:103270004FF07E5105F064FCAF49054605F06AFD4C
:10328000AE4905F05FFC29460446284605F062FD7C
:103290000146204605F05EFD4FF07E5105F052FCE0
:1032A000F8BDA54905F056FDA44905F049FC2146A5
:1032B0000546204605F04EFD0146284605F04AFD2C
:1032C000F8BD014605F03EFC4FF07E51044605F086
:1032D000DFFE002840F0378220464FF0804105F0A5
:1032E0002FFC4FF07C51044605F034FD214605F0DB
:1032F00031FD93490546204605F02CFD914905F026
:1033000021FC0146284605F025FD4FF07E5105F0D1
:1033100019FCF8BD014605F015FC4FF07E5105F093
:103320000FFC4FF07E51044605F00CFC4FF07E512F
:1033300005F0AEFE002840F0DA818349204605F012
:1033400009FD05F07DF802460B4600204FF0804154
:1033500002F002FE06460F4620467C4905F0F0FBCF
:103360007B4905F0F7FC7B4905F0A8FD05F068F8FE
:1033700002F0AEFD02460B463046394605F0B4F881
:10338000754B002205F0B0F80022744B04F0FAFEF1
:1033900005F082FBF8BD4FF07E5105F0D1FB0146F0
:1033A00005F0D8FC01464FF07E5005F0C9FB05F052
:1033B00047F802F049FF05F06FFBF8BD4FF07E5172
:1033C00005F0BEFB6649064605F0C4FC05F038F87A
:1033D00002460B4600204FF0804102F0BDFD05463D
:1033E0000C463046594905F0ABFB594905F0B2FC93
:1033F000584905F063FD05F023F802F069FD024627
:103400000B46284604F1004105F06EF805F044FB38
:10341000F8BD014605F096FB4FF07E51044605F0DD
:1034200037FE002840F0A48120464FF0804105F08F
:1034300087FB014605F08EFC01464FF07E5005F0FB
:103440007FFB04F0FDFF02F0FFFE0022434B04F07F
:1034500099FE0022404B05F047F805F01DFBF8BD32
:10346000394905F077FC04F0EBFF02460B460020DB
:103470004FF0804102F070FD06460F462046394964
:1034800005F05EFB324905F065FC374905F016FD95
:1034900004F0D6FF02F01CFD02460B4630463946CA
:1034A00070E7014605F04EFB4FF07E51044605F0F3
:1034B000EFFD002840F06A8120464FF07E5105F074
:1034C0003FFB214905F046FC04F0BAFF02460B46DB
:1034D00000204FF0804102F03FFD02460B460020E5
:1034E0004FF0804104F04CFE00221B4B04F0FCFF27
:1034F00005F0D2FAF8BD144905F02CFC04F0A0FF49
:1035000002460B4600204FF0804102F025FD0246A6
:103510000B460020114904F033FE05F0BDFAF8BD5A
:103520008C2EBA3E8C2E3A3F2FBA683F5D74513FC5
:103530000000F2400000703FB0E62C4060CDD93F63
:10354000FF126640FF122640000020C16766E63D7C
:10355000DB0FC9406766E63E0000E03F0000F03F39
:10356000000020419A99993D9A99993E014605F0AB
:10357000F1FB01464FF07E5005F0E2FA04F060FFE7
:1035800002F062FE00229D4B04F0FAFD05F084FA81
:1035900000F10040F8BD4FF07E5105F0D1FA984996
:1035A00005F0D8FB04F04CFF02460B4600204FF01C
:1035B000804102F0D1FC05F06FFAF8BD914905F0A9
:1035C000C9FB04F03DFF02F0AFFB00228B4B04F07F
:1035D000D7FD00228C4B04F087FF05F05DFAF8BDA3
:1035E0008A4905F0B7FB04F02BFF02F071FC05F0EF
:1035F00053FAF8BD854905F0ADFB04F021FF02F058
:1036000093FB84E70521BDE8F840FFF763BD014661
:103610004FF07E5005F094FA04F012FF00227C4B2C
:1036200073E704F00DFF0022794B02F095FC05F0E2
:1036300033FAF8BD0421BDE8F840FFF74BBD014661
:103640004FF07E5005F07CFA04F0FAFE0022714B38
:103650005BE704F0F5FE00226E4B02F07DFC05F006
:103660001BFAF8BD0321BDE8F840FFF733BD014662
:103670004FF07E5005F064FA04F0E2FE0022664B43
:1036800043E704F0DDFE0022634B02F065FC05F029
:1036900003FAF8BD0221BDE8F840FFF71BBD014663
:1036A0004FF07E5005F04CFA04F0CAFE02460B467D
:1036B00004F01AFF2BE704F0C3FE02460B4604F0A9
:1036C00013FF05F0E9F9F8BD204605F03BFA1D218E
:1036D000FFF744FD4FF07C5105F03CFBF8BD4F492E
:1036E000204605F037FB214605F034FBF8BD444980
:1036F000204605F02FFB04F0A3FE02460B460020F7
:103700004FF0804102F028FC06460F46204644490F
:1037100005F016FA434905F01DFB434905F0CEFBC1
:1037200004F08EFE02F0D4FB002204460D46364B18
:103730003046394604F0D8FE22462B4604F0D4FE2B
:1037400005F0AAF9F8BD4FF07C51204605F002FBC8
:10375000214605F0FFFA35490546204605F0FAFAFC
:10376000334905F0EDF90146284605F0F3FAF8BDB6
:103770002146204605F0EEFA01464FF07E5005F056
:10378000DFF904F05DFE02F05FFD1EE720464FF01A
:103790007E5105F0D5F91A4905F0DCFA04F050FE27
:1037A00002460B4600204FF0804102F0D5FB00227C
:1037B000204B04F099FE05F06FF9F8BD20461E4934
:1037C00005F0BEF91549044605F0C4FA214605F096
:1037D000C1FA4FF07D5105F0B5F9F8BD2046174903
:1037E00005F0AEF90D49044605F0B4FA214605F09E
:1037F000B1FA134905F0A6F9F8BDF8BD0000F03F95
:1038000000002041DB0F49400000E0BFDB0FC93F53
:103810000000144000001040000008400000F2408A
:103820006766E63DDB0FC9406766E63EFF1266400D
:10383000FF1226400000E03FE9A20B3F175D743FF6
:1038400000007C3F2DE9F047037FC26882B0044648
:103850006BB1554BC57F1B680193019B1DB18168FE
:10386000591A8A425ED9206902B0BDE8F087C57F47
:10387000002DF8D0617FA36000293CD194F820305E
:103880002068002B5FD0012B08D1861A60EB00075F
:10389000012E77F1000379DB801A206005F002FA2F
:1038A0000646606805F0FEF90146304605F006FB65
:1038B000002106466769D4F8188005F0DFFB40B99F
:1038C0004FF07E51304605F0D9FB002865D04FF00F
:1038D0007E56C7EB080005F0E9F9314605F03AFAE3
:1038E0000546384605F0E2F90146284605F02AF972
:1038F00005F0F6FB20612046FFF7CCFB0028B2D094
:10390000A37F013B042BAED801A252F823F000BFE5
:103910002939000035390000673800002F390000D0
:10392000353900000A46A5E7002323609BE763685A
:10393000236098E794F8203023B3012B93D1002320
:1039400084F820308FE7D4F804A016184FF0000751
:1039500047F100074FF00009564577EB090309DAF4
:103960001044206005F09EF90646504605F09AF98D
:1039700001469AE7C4F800A0504605F093F90646C0
:10398000014692E7012384F820306CE721606068EB
:1039900005F088F90026014687E730462946FFF7FB
:1039A000F5FB064695E700BF940D002001B441EAFF
:1039B000000313F003036FD1403A41D351F8043BA5
:1039C00040F8043B51F8043B40F8043B51F8043BF9
:1039D00040F8043B51F8043B40F8043B51F8043BE9
:1039E00040F8043B51F8043B40F8043B51F8043BD9
:1039F00040F8043B51F8043B40F8043B51F8043BC9
:103A000040F8043B51F8043B40F8043B51F8043BB8
:103A100040F8043B51F8043B40F8043B51F8043BA8
:103A200040F8043B51F8043B40F8043B51F8043B98
:103A300040F8043B51F8043B40F8043B403ABDD207
:103A4000303211D351F8043B40F8043B51F8043BA9
:103A500040F8043B51F8043B40F8043B51F8043B68
:103A600040F8043B103AEDD20C3205D351F8043B38
:103A700040F8043B043AF9D204320AD0D2071CBF02
:103A800011F8013B00F8013B03D30B7803704B782E
:103A9000437001BC704700BF0C2A4AD310F00303E7
:103AA00011D0C3F10403D21ADB071CBF11F8013B8C
:103AB00000F8013B07D311F8013B00F8013B11F876
:103AC000013B00F8013B11F003033FF475AF30B444
:103AD000043AC91AC3F1040C51F8044B022B19D053
:103AE000032B0BD0240A51F8043B1D0644EA0504BD
:103AF00040F8044B1C46043AF4D216E0240E51F868
:103B0000043B1D0244EA050440F8044B1C46043AF9
:103B1000F4D20AE0240C51F8043B1D0444EA0504E5
:103B200040F8044B1C46043AF4D20432B1EB0C01C9
:103B300030BC043AA0D3013A11F8013B00F8013B34
:103B4000F9D20B7803704B7843708B78837001BC8B
:103B5000704700BF08B5104C08E0236859050DD424
:103B600023681A050FD42368DB0411D42368580393
:103B7000F3D500F00BFB23685905F1D501F07EFF6A
:103B800023681A05EFD500F009F82368DB04EDD5AA
:103B900000F004F8EAE700BF3480044008B5FFF7FE
:103BA000D9FF00BF014B10221A807047002005404A
:103BB000704700BF094908B50B6830B16A46184420
:103BC000A2F58052904202D20860184608BD05F066
:103BD000B3FA0C2303604FF0FF3008BD488DFF1F80
:103BE000EFF3138070B9EFF310836BB9EFF3058235
:103BF0005AB94FF48070EFF311832BB1984228BF6C
:103C0000184670474FF0FF3070470F2A01D818460A
:103C1000F1E7014BD05CEEE7F0E300E0704700BF56
:103C200010B40F4B53F8302092F880422CB101238E
:103C300069B182F8803010BC704703EBC0035B6849
:103C40001A6841B922F002021A6010BC704782F86B
:103C5000003110BC704742F003021A6010BC70477C
:103C60008C9D00001C4A02EBC00301295B6811D047
:103C700004291BD052F83000002280F8802229B19C
:103C8000022920D0032922D01A6070474FF4807295
:103C90001A60704752F830004FF4A27280F8801218
:103CA0001A601A6822F020021A60704752F8301029
:103CB0004FF4A272012081F880021A601A6842F063
:103CC00020021A60704740F203121A6070474FF4E6
:103CD00081721A60704700BF8C9D0000212848D86F
:103CE000F8B5042A44D8DFE802F0484B4E034500FB
:103CF0004FF410262B4B03EBC0030D465C68216884
:103D000011F4E06148D0284B284A2949C3F89C2186
:103D100004F140422748C3F8A411A2F59221264F8E
:103D2000C3F8A0017C292548C3F8A871C3F8AC01E9
:103D30002CD9A2F594237C2B2AD9A2F596237C2B8F
:103D400028D9A2F598237C2B29D9A2F59A227C2A7E
:103D500027D81B4872B6236823F4702343F080727F
:103D6000C4F384011643236040F82150266062B6F4
:103D7000F8BD70474FF43026BCE74FF40026B9E792
:103D80004FF44026B6E74FF42026B3E70D48E1E7AD
:103D90000D48DFE70D48DDE7FFF764FFB3E70C48A8
:103DA000D8E7F8BD8C9D00000082FF1FD187FF1F60
:103DB0007987FF1FA587FF1F4D87FF1F2187FF1FE3
:103DC000248EFF1F4C8DFF1F848DFF1FD48DFF1F7E
:103DD000048EFF1F1A4B03EBC00010B4426802F1BF
:103DE0004043A3F592217C2923D9A3F594217C2972
:103DF0000DD9A3F596217C291FD9A3F598217C29FB
:103E000019D9A3F59A237C2B11D80E4C00E00E4C47
:103E100072B613680D4823F08773C2F3840123F44C
:103E2000803343F08073136044F8210062B610BC05
:103E30007047074CECE7074CEAE7074CE8E700BFA0
:103E40008C9D0000248EFF1F848DFF1F1D3C0000F1
:103E50004C8DFF1F048EFF1FD48DFF1F30B4054B08
:103E6000054D064C002210211A602A60206019605E
:103E700030BC704714D0034004D0034000D003404E
:103E8000704700BF212801D8FFF7CABE704700BFA6
:103E9000212801D8FFF7E6BE704700BF2DE9F8439F
:103EA000054672B6204F214B214A1B683C681268B8
:103EB00062B6520102D5322B88BF013495B3C3F5E7
:103EC000BB331C4EDFF86490DFF86480FF334FF49F
:103ED0007A72A6FB031302FB04F404EB931472B68C
:103EE000D9F800103A68D8F800E062B6C1F5BB33E3
:103EF000FF33A6FB03031EF0806FC4EB93134FF454
:103F00007A7002D0322988BF013200FB0233B3F548
:103F10007A7F04D3013D05D004F57A74DFE701F020
:103F2000E3F8DCE7BDE8F883940D002018E000E03A
:103F300004ED00E0ABAAAAAAF8B52E4B2E49DFF893
:103F4000D4E0DFF8D4C02D4E2D4D2E4C2E4A2F4FED
:103F50004FF4000018604FF0807018604FF0007050
:103F600018604FF0806018604FF00060186000200B
:103F7000086028234BF6FF71CCF80010CEF8003013
:103F8000336013602B6023603B60B362936209224D
:103F900045F8242CC4F8D80F05F57F65C7F8D41F61
:103FA00007F5FF2707F5FA67C6F8F83F2B6006F517
:103FB000FF26C4F8D42F05F5FD2504F5FF2438604D
:103FC00006F2F4761248316005F5FF6504F5FD64EC
:103FD0002B602360026001F0FDF8FFF751FF142011
:103FE000FFF75CFF00F00CFD4FF48C70BDE8F8406B
:103FF000FFF754BF08E100E0048003401480034051
:10400000248003402C8003401C8003403480034004
:1040100000800B400C80034008800340431E032BAC
:1040200014D872B60A4951F8230068B170B4094C2B
:10403000058834F81320466841F82360521B24F8A1
:10404000132062B670BC704762B67047002070479C
:10405000F00D00208C0F0020013803280BD872B619
:10406000074B53F8203043B100205B680130002B30
:10407000FBD162B67047002070471846F9E700BFD1
:10408000440E0020F0B472B61A491B4E012311F8F9
:10409000014B194F9A00240742F0010505D556F847
:1040A000324064B156F83520BAB10133052BEED158
:1040B00062B6124B00221A70F0BC00F01BBD0F4C10
:1040C0000F4D217807EB43130830013958602170F8
:1040D00047F8325062B6F0BC7047084A0949137875
:1040E00007EBC5040830013B6060137047F83510DA
:1040F00062B6F0E7309F00000080FF1F6D0E0020C9
:1041000088004000C8004000431E032B1DD81B4AF6
:10411000400140F0100030B4104472B6184CE25C1C
:10412000032A1BD8DFE802F00212151703220D88BC
:10413000E25410F0080F14BFC823882343EA054354
:1041400008314160036062B630BC7047083002221B
:10415000EDE70522EBE708300422E8E7094A52F8C8
:10416000230038B1084A52F82300416042F8231076
:1041700062B6E9E742F82310034AF7E70080FF1F21
:104180007C0E0020440E0020540E00202DE9F04F3C
:10419000DFF814B3DFF814A387B044E0AD4F4FEA63
:1041A000930807EBC809013ED9F8042003F008037F
:1041B000F6B2A2F1080003F0FF04002B40F00381E7
:1041C00057F838301B0C99B222F8081C002B00F06D
:1041D000F180A14B22F8064C42F8044C53F82620FB
:1041E000002A00F06C819D4D55F8263058609C4C9B
:1041F00045F8260034F81630194424F8161000F05B
:1042000059FC002800F05481964A974B19F0080F8A
:1042100000F1080018BF1346C9F8040047F8383009
:1042200008238BF800309BF80040E4B260071BD5F0
:104230008E4B1B78ABB18E490A7802F0FF032AB18E
:10424000013BDBB20B70002B00F0B58389490A7883
:1042500002F0FF032AB1013BDBB20B70002B00F030
:10426000F68004238BF8003004F0080303F0FF020B
:10427000002B00F0D5809AF80030DBB21E098DD1FA
:104280009C08744F57F8342007EBC401C2F3830233
:10429000013A49680C2A7ED8DFE802F081817D7DF1
:1042A0007D7D7D7D427D7D7D07000868724B734D6D
:1042B00001936C4B4A68724E47F8343081B240F239
:1042C00081646D4B6A60286000220120A1423A613E
:1042D0001A60BA61307000F2F680B1F5D06F80F0EC
:1042E000E882B1F5817F00F0D38200F2D881802985
:1042F00000F04D81822940F09282A988614B01F043
:104300007F01042900F28C825F4C89000B442270EB
:1043100062701A78930740F13883207002203AE1E6
:10432000554B01931A6862B3584B5949544E18883B
:104330000C7896F800E04028054684F0010C28BF70
:10434000402544F00204BEF1000F81F800C0A0EB4C
:10435000050007EBC40C0CBF8821C82180B28EF089
:10436000010E41EA0541CCF80420188086F800E0EF
:104370002A4447F8341010B9402D18BF0022019B81
:104380001A603E4B1A88B2F5A06F04D100219A78CA
:104390005970404B1A70404A0123137040E7374A66
:1043A000158842F22100854200F052812D4A47F8DB
:1043B0003420F0E72B4A2C4B19F0080F18BF134696
:1043C00047F838302CE700F095FB344A344952F86E
:1043D0002630002B00F02D8158688C5D42F82600B5
:1043E00003F10802C9F80420032C05D8DFE804F023
:1043F000120F150204228A551A8819F0080F0CBFF3
:104400008823C82343EA024347F8383008E70222EA
:104410008A55F1E703228A55EEE705228A55EBE734
:10442000E00700F17881210600F1A281A20706D5FC
:104430001C4A1D4913780220DBB213700870E30692
:1044400002D5194B10221A7007B0BDE8F08F00F0AA
:10445000BDFC06E70080FF1FF00D00209C0D002032
:104460008C0F0020C800400088004000780E00201B
:10447000010E0020800E0020980D0020640E002008
:10448000000E0020C0200740700E0020AC0D002060
:104490006C0E00209820074094200740440E002016
:1044A0007C0E002088200740802007409020074095
:1044B000B74A47F83800137801331370B0E643F871
:1044C0002600B44D93E642F22104A14200F0AD80F3
:1044D00000F20E81B1F5086F00F05481B1F5106F54
:1044E00040F09D81AC4AA9781170AC4D042402E0E3
:1044F0000134142C0CD057F834301906F8D505EBDC
:10450000C40301345868083800F0F4FA142CF2D1CE
:10451000A349A44BA44A0291A449A54C9D4D0394E0
:1045200005964FF0000988461C46164604952068FB
:1045300028B1456800F0DEFA2846002DF9D10023A5
:104540002360049B30681A46002342F8293028B1C2
:10455000456800F0CFFA2846002DF9D100223260DC
:10456000029A98F800301146002241F8042B039A71
:104570000291023B4FF0000122F81910032B00F2C8
:10458000B481DFE813F0E201AE01E201AE01894C33
:10459000022022706270EA88824280F00D82864991
:1045A0000D78402A45F0020E944607EBCE0028BF56
:1045B0004FF0400C04EB0C0344600293CCEB020080
:1045C0004FEA0C484FF001090022C82444EA0803CE
:1045D00085F0010447F83E3032700C70DFF8BCE122
:1045E000764BDFF8D481002840F02081BCF1400FE9
:1045F0001BD144F0020407EBC403029FDFF89CE1E7
:104600005F60002A40F02781020442F0880286F8A9
:1046100000900D7007444EF834203B46402804D1EA
:104620000020674A019910800B60664A01231370CD
:10463000B1E68B5D032B00F2248101A252F823F036
:104640002142000021420000654700006B47000046
:10465000928862B95C4ACD1D11F8013B02F8013F16
:104660008D42F9D1594A1268862A00F0C980524910
:10467000524E0878327840F0020580F00100087050
:1046800007EBC501002A4FF00000486082F00102EC
:104690000CBF8821C82147F83510327086E640F2F9
:1046A0000232914240F0B080A98801F07F010429D4
:1046B00000F2B5806A88002A40F0B180444C89003D
:1046C0000C448146217841F00201217000200290C3
:1046D00080468446044638490D7845F0020E07EBC3
:1046E000CE03B9F1000F5C600CBF8824C8246DE7CD
:1046F00042F22124A14240F08E80A988002940F096
:104700004281344B344A354C1B68AD781360814686
:104710000A462570DAE72B49204B3148264EDFF850
:10472000B0C0304DDFF8D4E02F4F02240C702F4C76
:1047300018605C6098602E48D8601A619A610D23F9
:1047400032702C4C8CF800302B4EFF232B70012044
:104750009F258EF800303A7033702570087007B0CE
:10476000BDE8F08F00238B555AE501238B5557E5A3
:104770001749224B80220D2008701A70A2077FF57E
:104780005EAE55E6044A0B4C1278227003E700BF78
:104790006D0E00209C0D0020780E00200080FF1F71
:1047A000540E0020F00D0020440E00207C0E00204E
:1047B0008C0F0020700E00206C0E0020000E0020D8
:1047C000AC0D002094200740930F0020940F002090
:1047D000C0200740940D00209C0F0020900E002068
:1047E000880040008820074098200740B00D002036
:1047F000040E0020842007408C20074080200740C2
:10480000754A0F21117032E7B1F5A06F07D1002270
:104810004FF001095AE742F221329142F7D06F4B33
:104820000F221A706E4A01231370B4E540287FF6F8
:10483000E0AE44F002040EEBC401029E4E60AAB149
:1048400083F80090674A88F8005033464038403378
:104850004EF83420E5E6029B86F80090020442F010
:10486000C8020D7003444EF83420D7E683F8009058
:10487000029B5D4A88F80050403840334EF834209F
:10488000CFE619F0080F0CBF022303238B55C7E4B2
:10489000A98801F07F010429C1D86A88002ABED105
:1048A0004E4C89000C448146217821F00201217090
:1048B0000CE74E4A5468002CB1D06888B5F804E083
:1048C00003E00C325468002CA9D013888342F8D13D
:1048D00053887345F5D1000A03280CBF207810894E
:1048E00059E64FF0010388F8003009F10109B9F1E8
:1048F000040F04F1040406F1040608F101087FF432
:1049000016AE3B4B059E3B4DDFF8F0800020187043
:104910004FF0010918F8013B05F8043B1A0719D4B8
:104920004FEA890444F0020244F00304002347F8EC
:10493000323047F83430304B9D4209F10109E9D15A
:1049400096F8009089F00102C0E64FF0000388F865
:104950000030CAE700F0AEF818B307EB49134FEA8E
:10496000890408305860204B47F8343000F0A2F832
:1049700068B144F0010307EBC30208305060194AE4
:1049800047F83320CEE78146A0E6022003E6184B25
:1049900044F001021B7847F83200154A01331370C6
:1049A000C0E7134B124A1B784FEA8904013347F8DA
:1049B00034001370DAE700BE4028844628BF4FF069
:1049C000400C04EB0C03CCEB00004FEA0C480293C4
:1049D00000224FF001097EE6010E0020C0200740B2
:1049E00094200740C800400088004000349F000029
:1049F0006D0E0020C4200740D4200740309F0000E7
:104A00002DE9F04101F024F900231F491A4601EB7A
:104A1000C30041F833200133142B42604FF00004EF
:104A20001948F4D1194A1A4F13681A491A4D1B4EE6
:104A3000DFF874C0DFF874E0DFF8748043F480239B
:104A40001360C0F307233B70C0F307430B70000EE5
:104A5000FF2302F528322870D4328CF80030104D34
:104A60008EF800300F483370012388F8003070262C
:104A700081F850404FF40074102107F8183C2E7054
:104A800004601170BDE8F0810080FF1F3480044095
:104A90009C200740B0200740B4200740102007406A
:104AA00049E400E008E100E080200740882007405A
:104AB0009420074072B60D480268B2FA82F30B2BBD
:104AC00010DC4FF00041D94022EA0102026062B6D8
:104AD000074803EBC303DB00C2180021C150104696
:104AE0005160704762B60020704700BF2C8EFF1FD8
:104AF000BC83FF1F0D4B0E4AC31AA2FB03231B09E5
:104B00000B2B0CD80B4A127852B972B60A484FF0E8
:104B10000041026821FA03F31A43026062B670474B
:104B2000064A1278002AF0D0FFF7ACBABC83FF1F08
:104B3000398EE3386D0E00202C8EFF1F780E00207A
:104B400038B50F4D286878B143880288C118013301
:104B500093420C7A02D24380204638BDFFF7CAFF49
:104B6000002320462B6038BD064B1B782BB1032059
:104B7000FFF754FA28600028E6D14FF0FF3038BD27
:104B80008C0E0020780E002010B5094C206818B15A
:104B900043881844007A10BD064B1B782BB10320C4
:104BA000FFF73CFA20600028F2D14FF0FF3010BD33
:104BB0008C0E0020780E0020044B054A1B6890885C
:104BC0001BB11A885B88D31A184470478C0E0020DA
:104BD0008C0F00200B4B1B789BB110B50A4C206842
:104BE00048B1FFF787FF002303202360FFF716FA81
:104BF00030B1FFF77FFF0320FFF710FA0028F8D14C
:104C000010BD7047780E00208C0E00202DE9F04F6B
:104C1000DFF8F89083B0012289F80020019169B390
:104C2000DFF8EC80364F019E8346D8F80000B0B321
:104C3000344D4488C4F14001B14228BF314604EBF1
:104C4000010E00221FFA8EFE2A70761AA0F802E0EA
:104C500000F1080251B1013C224459441BF8014BB8
:104C600002F8014F8B45F9D1B0F802E0BEF13F0FD9
:104C70000BD8254A05211170002ED6D101980023AA
:104C800089F8003003B0BDE8F08F40220280014671
:104C90000420FFF739FA0022C8F80020E9E73A7843
:104CA0002AB3184D4AF2F9244FF0010A07E0013CFB
:104CB00016D02A78A2B900F017FA3A78BAB10420CF
:104CC000FFF7CAF90728F2D889F800A0FFF7F2FE2B
:104CD000C8F800000028ACD10C4B013C1870E8D19A
:104CE00001234FF0FF302B7003B0BDE8F08F00239D
:104CF0004FF0FF3089F8003003B0BDE8F08F00BFFF
:104D0000780E0020880E0020800E0020810E0020EA
:104D1000840E002000B583B002AB012103F8010D21
:104D20001846FFF773FF03B05DF804FB38B50E4D6E
:104D30000E4C28680123237028B14088002323707B
:104D4000C0F1400038BD0A4B1B7813B90020207019
:104D500038BD0420FFF780F90728F7D8FFF7AAFE2F
:104D600028600028E9D1F1E7840E0020810E0020A0
:104D7000780E0020F8B5114B1B788BB1104E114DF9
:104D8000346801272F7064B10F4A638800271770B9
:104D9000214623800420FFF7B7F9376000232B70EA
:104DA000F8BDFFF787FE084B28B1014604201C70B0
:104DB000FFF7AAF9F2E71F70F0E700BF780E0020B6
:104DC000840E0020810E0020800E002038B50E4B8E
:104DD0001B7873B90D4C216861B103F0FF054B8856
:104DE0000B800420FFF790F9256038BD084B0122A5
:104DF0001A7038BDFFF75EFE0028F7D00146BDE807
:104E000038400420FFF780B9810E0020840E002076
:104E1000800E0020F0B572B699B902688AB10379A4
:104E20000F2B0ED8274C218841FA03F5ED070AD540
:104E300003F1007303F59063B2EB431F03D162B635
:104E4000F0BD204C2188002341FA03F212F0010248
:104E500007D00133102BF7D162B600220371026034
:104E6000F0BD01259D402943218062B6164E174DA5
:104E7000174FDFF864E0D9B20171346844F00204DE
:104E800034602C6844F002042C60A6F5802682244D
:104E9000A5F5802503F100733C6003F59063223E85
:104EA000243D0C4C8EF800105B013170297021708C
:104EB00003601A605A609A60DA601A615A619A61F6
:104EC000DA61F0BD920E0020408004403C80044036
:104ED000008000401F8000401A80004003790F2BA3
:104EE00011D8094A10B4137072B6084904790A88B7
:104EF0000123A34022EA03030B8062B610220023A1
:104F000010BC0271036070471A800040920E0020AE
:104F100070B5EFF3108272B60C4C206880B10C4E65
:104F200000254369236073B19D6102B962B645777C
:104F300083689847EFF3108272B620680028F0D19A
:104F400002B962B670BD3360EFE700BF940E002077
:104F5000980E0020FFF7DCBF024A1368013313608C
:104F6000704700BF940D00200368C9B21B68184742
:104F70000368C9B21B6818470368C9B21B681847A1
:104F80000368C9B21B6818474B0803F1376303F580
:104F9000D83310B50446B3FBF1F000F01DFA044B12
:104FA0001B7803B110BD2046BDE8104000F092BE52
:104FB000448EFF1F08B5084600F002FC012008BD22
:104FC00008B5084600F0FCFB012008BD38B50846CE
:104FD0000D4604F015FC04460146284600F0FAFB95
:104FE000204638BD10B508461446114600F0F2FBC5
:104FF000204610BD0846114600F01CBE084611466A
:1050000000F0FEBD00F014BD08B5084600F0B0FB8E
:10501000003018BF012008BD08B5084600F086FB27
:10502000003018BF012008BD0846114600F01ABB29
:10503000084600F051BB00BF084600F0F7BA00BFB9
:1050400000F092BA10B54B0803F13760144600F532
:10505000D830B0FBF1F000F0BFF92046BDE81040B9
:1050600000F030BA00F0BEBC00F07CBC00F066BCC2
:1050700000F040BC00F04ABC30B5044683B00225C5
:105080002A4601A80549FEF791FC23682A4601A992
:105090005B682046984703B030BD00BF049F000006
:1050A00008B5FBF7E3FAFDF7BFF800F01DF8FAE7E3
:1050B00004F070B804F06EB804F074B8704700BF24
:1050C000FFF788BDFFF760BDFFF73ABDFFF774BD7E
:1050D000FFF750BEFFF72ABE08461146FFF796BD00
:1050E0000846FFF717BE00BF2DE9F843314E33786D
:1050F00093B1314F3A787AB90122D9073A7036D450
:105100009A0719D400225B073A7005D52B4B1A6811
:1051100012B1EFF305820AB1BDE8F883EFF3108115
:1051200072B6186818B1264C2278002A2ED00029B1
:10513000F2D162B6BDE8F883DFF8908098F80020DD
:10514000002ADFD0DFF88890002405E0013498F8C9
:105150000030E4B2A34212D959F824502B682846F3
:105160001B6998470028F1D02B699847EEE7FFF7B5
:1051700023FDC8B9134B1B781BB93378C0E73378CC
:10518000C0E7337803F0FE033370B9E745691D606B
:10519000012323705DB1AA6101B962B6002545778C
:1051A000836898472570B7E700F0BCFDE2E7064B3F
:1051B0001D60F1E7588EFF1FA50E0020A00E0020F5
:1051C000A40E0020128FFF1F9C0E0020540F002001
:1051D000480F002030B42948294A2A4B2A4D602420
:1051E000E121047011701B78284C082B30D00A2B59
:1051F0002748284937D00C2B0CBF35223D221223DB
:105200002A60236002600B60234B24491B78244AE8
:10521000BBB101230B601360224B23491B78234A47
:10522000012B26D9042B0FD9082B1ED9102B94BF84
:10523000862387230B6013601D4B01221A7030BC3C
:1052400070470B601360E7E784230B601360F3E79C
:1052500000F58E200F490830012213232A602360B5
:1052600002600B60D0E73922F7E785230B601360FB
:10527000E2E780230B601360DEE700BF00400740D9
:1052800001400740598EFF1F08B003400CB0034097
:1052900008B00B400CB00B40A70E002020B003401C
:1052A00020B00B405A8EFF1F24B0034024B00B40A7
:1052B000A60E0020F0B44D1E2E46002400E001345E
:1052C000B0FBF2F302FB1300092800F130078ABF9C
:1052D0003730F8B2C0B206F8010F1846002BEED1F5
:1052E0000A1953704CB1107815F8016F287001330A
:1052F000E01A834202F80169F5DB0846F0BC70470A
:105300002DE9F84F2C4B1B6807460BB101221A7090
:10531000DFF8BC90DFF8BC8099F80040D8F8003086
:10532000264D274E01349C422ABF4FF0000A5FFAF7
:1053300084FA5446AB462B78A3421CD1FEF750FCAE
:1053400040282BDC33791B06F5D59BF80030D8F8C4
:105350000010DBB25A1C8A4225D23F2A29D91949AA
:105360003F3B0968CB5CD1B2DBB2DBB2F371297091
:105370002B78A342E2D03F2C8ABF124B124B1B6802
:10538000124988BF403CFFB21F550D4B0120BC2283
:10539000087089F800A0DA70BDE8F88FFF28CADD30
:1053A000FFF7A2FEC7E700210A46074B9B5CDBB272
:1053B000DBE7D1B2F9E700BF400F0020390F002032
:1053C00000A00640F40E0020B00E0020380F002090
:1053D000440F0020688EFF1F2B4A2C491368F0B53C
:1053E00043F4806313600A78294F2A4E2A4D2B4CD0
:1053F0002B4900233B7033702B7023700B70002AF5
:105400003DD0152A21D0274B1B78012B25D0052B09
:1054100030D01F2827D8002002460125224B234CDC
:105420001A7023495D7004224FF0020E88273C2633
:10543000402598729A704FF4005083F813E05A7523
:105440001F74DE7025700860F0BD1A4B40F21332F5
:105450001A60144B1B78012BD9D1174B4FF45172A2
:105460001F281A60D7D9C0F34432C0F3471500F0A3
:105470001F00D3E7114B4FF451721A60C9E7104B6C
:1054800040F213321A60BEE734800440F00E002070
:10549000AC0E0020AD0E0020440F0020390F00207C
:1054A000380F00206C8EFF1F00A006402DE400E0A6
:1054B00004E100E018C0044044A004401CC00440C3
:1054C00040A00440234B23499B7803F0EC0200F0FA
:1054D00003031343420700F00F0248BF43F01003D9
:1054E000042A8B702ED01B4B1A4A5B79C10603F03D
:1054F000EF0348BF43F0100353719379820603F022
:10550000EF03144A48BF43F0100310F40070937186
:1055100005D1114B114A1968914218D0704730B427
:1055200091780F4D0F4B0C480C4C41F0A00191703D
:105530002A78046003EBC20340F247325B6830BC58
:105540001A6070478B7943F040038B71CBE718608A
:10555000704700BF00A00640400F0020D400D44296
:105560006C8EFF1F8C9D0000234B1B685B0541D593
:1055700010B5224C237823B1FFF7B6FD2378002B1A
:10558000FAD11F481F4A204B4FF4005400210460F9
:10559000D1701B78FBB1152B03D11C4B40F20312C9
:1055A0001A601B4B1B7803F07F03012B1DD0052BCA
:1055B00003D1184B40F203121A60174A114B1748D7
:1055C000174912681C79DB79002303700B700AB14C
:1055D0000123137010BD134B40F203121A600C4BE1
:1055E0001B7803F07F03012BE1D10F4B40F2031234
:1055F0001A60E2E7704700BF34800440380F002093
:1056000084E100E000A00640F00E002018C0044035
:105610006C8EFF1F1CC00440A80E0020AC0E0020A2
:10562000AD0E002040A0044044A004400A4A38B512
:105630000546137803F0FF04002BFAD10121284618
:10564000FEF726FC21462846FEF71CFC034A044BC5
:1056500052F835201A6038BD380F00208C9D0000AC
:10566000400F002009B140F08000174A137898429B
:1056700016D010B4154C246864050FD503F07F03D1
:10568000012B1CD0052B11D0002900F07F0114BF85
:105690006023442301290DD0052902D0107010BCCD
:1056A00070470B4943F440730B60F7E7084B002445
:1056B0001C60E9E7074943F440730B60EEE7054BD4
:1056C00000241C60E0E700BF6C8EFF1F34800440A4
:1056D0001CC0044044A00440104B1A7882420AD0F7
:1056E0000F490968490505D5AAB1152A09D068B13D
:1056F000152801D0187070470A4A40F21331116022
:10570000F8E7084A002111600028F1D1064A40F26A
:1057100013311160EEE704490A60E8E7F00E00205B
:105720003480044018C0044040A004400D4B1B6866
:1057300013F4806305D0212805D90B4B0020186095
:10574000704718467047094B10B5074C53F8303076
:1057500023600121FEF79CFB236800221A700120C0
:1057600010BD00BF34800440A80E00208C9D0000B6
:105770000F4B1B6813F4806308D0122808D014283C
:1057800011D00C4A537B03F0FE0353730020704783
:10579000094B40F202321A60064A537B43F0010380
:1057A000537301207047054B40F202321A60F3E751
:1057B0003480044000A006400CA0044014C0044003
:1057C000034B1B685B0501D5FFF79ABD704700BF0F
:1057D000348004403E4B1B685A0575D52DE9F04FC7
:1057E0003C4B1B6883B00BB101221A7043189842DE
:1057F000019363D2DFF8F080DFF8F090364CDFF8E9
:10580000F0B0364F451C18E0227892455FFA8AF6D0
:1058100029D0BAF13F0F1ED9DBF8002015F8011C82
:10582000AAF14003D1542A462D4901230B701D448F
:10583000019B88F800609A4240D298F80030D9F86D
:10584000002003F1010A9245DED3237803F0FF061E
:1058500043B10026B246234B15F8012C03F80A2069
:105860002A46E1E7B246BC22FA7005E03A7913060F
:105870000BD422785245CCD1FEF7B2F94028F5DDA1
:10588000FF28F6DDFFF730FCF3E72278D9F80010A7
:10589000D2B2501C88420BD23F2816D9DBF8001038
:1058A0003F3A8A5CC1B2D2B2D2B2FA712170E0E75B
:1058B000002108460B4B1A5CD2B2F5E7074BBC221D
:1058C000DA7003B0BDE8F08F7047C1B2F2E700BFF5
:1058D00034800440400F0020390F002000A0064013
:1058E000380F0020B00E0020440F0020688EFF1FEC
:1058F000F40E002010B5044C237823B1FFF7F4FB1D
:105900002378002BFAD110BD380F0020084B094A2C
:105910001B781078DBB2C0B2834202D20138C01AC1
:105920007047054A1268013A1044C01A704700BF18
:10593000440F0020390F0020688EFF1F064A074BD6
:1059400010781B78C0B2DBB2984202D2044A1268C7
:105950001044C01A704700BFAC0E0020AD0E0020EE
:105960005C8EFF1F70B4184B184D1B782A78D9B283
:10597000D2B2914222D0164B1C68531CA34214D3BE
:10598000002213461348C05CC0B2134E2A7032681E
:105990004AB1994238BF0919CB1A104909688B429C
:1059A00001D80023137070BC70473F2B09D90C48F5
:1059B0003F3A0068805CDAB2C0B2E6E74FF0FF30F1
:1059C000F1E7DAB2DEE700BFAC0E0020AD0E00203A
:1059D0005C8EFF1FF80E0020A80E0020608EFF1FB7
:1059E0003C0F00200D4A0E4B12781B78DBB29A4216
:1059F00011D00C4A11685A1C8A4204D300220A4B67
:105A0000985CC0B270473F2AF9D9084A3F3B1268F8
:105A1000D05CC0B270474FF0FF307047AC0E002032
:105A2000AD0E00205C8EFF1FF80E00203C0F002002
:105A30000D4B1B685B0516D530B40C4B0C4CDA785B
:105A40000C480D4902F0CB024025DA705D74DA781B
:105A500042F03402DA7023780268DBB20B700AB1CC
:105A60000023137030BC70473480044000A006400F
:105A7000AD0E0020A80E0020AC0E00202DE9F04154
:105A8000504A137913F0300F44D072B6937D03F06F
:105A9000FF01002B57D062B6DFF858814A4B4B4DBF
:105AA00098F800004A4C1B782F68D4F800C0DFF843
:105AB00048E11546C0B2DEB20CE09642A0F13F04C8
:105AC00004D03F2A7CD90CF8043010464A1E12F04C
:105AD000FF010DD0EB79421CBA42DBB2EDD3002EB0
