:1000000000800020BD010000FD510000B55100003E
:10001000B5510000B5510000B5510000B5510000C8
:10002000B5510000B5510000B5510000FD51000070
:10003000FD510000B5510000056600000966000092
:10004000FD510000FD510000FD510000FD51000078
:10005000FD510000FD510000FD510000FD51000068
:10006000FD510000FD510000FD510000FD51000058
:10007000FD510000FD510000FD510000FD51000048
:10008000FD510000FD510000FD510000FD51000038
:10009000FD510000FD510000FD510000FD51000028
:1000A0005545000061450000FD510000FD51000074
:1000B000FD510000FD510000FD510000FD51000008
:1000C000FD510000FD510000FD510000FD510000F8
:1000D000FD510000FD510000FD510000FD510000E8
:1000E000FD510000FD510000FD510000FD510000D8
:1000F000FD51000041720000FD510000FD51000063
:10010000FD510000FD510000FD510000FD510000B7
:10011000FD510000FD510000FD510000FD510000A7
:10012000FD510000FD510000FD510000FD51000097
:10013000FD510000FD510000FD510000FD51000087
:10014000FD510000FD510000FD510000FD51000077
:10015000FD510000FD510000FD510000FD51000067
:10016000FD51000031580000FD510000FD5100001C
:10017000FD510000FD510000FD510000FD51000047
:10018000FD510000FD510000FD510000FD51000037
:10019000FD510000FD510000FD510000FD51000027
:1001A000FD510000FD510000FD510000FD51000017
:1001B000FD510000FD510000FD510000564B4CF276
:1001C000205210B51A804DF628121A8000BF00BFC9
:1001D00005F018F8514B4FF010621A60504A9A60BF
:1001E000504ADA60504A136813F4807304D14F49BF
:1001F0000B604FF4A85313604D4B1A78110703D5C9
:100200001A7842F008021A704A4B4B492A221A7097
:100210004A4A4B4B8B4204D252F8040F43F8040B6A
:10022000F8E7484B484900228B4202D243F8042B9E
:10023000FAE74649464A002352F8230041F82300D2
:1002400001336F2BF8D1434B434A802103F8011B44
:100250009342FBD1414B3D4A1A60414B8A221A70AE
:10026000A3F5805324225A70A0221A709A7992071B
:10027000FCD59A79D406FCD43A4A937903F00C035E
:10028000082B384BF9D103221A7140225A719A79FE
:100290009006FCD5334A9179324B4906FBD5324A58
:1002A000324911600221516020221A709A7902F0BD
:1002B0000C020C2AFAD12E4B2E4A1A602E4B2F4AD2
:1002C0001A6000225A60072243F8042C2C4AC3F813
:1002D0000C2D62B605F082F9144B1B68DA0705D5C0
:1002E000284805F0EBF8284B284A1A60284B1B7861
:1002F0005B0609D5244C254B22689A4204D121483B
:1003000005F0DCF80023236004F082FF0AF01AFBFA
:1003100006F0A8FAFEE700BF0E200540308004403A
:10032000823F04000100002B10D0034014D0034092
:1003300002D0074000E007405497FF1FA8B9000013
:100340002087FF1F5497FF1F282100200082FF1FD6
:100350000000000000E400E05FE400E008ED00E0E1
:100360000050064000400640448004400000030165
:1003700004800440C010050014E000E0FF76010096
:1003800000002020FF7E0E631CE00340A5C3945AAA
:1003900000F00740FFFFFFFFFFFFFFFFFFFFFFFF32
:1003A000FFFFFFFFFFFFFFFFFFFFFFFFFFFFFFFF5D
:1003B000FFFFFFFFFFFFFFFFFFFFFFFFFFFFFFFF4D
:1003C000FFFFFFFFFFFFFFFFFFFFFFFFFFFFFFFF3D
:1003D000FFFFFFFFFFFFFFFFFFFFFFFFFFFFFFFF2D
:1003E000FFFFFFFFFFFFFFFFFFFFFFFFFFFFFFFF1D
:1003F000FFFFFFFFFFFFFFFFFFFFFFFFFFFFFFFF0D
:10040000FFFFFFFFFFFFFFFFFFFFFFFFDEF9FFFF23
:1004100010B5054C237833B9044B13B10448AFF33E
:1004200000800123237010BD5497FF1F00000000BF
:10043000A4B90000084B10B51BB108490848AFF338
:1004400000800848036803B910BD074B002BFBD0A0
:10045000BDE81040184700BF000000005897FF1F7C
:10046000A4B900005497FF1F00000000704700BFB0
:10047000FF2800D97047064B064910B504462246AE
:10048000186903F0FDFC044BE0B2187010BD00BF0A
:10049000F81E0020B4070020E4010020F0B5B1F1FF
:1004A000000E27DB154F3E5CB64523DC12F1800FB2
:1004B00020D0BEF1070F1EDC11490EF18045013D31
:1004C00005EBC00501EB401301EB85051C3353F828
:1004D000044C43F80449AB42F9D10136082E094BCC
:1004E000A8BF0826F6B20EEBC00E3E541E5441F8CB
:1004F0002E20F0BDF0BD0249EFE700BF540E0020F2
:1005000088090020C402002000291ADB30B40E4DF7
:100510002C5CA14214DC07290CDC0C4B01EBC00164
:10052000421C03EB810103EB42124B6841F8043B90
:100530009142FAD1631E2CB1DBB2054A2B541354FD
:1005400030BC70470023F8E7540E002088090020D3
:10055000C402002010B40A4A002302EB401252F8F1
:10056000044B8C4204D00133082BF8D110BC7047E7
:10057000C2B2072AFAD859B240B210BCFFF7C4BFC2
:100580008809002000290ADB054B1B5C994206DC28
:10059000002A04DB01EBC001024B43F82120704725
:1005A000540E0020880900204301094903F120026C
:1005B00010B40A440B44002443F8044B93424FF018
:1005C0000001F9D1034A044B1154195410BC70476F
:1005D00088090020540E0020C40200202DE9F041BB
:1005E000B0F1000828DD154B154D93F800C00CF153
:1005F0008044013C0CF1FF3705EB84040CF1070C3F
:100600000026002F2868D5F820E00CDD0C4B03F104
:10061000200253F8041F43F8041C52F8041F42F848
:10062000041CA342F5D10136B04545F8270045F832
:100630002CE0E6D1BDE8F081BDE8F081C0020020E9
:10064000780100202DE9F003B0F1000821DD124B04
:10065000124D93F800C000260CF1FF3705EB8C0912
:100660000CF1070C002F55F8270055F82C100BDD66
:100670004B463A4653F8084C43F8044C013A9C69FF
:10068000DC61A3F10403F5D10136B045286029628D
:10069000E8D1BDE8F0037047C002002078010020D7
:1006A0002DE9F043012189B0032004F021FF6A4FB6
:1006B0006A4D6B4CDFF8EC910121022004F018FF29
:1006C000684B797B38690493122300260122029338
:1006D000132305920396009601933F2303F04AFBF0
:1006E000614B62481E7031464FF480720AF01AFC6A
:1006F0003B695F495F4A2E685F4FC3F86812C3F8D1
:100700006C2240F2EE2804E0B3F5FA6F15D806F03B
:10071000CDF806F0CBF8237843B13B78DB0705D55D
:100720002B68D9F800209B1A0E2B06D82B6822784C
:100730009B1B002AE8D14345E9D9504E504F736DB9
:100740001868036847F61221DB6998472B680793FE
:100750000121079AC6F8002101FA01F300244FF69F
:10076000FF720B4386F8581086F8703086F85A40AE
:1007700086F859407466346686F8F84086F8754005
:1007800086F8744086F8764086F87740C6F8FC40D4
:10079000B266F26638681E212044243403F0C8FF94
:1007A000B4F5907FF6D13749374C384801F120072E
:1007B00000260C2541F8046F44F8045F024600232C
:1007C00042F8043B01330C2BFAD1B94200F130005E
:1007D000F0D10023DFF8D0C0DFF8D0E02C4F2D4E51
:1007E0002D4D2E4C2E481A464FF0640901214FF032
:1007F0007F080133102B4CF8049F0EF8012F07F8E7
:10080000011F06F8011F05F8018F04F8012F00F8F9
:10081000012FEED104240121022004F063FE6420A4
:1008200004F08EFE0121032004F05CFE642004F03D
:1008300087FE0021022004F055FE642004F080FEB3
:100840000021032004F04EFE642004F079FE013CF8
:10085000E1D109B0BDE8F083F81E0020101F002090
:10086000F41F0020801A0600E4010020B4070020D5
:1008700071040000B93800000C200020C01D0020C9
:10088000B0070020E4010020B0080020D40C0020B4
:100890004B090020671D0020CF1E0020D708002034
:1008A000C3010020202100208C0C0020D301002057
:1008B00000B5012883B0014610D0022802D003B051
:1008C0005DF804FB012104F00DFE0A4A0A4B126890
:1008D0000192019A1A6003B05DF804FB032004F052
:1008E00001FE044A054B12680092009A1A6003B098
:1008F0005DF804FB101F00201802002014020020E5
:1009000010B50D4A0D4B12681B6882B00192019C14
:10091000E31A092B0AD80A4B1B68E41A092C03D9DD
:100920000021022004F0DEFD02B010BD00210320F2
:1009300004F0D8FDEFE700BF101F002014020020D4
:100940001802002030B40D490D4A0E4B0C78157872
:1009500003F5206105E0904200D95D6128338B42A8
:100960000AD09A68002AF9D0DA68002CF3D08242C3
:10097000F3D828338B42F4D130BC7047850900206E
:10098000D408002074F7FF1FF8B50F4D0F4E2B78D9
:100990000F4F0133DBB203F007002B7030700824D7
:1009A0003B6800EBC00003EB800003F0B5FE48B1EC
:1009B0002B780133DBB203F00700013C2B70307061
:1009C000EED1F8BD3078F8BDCC020020D60800206A
:1009D000B00700202DE9F84F17469DF82890214CCC
:1009E00005460E469846002204E00132082A04F12A
:1009F0000C040DD054F8041C8D42F6D123689E429D
:100A0000F3D12AB102EBC2024FEA820B164C20E06E
:100A100040F2F45306EB460203FB05F303EB8203BB
:100A2000124A114C52F803A0FFF7AEFF00EB40034F
:100A30000F4A9B0000EBC0004FEA800B2068D550A6
:100A400013445146584401225E60C3F8089003F0F5
:100A50004BFE2068424658443946BDE8F84F03F043
:100A600043BE00BFF0080020B00700203498FF1FED
:100A7000EC0800202DE9F0411C4B1A78D300083314
:100A800000AFADEB030D6B464FEA820CC2B11849C3
:100A900002F180400138D51D01EB800001EB850596
:100AA000ADF1040E0DEB0C060021013150F8048964
:100AB00055F804494EF8048F914246F8044BF4D19E
:100AC0008AB102F18042013A0A4903EB820203EB48
:100AD0000C00043B53F8044F41F8044F934250F884
:100AE000044B0C62F6D1BD46BDE8F081C002002087
:100AF0007801002074010020144A154B10B452F8FC
:100B0000314002EBC1022340002B516818DB5BB17E
:100B1000104A1378012C83F00103C0EB41001370DD
:100B2000CCBF04F1FF3400240B4A0C4B1278013A7D
:100B300053F82230C3EB410304FB030010BC7047A1
:100B4000013B63F001030133E1E700BFE00E002049
:100B500001000080E9080020C00200207801002088
:100B6000F8B51E4A1E4B52F821201E4C1E4D1B7814
:100B700054F821102E78002A0CBF0C240724F3B956
:100B80000B1893FBF6F206FB1233002B1DDB00293A
:100B90001EDD2878421ED31A0B4493FBF0F009F0B7
:100BA0001DF806F0EDFC06460F46204609F016F843
:100BB00032463B4609F078F809F026FBF8BD90FB79
:100BC000F6F206FB1203002BE1DA00293344E0DCE5
:100BD00001D10846F8BDCB1A2878DEE7E8010020ED
:100BE000E9080020400F0020C00200201E4B70B416
:100BF00053F82040002C11DD00EB40031B011B4A81
:100C0000D558A9421A4418BF002304D125E052F850
:100C1000045F8D4224D00133A342F8D1013C002C63
:100C20001BDD124B00EB400003EB0012012306E03A
:100C30001668B1420FDBAC4203F101030DDD52F83F
:100C4000045BA94203F1FF301D46F1DC1D46F2DAD8
:100C50001668B142EFDD70BC7047002070BC704771
:100C6000184670BC704700BFB4080020D40C0020A8
:100C70002DE9F84F1E4B1E5CAEB31E4A1E4D1F4B96
:100C800052F820B0DFF87C9006F18046013E00EB80
:100C9000400805EB86060746043D03EB401A4FEA81
:100CA00088085AF8044B164BE21783FB0431C2EB59
:100CB000610101EB4101B4EB810148BF0C313846C1
:100CC000FFF794FF90FBFBF20BFB1202002AB8BF68
:100CD0005A44424445F8040F59F82220B542A4EB87
:100CE00002042C62DDD1BDE8F84FFFF7C3BE00BFA0
:100CF000540E0020B408002078010020880900204C
:100D0000ABAAAA2AD40C00202DE9F843634B644E09
:100D100053F820300546002B40F092803370614B31
:100D200053F82500002806D040F3A88000F17F0387
:100D3000FE2B40F29D805C4B5C4C53F835C027780D
:100D400003EBC5035868002F55D0DFF87081D8F841
:100D500000E07045C0F29C8000F09D807246012347
:100D600005E058F82320904203F101030BD0904294
:100D700003F1FF3103DD58F8232090427BDB9F42D3
:100D80001946EEDC39464FF0000901EB09025242E8
:100D9000DFF828810CFB02F20CFB09F9002301E0CB
:100DA00058F804EF8B42C8BF02EB090003F10103BE
:100DB000D4BF02EB0E007044BB42C8F8000062448E
:100DC000EED13B4B3B4953F82500002251F8043F3C
:100DD00001320344BA420B60F8DBDFF8D880002709
:100DE00058F8040F2946FFF787FE2378C8F800005B
:100DF0000137BB42F4DC304B53F82500002824DDDA
:100E00003378A3B900F17F03FE2B2ED92778AFB139
:100E1000284E002420462946FFF7A2FE56F8043F3C
:100E200001341844A7423060F4D1BDE8F88300F1E2
:100E30007F03FE2BEAD8FFF705FCE7E7BDE8F88360
:100E4000FFF718FE0123337069E7DFD0337833B939
:100E5000C0F17F03FE2BC0F10000D7D8EBE7C0F153
:100E60007F03FE2BC0F10000D0D8FFF7B7FBCDE722
:100E7000FFF7E8FB5FE74FF0010986E7C0F17F036A
:100E8000FE2BC0F100003FF656AFFFF7A7FB52E77D
:100E90004FF0FF3177E7002175E700BF200F0020FA
:100EA000E9080020C00E0020801D0020C0020020A4
:100EB0006009002074010020400F0020780100200C
:100EC000F8B52C4B53F82070002F51DD2A4B2B49DD
:100ED000DA5D2B4C2B4E2C4BC95D227046F820203E
:100EE00019709AB102F18044284B2949013C02EB68
:100EF000C70203EB840401EB8202043B002552F895
:100F0000041D43F8041FA3421D62F8D1054638466C
:100F1000FFF7FAFE56F82560002E2ADD1D4B1B4C0C
:100F20001D4F05EB450003EB001504EB860605E0BD
:100F30009B000344B44245F8043B19D054F8040B19
:100F400087FB0023C217C2EB6303002803EB4303B4
:100F5000EEDA411C87FB0132C943C90FC1EB6202C3
:100F600002EB420293000344B44245F8043BE5D14E
:100F7000F8BDF8BDE8010020540E0020C402002096
:100F8000C0020020B4080020781D00207801002055
:100F900088090020D40C0020ABAAAA2A2DE9F0472A
:100FA000DDF82090DDF8248000B3044618461D4685
:100FB00017460E4609F05AFA564909F05FFB4946B2
:100FC000824609F0A7FA41468146504609F0A2FA46
:100FD000012C80460DD0022C5BD0032C3CD0042C7D
:100FE00033D0052C1FD02846BDE8F0871846BDE851
:100FF000F087494609F084F90446781E09F036FA6C
:101000000146204609F03AFB0446304609F02EFA24
:101010000146204609F07EFA494609F073F909F0C5
:101020003FFCBDE8F0870146484609F02FFC002848
:1010300060D1404609F034FC441C484609F030FCBD
:101040002146BDE8F04705F003BCF30758BF48460A
:1010500009F026FCBDE8F08707EBD7777F10780012
:1010600096FBF0F300FB1360C01B0028B8BF4042A2
:10107000381A09F0FBF949460446404609F040F9A0
:101080000546384609F0F2F90146284609F0F6FA15
:10109000BEE7781E09F0EAF901464FF07E5009F0EC
:1010A000EDFA0446304609F0E1F90146204609F020
:1010B00031FA08F0A5FD0022174B06F02DFB04467F
:1010C0000D464046494609F01BF908F099FD2246B5
:1010D0002B4608F0E9FD044648460D4608F090FD11
:1010E00002460B462046294608F02CFC09F08CF8F5
:1010F000BDE8F087484609F0D3FB4FF07E51044627
:10110000404609F0FFF809F0CBFB2146BDE8F04767
:1011100005F09EBB0000C8420000084030B43C4CC3
:10112000245CBCB1012C18D0022C24D0032C44D058
:10113000042C53D0052C15D0062C55D0072C03D0E9
:10114000082C5BD0002006E001395B1A002BB8BFE9
:101150005B42CB1AD8B230BC70470139CB1AD8B237
:1011600030BC704713F00100F5D003EBD3735B1074
:101170000133D8B2EFE7481E00EBD07011F0010147
:101180004FEA60000DD1002BA8BF013306DBCC076E
:101190004CBF4018401A01319942F8D1C0B230BC5E
:1011A0007047002BFADB01330022D5074CBF801AB1
:1011B000801801329A42F8D1F0E7002BC2DD5D1CA5
:1011C0000122002312F0010F01EB03040ABF581A99
:1011D000A31A83180132AA42F4D1BBE703EB001330
:1011E0000C4A12F82300B6E7DA0756BF03EBD370B8
:1011F00001F1FF33A3EB6003D8B2ACE702EBD2718D
:10120000B3EB610FA6DB013AD31AD8B2A3E700BF54
:10121000B8010020880A0020002920DD2DE9F041D6
:101220000F4F07EB80163246002342F8043B013390
:101230009942FAD10D464FEA00180024204629466B
:1012400005F006FB4044013457F82020336846F887
:10125000042BA54247F82030F0D1BDE8F08170475B
:10126000880A00202DE9F04F0020DFF85892DFF8BF
:101270005882DFF858C2DFF858E2694F694E6A4D6C
:101280006A4B83B002464FF0640B01244FF07F0A93
:1012900049F804BF08F8012F0CF8014F0EF8014F70
:1012A00007F801AF06F8012F05F8012F03F2F451FA
:1012B0001A605A609A600C338B42F9D101301028C1
:1012C000E6D15B4B002203F180019A60DA601033B3
:1012D0009942FAD1574B002203F5606003F1E00117
:1012E0005A619A611C338B42FAD19842F6D1524D21
:1012F000524B287803F5936100221A605A609A6075
:10130000DA601A611C338B42F7D12A3800244C4F23
:101310004C4E4D49DFF8BCB1DFF84CA1DFF84C91E1
:1013200028704FF06408254620460191FFF73CF9EC
:10133000464B019943F82450454B43F82450454B04
:1013400043F82450444B43F82450444B43F8245072
:10135000434B43F82450434B0C2243F82420424B88
:1013600043F83450414BCAF8045043F834505A46BD
:10137000C9F80450002342F8043B01330C2BFAD186
:101380000134082C87E82001C7F8088086E820018E
:10139000C6F8088001F8015F0AF1080A09F1080996
:1013A00007F10C0706F10C060BF1300B4FF00000B3
:1013B0004FF0640EB8D12E4B2E4918702E4D2F4A87
:1013C0002F4E107001230B702E492B702E4A2F4D7B
:1013D0002F4B08700A2111603070287018602D4F53
:1013E0002D4E2E4D2E492F4A2F4B387030602870CD
:1013F000C1F800E014701860DFF8DCC02B4F2C4EF1
:101400002C4D2D492D4A2E4BCCF800003860306011
:10141000286008601070187003B0BDE8F08F00BF3E
:10142000CF1E0020D7080020C30100203498FF1FE2
:1014300040020020640F0020641D002018030020DB
:10144000D497FF1F600E0020B7010020200F00205E
:10145000C00E0020400F0020200200206009002064
:10146000E8010020B4080020801D0020E00E0020CC
:10147000E80800200988FF1F0888FF1F600F002070
:101480005C090020D50800200488FF1F10020020FE
:10149000B097FF1F8409002074010020D1020020B2
:1014A0000C88FF1F0088FF1FD00C0020E01E0020CA
:1014B0000C020020800900201C0200208C0C00205F
:1014C000850900208C0C0020D30100204B0900204E
:1014D000671D0020D40C0020D402002010B43A4A2A
:1014E0003A4B125C3A4C1B5C205C22B98B420BDD00
:1014F000FF2010BC7047012A09D0022A25D0032AF8
:101500000AD0C8B210BC70478142F1DCF9E79942B9
:101510002EDB8142EDDCF4E799423FDB8142F0DDD6
:101520002C4A091A82FB0132CC17C4EB6202531C0D
:1015300002EB4202A3EB8303B1EB820200EB8300D8
:1015400048BF0C328318D8B2D3E7994212DA214847
:10155000591A80FB0120CA17C2EB600000EB400063
:10156000B1EB800048BF0C300C331B1AD8B2C0E777
:101570001846BEE78142C4DD164A091A82FB0123E0
:10158000CA17C2EB630202EB4202B1EB8202A0F186
:101590000C0048BF0C328318D8B2AAE70D4C591A78
:1015A00084FB0124CA17C2EB6404621C04EB4404EC
:1015B000B1EB840102EB420203EB820248BF0C3123
:1015C000531AD8B295E700BFC4010020D808002004
:1015D000D01E0020ABAAAA2AF0B4174D00232A4639
:1015E00004E00133082B02F1100207D01468844292
:1015F000F7D154688C42F4D158B217E00F4F3978C4
:101600004B1CDBB209313B70C9B203F00700002666
:1016100005EB00125C1C526852B1E3B28B4203F03E
:1016200007004FF00106F3D13B7040B2F0BC7047A9
:10163000002EFAD0F8E700BF400200205C0E002028
:101640004278102A14D88178C37843EA01231BB268
:10165000002B0DDB52B222B1013A064941F822308B
:101660007047054A02F1400142F8043F8A42FBD12B
:10167000704700BF900C00208C0C00204278102A8C
:1016800017D88178C37843EA01231BB252B283F39F
:1016900007032AB107490A44013302F8013C7047A5
:1016A000054A0133DBB202F1100102F8013F8A4220
:1016B000FBD170474C0900204B0900204278102ACA
:1016C00017D88178C37843EA01231BB252B283F35F
:1016D00007032AB107490A44013302F8013C704765
:1016E000054A0133DBB202F1100102F8013F8A42E0
:1016F000FBD17047681D0020671D00204378102B28
:101700000FD8C17803290CD810B490F902205BB22D
:1017100022EAE27233B1013B094C0A48E154C25457
:1017200010BC7047084B0948D2B203F1100403F80B
:10173000011FA34200F8012FF9D110BCF1E700BF4F
:10174000C4010020D8080020C3010020D7080020D1
:101750004378102B0FD8C17803290CD810B490F916
:1017600002205BB222EAE27233B1013B094C0A4823
:10177000E154C25410BC7047084B0948D2B203F17F
:10178000100403F8011FA34200F8012FF9D110BC87
:10179000F1E700BFC4010020D01E0020C3010020DB
:1017A000CF1E002038B5437890F902505CB2002C6F
:1017B00004DD581EC0B207280AD938BDFDD160B279
:1017C0002A4600210134FEF769FE082CF7D1F4E720
:1017D0002A4640B20021BDE83840FEF75FBE00BF98
:1017E00070B590F9014090F90250002C07DD601EA1
:1017F000072803DC05F17F03FE2B0ED970BDFDD158
:1018000005F17F0602E00134082CF7D0FE2EFAD84D
:1018100029462046FEF79EFEF5E72946BDE87040C2
:10182000FEF798BE10B590F90140002C03DD601E54
:1018300007280EDD10BDFDD120460134FEF7B4FEB1
:10184000082CF7D020460134FEF7AEFE082CF3D169
:10185000F0E7BDE81040FEF7A7BE00BF4378082BB5
:101860001ED88278511E07291AD85BB251B243B1F3
:10187000013B0C48C05C82420B4AC8BF41B2D15404
:1018800070470A4B084910B403F1080413F8010F1C
:101890009042C8BF0A70A34201F10101F6D110BC09
:1018A000704700BF540E0020C4020020530E0020D9
:1018B0002DE9F0474478082C29D890F80290B9F126
:1018C000080F24D84FFA84FA1CBB4FF0080A164FB1
:1018D0004FFA89F94FF00008B9F1000F1CD11349F4
:1018E000134D144801F1200E0C2641F8048F45F8E1
:1018F000046F0246002342F8043B01330C2BFAD15B
:10190000714500F13000F0D101345445E4DBBDE80D
:10191000F0870AF1FF34DAE709F1FF33204647F890
:101920002430FFF7CDFAEFE7E8010020E4010020C2
:10193000B0080020D40C00202DE9F0414778082F92
:101940001FD84FFA87F8F7B94FF008088678C378A0
:1019500043EA06263846FEF727FE00247DB246FA03
:1019600004F313F0010F62B24FF0000104F101041F
:10197000284601D0FEF792FD102CF0D101374745E3
:10198000E8DBBDE8F08108F1FF37DFE74278082A9D
:1019900016D890F90210104B0B40002B11DB591C8C
:1019A00052B208BF012322B1013A0C4941F822305A
:1019B00070470B4A02F1200142F8043F9142FBD1EB
:1019C0007047013B63F001030133591C52B208BF59
:1019D0000123002AE8D1ECE701000080200F00205D
:1019E0001C0F00204278082A14D88178C37843EA73
:1019F00001231BB2002B0DDB52B222B1013A064982
:101A000041F822307047054A02F1200142F8043FB4
:101A10008A42FBD1704700BF200200201C02002038
:101A2000F8B54378817890F903505CB2002C04DD5E
:101A3000581EC0B2072810D9F8BDFDD106460D4F7B
:101A400000E0B1783B5D591A60B249B22A460134D0
:101A5000FEF724FD082CF4D1F8BD064B1C442A46A1
:101A600014F8013C591A40B249B2BDE8F840FEF7FB
:101A700015BD00BF540E002038B542780E4B857856
:101A800054B2ED431B5D002C1D446DB204DD501EAD
:101A9000C0B2072809D938BDFDD160B2294601344A
:101AA000FEF732FD082CF8D1F5E7294640B2BDE833
:101AB0003840FEF729BD00BF540E002070B54278B3
:101AC000104B857890F9036054B2ED431B5D002CF8
:101AD0001D446DB204DD501EC0B207280AD970BD86
:101AE000FDD160B2324629460134FEF74BFD082C89
:101AF000F7D1F4E73246294640B2BDE87040FEF720
:101B000041BD00BF540E002030B4C4780379417940
:101B1000827903EB04231BB2002B02EB012212DBC0
:101B200012B2002A0FDB417808290CD849B290F98B
:101B3000020051B101390A4D01EB410189006C18D5
:101B400068506360A26030BC7047054901F16004D1
:101B50008A6081E809000C31A142F9D1F3E700BFA6
:101B6000D497FF1F30B4C47803794179827903EBAD
:101B700004231BB2002B02EB012212DB12B2002A5B
:101B80000FDB417808290CD849B290F9020051B115
:101B900001390A4D01EB410189006C1868506360FE
:101BA000A26030BC7047054901F160048A6081E899
:101BB00009000C31A142F9D1F3E700BF600E00200B
:101BC00070B545780F2D1FD8827811061CD4C178C6
:101BD0000B0619D44379047943EA042424B201EBB7
:101BE000C216B4F5804F31462846A8BF4FF4804452
:101BF000FFF7F2FC0549064B00010A189C42B8BFEA
:101C00001C460D509460566070BD00BF400200201D
:101C100000C0FFFF70B545780F2D17D88478C378C2
:101C200003EBC414B4F5804F10DA0679437943EA24
:101C3000062636B2002E09DB21462846FFF7CCFCEB
:101C4000034A0001131815505C60DE6070BD00BFD0
:101C50004002002043780B4A012B137000D97047D3
:101C600070B4094C094922780968094E094D03F0FE
:101C700001030132337022702960084670BCFEF700
:101C800061BE00BFD1020020D4080020080200205D
:101C900085090020C00100202DE9F041E0290C4613
:101CA0009DF8185008D8013DEDB20F2D02D849B269
:101CB000002912DBBDE8F081F729FBD90834E4B232
:101CC000012303FA04F414F0DD0FF3D0436D186818
:101CD0000368BDE8F0411B6818471F46436D804606
:101CE000186803682943C9B21B6816469847D8F894
:101CF00054301868036806F07F011B6804F0EF0495
:101D00009847C02CD6D0D8F854301868036807F02C
:101D10007F011B68BDE8F041184700BF00B50130E6
:101D200083B0C0B20090D3B20548CAB2B021FFF769
:101D3000B3FF012003B05DF804EBFEF7B9BD00BFAF
:101D4000C01D00202DE9F0410C4606464FEA41082F
:101D500040F2F45108EB040001FB06F1234F01EBC4
:101D60008001394482B08D68551935D443F6FF722D
:101D70009542A8BF154640F2F45202FB06F208EB6A
:101D8000040102EB81023A445268D3B932BB184BCA
:101D9000690083FB0123C917C1EBE30303F00102D0
:101DA00002EB630221463046FFF7B8FF40F2F453DE
:101DB000444403FB06F606EB84043D5102B0BDE843
:101DC000F081002AE3D00021134600912A462146E3
:101DD0003046FEF7FFFDE9E70025CCE700932A46F1
:101DE000012321463046FEF7F5FDDFE73498FF1F5B
:101DF000813FE00FC3781A060BD40279110608D48C
:101E000010B490F901400F2C02D881787F2901D9B4
:101E100010BC704702EBC3122046012310BCFFF731
:101E200091BF00BFC3781A060CD40279110609D4F9
:101E300010B490F901400F2C03D890F902107F29BB
:101E400001D910BC704702EBC3122046002310BC1E
:101E5000FFF778BFF8B5CB111D061CD4D7113C068F
:101E600019D4044615460E46DAB26321FFF756FF31
:101E700006F07F0220466221FFF750FFFAB22046AB
:101E80000621FFF74BFF05F07F0220462621BDE823
:101E9000F840FFF743BFF8BDF0B5154F83B03C469F
:101EA000002566688E4204F1100414D00135082D17
:101EB000F7D100252C46A2180BD4B2F5804FA8BF4D
:101EC0004FF4804203B15DB903B0BDE8F040FFF7C5
:101ED000C1BF0022F6E707EB0515AC68ED68EAE73D
:101EE00001242B460094FEF775FD03B0F0BD00BF42
:101EF000400200208378190608D4C1780A0605D468
:101F000030B490F901400F2C01D930BC70470579ED
:101F1000427901EBC311204602EBC512012330BC0C
:101F2000FFF7BABF8378190608D4C1780A0605D42A
:101F300030B490F901400F2C01D930BC70470579BD
:101F4000427901EBC311204602EBC512002330BCDD
:101F5000FFF7A2BF2DE9F0471D4F1E4E1E4DDFF8C3
:101F60007C90B846002407E02434B4F5907F06F155
:101F7000040605F10C0525D03868204402F0CCFB9E
:101F80000028F1D0D8F80000204402F08BFF420076
:101F900089FB0213D217C2EBE30303F0010A326894
:101FA0000AEB630A52458646524608D0A96895E86E
:101FB000081001291846614606D0FFF7AFFEC6F8A3
:101FC00000A0D1E7BDE8F0877246FFF743FFF6E7D0
:101FD000B0070020B497FF1FEC080020813FE00FFE
:101FE0000F2812D87F2910D800B5013083B0C0B2B5
:101FF0000090CAB20023C0210448FFF74DFE012023
:1020000003B05DF804EBFEF753BC7047C01D002021
:102010000F2816D800B501F30D0283B0013002F588
:102020000052C0B20090C2F3C713E02102F07F0259
:102030000448FFF731FE012003B05DF804EBFEF722
:1020400037BC7047C01D00200F2814D800B50029E8
:1020500083B011DB7F2911DD7F220130C0B20090F7
:102060000023D0210648FFF717FE012003B05DF8DA
:1020700004EBFEF71DBC70470022EEE7CAB2ECE7A6
:10208000C01D002000B5013083B0C0B20090D3B2B3
:102090000548CAB29021FFF7FFFD012003B05DF8AB
:1020A00004EBFEF705BC00BFC01D002000B50130E9
:1020B00083B0C0B20090CAB2002380210448FFF769
:1020C000EBFD012003B05DF804EBFEF7F1BB00BFB0
:1020D000C01D00202DE9F04F85B00F2800929DF81B
:1020E00038B000F2F380DFF848A21E461AF900303B
:1020F00019440546FFF7F2F90306074600F1E680AA
:10210000002E40F3E380009A002A40F3F6804FEA65
:10211000C509C5EB09046401DFF8F08104F1E001B1
:1021200013467F2A08EB01024946A8BF7F23B14628
:1021300044442E4615460A4602E01C34AC4212D0F6
:102140002168B942F9D1E1680129F6D13946304612
:1021500001920093FFF7AAFF0023E3601C34AC4216
:10216000019A009BECD13546DFF8C8E165494E463F
:1021700091465EF825200132114000294EF82520B5
:10218000C0F2B680604CC5EB090C44F825104FEA4C
:102190004C1C082004E0013844F82520114619D0D1
:1021A000C1EBC1010CEB81014144564AC9680129C8
:1021B0001DD15EF8251001310A40002A4EF8251085
:1021C000E9DA013A62F007020132013844F82520C9
:1021D0001146E5D1C5EB09014901C2EBC20201EB91
:1021E000820208EB02014948C968012971D0484AB6
:1021F000515D484A012912F805C071D996FBFCF2DD
:10220000454E02EB8202C2EB021286FB0206D21797
:10221000C2EB6616002E59DD54F825E0C5EB090225
:102220004FEACE005201CEEB000402EB840242449E
:102230001CFB01F15161C5EB0909384C00934FEAD1
:102240004912CEEB000902EB89092268029208EBE1
:102250000900029948F809704FF0010E416086604C
:102260000361C0F80CE01A4639462846FFF70AFF1A
:10227000BBF1000F2AD02A4A12783AB329482268C3
:102280000178039201F03F0202EB8202DFF8A8E03E
:102290001AF905C0244C009BD200CCEB07074EF87E
:1022A00002507244DDF80CC0D4F800C01F4C93609B
:1022B00093610F9B2478D3610131109B57600170AB
:1022C000166113625362C2F80CC0546105B0BDE8D8
:1022D000F08F815800932846FFF7E8FE009B86E7C1
:1022E000BCF1010F8AD854F825E04FEACE00A2E7EE
:1022F000013961F00701013144E701462846FFF743
:10230000D5FEE3E707000080D8020020640F00201C
:102310004C090020681D00201F85EB51101F002074
:10232000D5080020D002002008020020D408002098
:10233000D40100207097FF1F74F7FF1F2DE9F04FA5
:10234000AD4B1B78012B8BB000F034814FF07E53E6
:10235000AA4E06930593AA4CA84D03F0CFF8336814
:10236000226803EB83035B00801A834226D8A54EC4
:102370003178002940F00681A34FA448A449D0F841
:1023800000E009683868CEEB01010130884238600E
:1023900012D3A04BA04A1B78022B00F024811378A3
:1023A0009E490133086838601370FEF7CBFA2B683A
:1023B000226803EB83035B0013442360984CDFF82F
:1023C00058A204F52068A368002B00F0A9809AF8B1
:1023D00000706269974200F0A3808A4A1278002A4E
:1023E00000F0A580884AE1681268914240F2988026
:1023F0008C4A8D491578A269B2FBF5F58B4A8C4E53
:10240000086812688B49366807925B1B2269096865
:10241000D4F81CB0002BACBFC318031C23EAE37331
:10242000164403EB010926EAE676BBF1630FA360CD
:1024300029EAE979266100F084807F4A636A11689D
:102440007E4A256A1068227909920B44DBB218444F
:10245000636208F00BF87A490890059808F05AF87A
:10246000089B0146184607F04DFF754908900698ED
:1024700008F050F8089B0146184607F041FF08F0A5
:1024800035FA704B099A53F82BE0C0B290FBFEF17D
:102490000EFB110000284FEA4B0CB8BF70440CEB48
:1024A0000B0300EB8303684850F8233001EB410134
:1024B000EDB203EB81031A4495FBFEF30EFB1355BB
:1024C000002DB8BF7544E34405EB8B0503EB4303D4
:1024D00050F82550D2B205EB8303D21AD5B2B9F128
:1024E000000F2BD0079B3344184607F0BFFF059918
:1024F00008F0C4F8069908F00DF808F0D1F920EAC0
:10250000E073DBB16AB2002A18DD67610026632739
:10251000206802964A4629468DE8C000FFF7DAFD9A
:102520002834A0457FF44FAF0BB0BDE8F08F364A9A
:10253000E16812689142FFF45BAFF1E70023A3600A
:10254000EEE73D4B62683D491B6808681344DBB207
:102550001844636007F08AFF3C490546059807F078
:10256000D9FF0146284607F0CDFE384905460698B2
:1025700007F0D0FF0146284607F0C2FE08F0B6F982
:10258000C5B2ACE72049254F08683F680138B8421A
:1025900008603FF611AF1F4B1B78022B5CD01B4A23
:1025A0001D4E1B4B10681B683278181A531C0860AC
:1025B0003370FAE6114E306864280ADC07F056FFE3
:1025C0004FF07E5301462248069308F057F80590D5
:1025D000C1E607F04BFF4FF07E531D49059308F00D
:1025E0004DF80690B7E61B491378086001330121C6
:1025F00013703170D9E600BF8C0C00200C88FF1FCF
:10260000880C0020850900200802002074010020A9
:102610000488FF1FD1020020D4080020B097FF1FBC
:1026200074F7FF1F0088FF1FE01E00201C0200201F
:10263000D402002080090020D00C00200C020020D1
:102640000000E040B4080020D40C0020000040410D
:102650000000C842C0010020044A05491378086000
:1026600001330021137031709FE600BFD4080020B1
:10267000C00100202DE9F04F93B00F289DF8744061
:1026800008949DF8784009941C9F9DF87C4000F2C6
:10269000E9807F2900F2E680002BC0F2E380072F5B
:1026A00000F2E080864DDFF848E2ED5DDFF844C2DD
:1026B000844E1EF807E035708CF800E0002D00F025
:1026C000D1800E9038460F930D920C91FEF7D0FA00
:1026D0003846FEF719FB7C4B3278DB5D072B00F0A8
:1026E000DB80082B00F0C180591F012940F2DB80FC
:1026F000042B059203D111463846FEF78DFD089B49
:10270000002B40F0BB80099B002B40F0B780059B5D
:10271000099E0B930B9B9E4280F2A48007EB470916
:102720006A4BDFF8D4A14FEA89094B440693002392
:1027300007932AE0664A674B12781B68664C119330
:10274000C2EBC203501C44F82350644D5AF82820B1
:10275000119904EB830385FB00E5C417C4EBE50581
:102760009A61079C0F9A9A600A9ADA6021440E9A3D
:102770001A614FF02A0E5F615960554B0EFB15052B
:102780001D700B9B0136B3426CD04E49059A0978F7
:10279000534D33463846FEF7C1FC524B804653F842
:1027A00027405AF8200090FBF4F304FB1302002AA0
:1027B000B8BF121908F108014A4400285AF821103C
:1027C00055F8225055DB03EB43039A00464B03EBCD
:1027D000090BAB185D18444BDBF8080013F80940EF
:1027E0000C9B1D4407F042FE0190DBF8040007F04B
:1027F0003DFE0D9B0090059A20463146FEF7CEFB2C
:10280000089B0A90002B45D1099B4BBB002E4FD053
:10281000069A364B906853F8274092F800B007F0BC
:1028200025FE069A0190506807F020FE234600908E
:10283000059A58463146FEF7B1FB079B03440793C0
:10284000002C7FF477AF5AF828300A9A0293019748
:102850000123009329460F9B0E98FFF73BFC90E75E
:102860000A9C204613B0BDE8F08F5200D3B2059306
:1028700045E7431C93FBF4F4631EA4E7059A94FB1D
:10288000F2F602FB1646002E04F10103B8BFB6189B
:102890000B933FE72846E5E74FF0FF3303EB420297
:1028A000D3B205932BE7931E1A44D3B2059326E7C0
:1028B0005AF828300293019701230246C9E700BF66
:1028C000C4020020781D0020B8010020600E002006
:1028D000641D0020101F002018030020310CC3309D
:1028E000D40C0020B4080020D497FF1F2002002041
:1028F000540E0020C00200207801002030B58478FA
:102900000A4B85B00146013C90F9010091F9042081
:1029100053F8203091F90310002564B20094039518
:1029200002950195FFF7A6FE05B030BD900C002082
:1029300030B5244C054685B00721234803F0BEFC82
:10294000697800230A22204603F002FF204603F0A4
:10295000EBFE07211D4803F0B1FCA97800230A22F1
:10296000204603F0F5FE204603F0DEFE072118485E
:1029700003F0A4FCE97800230A22204603F0E8FED5
:10298000204603F0D1FE134BE97895F90120DB696D
:102990000391012000210291009101903C21072028
:1029A000FFF768FE0A2105460B4803F087FC69B271
:1029B000204603F00DFF204605B0BDE8304003F08F
:1029C000B3BE00BF488EFF1F34B400003CB400000B
:1029D00044B40000900C00204CB400002DE9F047F6
:1029E0001E4B1F4C1B68DFF87CA086B004F5936576
:1029F0000593DDF814904FF00108002602E01C3426
:102A0000A54227D054F8103C002BF8D04B45F6D205
:102A100067680297276854F80C3C54F8082C54F85F
:102A2000141C54F8040CCDF800800197FFF752FBFA
:102A30009AF8003044F8146C44F8106C44F80C6CAC
:102A400044F8086C44F8046C1C34013BA5428AF835
:102A50000030D7D106B0BDE8F08700BF101F0020BE
:102A60002C030020641D002070B50146094B90F92D
:102A7000010091F9032053F8203091F9021084B03D
:102A80000124632500268DE87000FFF723FB04B0C6
:102A900070BD00BF900C00200279437943EA022305
:102AA0001BB2002B10DB70B5012484B06325002617
:102AB00090F9032090F9021090F901008DE8700060
:102AC000FFF708FB04B070BD704700BF2DE9F04F61
:102AD000DFF8C8A02F4EDAF800302F4FDFF8C0B073
:102AE000DFF8C09083B000250093DDF80080A6F1E8
:102AF000E00412E0616801290CD954F8080C54F87C
:102B00000C1C02FB00F2ABFB0232C1EB0801B1EB83
:102B1000D20F22D81C34A64217D054F8042C42B14C
:102B200054F8082C2AB154F80C1CC1EB08018A4255
:102B300026D3795D01294FF06402DBD815F809101E
:102B40000129D7D81C34A642E7D10135102D06F152
:102B5000E006CCD103B0BDE8F08FDAF80020019296
:102B60000198226844F80C0C012354F8101C44F816
:102B7000043C2846FFF786FA6268013A6260C9E7BA
:102B800054F8101C2846FFF791FA002344F8043C3F
:102B9000CFE700BF541000204C090020101F002078
:102BA000B5814E1B681D002038B50B4B5B6D186856
:102BB0000368FC211B68984700250024214628460D
:102BC0000134FFF773FA802CF8D10135102DF4D1C0
:102BD000BDE83840FEF746BBC01D0020F8B5334CB9
:102BE000334F94F87030DFF8DCE0C7F800E00122E2
:102BF00043F00103002562F347034FF6FF7684F8A4
:102C00007030294625606560A560E56025616561D5
:102C1000A561E56125626562A562E562256365637C
:102C2000A563E56325646564A564E564256584F8AA
:102C3000585084F8595084F85A5025666566A6663F
:102C4000676504F17800E666802284F8745084F8A1
:102C5000755084F8765084F8775084F8F85008F06E
:102C600061F9144A1449C4F800512046C4F80451CB
:102C7000C4F8085184F80C5184F80D5106F056FE42
:102C800002F03CFC0D4B18604FF4907003F0F4FD23
:102C90000646044600F590752046243401F0F0FC09
:102CA000AC42F9D1064B1E60F8BD00BFC01D00202C
:102CB0007C1D0020FC87FF1F6D040000880C002095
:102CC000B0070020308EFF1F38B5427890F90240DF
:102CD0000D4D0E480F2A40F2F45188BF002224EA1D
:102CE000E47401FB02F204EB440402EB84032B4482
:102CF0009C68C4F3072100F015FEE1B20348BDE86B
:102D0000384000F00FBE00BF3498FF1FF81E0020AF
:102D100038B5427890F902400D4D0E480F2A40F226
:102D2000F45188BF002224EAE47401FB02F204EBB0
:102D3000440402EB84032B445C68C4F3072100F0D5
:102D4000F1FDE1B20348BDE8384000F0EBBD00BF43
:102D50003498FF1FF81E002038B544780F2C1DD87A
:102D6000827815061AD4C378190617D4114D03EBCF
:102D7000C2102B46002204E00132082A03F110039E
:102D80000CD019688C42F7D159688842F4D105EB10
:102D900002129168CCB2C1F3072101E000210C4678
:102DA000054800F0BFFD21460348BDE8384000F06B
:102DB000B9BD00BF40020020F81E00204378013B4F
:102DC000DBB20F2B08D8074AD15611F1800F04D07F
:102DD000C9B2054800F0A6BD70470021024800F0C6
:102DE000A1BD00BFD4010020F81E0020FF21014832
:102DF00000F098BDF81E0020044B19780B0602D491
:102E0000034800F08FBDFFF7F1BF00BF5C09002051
:102E1000F81E0020044B19780B0602D4034800F07A
:102E200081BDFFF7E3BF00BF84090020F81E00202A
:102E3000044B19780B0602D4034800F073BDFFF76A
:102E4000D5BF00BF600F0020F81E0020044B19788A
:102E50000B0602D4034800F065BDFFF7C7BF00BFF3
:102E6000E8080020F81E0020044B19780F2902D82A
:102E7000034800F057BDFFF7B9BF00BF0988FF1F27
:102E8000F81E002090F90130064990F90220C3EBAA
:102E9000C3130B44995C0B0602D4034800F042BDF7
:102EA000FFF7A4BFD0020020F81E0020044B1978C1
:102EB0000B0602D4034800F035BDFFF797BF00BFF3
:102EC00010020020F81E00204378013BDBB20F2BDC
:102ED00000D9704710B5074A074852F82340C4F399
:102EE000072100F01FFDE1B20348BDE8104000F0EB
:102EF00019BD00BF900C0020F81E002010B5054C35
:102F0000FF21204600F00EFD2046FF21BDE81040C5
:102F100000F008BDF81E00204378013BDBB20F2B08
:102F200010D810B50A4AD45C013CE4B223060AD496
:102F30000021084800F0F6FC21460648BDE8104094
:102F400000F0F0BC7047BDE81040FFF7D7BF00BFEE
:102F50004C090020F81E00204378013BDBB20F2B08
:102F600010D810B50A4AD45C013CE4B223060AD456
:102F70000021084800F0D6FC21460648BDE8104074
:102F800000F0D0BC7047BDE81040FFF7B7BF00BFEE
:102F9000681D0020F81E00204378013BDBB2072BA0
:102FA0005AB207D8054B995C4B1E072B02D8044830
:102FB00000F0B8BCFF21024800F0B4BCC4020020FD
:102FC000F81E002038B544780F2C1DD882781506DD
:102FD0001AD4C378190617D4114D03EBC2102B462F
:102FE000002204E00132082A03F110030CD0196812
:102FF0008C42F7D159688842F4D105EB0212D468AB
:10300000C4F30721E4B201E000242146054800F0A2
:1030100089FC21460348BDE8384000F083BC00BF6E
:1030200040020020F81E0020837890F90110084A21
:1030300003F00F0303EB011312F813100B0602D475
:10304000044800F06FBC0021024800F06BBC00BFD8
:1030500088090020F81E0020827890F90130094983
:1030600002F00F0202EB031301EB430359784BB25A
:10307000002B02DD044800F055BC0021024800F09E
:1030800051BC00BF88090020F81E002070B40B78E6
:10309000013B0A46FE2B00F21381DFE813F0950393
:1030A00091038A03780371036D03660362031101C0
:1030B0005E0311015A0311011101110111011101E6
:1030C0001101110156034903460342031101110185
:1030D00011011101110111013E033A032F032B03CA
:1030E000330327031101FF00110123031F031803FA
:1030F000F502EE02D102CD021101110111011101FF
:10310000C902C202BE02B702B302AF02110111012D
:1031100011011101A8029E0297028F025B02530265
:103120004B021101110111011101110111011101D4
:1031300011011101110111011101110111011101FF
:1031400011011101110111011101110111011101EF
:1031500011011101110111011101110111011101DF
:10316000110111014002110111011101110111019F
:103170001101110111011101390232021101110174
:103180001101110111011101110111012B02110194
:10319000110111011101110111011101110111019F
:1031A00024021D0216020F02080201021101110180
:1031B000110111011101110111011101110111017F
:1031C00011011101110111011101FD01F901F501B7
:1031D000F1011101DC011101D801C501C901B101E1
:1031E0009D01990195018601110111011101110142
:1031F000110111011101110111011101110111013F
:103200001101110182017A016C01580154014C0134
:10321000480143013E01360131012C0124011B010B
:103220001701110111011101110111011101110108
:1032300011011101110111011101110111011101FE
:1032400011011101110111011101110111011101EE
:1032500011011101110111011101110111011101DE
:1032600011011101110111011101110111011101CE
:1032700011011101110111011101110111011101BE
:1032800011011101110111011101110111011101AE
:103290001101110111011101110113015378082BC2
:1032A0000ED8927802F12001C9B2402908D85BB249
:1032B00052B2002B00F0B982013BAA4941F8232009
:1032C00070BC7047104670BCFFF732BBA64B5278FB
:1032D0001A70F5E7A54B002103F5206299602833A9
:1032E0009A42FBD1ECE751789378A14A43EA012353
:1032F0001BB21360E4E79F4B92F901201A60DFE7ED
:103300009D4B92F901201A60DAE7517893789B4A35
:1033100043EA01231BB21360D2E7994B92F90120D3
:103320001A60CDE7974B92F901201A60C8E7964BD7
:1033300052781A70C4E751789378944A43EA01238B
:103340001BB21360BCE7104670BCFEF783BC904C08
:103350009049507893780968226843EA0023521A0A
:103360001BB293428C4901DD013A0A60002BB8BFC1
:1033700000230B60A4E7864C87495078937809684E
:10338000226843EA0023521A1BB293428149EBDCC4
:10339000ECE7517893787E4A43EA01231BB213602D
:1033A0008EE77E4B52781A708AE75378082B87D8BD
:1033B0009278082A84D85BB2002B00F03E827849CC
:1033C0000B4403F8012C7BE7104670BCFEF7CABB28
:1033D000104670BCFEF798BB5378082B3FF670AFD1
:1033E0005BB292F9021092F90320002B00F0FB81EE
:1033F0006C48013B00EBC30440F8331062605FE7A8
:103400005378082B3FF65CAF5BB292F9021092F949
:103410000320002B00F0F0816348013B00EBC30464
:1034200040F8331062604BE7104670BCFEF784BA78
:103430005378082B3FF644AF5BB292F90220002B81
:1034400000F0E381013B594941F8232038E7104659
:1034500070BCFEF72DBA5378082B3FF631AF927847
:1034600002F10801C9B210293FF62AAF5BB252B28D
:10347000002B00F0D281013B4D4941F823201FE78A
:10348000104670BCFEF71ABB104670BCFEF7F4BACB
:10349000104670BCFEF7C4BA104670BCFEF7A2BA64
:1034A00000283FF40DAF104670BCFFF7FFBC0028AA
:1034B0003FF406AF104670BCFFF79EBC00283FF4F7
:1034C000FFAE104670BCFFF7A5BC00283FF4F8AE75
:1034D000104670BCFFF7ACBC00283FF4F1AE1046BC
:1034E00070BCFFF7B3BC00283FF4EAAE104670BCD6
:1034F000FFF7BABC00283FF4E3AE104670BCFFF7FC
:10350000C1BC00283FF4DCAE104670BCFFF7A4BD80
:1035100000283FF4D5AE104670BCFFF785BD92F988
:103520000130012B3FF6CCAE002B40F08E81214ABA
:103530001370C5E6204B5B6D18680368FB211B68A0
:1035400070BC18471C4B5B6D18680368FC211B6836
:1035500070BC1847184B5B6D18680368FA211B682C
:1035600070BC1847400F00208C0C002074F7FF1F20
:103570001C020020800900200C020020D402002040
:10358000E01E0020D00C00200088FF1F0C88FF1FC9
:103590000488FF1FB097FF1F74010020D50800208A
:1035A000B8010020E00E0020801D002060090020EE
:1035B000C00E00200888FF1FC01D0020A54B5B6DBA
:1035C00018680368F8211B6870BC184792F902104C
:1035D00092F9010070BCFEF737BD9178D37892F96B
:1035E000010043EA012109B270BCFEF711BD92F956
:1035F000021092F9010070BCFEF7F2BC104670BCDC
:10360000FEF790BC104670BCFEF704BB00283FF4E8
:1036100057AE104670BCFFF7D5BC104670BCFEF725
:10362000CFBA00283FF44CAE104670BCFFF794BBF5
:10363000104670BCFEF75EBC104670BCFEF7F2BBD5
:1036400054780F2C3FF63CAE92F902000028FFF6AA
:1036500037AED178137943EA01231BB2002BFFF672
:103660002FAE40F2F45101FB04F100EB40007A4C24
:1036700001EB80022244536022E600283FF420AE92
:10368000104670BCFFF744BB53780F2B3FF618AEC3
:1036900092F902100029FFF613AED67810796F4C1C
:1036A0006D4D40F2F45201EB410102FB03F200EBDD
:1036B000062002EB810302B243F6FF718A42A8BFE3
:1036C0000A462B44A242B8BF22469A60F8E5002879
:1036D0003FF4F6AD104670BCFFF7F6BA104670BC6A
:1036E000FEF788BB104670BCFEF750B9104670BCA0
:1036F000FEF7B4B8104670BCFEF794B8104670BC24
:10370000FEF76EB800283FF4DBAD104670BCFFF743
:1037100043BC104670BCFEF745B8104670BCFFF7BE
:10372000EDB8104670BCFFF7B7B970BCFFF73CBAF4
:1037300092F901000F283FF6C3AD92F902107F29DC
:103740003FF6BEAD70BCFEF7B1BC104670BCFFF7D3
:103750008BB9104670BCFDF7FBBF104670BCFDF77F
:10376000CDBF104670BCFDF7A9BF00283FF4A8AD3F
:10377000104670BCFFF7F0BB104670BCFDF77EBF73
:1037800000283FF49DAD104670BCFFF7C5BB5378D1
:10379000102B3FF695AD92F902205BB212F1800F2B
:1037A00008BF6FF07E02B3B12D490B4403F8012C22
:1037B00086E500283FF484AD104670BCFFF7FEBAE2
:1037C000104670BCFDF73CBF00283FF479AD1046B1
:1037D00070BCFFF779BB234B03F1100103F8012FF5
:1037E0009942FBD16CE5204B03F1400083E80600D1
:1037F00008339842FAD163E51C4B03F1400083E89B
:10380000060008339842FAD15AE5194B03F120011A
:1038100043F8042F9942FBD152E5164B03F12001E6
:1038200043F8042F9942FBD14AE5134B03F12001E1
:1038300043F8042F8B42FBD142E5104B03F1080102
:1038400003F8012F9942FBD13AE50D4B01221A7082
:1038500036E500BFC01D00203498FF1F01C0FFFFE8
:10386000D4010020D3010020E00E0020801D0020A4
:103870005C090020BC0E00203C0F0020B701002096
:103880000888FF1F10B50A4C23782BB10949002086
:10389000FFF7FCFB00232370FFF718F9FFF79EF8F2
:1038A000FEF74CFDFEF756FBBDE81040FDF728B8CB
:1038B000E4010020B407002001490120FFF7E6BB26
:1038C000B4070020002070470369D3F83801D3F80B
:1038D0003431C01A704700BF0369D3F83411D3F8EC
:1038E0003821914208D2D3F83421511C1A44C3F82C
:1038F000341192F8300070474FF0FF30704700BF2E
:103900000369D3F83411D3F8382191423DBFD3F87D
:1039100034219B1893F830004FF0FF30704700BF00
:10392000704700BF0369D3F84422B2F5817F03D901
:103930000123037100207047D3F8442210B49C186F
:103940000132C3F8442284F83C11012010BC7047B6
:1039500038B503690A4A026093F84822022A0446ED
:1039600001D0204638BDD3F87452002DF9D0284636
:1039700002F00CFE2846082102F080FF204638BDE8
:1039800060B4000038B503690546D3F84402B0F5C9
:10399000817F1AD81446D3F84422D3F84402C2F5E2
:1039A0008172013203F59E73A242184402D20123B0
:1039B00014462B71224601F029FB2A69D2F84432C1
:1039C0002344C2F84432204638BD01232B71002025
:1039D00038BD00BF2DE9F0471E46044617469DF846
:1039E00020909DF824309DF828A00D4659B3012958
:1039F0000FD090F84A329A424FF0000800D14DB3F0
:103A0000012D0ED094F84B329E4212D00020BDE81A
:103A1000F0871D2F4FD01A2F77D094F84A324FF0ED
:103A200000081E2E1AD01F2E6DD094F84B329E42E5
:103A3000ECD1BAF1000FE9D00025B8F1000FE5D0C4
:103A4000002DE3D031E0102A35D0132A33D090F87E
:103A50004A328846A6F11103012BE6D8022594F8D4
:103A60004B329E4257D0BAF1000F09D094F84C3235
:103A700094F84B02002B14BF0221002101F038FD05
:103A80002B02B9F1000F13D143F06403264A02EB75
:103A9000C60201215268136084F84B6284F84C928C
:103AA00084F89912B8F1000FB0D00120BDE8F0877A
:103AB00043F00303EAE74FF0020894F84A229742E2
:103AC00026D04BB194F84C3294F84A02002B14BF24
:103AD0000221002101F00CFD4FEA0822B9F1000F8C
:103AE0000ED142F06402104B03EBC7035968012367
:103AF0000A6084F84A7284F84C9284F898327EE71F
:103B000042F00302EFE70625A9E74FF00608D4E7E5
:103B1000002BE1D073E7BAF1000FB1D0B8F1000F7C
:103B20003FF474AF8CE700BF90B50000F8B5C368F0
:103B30001B789B0610D483680D4680211970C368DA
:103B40001221197090F84932012B044606D08AB927
:103B500080F848220120F8BD0020F8BD1A4675B94A
:103B6000474B4FF080711960022A0FD0012084F872
:103B70004802F8BD531E012BF1D90120F8BD012DDB
:103B8000F2D13F4B4FF000711960EDE7D4F8746249
:103B9000002E6AD03379102B30D0002D3CD1326802
:103BA0003849938B384F9BB243F0080393833279A3
:103BB000531102F110009B0041F8207003F16043A3
:103BC00003F56143012102F01F0201FA02F231689C
:103BD0001A608B8B9BB243F002038B83337903F122
:103BE000804303F5043396221D701A7000220223CD
:103BF00084F85E2284F848320120F8BD304602F095
:103C0000C5FC3046082102F039FE00230120C4F82B
:103C1000743284F84802F8BD012DE7D132681949A1
:103C2000938B1A4F9BB243F008039383327953115D
:103C300002F110009B0041F8207003F1604303F58E
:103C4000614302F01F02954032681D60938B9BB266
:103C500043F002039383337903F1804303F5043384
:103C60000021972219701A70C0E7082002F002FEA6
:103C7000314607463E4602F025FCC4F8747289E7D7
:103C800000E100E00082FF1F554500006145000093
:103C9000F0B5284EDFF8ACE0A6FB0143A6FB0242DC
:103CA0009E0937027546960914240023B7FBF6F6E1
:103CB00004E00133372B1BD055F8044F2202964203
:103CC000F7DA83BB14241C4A4568B1FBF4F4914233
:103CD0002B70C0F8504207D8184B8269A3FB013102
:103CE000C1F307511170F0BD836904221A70F0BD51
:103CF000002422464FF470274FF470654FF0360CC5
:103D0000B21AF71B002A87EAE776A6EBE776B8BF78
:103D10005242964202DD0A4AD35CD4E7084B2C4655
:103D200013F80C30CFE703F1FF3C5EF82C502F0264
:103D3000E6E700BFD34D6210FF6BDC02819F5E1689
:103D400058B500007CB40000F0B49DF814409DF814
:103D500010609DF818503CB135B1C7683F78BF0678
:103D600002D50020F0BC7047069505940496F0BC7F
:103D7000FFF730BE2DE9F04184B0044694469DF82B
:103D800028609DF82C209DF830009DF834E09DF8C7
:103D90003C700D4600294BD1DFF8E080D8F80010C8
:103DA00041F04001C8F80010002184F849C284F8AD
:103DB0005512BCF1000F2AD163692021197012B984
:103DC00094F84A22D2B210B994F84B02C0B294F8D7
:103DD000981294F8996202960346CDF800E001919A
:103DE00020462946FFF7B0FF0E9A23492046FFF7E9
:103DF0004FFF3A4629462046FFF798FE94F849328D
:103E000063B3A368C0221A7004B0BDE8F081616991
:103E1000CEB14FF0280C81F800C09E42216823D912
:103E20005B00DBB20B707600E369F6B21E70C6E78A
:103E30000129B9D1DFF84480D8F8001041F08001A1
:103E4000C8F80010B0E74FF0200C81F800C02168DE
:103E50005B00DBB20B70E3691E70B0E7A3688022E1
:103E60001A7004B0BDE8F0817600F6B20E705E0004
:103E7000E369F6B21E70A2E7006CDC0234800440F5
:103E800070B5D0F83841D0F834319C4218D9D0F808
:103E90003831D0F83451D0F834615D1B954228BFD9
:103EA0001546044600F130032A460846991901F0E8
:103EB000ADF8D4F834312B44C4F83431284670BD01
:103EC000002070BD2DE9F041C04E33780446013327
:103ED000DBB2C068A768337005783B78DBB203F0CB
:103EE000200282B0EDB23AB313F0100F94F85E32B4
:103EF0007AD0022B00F0D88094F85E32032B00F0C9
:103F0000D38094F85532082B00F0298294F855326A
:103F1000092B00F0648294F85532012B00F0D38114
:103F200080233B70E36802221A703378013BDBB2D6
:103F3000337002B0BDE8F08102F0FF08EA0624D435
:103F400005F0400202F0FF0E1ABB03F0100303F06D
:103F5000FF02002B00F0838015F0010540F0A881DE
:103F6000D4F84022D4F844329A4207D2D4F84032EE
:103F70005A1C2344C4F8402293F83C5123691D7015
:103F8000A368D0221A70E0686EE010230370680600
:103F9000C8D594F855320C2B00F0098105F00405C2
:103FA00005F0FF07002D64D0A3680021D0220B206C
:103FB00084F85502C4F844121A702269D4F86C12BD
:103FC00013785B0884F8563209B188472269D4F81F
:103FD0004432002B00F0748194F83C8182F8008018
:103FE0000123C4F840329DE7022B00F0A68094F82C
:103FF0005E32032B00F0A180D4F83831D4F8582277
:104000000233934200F04F8194F85532012B00F0B7
:104010004581D4F838310133934280F0198194F806
:104020005532012B00F00F81D4F838312269591C28
:10403000C4F838112344127883F83020E368022250
:104040001A7094F85532DBB2012B7FF46EAF94F8FE
:104050005D22002A7FF469AF84F85D3265E794F849
:1040600055320C2B00F09C810223037002B0BDE896
:10407000F081574B574A94F84B0284F85C72002940
:1040800014BF11461946032201F058F9A3680C2108
:10409000C02284F85512C4F838711A7023691B784D
:1040A0005B0884F856323DE7D4F8742213689B8B82
:1040B000190604D594F85E32022B00F0B88094F80B
:1040C0005E32032B00F08E80434B12791968012376
:1040D00093400B423FF429AF4049414B0A70D4F85A
:1040E0007412097919700022072384F85E2284F87B
:1040F0005532D4F89432013304D0D4F894320133D9
:10410000C4F89432EA0611D5042384F85532D4F861
:104110008C32013304D0D4F88C320133C4F88C32A1
:10412000E268102100231170C4F84032A368802295
:104130001A70E36802221A7032E0D4F874321A68F6
:10414000928B120603D594F85E22022A63D094F86B
:104150005E22032A00F0DA801F491A7909680123D8
:1041600093400B423FF4E1AE1C491D4B0A70D4F85A
:10417000742212791A70A36880220020072184F823
:104180005E0284F855121A70E36802221A70D4F89D
:104190009432013304D0D4F894320133C4F8943209
:1041A000D4F87032002B3FF4C0AE9847BDE6D4F887
:1041B0006832002B3FF4F2AE0022C4F83421D4F868
:1041C0003801019198470199E8E600BF0C1F0020D3
:1041D000C5450000D14500002C8000401E800040F5
:1041E0001F80004003781906FCD5C14B12791A7064
:1041F000002384F85E32D4F844322169013BC4F8CC
:104200004032D4F840322344022293F83C310B7000
:10421000E3681A7089E6B7491B790B70A368E82137
:104220001970E368032184F85E121A707DE6B149C3
:1042300012790A70A268F0211170E268032184F8F3
:104240005E12137071E694F85D32002B3FF4ECAE11
:10425000A3680021B02284F85D121A70D4F83831B6
:104260002269591CC4F838112344127883F830208D
:1042700094F85432012B00F0C480E36802221A70D3
:1042800094F85532012B33D0D4F86432002284F8EC
:104290005522002B3FF4D5AE9847D2E694F85D3214
:1042A000002B7FF4B6AEE8233B70D4F85822B0E67A
:1042B000C0233B702369E0681B7884F855E2D3E69D
:1042C00084F83C318AE694F85432012B0CBF8023E9
:1042D000B0233B70E36802221A70D4F880320133B5
:1042E0003FF45EAFD4F880320133C4F8803257E730
:1042F000D4F88032013304D0D4F880320133C4F8CA
:104300008032D4F87032002BC6D19AE6784A1B79F5
:104310001370A3680021B02284F85E121A70D4F8DA
:1043200058322269013BC4F83831D4F83831591C6D
:10433000C4F838112344127883F8302094F85432AA
:10434000012B00F0C180E36802221A70D4F86432B5
:10435000002284F85522002B7FF427AFE5E505F015
:10436000100303F0FF02002B52D00023042110227F
:1043700084F85E3284F855120270A26880211170B0
:10438000E268C4F8403202231370D4F88C3201334F
:104390003FF406AFD4F88C320133C4F88C32FFE618
:1043A000554B564D84F85C22002914BF2946194606
:1043B000032294F84B0200F0C1FF23691B78D4F864
:1043C0003821B2F5817FDBB207D8D4F83821A118A3
:1043D0000132C4F8382181F83030E06844E6EB0659
:1043E0002ED50422102384F855220370A36880225E
:1043F0001A70E36802221A70D4F88C320133C9D1E2
:10440000CEE62023013BFDD1A36880221A7034E759
:1044100015F0010528D084F85E22D4F84032002B34
:1044200059D1022384F85532D4F88432013304D0B0
:10443000D4F884320133C4F8843280233B7078E6A8
:10444000E9072CD50223802284F855323A70E268BD
:104450001370D4F8843201333FF4A2AED4F884321E
:104460000133C4F884329BE6D4F840320133C4F8F7
:104470004032D4F84422934242D394F8543284F820
:104480005552012B0CBF8023B0233B70E3680222FE
:104490001A70D4F86032002B7FF487AE45E594F8AB
:1044A0005E32012B34D0D4F85832012B4FF00A027F
:1044B0000CBFE823E02384F855223B702269E368AF
:1044C000127802221A7030E52023013BFDD1A36847
:1044D00080221A7037E7032384F85532D4F88832E3
:1044E0000133AAD0D4F888320133C4F88832A4E763
:1044F0001C8000401F800040C5450000D1450000E1
:1045000094F85E32012B12D0D4F8403221697AE659
:104510000223E12284F85E323A70D4F874120C4A15
:10452000097911702169E26809781370FDE40223AA
:10453000F12284F85E323A70D4F87412044A097990
:104540001170226994F83D111170E2681370ECE467
:104550001B80004000210148FFF7B4BC1088FF1FFA
:1045600001210148FFF7AEBCAC8AFF1FC3681B786E
:1045700003F020035BB190F85C320133DBB2012B16
:1045800080F85C3217D990F84B0200F053BF70B539
:1045900003F0FF05044680F8555290F84B0200F0F6
:1045A00049FFD4F868325BB1C4F83451D4F838010B
:1045B000BDE87040184790F84932012BE3D17047AD
:1045C00070BD00BF00210148FFF7D0BF1088FF1F5A
:1045D00001210148FFF7CABFAC8AFF1F2DE9F8434C
:1045E000134BDFF85C90DFF85C80124E124D1E60BA
:1045F00000244FF47A774A4641461C711C739F6031
:1046000018465C731D6105F091F90C4B4FF0010EDB
:1046100005F527751C711C7383F80DE04A46414669
:1046200018461D619F601E60BDE8F84305F07EB925
:10463000F81E002060B400001088FF1FE41E002058
:10464000FC87FF1F5139000030B40C4B416182B030
:104650001B680193019D816100230A2401220161ED
:104660008560C4600277C37743600360837780F816
:104670002030437702B030BC704700BF101F0020CD
:1046800010B500210446FFF7DFFF204610BD00BF34
:1046900070B4104C83B0246801940446019E0069F4
:1046A0009DF81850E377A1616260A66060610AB965
:1046B00021610846022D96BF00230123236084F860
:1046C00020304FF0000388BF2260A577637703B0E6
:1046D00070BC7047101F002010B582B000240094F9
:1046E000FFF7D6FF02B010BD08B50123FFF7F4FFB6
:1046F00008BD00BF90F820303BB1012B03BF00681C
:10470000B0FA80F040090020704703684068181A2A
:10471000B0FA80F04009704710B50446FFF7EAFF91
:1047200018B9607F80F0010010BD002010BD00BFEF
:10473000C1607047F8B50D46014605F0E3FD4FF046
:104740007E51044606F084F808BB284605F036FA88
:1047500006460F464FF08040214605F0D1FD05F09A
:104760004FFA32463B4602F0D7FF02460B46104650
:1047700023F0004100220F4B05F096FA02460B464B
:1047800000200D4905F0DCF805F066FDF8BD28466F
:1047900005F014FA06460F46204605F031FA324677
:1047A0003B4602F0B9FF0022024B05F07DFA05F00E
:1047B00053FDF8BD0000E03F0000F03F38B50D4666
:1047C0000021044606F03AF870B94FF07E512046B9
:1047D00006F034F828B929462046BDE8384000F0F4
:1047E00005B84FF07E5038BD204638BD0239F8B5C7
:1047F00004461D2900F23183DFE811F08D028102A9
:104800007C027302690264025B0251024C024302A1
:10481000390234022C0222021002FD01AD01830193
:10482000E801FD003B0110016201BC0083006A0049
:1048300093005C0039001E004FF07C5106F008F830
:104840002146002840F07082204605F05BFD4FF0C5
:104850007E5105F055FD1E21FFF7B0FF4FF07C5152
:1048600005F058FE4FF07C5105F04CFDF8BDC449F1
:1048700005F0EEFF002840F06282C249204605F0B4
:10488000E7FF002840F0CA82BF49204605F0E0FF5C
:10489000002800F0D3822046BC4905F031FDBC4918
:1048A000044605F037FE214605F034FEB94905F00F
:1048B00029FDF8BD01464FF07E5005F021FD1E2177
:1048C000FFF77CFF01464FF07E5005F019FDF8BD63
:1048D0004FF07E5105F014FDAF49054605F01AFE74
:1048E000AE4905F00FFD29460446284605F012FEA4
:1048F0000146204605F00EFE4FF07E5105F002FD08
:10490000F8BDA54905F006FEA44905F0F9FC2146CD
:104910000546204605F0FEFD0146284605F0FAFD55
:10492000F8BD014605F0EEFC4FF07E51044605F05F
:104930008FFF002840F0378220464FF0804105F07D
:10494000DFFC4FF07C51044605F0E4FD214605F004
:10495000E1FD93490546204605F0DCFD914905F04F
:10496000D1FC0146284605F0D5FD4FF07E5105F0FB
:10497000C9FCF8BD014605F0C5FC4FF07E5105F0BD
:10498000BFFC4FF07E51044605F0BCFC4FF07E5159
:1049900005F05EFF002840F0DA818349204605F0EB
:1049A000B9FD05F02DF902460B4600204FF080417D
:1049B00002F0B2FE06460F4620467C4905F0A0FCF8
:1049C0007B4905F0A7FD7B4905F058FE05F018F975
:1049D00002F05EFE02460B463046394605F064F9A9
:1049E000754B002205F060F90022744B04F0AAFF19
:1049F00005F032FCF8BD4FF07E5105F081FC014618
:104A000005F088FD01464FF07E5005F079FC05F079
:104A1000F7F802F0F9FF05F01FFCF8BD4FF07E51EA
:104A200005F06EFC6649064605F074FD05F0E8F8F1
:104A300002460B4600204FF0804102F06DFE054615
:104A40000C463046594905F05BFC594905F062FDBA
:104A5000584905F013FE05F0D3F802F019FE02469E
:104A60000B46284604F1004105F01EF905F0F4FB61
:104A7000F8BD014605F046FC4FF07E51044605F0B6
:104A8000E7FE002840F0A48120464FF0804105F069
:104A900037FC014605F03EFD01464FF07E5005F023
:104AA0002FFC05F0ADF802F0AFFF0022434B04F0FD
:104AB00049FF0022404B05F0F7F805F0CDFBF8BDAB
:104AC000394905F027FD05F09BF802460B4600200A
:104AD0004FF0804102F020FE06460F46204639493D
:104AE00005F00EFC324905F015FD374905F0C6FD0D
:104AF00005F086F802F0CCFD02460B4630463946FA
:104B000070E7014605F0FEFB4FF07E51044605F0CC
:104B10009FFE002840F06A8120464FF07E5105F04C
:104B2000EFFB214905F0F6FC05F06AF802460B465A
:104B300000204FF0804102F0EFFD02460B460020BE
:104B40004FF0804104F0FCFE00221B4B05F0ACF856
:104B500005F082FBF8BD144905F0DCFC05F050F8C7
:104B600002460B4600204FF0804102F0D5FD024680
:104B70000B460020114904F0E3FE05F06DFBF8BD83
:104B80008C2EBA3E8C2E3A3F2FBA683F5D74513F4F
:104B90000000F2400000703FB0E62C4060CDD93FED
:104BA000FF126640FF122640000020C16766E63D06
:104BB000DB0FC9406766E63E0000E03F0000F03FC3
:104BC000000020419A99993D9A99993E014605F035
:104BD000A1FC01464FF07E5005F092FB05F010F865
:104BE00002F012FF00229D4B04F0AAFE05F034FBF8
:104BF00000F10040F8BD4FF07E5105F081FB98496F
:104C000005F088FC04F0FCFF02460B4600204FF044
:104C1000804102F081FD05F01FFBF8BD914905F0D0
:104C200079FC04F0EDFF02F061FC00228B4B04F0F4
:104C300087FE00228C4B05F037F805F00DFBF8BD20
:104C40008A4905F067FC04F0DBFF02F021FD05F066
:104C500003FBF8BD854905F05DFC04F0D1FF02F0CF
:104C600045FC84E70521BDE8F840FFF763BD014638
:104C70004FF07E5005F044FB04F0C2FF00227C4B55
:104C800073E704F0BDFF0022794B02F045FD05F00B
:104C9000E3FAF8BD0421BDE8F840FFF74BBD01463B
:104CA0004FF07E5005F02CFB04F0AAFF0022714B60
:104CB0005BE704F0A5FF00226E4B02F02DFD05F02E
:104CC000CBFAF8BD0321BDE8F840FFF733BD01463C
:104CD0004FF07E5005F014FB04F092FF0022664B6B
:104CE00043E704F08DFF0022634B02F015FD05F051
:104CF000B3FAF8BD0221BDE8F840FFF71BBD01463D
:104D00004FF07E5005F0FCFA04F07AFF02460B46A5
:104D100004F0CAFF2BE704F073FF02460B4604F0D1
:104D2000C3FF05F099FAF8BD204605F0EBFA1D2106
:104D3000FFF744FD4FF07C5105F0ECFBF8BD4F4907
:104D4000204605F0E7FB214605F0E4FBF8BD4449A9
:104D5000204605F0DFFB04F053FF02460B4600201F
:104D60004FF0804102F0D8FC06460F4620464449E9
:104D700005F0C6FA434905F0CDFB434905F07EFC3A
:104D800004F03EFF02F084FC002204460D46364B40
:104D90003046394604F088FF22462B4604F084FF53
:104DA00005F05AFAF8BD4FF07C51204605F0B2FBF1
:104DB000214605F0AFFB35490546204605F0AAFB24
:104DC000334905F09DFA0146284605F0A3FBF8BDDE
:104DD0002146204605F09EFB01464FF07E5005F02F
:104DE0008FFA04F00DFF02F00FFE1EE720464FF091
:104DF0007E5105F085FA1A4905F08CFB04F000FF9E
:104E000002460B4600204FF0804102F085FC002254
:104E1000204B04F049FF05F01FFAF8BD20461E495B
:104E200005F06EFA1549044605F074FB214605F0BD
:104E300071FB4FF07D5105F065FAF8BD204617492A
:104E400005F05EFA0D49044605F064FB214605F0C5
:104E500061FB134905F056FAF8BDF8BD0000F03FBC
:104E600000002041DB0F49400000E0BFDB0FC93FDD
:104E70000000144000001040000008400000F24014
:104E80006766E63DDB0FC9406766E63EFF12664097
:104E9000FF1226400000E03FE9A20B3F175D743F80
:104EA00000007C3F2DE9F047037FC26882B00446D2
:104EB0006BB1554BC57F1B680193019B1DB1816888
:104EC000591A8A425ED9206902B0BDE8F087C57FD1
:104ED000002DF8D0617FA36000293CD194F82030E8
:104EE0002068002B5FD0012B08D1861A60EB0007E9
:104EF000012E77F1000379DB801A206005F0B2FA09
:104F00000646606805F0AEFA0146304605F0B6FB8D
:104F1000002106466769D4F8188005F08FFC40B977
:104F20004FF07E51304605F089FC002865D04FF0E7
:104F30007E56C7EB080005F099FA314605F0EAFA0B
:104F40000546384605F092FA0146284605F0DAF99A
:104F500005F0A6FC20612046FFF7CCFB0028B2D06C
:104F6000A37F013B042BAED801A252F823F000BF6F
:104F7000894F0000954F0000C74E00008F4F000082
:104F8000954F00000A46A5E7002323609BE763686E
:104F9000236098E794F8203023B3012B93D10023AA
:104FA00084F820308FE7D4F804A016184FF00007DB
:104FB00047F100074FF00009564577EB090309DA7E
:104FC0001044206005F04EFA0646504605F04AFAB5
:104FD00001469AE7C4F800A0504605F043FA064699
:104FE000014692E7012384F820306CE72160606875
:104FF00005F038FA0026014687E730462946FFF7D4
:10500000F5FB064695E700BF101F002001B441EAFA
:10501000000313F003036FD1403A41D351F8043B2E
:1050200040F8043B51F8043B40F8043B51F8043B82
:1050300040F8043B51F8043B40F8043B51F8043B72
:1050400040F8043B51F8043B40F8043B51F8043B62
:1050500040F8043B51F8043B40F8043B51F8043B52
:1050600040F8043B51F8043B40F8043B51F8043B42
:1050700040F8043B51F8043B40F8043B51F8043B32
:1050800040F8043B51F8043B40F8043B51F8043B22
:1050900040F8043B51F8043B40F8043B403ABDD291
:1050A000303211D351F8043B40F8043B51F8043B33
:1050B00040F8043B51F8043B40F8043B51F8043BF2
:1050C00040F8043B103AEDD20C3205D351F8043BC2
:1050D00040F8043B043AF9D204320AD0D2071CBF8C
:1050E00011F8013B00F8013B03D30B7803704B78B8
:1050F000437001BC704700BF0C2A4AD310F0030371
:1051000011D0C3F10403D21ADB071CBF11F8013B15
:1051100000F8013B07D311F8013B00F8013B11F8FF
:10512000013B00F8013B11F003033FF475AF30B4CD
:10513000043AC91AC3F1040C51F8044B022B19D0DC
:10514000032B0BD0240A51F8043B1D0644EA050446
:1051500040F8044B1C46043AF4D216E0240E51F8F1
:10516000043B1D0244EA050440F8044B1C46043A83
:10517000F4D20AE0240C51F8043B1D0444EA05046F
:1051800040F8044B1C46043AF4D20432B1EB0C0153
:1051900030BC043AA0D3013A11F8013B00F8013BBE
:1051A000F9D20B7803704B7843708B78837001BC15
:1051B000704700BF08B5104C08E0236859050DD4AE
:1051C00023681A050FD42368DB0411D4236858031D
:1051D000F3D500F02DFB23685905F1D502F030F826
:1051E00023681A05EFD500F009F82368DB04EDD534
:1051F00000F004F8EAE700BF3480044008B5FFF788
:10520000D9FF00BF014B10221A80704700200540D3
:10521000704700BF094908B50B6830B16A461844A9
:10522000A2F58052904202D20860184608BD05F0EF
:1052300083FB0C2303604FF0FF3008BD488DFF1F38
:10524000EFF3138070B9EFF310836BB9EFF30582BE
:105250005AB94FF48070EFF311832BB1984228BFF5
:10526000184670474FF0FF3070470F2A01D8184694
:10527000F1E7014BD05CEEE7F0E300E0704700BFE0
:1052800010B40F4B53F8302092F880422CB1012318
:1052900069B182F8803010BC704703EBC0035B68D3
:1052A0001A6841B922F002021A6010BC704782F8F5
:1052B000003110BC704742F003021A6010BC704706
:1052C00090B500001C4A02EBC00301295B6811D0B5
:1052D00004291BD052F83000002280F8802229B126
:1052E000022920D0032922D01A6070474FF480721F
:1052F0001A60704752F830004FF4A27280F88012A2
:105300001A601A6822F020021A60704752F83010B2
:105310004FF4A272012081F880021A601A6842F0EC
:1053200020021A60704740F203121A6070474FF46F
:1053300081721A60704700BF90B50000212848D8DC
:10534000F8B5042A44D8DFE802F0484B4E03450084
:105350004FF410262B4B03EBC0030D465C6821680D
:1053600011F4E06148D0284B284A2949C3F89C2110
:1053700004F140422748C3F8A411A2F59221264F18
:10538000C3F8A0017C292548C3F8A871C3F8AC0173
:105390002CD9A2F594237C2B2AD9A2F596237C2B19
:1053A00028D9A2F598237C2B29D9A2F59A227C2A08
:1053B00027D81B4872B6236823F4702343F0807209
:1053C000C4F384011643236040F82150266062B67E
:1053D000F8BD70474FF43026BCE74FF40026B9E71C
:1053E0004FF44026B6E74FF42026B3E70D48E1E737
:1053F0000D48DFE70D48DDE7FFF764FFB3E70C4832
:10540000D8E7F8BD90B500000082FF1FD187FF1FCD
:105410007987FF1FA587FF1F4D87FF1F2187FF1F6C
:10542000248EFF1F4C8DFF1F848DFF1FD48DFF1F07
:10543000048EFF1F1A4B03EBC00010B4426802F148
:105440004043A3F592217C2923D9A3F594217C29FB
:105450000DD9A3F596217C291FD9A3F598217C2984
:1054600019D9A3F59A237C2B11D80E4C00E00E4CD1
:1054700072B613680D4823F08773C2F3840123F4D6
:10548000803343F08073136044F8210062B610BC8F
:105490007047074CECE7074CEAE7074CE8E700BF2A
:1054A00090B50000248EFF1F848DFF1F7D520000E9
:1054B0004C8DFF1F048EFF1FD48DFF1F30B4054B92
:1054C000054D064C002210211A602A6020601960E8
:1054D00030BC704714D0034004D0034000D00340D8
:1054E000704700BF212801D8FFF7CABE704700BF30
:1054F000212801D8FFF7E6BE704700BF72B60C49FD
:105500000C4B0D4A1B680868126862B6520102D53E
:10551000322B88BF01300949C3F5BB334FF47A728F
:10552000FF33A1FB031302FB00F000EB9310704765
:10553000101F002018E000E004ED00E0ABAAAAAACA
:105540002DE9F843054672B6204F214B214A1B68CE
:105550003C68126862B6520102D5322B88BF013412
:1055600095B3C3F5BB331C4EDFF86490DFF864805D
:10557000FF334FF47A72A6FB031302FB04F404EB2F
:10558000931472B6D9F800103A68D8F800E062B601
:10559000C1F5BB33FF33A6FB03031EF0806FC4EBE2
:1055A00093134FF47A7002D0322988BF013200FB86
:1055B0000233B3F57A7F04D3013D05D004F57A7444
:1055C000DFE701F073F9DCE7BDE8F883101F002086
:1055D00018E000E004ED00E0ABAAAAAAF8B52E4B53
:1055E0002E49DFF8D4E0DFF8D4C02D4E2D4D2E4CDF
:1055F0002E4A2F4F4FF4000018604FF08070186053
:105600004FF0007018604FF0806018604FF000603D
:1056100018600020086028234BF6FF71CCF80010BA
:10562000CEF80030336013602B6023603B60B362C0
:105630009362092245F8242CC4F8D80F05F57F653C
:10564000C7F8D41F07F5FF2707F5FA67C6F8F83F34
:105650002B6006F5FF26C4F8D42F05F5FD2504F5CB
:10566000FF24386006F2F4761248316005F5FF65D4
:1056700004F5FD642B602360026001F08DF9FFF7F3
:105680002FFF1420FFF75CFF00F00CFD4FF48C702F
:10569000BDE8F840FFF754BF08E100E00480034094
:1056A00014800340248003402C8003401C8003406E
:1056B0003480034000800B400C800340088003408E
:1056C000431E032B14D872B60A4951F8230068B15F
:1056D00070B4094C058834F81320466841F82360FB
:1056E000521B24F8132062B670BC704762B6704734
:1056F000002070476C1F0020102100200138032873
:105700000BD872B6074B53F8203043B100205B68CA
:105710000130002BFBD162B670470020704718465D
:10572000F9E700BFC01F0020F0B472B61A491B4E43
:10573000012311F8014B194F9A00240742F001058B
:1057400005D556F8324064B156F83520BAB1013368
:10575000052BEED162B6124B00221A70F0BC00F09D
:105760001BBD0F4C0F4D217807EB43130830013957
:105770005860217047F8325062B6F0BC7047084A52
:105780000949137807EBC5040830013B60601370CA
:1057900047F8351062B6F0E734B700000080FF1F0D
:1057A000E91F002088004000C8004000431E032B72
:1057B0001DD81B4A400140F0100030B4104472B6AE
:1057C000184CE25C032A1BD8DFE802F0021215171E
:1057D00003220D88E25410F0080F14BFC823882359
:1057E00043EA054308314160036062B630BC70474C
:1057F00008300222EDE70522EBE708300422E8E753
:10580000094A52F8230038B1084A52F8230041608F
:1058100042F8231062B6E9E742F82310034AF7E79B
:105820000080FF1FF81F0020C01F0020D01F002095
:105830002DE9F04FDFF814B3DFF814A387B044E08C
:10584000AD4F4FEA930807EBC809013ED9F8042091
:1058500003F00803F6B2A2F1080003F0FF04002BE6
:1058600040F0038157F838301B0C99B222F8081C1D
:10587000002B00F0F180A14B22F8064C42F8044CBA
:1058800053F82620002A00F06C819D4D55F82630F3
:1058900058609C4C45F8260034F81630194424F81A
:1058A000161000F059FC002800F05481964A974BDE
:1058B00019F0080F00F1080018BF1346C9F80400DA
:1058C00047F8383008238BF800309BF80040E4B2EA
:1058D00060071BD58E4B1B78ABB18E490A7802F05E
:1058E000FF032AB1013BDBB20B70002B00F0B58344
:1058F00089490A7802F0FF032AB1013BDBB20B7041
:10590000002B00F0F68004238BF8003004F008032D
:1059100003F0FF02002B00F0D5809AF80030DBB2D4
:105920001E098DD19C08744F57F8342007EBC40131
:10593000C2F38302013A49680C2A7ED8DFE802F0FC
:1059400081817D7D7D7D7D7D427D7D7D0700086837
:10595000724B734D01936C4B4A68724E47F834306A
:1059600081B240F281646D4B6A60286000220120A0
:10597000A1423A611A60BA61307000F2F680B1F566
:10598000D06F80F0E882B1F5817F00F0D38200F221
:10599000D881802900F04D81822940F09282A98827
:1059A000614B01F07F01042900F28C825F4C890079
:1059B0000B44227062701A78930740F1388320708C
:1059C00002203AE1554B01931A6862B3584B59498A
:1059D000544E18880C7896F800E04028054684F06C
:1059E000010C28BF402544F00204BEF1000F81F8ED
:1059F00000C0A0EB050007EBC40C0CBF8821C82138
:105A000080B28EF0010E41EA0541CCF804201880E6
:105A100086F800E02A4447F8341010B9402D18BF2A
:105A20000022019B1A603E4B1A88B2F5A06F04D188
:105A300000219A785970404B1A70404A0123137024
:105A400040E7374A158842F22100854200F0528132
:105A50002D4A47F83420F0E72B4A2C4B19F0080F59
:105A600018BF134647F838302CE700F095FB344A4E
:105A7000344952F82630002B00F02D8158688C5D97
:105A800042F8260003F10802C9F80420032C05D8C7
:105A9000DFE804F0120F150204228A551A8819F063
:105AA000080F0CBF8823C82343EA024347F8383065
:105AB00008E702228A55F1E703228A55EEE705221C
:105AC0008A55EBE7E00700F17881210600F1A28119
:105AD000A20706D51C4A1D4913780220DBB21370B9
